{
	"contracts/ejercicio7.sol": {
		"exercise6": {
			"abi": [
				{
					"inputs": [],
					"stateMutability": "nonpayable",
					"type": "constructor"
				},
				{
					"anonymous": false,
					"inputs": [
						{
							"indexed": false,
							"internalType": "uint256",
							"name": "length",
							"type": "uint256"
						},
						{
							"indexed": false,
							"internalType": "string",
							"name": "newInfo",
							"type": "string"
						},
						{
							"indexed": false,
							"internalType": "address",
							"name": "account",
							"type": "address"
						}
					],
					"name": "infoChanged",
					"type": "event"
				},
				{
					"inputs": [
						{
							"internalType": "string",
							"name": "myInfo",
							"type": "string"
						}
					],
					"name": "addInfo",
					"outputs": [
						{
							"internalType": "uint256",
							"name": "index",
							"type": "uint256"
						}
					],
					"stateMutability": "nonpayable",
					"type": "function"
				},
				{
					"inputs": [
						{
							"internalType": "address",
							"name": "account",
							"type": "address"
						}
					],
					"name": "addToWhitelist",
					"outputs": [],
					"stateMutability": "nonpayable",
					"type": "function"
				},
				{
					"inputs": [],
					"name": "countChanges",
					"outputs": [
						{
							"internalType": "uint256",
							"name": "",
							"type": "uint256"
						}
					],
					"stateMutability": "view",
					"type": "function"
				},
				{
					"inputs": [
						{
							"internalType": "address",
							"name": "account",
							"type": "address"
						}
					],
					"name": "delFromWhitelist",
					"outputs": [],
					"stateMutability": "nonpayable",
					"type": "function"
				},
				{
					"inputs": [],
					"name": "getInfo",
					"outputs": [
						{
							"internalType": "string[]",
							"name": "",
							"type": "string[]"
						}
					],
					"stateMutability": "view",
					"type": "function"
				},
				{
					"inputs": [
						{
							"internalType": "uint256",
							"name": "position",
							"type": "uint256"
						}
					],
					"name": "getOneInfo",
					"outputs": [
						{
							"internalType": "string",
							"name": "",
							"type": "string"
						}
					],
					"stateMutability": "view",
					"type": "function"
				},
				{
					"inputs": [
						{
							"internalType": "uint256",
							"name": "position",
							"type": "uint256"
						},
						{
							"internalType": "string",
							"name": "newInfo",
							"type": "string"
						}
					],
					"name": "updateInfo",
					"outputs": [],
					"stateMutability": "nonpayable",
					"type": "function"
				}
			],
			"devdoc": {
				"kind": "dev",
				"methods": {},
				"version": 1
			},
			"evm": {
				"assembly": "    /* \"contracts/ejercicio7.sol\":74:1794  contract exercise6 {... */\n  mstore(0x40, 0x80)\n    /* \"contracts/ejercicio7.sol\":162:163  0 */\n  0x00\n    /* \"contracts/ejercicio7.sol\":135:163  uint public countChanges = 0 */\n  0x01\n  sstore\n    /* \"contracts/ejercicio7.sol\":198:248  constructor(){... */\n  callvalue\n  dup1\n  iszero\n  tag_1\n  jumpi\n  revert(0x00, 0x00)\ntag_1:\n  pop\n    /* \"contracts/ejercicio7.sol\":230:240  msg.sender */\n  caller\n    /* \"contracts/ejercicio7.sol\":222:227  owner */\n  0x02\n  0x00\n    /* \"contracts/ejercicio7.sol\":222:240  owner = msg.sender */\n  0x0100\n  exp\n  dup2\n  sload\n  dup2\n  0xffffffffffffffffffffffffffffffffffffffff\n  mul\n  not\n  and\n  swap1\n  dup4\n  0xffffffffffffffffffffffffffffffffffffffff\n  and\n  mul\n  or\n  swap1\n  sstore\n  pop\n    /* \"contracts/ejercicio7.sol\":74:1794  contract exercise6 {... */\n  dataSize(sub_0)\n  dup1\n  dataOffset(sub_0)\n  0x00\n  codecopy\n  0x00\n  return\nstop\n\nsub_0: assembly {\n        /* \"contracts/ejercicio7.sol\":74:1794  contract exercise6 {... */\n      mstore(0x40, 0x80)\n      callvalue\n      dup1\n      iszero\n      tag_1\n      jumpi\n      revert(0x00, 0x00)\n    tag_1:\n      pop\n      jumpi(tag_2, lt(calldatasize, 0x04))\n      shr(0xe0, calldataload(0x00))\n      dup1\n      0x5a9b0b89\n      gt\n      tag_10\n      jumpi\n      dup1\n      0x5a9b0b89\n      eq\n      tag_6\n      jumpi\n      dup1\n      0x94b1a5bc\n      eq\n      tag_7\n      jumpi\n      dup1\n      0xe43252d7\n      eq\n      tag_8\n      jumpi\n      dup1\n      0xfae26d33\n      eq\n      tag_9\n      jumpi\n      jump(tag_2)\n    tag_10:\n      dup1\n      0x0bf803e4\n      eq\n      tag_3\n      jumpi\n      dup1\n      0x2af2bc27\n      eq\n      tag_4\n      jumpi\n      dup1\n      0x50c00197\n      eq\n      tag_5\n      jumpi\n    tag_2:\n      revert(0x00, 0x00)\n        /* \"contracts/ejercicio7.sol\":887:1191  function addInfo(string memory myInfo) onlyWhitelist external returns(uint256 index) {... */\n    tag_3:\n      tag_11\n      0x04\n      dup1\n      calldatasize\n      sub\n      dup2\n      add\n      swap1\n      tag_12\n      swap2\n      swap1\n      tag_13\n      jump\t// in\n    tag_12:\n      tag_14\n      jump\t// in\n    tag_11:\n      mload(0x40)\n      tag_15\n      swap2\n      swap1\n      tag_16\n      jump\t// in\n    tag_15:\n      mload(0x40)\n      dup1\n      swap2\n      sub\n      swap1\n      return\n        /* \"contracts/ejercicio7.sol\":135:163  uint public countChanges = 0 */\n    tag_4:\n      tag_17\n      tag_18\n      jump\t// in\n    tag_17:\n      mload(0x40)\n      tag_19\n      swap2\n      swap1\n      tag_16\n      jump\t// in\n    tag_19:\n      mload(0x40)\n      dup1\n      swap2\n      sub\n      swap1\n      return\n        /* \"contracts/ejercicio7.sol\":1199:1476  function updateInfo(uint256 position, string memory newInfo) onlyWhitelist external {... */\n    tag_5:\n      tag_20\n      0x04\n      dup1\n      calldatasize\n      sub\n      dup2\n      add\n      swap1\n      tag_21\n      swap2\n      swap1\n      tag_22\n      jump\t// in\n    tag_21:\n      tag_23\n      jump\t// in\n    tag_20:\n      stop\n        /* \"contracts/ejercicio7.sol\":1696:1791  function getInfo() external view returns(string[] memory) {... */\n    tag_6:\n      tag_24\n      tag_25\n      jump\t// in\n    tag_24:\n      mload(0x40)\n      tag_26\n      swap2\n      swap1\n      tag_27\n      jump\t// in\n    tag_26:\n      mload(0x40)\n      dup1\n      swap2\n      sub\n      swap1\n      return\n        /* \"contracts/ejercicio7.sol\":1484:1688  function getOneInfo(uint256 position) external view returns(string memory){... */\n    tag_7:\n      tag_28\n      0x04\n      dup1\n      calldatasize\n      sub\n      dup2\n      add\n      swap1\n      tag_29\n      swap2\n      swap1\n      tag_30\n      jump\t// in\n    tag_29:\n      tag_31\n      jump\t// in\n    tag_28:\n      mload(0x40)\n      tag_32\n      swap2\n      swap1\n      tag_33\n      jump\t// in\n    tag_32:\n      mload(0x40)\n      dup1\n      swap2\n      sub\n      swap1\n      return\n        /* \"contracts/ejercicio7.sol\":664:768  function addToWhitelist(address account) onlyOwner external {... */\n    tag_8:\n      tag_34\n      0x04\n      dup1\n      calldatasize\n      sub\n      dup2\n      add\n      swap1\n      tag_35\n      swap2\n      swap1\n      tag_36\n      jump\t// in\n    tag_35:\n      tag_37\n      jump\t// in\n    tag_34:\n      stop\n        /* \"contracts/ejercicio7.sol\":774:881  function delFromWhitelist(address account) onlyOwner external {... */\n    tag_9:\n      tag_38\n      0x04\n      dup1\n      calldatasize\n      sub\n      dup2\n      add\n      swap1\n      tag_39\n      swap2\n      swap1\n      tag_36\n      jump\t// in\n    tag_39:\n      tag_40\n      jump\t// in\n    tag_38:\n      stop\n        /* \"contracts/ejercicio7.sol\":887:1191  function addInfo(string memory myInfo) onlyWhitelist external returns(uint256 index) {... */\n    tag_14:\n        /* \"contracts/ejercicio7.sol\":957:970  uint256 index */\n      0x00\n        /* \"contracts/ejercicio7.sol\":579:583  true */\n      0x01\n        /* \"contracts/ejercicio7.sol\":554:583  whitelist[msg.sender] == true */\n      iszero\n      iszero\n        /* \"contracts/ejercicio7.sol\":554:563  whitelist */\n      0x03\n        /* \"contracts/ejercicio7.sol\":554:575  whitelist[msg.sender] */\n      0x00\n        /* \"contracts/ejercicio7.sol\":564:574  msg.sender */\n      caller\n        /* \"contracts/ejercicio7.sol\":554:575  whitelist[msg.sender] */\n      0xffffffffffffffffffffffffffffffffffffffff\n      and\n      0xffffffffffffffffffffffffffffffffffffffff\n      and\n      dup2\n      mstore\n      0x20\n      add\n      swap1\n      dup2\n      mstore\n      0x20\n      add\n      0x00\n      keccak256\n      0x00\n      swap1\n      sload\n      swap1\n      0x0100\n      exp\n      swap1\n      div\n      0xff\n      and\n        /* \"contracts/ejercicio7.sol\":554:583  whitelist[msg.sender] == true */\n      iszero\n      iszero\n      eq\n        /* \"contracts/ejercicio7.sol\":546:636  require(whitelist[msg.sender] == true,\"Only whitelisted accounts can perform this action\") */\n      tag_42\n      jumpi\n      mload(0x40)\n      0x08c379a000000000000000000000000000000000000000000000000000000000\n      dup2\n      mstore\n      0x04\n      add\n      tag_43\n      swap1\n      tag_44\n      jump\t// in\n    tag_43:\n      mload(0x40)\n      dup1\n      swap2\n      sub\n      swap1\n      revert\n    tag_42:\n        /* \"contracts/ejercicio7.sol\":993:1007  uint256 length */\n      0x00\n        /* \"contracts/ejercicio7.sol\":1010:1021  storedInfos */\n      0x00\n        /* \"contracts/ejercicio7.sol\":1010:1028  storedInfos.length */\n      dup1\n      sload\n      swap1\n      pop\n        /* \"contracts/ejercicio7.sol\":993:1028  uint256 length = storedInfos.length */\n      swap1\n      pop\n        /* \"contracts/ejercicio7.sol\":1044:1083  infoChanged(length, myInfo, msg.sender) */\n      0x08b992eed17b037bc0eb3b239f559bc789f9d0c50710c107fb1ef0b40edea46d\n        /* \"contracts/ejercicio7.sol\":1056:1062  length */\n      dup2\n        /* \"contracts/ejercicio7.sol\":1064:1070  myInfo */\n      dup5\n        /* \"contracts/ejercicio7.sol\":1072:1082  msg.sender */\n      caller\n        /* \"contracts/ejercicio7.sol\":1044:1083  infoChanged(length, myInfo, msg.sender) */\n      mload(0x40)\n      tag_46\n      swap4\n      swap3\n      swap2\n      swap1\n      tag_47\n      jump\t// in\n    tag_46:\n      mload(0x40)\n      dup1\n      swap2\n      sub\n      swap1\n      log1\n        /* \"contracts/ejercicio7.sol\":1094:1105  storedInfos */\n      0x00\n        /* \"contracts/ejercicio7.sol\":1111:1117  myInfo */\n      dup4\n        /* \"contracts/ejercicio7.sol\":1094:1118  storedInfos.push(myInfo) */\n      swap1\n      dup1\n      0x01\n      dup2\n      sload\n      add\n      dup1\n      dup3\n      sstore\n      dup1\n      swap2\n      pop\n      pop\n      0x01\n      swap1\n      sub\n      swap1\n      0x00\n      mstore\n      keccak256(0x00, 0x20)\n      add\n      0x00\n      swap1\n      swap2\n      swap1\n      swap2\n      swap1\n      swap2\n      pop\n      swap1\n      dup2\n      tag_49\n      swap2\n      swap1\n      tag_50\n      jump\t// in\n    tag_49:\n      pop\n        /* \"contracts/ejercicio7.sol\":1157:1158  1 */\n      0x01\n        /* \"contracts/ejercicio7.sol\":1137:1148  storedInfos */\n      0x00\n        /* \"contracts/ejercicio7.sol\":1137:1155  storedInfos.length */\n      dup1\n      sload\n      swap1\n      pop\n        /* \"contracts/ejercicio7.sol\":1137:1158  storedInfos.length -1 */\n      tag_51\n      swap2\n      swap1\n      tag_52\n      jump\t// in\n    tag_51:\n        /* \"contracts/ejercicio7.sol\":1129:1158  index = storedInfos.length -1 */\n      swap2\n      pop\n        /* \"contracts/ejercicio7.sol\":1169:1181  countChanges */\n      0x01\n      0x00\n        /* \"contracts/ejercicio7.sol\":1169:1183  countChanges++ */\n      dup2\n      sload\n      dup1\n      swap3\n      swap2\n      swap1\n      tag_53\n      swap1\n      tag_54\n      jump\t// in\n    tag_53:\n      swap2\n      swap1\n      pop\n      sstore\n      pop\n        /* \"contracts/ejercicio7.sol\":972:1191  {... */\n      pop\n        /* \"contracts/ejercicio7.sol\":887:1191  function addInfo(string memory myInfo) onlyWhitelist external returns(uint256 index) {... */\n      swap2\n      swap1\n      pop\n      jump\t// out\n        /* \"contracts/ejercicio7.sol\":135:163  uint public countChanges = 0 */\n    tag_18:\n      sload(0x01)\n      dup2\n      jump\t// out\n        /* \"contracts/ejercicio7.sol\":1199:1476  function updateInfo(uint256 position, string memory newInfo) onlyWhitelist external {... */\n    tag_23:\n        /* \"contracts/ejercicio7.sol\":579:583  true */\n      0x01\n        /* \"contracts/ejercicio7.sol\":554:583  whitelist[msg.sender] == true */\n      iszero\n      iszero\n        /* \"contracts/ejercicio7.sol\":554:563  whitelist */\n      0x03\n        /* \"contracts/ejercicio7.sol\":554:575  whitelist[msg.sender] */\n      0x00\n        /* \"contracts/ejercicio7.sol\":564:574  msg.sender */\n      caller\n        /* \"contracts/ejercicio7.sol\":554:575  whitelist[msg.sender] */\n      0xffffffffffffffffffffffffffffffffffffffff\n      and\n      0xffffffffffffffffffffffffffffffffffffffff\n      and\n      dup2\n      mstore\n      0x20\n      add\n      swap1\n      dup2\n      mstore\n      0x20\n      add\n      0x00\n      keccak256\n      0x00\n      swap1\n      sload\n      swap1\n      0x0100\n      exp\n      swap1\n      div\n      0xff\n      and\n        /* \"contracts/ejercicio7.sol\":554:583  whitelist[msg.sender] == true */\n      iszero\n      iszero\n      eq\n        /* \"contracts/ejercicio7.sol\":546:636  require(whitelist[msg.sender] == true,\"Only whitelisted accounts can perform this action\") */\n      tag_56\n      jumpi\n      mload(0x40)\n      0x08c379a000000000000000000000000000000000000000000000000000000000\n      dup2\n      mstore\n      0x04\n      add\n      tag_57\n      swap1\n      tag_44\n      jump\t// in\n    tag_57:\n      mload(0x40)\n      dup1\n      swap2\n      sub\n      swap1\n      revert\n    tag_56:\n        /* \"contracts/ejercicio7.sol\":1313:1324  storedInfos */\n      0x00\n        /* \"contracts/ejercicio7.sol\":1313:1331  storedInfos.length */\n      dup1\n      sload\n      swap1\n      pop\n        /* \"contracts/ejercicio7.sol\":1302:1310  position */\n      dup3\n        /* \"contracts/ejercicio7.sol\":1302:1331  position < storedInfos.length */\n      lt\n        /* \"contracts/ejercicio7.sol\":1294:1366  require(position < storedInfos.length, \"No such position in the array.\") */\n      tag_59\n      jumpi\n      mload(0x40)\n      0x08c379a000000000000000000000000000000000000000000000000000000000\n      dup2\n      mstore\n      0x04\n      add\n      tag_60\n      swap1\n      tag_61\n      jump\t// in\n    tag_60:\n      mload(0x40)\n      dup1\n      swap2\n      sub\n      swap1\n      revert\n    tag_59:\n        /* \"contracts/ejercicio7.sol\":1382:1424  infoChanged(position, newInfo, msg.sender) */\n      0x08b992eed17b037bc0eb3b239f559bc789f9d0c50710c107fb1ef0b40edea46d\n        /* \"contracts/ejercicio7.sol\":1394:1402  position */\n      dup3\n        /* \"contracts/ejercicio7.sol\":1404:1411  newInfo */\n      dup3\n        /* \"contracts/ejercicio7.sol\":1413:1423  msg.sender */\n      caller\n        /* \"contracts/ejercicio7.sol\":1382:1424  infoChanged(position, newInfo, msg.sender) */\n      mload(0x40)\n      tag_62\n      swap4\n      swap3\n      swap2\n      swap1\n      tag_47\n      jump\t// in\n    tag_62:\n      mload(0x40)\n      dup1\n      swap2\n      sub\n      swap1\n      log1\n        /* \"contracts/ejercicio7.sol\":1459:1466  newInfo */\n      dup1\n        /* \"contracts/ejercicio7.sol\":1435:1446  storedInfos */\n      0x00\n        /* \"contracts/ejercicio7.sol\":1447:1455  position */\n      dup4\n        /* \"contracts/ejercicio7.sol\":1435:1456  storedInfos[position] */\n      dup2\n      sload\n      dup2\n      lt\n      tag_63\n      jumpi\n      tag_64\n      tag_65\n      jump\t// in\n    tag_64:\n    tag_63:\n      swap1\n      0x00\n      mstore\n      keccak256(0x00, 0x20)\n      add\n        /* \"contracts/ejercicio7.sol\":1435:1466  storedInfos[position] = newInfo */\n      swap1\n      dup2\n      tag_67\n      swap2\n      swap1\n      tag_50\n      jump\t// in\n    tag_67:\n      pop\n        /* \"contracts/ejercicio7.sol\":1199:1476  function updateInfo(uint256 position, string memory newInfo) onlyWhitelist external {... */\n      pop\n      pop\n      jump\t// out\n        /* \"contracts/ejercicio7.sol\":1696:1791  function getInfo() external view returns(string[] memory) {... */\n    tag_25:\n        /* \"contracts/ejercicio7.sol\":1737:1752  string[] memory */\n      0x60\n        /* \"contracts/ejercicio7.sol\":1772:1783  storedInfos */\n      0x00\n        /* \"contracts/ejercicio7.sol\":1765:1783  return storedInfos */\n      dup1\n      sload\n      dup1\n      0x20\n      mul\n      0x20\n      add\n      mload(0x40)\n      swap1\n      dup2\n      add\n      0x40\n      mstore\n      dup1\n      swap3\n      swap2\n      swap1\n      dup2\n      dup2\n      mstore\n      0x20\n      add\n      0x00\n      swap1\n    tag_69:\n      dup3\n      dup3\n      lt\n      iszero\n      tag_70\n      jumpi\n      dup4\n      dup3\n      swap1\n      0x00\n      mstore\n      keccak256(0x00, 0x20)\n      add\n      dup1\n      sload\n      tag_72\n      swap1\n      tag_73\n      jump\t// in\n    tag_72:\n      dup1\n      0x1f\n      add\n      0x20\n      dup1\n      swap2\n      div\n      mul\n      0x20\n      add\n      mload(0x40)\n      swap1\n      dup2\n      add\n      0x40\n      mstore\n      dup1\n      swap3\n      swap2\n      swap1\n      dup2\n      dup2\n      mstore\n      0x20\n      add\n      dup3\n      dup1\n      sload\n      tag_74\n      swap1\n      tag_73\n      jump\t// in\n    tag_74:\n      dup1\n      iszero\n      tag_75\n      jumpi\n      dup1\n      0x1f\n      lt\n      tag_76\n      jumpi\n      0x0100\n      dup1\n      dup4\n      sload\n      div\n      mul\n      dup4\n      mstore\n      swap2\n      0x20\n      add\n      swap2\n      jump(tag_75)\n    tag_76:\n      dup3\n      add\n      swap2\n      swap1\n      0x00\n      mstore\n      keccak256(0x00, 0x20)\n      swap1\n    tag_77:\n      dup2\n      sload\n      dup2\n      mstore\n      swap1\n      0x01\n      add\n      swap1\n      0x20\n      add\n      dup1\n      dup4\n      gt\n      tag_77\n      jumpi\n      dup3\n      swap1\n      sub\n      0x1f\n      and\n      dup3\n      add\n      swap2\n    tag_75:\n      pop\n      pop\n      pop\n      pop\n      pop\n      dup2\n      mstore\n      0x20\n      add\n      swap1\n      0x01\n      add\n      swap1\n      jump(tag_69)\n    tag_70:\n      pop\n      pop\n      pop\n      pop\n      swap1\n      pop\n        /* \"contracts/ejercicio7.sol\":1696:1791  function getInfo() external view returns(string[] memory) {... */\n      swap1\n      jump\t// out\n        /* \"contracts/ejercicio7.sol\":1484:1688  function getOneInfo(uint256 position) external view returns(string memory){... */\n    tag_31:\n        /* \"contracts/ejercicio7.sol\":1544:1557  string memory */\n      0x60\n        /* \"contracts/ejercicio7.sol\":1588:1599  storedInfos */\n      0x00\n        /* \"contracts/ejercicio7.sol\":1588:1606  storedInfos.length */\n      dup1\n      sload\n      swap1\n      pop\n        /* \"contracts/ejercicio7.sol\":1577:1585  position */\n      dup3\n        /* \"contracts/ejercicio7.sol\":1577:1606  position < storedInfos.length */\n      lt\n        /* \"contracts/ejercicio7.sol\":1569:1641  require(position < storedInfos.length, \"No such position in the array.\") */\n      tag_79\n      jumpi\n      mload(0x40)\n      0x08c379a000000000000000000000000000000000000000000000000000000000\n      dup2\n      mstore\n      0x04\n      add\n      tag_80\n      swap1\n      tag_61\n      jump\t// in\n    tag_80:\n      mload(0x40)\n      dup1\n      swap2\n      sub\n      swap1\n      revert\n    tag_79:\n        /* \"contracts/ejercicio7.sol\":1659:1670  storedInfos */\n      0x00\n        /* \"contracts/ejercicio7.sol\":1671:1679  position */\n      dup3\n        /* \"contracts/ejercicio7.sol\":1659:1680  storedInfos[position] */\n      dup2\n      sload\n      dup2\n      lt\n      tag_81\n      jumpi\n      tag_82\n      tag_65\n      jump\t// in\n    tag_82:\n    tag_81:\n      swap1\n      0x00\n      mstore\n      keccak256(0x00, 0x20)\n      add\n        /* \"contracts/ejercicio7.sol\":1652:1680  return storedInfos[position] */\n      dup1\n      sload\n      tag_84\n      swap1\n      tag_73\n      jump\t// in\n    tag_84:\n      dup1\n      0x1f\n      add\n      0x20\n      dup1\n      swap2\n      div\n      mul\n      0x20\n      add\n      mload(0x40)\n      swap1\n      dup2\n      add\n      0x40\n      mstore\n      dup1\n      swap3\n      swap2\n      swap1\n      dup2\n      dup2\n      mstore\n      0x20\n      add\n      dup3\n      dup1\n      sload\n      tag_85\n      swap1\n      tag_73\n      jump\t// in\n    tag_85:\n      dup1\n      iszero\n      tag_86\n      jumpi\n      dup1\n      0x1f\n      lt\n      tag_87\n      jumpi\n      0x0100\n      dup1\n      dup4\n      sload\n      div\n      mul\n      dup4\n      mstore\n      swap2\n      0x20\n      add\n      swap2\n      jump(tag_86)\n    tag_87:\n      dup3\n      add\n      swap2\n      swap1\n      0x00\n      mstore\n      keccak256(0x00, 0x20)\n      swap1\n    tag_88:\n      dup2\n      sload\n      dup2\n      mstore\n      swap1\n      0x01\n      add\n      swap1\n      0x20\n      add\n      dup1\n      dup4\n      gt\n      tag_88\n      jumpi\n      dup3\n      swap1\n      sub\n      0x1f\n      and\n      dup3\n      add\n      swap2\n    tag_86:\n      pop\n      pop\n      pop\n      pop\n      pop\n      swap1\n      pop\n        /* \"contracts/ejercicio7.sol\":1484:1688  function getOneInfo(uint256 position) external view returns(string memory){... */\n      swap2\n      swap1\n      pop\n      jump\t// out\n        /* \"contracts/ejercicio7.sol\":664:768  function addToWhitelist(address account) onlyOwner external {... */\n    tag_37:\n        /* \"contracts/ejercicio7.sol\":431:441  msg.sender */\n      caller\n        /* \"contracts/ejercicio7.sol\":422:441  owner == msg.sender */\n      0xffffffffffffffffffffffffffffffffffffffff\n      and\n        /* \"contracts/ejercicio7.sol\":422:427  owner */\n      0x02\n      0x00\n      swap1\n      sload\n      swap1\n      0x0100\n      exp\n      swap1\n      div\n      0xffffffffffffffffffffffffffffffffffffffff\n      and\n        /* \"contracts/ejercicio7.sol\":422:441  owner == msg.sender */\n      0xffffffffffffffffffffffffffffffffffffffff\n      and\n      eq\n        /* \"contracts/ejercicio7.sol\":414:480  require(owner == msg.sender, \"Only owner can perform this action\") */\n      tag_90\n      jumpi\n      mload(0x40)\n      0x08c379a000000000000000000000000000000000000000000000000000000000\n      dup2\n      mstore\n      0x04\n      add\n      tag_91\n      swap1\n      tag_92\n      jump\t// in\n    tag_91:\n      mload(0x40)\n      dup1\n      swap2\n      sub\n      swap1\n      revert\n    tag_90:\n        /* \"contracts/ejercicio7.sol\":756:760  true */\n      0x01\n        /* \"contracts/ejercicio7.sol\":735:744  whitelist */\n      0x03\n        /* \"contracts/ejercicio7.sol\":735:753  whitelist[account] */\n      0x00\n        /* \"contracts/ejercicio7.sol\":745:752  account */\n      dup4\n        /* \"contracts/ejercicio7.sol\":735:753  whitelist[account] */\n      0xffffffffffffffffffffffffffffffffffffffff\n      and\n      0xffffffffffffffffffffffffffffffffffffffff\n      and\n      dup2\n      mstore\n      0x20\n      add\n      swap1\n      dup2\n      mstore\n      0x20\n      add\n      0x00\n      keccak256\n      0x00\n        /* \"contracts/ejercicio7.sol\":735:760  whitelist[account] = true */\n      0x0100\n      exp\n      dup2\n      sload\n      dup2\n      0xff\n      mul\n      not\n      and\n      swap1\n      dup4\n      iszero\n      iszero\n      mul\n      or\n      swap1\n      sstore\n      pop\n        /* \"contracts/ejercicio7.sol\":664:768  function addToWhitelist(address account) onlyOwner external {... */\n      pop\n      jump\t// out\n        /* \"contracts/ejercicio7.sol\":774:881  function delFromWhitelist(address account) onlyOwner external {... */\n    tag_40:\n        /* \"contracts/ejercicio7.sol\":431:441  msg.sender */\n      caller\n        /* \"contracts/ejercicio7.sol\":422:441  owner == msg.sender */\n      0xffffffffffffffffffffffffffffffffffffffff\n      and\n        /* \"contracts/ejercicio7.sol\":422:427  owner */\n      0x02\n      0x00\n      swap1\n      sload\n      swap1\n      0x0100\n      exp\n      swap1\n      div\n      0xffffffffffffffffffffffffffffffffffffffff\n      and\n        /* \"contracts/ejercicio7.sol\":422:441  owner == msg.sender */\n      0xffffffffffffffffffffffffffffffffffffffff\n      and\n      eq\n        /* \"contracts/ejercicio7.sol\":414:480  require(owner == msg.sender, \"Only owner can perform this action\") */\n      tag_95\n      jumpi\n      mload(0x40)\n      0x08c379a000000000000000000000000000000000000000000000000000000000\n      dup2\n      mstore\n      0x04\n      add\n      tag_96\n      swap1\n      tag_92\n      jump\t// in\n    tag_96:\n      mload(0x40)\n      dup1\n      swap2\n      sub\n      swap1\n      revert\n    tag_95:\n        /* \"contracts/ejercicio7.sol\":868:873  false */\n      0x00\n        /* \"contracts/ejercicio7.sol\":847:856  whitelist */\n      0x03\n        /* \"contracts/ejercicio7.sol\":847:865  whitelist[account] */\n      0x00\n        /* \"contracts/ejercicio7.sol\":857:864  account */\n      dup4\n        /* \"contracts/ejercicio7.sol\":847:865  whitelist[account] */\n      0xffffffffffffffffffffffffffffffffffffffff\n      and\n      0xffffffffffffffffffffffffffffffffffffffff\n      and\n      dup2\n      mstore\n      0x20\n      add\n      swap1\n      dup2\n      mstore\n      0x20\n      add\n      0x00\n      keccak256\n      0x00\n        /* \"contracts/ejercicio7.sol\":847:873  whitelist[account] = false */\n      0x0100\n      exp\n      dup2\n      sload\n      dup2\n      0xff\n      mul\n      not\n      and\n      swap1\n      dup4\n      iszero\n      iszero\n      mul\n      or\n      swap1\n      sstore\n      pop\n        /* \"contracts/ejercicio7.sol\":774:881  function delFromWhitelist(address account) onlyOwner external {... */\n      pop\n      jump\t// out\n        /* \"#utility.yul\":7:82   */\n    tag_98:\n        /* \"#utility.yul\":40:46   */\n      0x00\n        /* \"#utility.yul\":73:75   */\n      0x40\n        /* \"#utility.yul\":67:76   */\n      mload\n        /* \"#utility.yul\":57:76   */\n      swap1\n      pop\n        /* \"#utility.yul\":7:82   */\n      swap1\n      jump\t// out\n        /* \"#utility.yul\":88:205   */\n    tag_99:\n        /* \"#utility.yul\":197:198   */\n      0x00\n        /* \"#utility.yul\":194:195   */\n      0x00\n        /* \"#utility.yul\":187:199   */\n      revert\n        /* \"#utility.yul\":211:328   */\n    tag_100:\n        /* \"#utility.yul\":320:321   */\n      0x00\n        /* \"#utility.yul\":317:318   */\n      0x00\n        /* \"#utility.yul\":310:322   */\n      revert\n        /* \"#utility.yul\":334:451   */\n    tag_101:\n        /* \"#utility.yul\":443:444   */\n      0x00\n        /* \"#utility.yul\":440:441   */\n      0x00\n        /* \"#utility.yul\":433:445   */\n      revert\n        /* \"#utility.yul\":457:574   */\n    tag_102:\n        /* \"#utility.yul\":566:567   */\n      0x00\n        /* \"#utility.yul\":563:564   */\n      0x00\n        /* \"#utility.yul\":556:568   */\n      revert\n        /* \"#utility.yul\":580:682   */\n    tag_103:\n        /* \"#utility.yul\":621:627   */\n      0x00\n        /* \"#utility.yul\":672:674   */\n      0x1f\n        /* \"#utility.yul\":668:675   */\n      not\n        /* \"#utility.yul\":663:665   */\n      0x1f\n        /* \"#utility.yul\":656:661   */\n      dup4\n        /* \"#utility.yul\":652:666   */\n      add\n        /* \"#utility.yul\":648:676   */\n      and\n        /* \"#utility.yul\":638:676   */\n      swap1\n      pop\n        /* \"#utility.yul\":580:682   */\n      swap2\n      swap1\n      pop\n      jump\t// out\n        /* \"#utility.yul\":688:868   */\n    tag_104:\n        /* \"#utility.yul\":736:813   */\n      0x4e487b7100000000000000000000000000000000000000000000000000000000\n        /* \"#utility.yul\":733:734   */\n      0x00\n        /* \"#utility.yul\":726:814   */\n      mstore\n        /* \"#utility.yul\":833:837   */\n      0x41\n        /* \"#utility.yul\":830:831   */\n      0x04\n        /* \"#utility.yul\":823:838   */\n      mstore\n        /* \"#utility.yul\":857:861   */\n      0x24\n        /* \"#utility.yul\":854:855   */\n      0x00\n        /* \"#utility.yul\":847:862   */\n      revert\n        /* \"#utility.yul\":874:1155   */\n    tag_105:\n        /* \"#utility.yul\":957:984   */\n      tag_164\n        /* \"#utility.yul\":979:983   */\n      dup3\n        /* \"#utility.yul\":957:984   */\n      tag_103\n      jump\t// in\n    tag_164:\n        /* \"#utility.yul\":949:955   */\n      dup2\n        /* \"#utility.yul\":945:985   */\n      add\n        /* \"#utility.yul\":1087:1093   */\n      dup2\n        /* \"#utility.yul\":1075:1085   */\n      dup2\n        /* \"#utility.yul\":1072:1094   */\n      lt\n        /* \"#utility.yul\":1051:1069   */\n      0xffffffffffffffff\n        /* \"#utility.yul\":1039:1049   */\n      dup3\n        /* \"#utility.yul\":1036:1070   */\n      gt\n        /* \"#utility.yul\":1033:1095   */\n      or\n        /* \"#utility.yul\":1030:1118   */\n      iszero\n      tag_165\n      jumpi\n        /* \"#utility.yul\":1098:1116   */\n      tag_166\n      tag_104\n      jump\t// in\n    tag_166:\n        /* \"#utility.yul\":1030:1118   */\n    tag_165:\n        /* \"#utility.yul\":1138:1148   */\n      dup1\n        /* \"#utility.yul\":1134:1136   */\n      0x40\n        /* \"#utility.yul\":1127:1149   */\n      mstore\n        /* \"#utility.yul\":917:1155   */\n      pop\n        /* \"#utility.yul\":874:1155   */\n      pop\n      pop\n      jump\t// out\n        /* \"#utility.yul\":1161:1290   */\n    tag_106:\n        /* \"#utility.yul\":1195:1201   */\n      0x00\n        /* \"#utility.yul\":1222:1242   */\n      tag_168\n      tag_98\n      jump\t// in\n    tag_168:\n        /* \"#utility.yul\":1212:1242   */\n      swap1\n      pop\n        /* \"#utility.yul\":1251:1284   */\n      tag_169\n        /* \"#utility.yul\":1279:1283   */\n      dup3\n        /* \"#utility.yul\":1271:1277   */\n      dup3\n        /* \"#utility.yul\":1251:1284   */\n      tag_105\n      jump\t// in\n    tag_169:\n        /* \"#utility.yul\":1161:1290   */\n      swap2\n      swap1\n      pop\n      jump\t// out\n        /* \"#utility.yul\":1296:1604   */\n    tag_107:\n        /* \"#utility.yul\":1358:1362   */\n      0x00\n        /* \"#utility.yul\":1448:1466   */\n      0xffffffffffffffff\n        /* \"#utility.yul\":1440:1446   */\n      dup3\n        /* \"#utility.yul\":1437:1467   */\n      gt\n        /* \"#utility.yul\":1434:1490   */\n      iszero\n      tag_171\n      jumpi\n        /* \"#utility.yul\":1470:1488   */\n      tag_172\n      tag_104\n      jump\t// in\n    tag_172:\n        /* \"#utility.yul\":1434:1490   */\n    tag_171:\n        /* \"#utility.yul\":1508:1537   */\n      tag_173\n        /* \"#utility.yul\":1530:1536   */\n      dup3\n        /* \"#utility.yul\":1508:1537   */\n      tag_103\n      jump\t// in\n    tag_173:\n        /* \"#utility.yul\":1500:1537   */\n      swap1\n      pop\n        /* \"#utility.yul\":1592:1596   */\n      0x20\n        /* \"#utility.yul\":1586:1590   */\n      dup2\n        /* \"#utility.yul\":1582:1597   */\n      add\n        /* \"#utility.yul\":1574:1597   */\n      swap1\n      pop\n        /* \"#utility.yul\":1296:1604   */\n      swap2\n      swap1\n      pop\n      jump\t// out\n        /* \"#utility.yul\":1610:1758   */\n    tag_108:\n        /* \"#utility.yul\":1708:1714   */\n      dup3\n        /* \"#utility.yul\":1703:1706   */\n      dup2\n        /* \"#utility.yul\":1698:1701   */\n      dup4\n        /* \"#utility.yul\":1685:1715   */\n      calldatacopy\n        /* \"#utility.yul\":1749:1750   */\n      0x00\n        /* \"#utility.yul\":1740:1746   */\n      dup4\n        /* \"#utility.yul\":1735:1738   */\n      dup4\n        /* \"#utility.yul\":1731:1747   */\n      add\n        /* \"#utility.yul\":1724:1751   */\n      mstore\n        /* \"#utility.yul\":1610:1758   */\n      pop\n      pop\n      pop\n      jump\t// out\n        /* \"#utility.yul\":1764:2189   */\n    tag_109:\n        /* \"#utility.yul\":1842:1847   */\n      0x00\n        /* \"#utility.yul\":1867:1933   */\n      tag_176\n        /* \"#utility.yul\":1883:1932   */\n      tag_177\n        /* \"#utility.yul\":1925:1931   */\n      dup5\n        /* \"#utility.yul\":1883:1932   */\n      tag_107\n      jump\t// in\n    tag_177:\n        /* \"#utility.yul\":1867:1933   */\n      tag_106\n      jump\t// in\n    tag_176:\n        /* \"#utility.yul\":1858:1933   */\n      swap1\n      pop\n        /* \"#utility.yul\":1956:1962   */\n      dup3\n        /* \"#utility.yul\":1949:1954   */\n      dup2\n        /* \"#utility.yul\":1942:1963   */\n      mstore\n        /* \"#utility.yul\":1994:1998   */\n      0x20\n        /* \"#utility.yul\":1987:1992   */\n      dup2\n        /* \"#utility.yul\":1983:1999   */\n      add\n        /* \"#utility.yul\":2032:2035   */\n      dup5\n        /* \"#utility.yul\":2023:2029   */\n      dup5\n        /* \"#utility.yul\":2018:2021   */\n      dup5\n        /* \"#utility.yul\":2014:2030   */\n      add\n        /* \"#utility.yul\":2011:2036   */\n      gt\n        /* \"#utility.yul\":2008:2120   */\n      iszero\n      tag_178\n      jumpi\n        /* \"#utility.yul\":2039:2118   */\n      tag_179\n      tag_102\n      jump\t// in\n    tag_179:\n        /* \"#utility.yul\":2008:2120   */\n    tag_178:\n        /* \"#utility.yul\":2129:2183   */\n      tag_180\n        /* \"#utility.yul\":2176:2182   */\n      dup5\n        /* \"#utility.yul\":2171:2174   */\n      dup3\n        /* \"#utility.yul\":2166:2169   */\n      dup6\n        /* \"#utility.yul\":2129:2183   */\n      tag_108\n      jump\t// in\n    tag_180:\n        /* \"#utility.yul\":1848:2189   */\n      pop\n        /* \"#utility.yul\":1764:2189   */\n      swap4\n      swap3\n      pop\n      pop\n      pop\n      jump\t// out\n        /* \"#utility.yul\":2209:2549   */\n    tag_110:\n        /* \"#utility.yul\":2265:2270   */\n      0x00\n        /* \"#utility.yul\":2314:2317   */\n      dup3\n        /* \"#utility.yul\":2307:2311   */\n      0x1f\n        /* \"#utility.yul\":2299:2305   */\n      dup4\n        /* \"#utility.yul\":2295:2312   */\n      add\n        /* \"#utility.yul\":2291:2318   */\n      slt\n        /* \"#utility.yul\":2281:2403   */\n      tag_182\n      jumpi\n        /* \"#utility.yul\":2322:2401   */\n      tag_183\n      tag_101\n      jump\t// in\n    tag_183:\n        /* \"#utility.yul\":2281:2403   */\n    tag_182:\n        /* \"#utility.yul\":2439:2445   */\n      dup2\n        /* \"#utility.yul\":2426:2446   */\n      calldataload\n        /* \"#utility.yul\":2464:2543   */\n      tag_184\n        /* \"#utility.yul\":2539:2542   */\n      dup5\n        /* \"#utility.yul\":2531:2537   */\n      dup3\n        /* \"#utility.yul\":2524:2528   */\n      0x20\n        /* \"#utility.yul\":2516:2522   */\n      dup7\n        /* \"#utility.yul\":2512:2529   */\n      add\n        /* \"#utility.yul\":2464:2543   */\n      tag_109\n      jump\t// in\n    tag_184:\n        /* \"#utility.yul\":2455:2543   */\n      swap2\n      pop\n        /* \"#utility.yul\":2271:2549   */\n      pop\n        /* \"#utility.yul\":2209:2549   */\n      swap3\n      swap2\n      pop\n      pop\n      jump\t// out\n        /* \"#utility.yul\":2555:3064   */\n    tag_13:\n        /* \"#utility.yul\":2624:2630   */\n      0x00\n        /* \"#utility.yul\":2673:2675   */\n      0x20\n        /* \"#utility.yul\":2661:2670   */\n      dup3\n        /* \"#utility.yul\":2652:2659   */\n      dup5\n        /* \"#utility.yul\":2648:2671   */\n      sub\n        /* \"#utility.yul\":2644:2676   */\n      slt\n        /* \"#utility.yul\":2641:2760   */\n      iszero\n      tag_186\n      jumpi\n        /* \"#utility.yul\":2679:2758   */\n      tag_187\n      tag_99\n      jump\t// in\n    tag_187:\n        /* \"#utility.yul\":2641:2760   */\n    tag_186:\n        /* \"#utility.yul\":2827:2828   */\n      0x00\n        /* \"#utility.yul\":2816:2825   */\n      dup3\n        /* \"#utility.yul\":2812:2829   */\n      add\n        /* \"#utility.yul\":2799:2830   */\n      calldataload\n        /* \"#utility.yul\":2857:2875   */\n      0xffffffffffffffff\n        /* \"#utility.yul\":2849:2855   */\n      dup2\n        /* \"#utility.yul\":2846:2876   */\n      gt\n        /* \"#utility.yul\":2843:2960   */\n      iszero\n      tag_188\n      jumpi\n        /* \"#utility.yul\":2879:2958   */\n      tag_189\n      tag_100\n      jump\t// in\n    tag_189:\n        /* \"#utility.yul\":2843:2960   */\n    tag_188:\n        /* \"#utility.yul\":2984:3047   */\n      tag_190\n        /* \"#utility.yul\":3039:3046   */\n      dup5\n        /* \"#utility.yul\":3030:3036   */\n      dup3\n        /* \"#utility.yul\":3019:3028   */\n      dup6\n        /* \"#utility.yul\":3015:3037   */\n      add\n        /* \"#utility.yul\":2984:3047   */\n      tag_110\n      jump\t// in\n    tag_190:\n        /* \"#utility.yul\":2974:3047   */\n      swap2\n      pop\n        /* \"#utility.yul\":2770:3057   */\n      pop\n        /* \"#utility.yul\":2555:3064   */\n      swap3\n      swap2\n      pop\n      pop\n      jump\t// out\n        /* \"#utility.yul\":3070:3147   */\n    tag_111:\n        /* \"#utility.yul\":3107:3114   */\n      0x00\n        /* \"#utility.yul\":3136:3141   */\n      dup2\n        /* \"#utility.yul\":3125:3141   */\n      swap1\n      pop\n        /* \"#utility.yul\":3070:3147   */\n      swap2\n      swap1\n      pop\n      jump\t// out\n        /* \"#utility.yul\":3153:3271   */\n    tag_112:\n        /* \"#utility.yul\":3240:3264   */\n      tag_193\n        /* \"#utility.yul\":3258:3263   */\n      dup2\n        /* \"#utility.yul\":3240:3264   */\n      tag_111\n      jump\t// in\n    tag_193:\n        /* \"#utility.yul\":3235:3238   */\n      dup3\n        /* \"#utility.yul\":3228:3265   */\n      mstore\n        /* \"#utility.yul\":3153:3271   */\n      pop\n      pop\n      jump\t// out\n        /* \"#utility.yul\":3277:3499   */\n    tag_16:\n        /* \"#utility.yul\":3370:3374   */\n      0x00\n        /* \"#utility.yul\":3408:3410   */\n      0x20\n        /* \"#utility.yul\":3397:3406   */\n      dup3\n        /* \"#utility.yul\":3393:3411   */\n      add\n        /* \"#utility.yul\":3385:3411   */\n      swap1\n      pop\n        /* \"#utility.yul\":3421:3492   */\n      tag_195\n        /* \"#utility.yul\":3489:3490   */\n      0x00\n        /* \"#utility.yul\":3478:3487   */\n      dup4\n        /* \"#utility.yul\":3474:3491   */\n      add\n        /* \"#utility.yul\":3465:3471   */\n      dup5\n        /* \"#utility.yul\":3421:3492   */\n      tag_112\n      jump\t// in\n    tag_195:\n        /* \"#utility.yul\":3277:3499   */\n      swap3\n      swap2\n      pop\n      pop\n      jump\t// out\n        /* \"#utility.yul\":3505:3627   */\n    tag_113:\n        /* \"#utility.yul\":3578:3602   */\n      tag_197\n        /* \"#utility.yul\":3596:3601   */\n      dup2\n        /* \"#utility.yul\":3578:3602   */\n      tag_111\n      jump\t// in\n    tag_197:\n        /* \"#utility.yul\":3571:3576   */\n      dup2\n        /* \"#utility.yul\":3568:3603   */\n      eq\n        /* \"#utility.yul\":3558:3621   */\n      tag_198\n      jumpi\n        /* \"#utility.yul\":3617:3618   */\n      0x00\n        /* \"#utility.yul\":3614:3615   */\n      0x00\n        /* \"#utility.yul\":3607:3619   */\n      revert\n        /* \"#utility.yul\":3558:3621   */\n    tag_198:\n        /* \"#utility.yul\":3505:3627   */\n      pop\n      jump\t// out\n        /* \"#utility.yul\":3633:3772   */\n    tag_114:\n        /* \"#utility.yul\":3679:3684   */\n      0x00\n        /* \"#utility.yul\":3717:3723   */\n      dup2\n        /* \"#utility.yul\":3704:3724   */\n      calldataload\n        /* \"#utility.yul\":3695:3724   */\n      swap1\n      pop\n        /* \"#utility.yul\":3733:3766   */\n      tag_200\n        /* \"#utility.yul\":3760:3765   */\n      dup2\n        /* \"#utility.yul\":3733:3766   */\n      tag_113\n      jump\t// in\n    tag_200:\n        /* \"#utility.yul\":3633:3772   */\n      swap3\n      swap2\n      pop\n      pop\n      jump\t// out\n        /* \"#utility.yul\":3778:4432   */\n    tag_22:\n        /* \"#utility.yul\":3856:3862   */\n      0x00\n        /* \"#utility.yul\":3864:3870   */\n      0x00\n        /* \"#utility.yul\":3913:3915   */\n      0x40\n        /* \"#utility.yul\":3901:3910   */\n      dup4\n        /* \"#utility.yul\":3892:3899   */\n      dup6\n        /* \"#utility.yul\":3888:3911   */\n      sub\n        /* \"#utility.yul\":3884:3916   */\n      slt\n        /* \"#utility.yul\":3881:4000   */\n      iszero\n      tag_202\n      jumpi\n        /* \"#utility.yul\":3919:3998   */\n      tag_203\n      tag_99\n      jump\t// in\n    tag_203:\n        /* \"#utility.yul\":3881:4000   */\n    tag_202:\n        /* \"#utility.yul\":4039:4040   */\n      0x00\n        /* \"#utility.yul\":4064:4117   */\n      tag_204\n        /* \"#utility.yul\":4109:4116   */\n      dup6\n        /* \"#utility.yul\":4100:4106   */\n      dup3\n        /* \"#utility.yul\":4089:4098   */\n      dup7\n        /* \"#utility.yul\":4085:4107   */\n      add\n        /* \"#utility.yul\":4064:4117   */\n      tag_114\n      jump\t// in\n    tag_204:\n        /* \"#utility.yul\":4054:4117   */\n      swap3\n      pop\n        /* \"#utility.yul\":4010:4127   */\n      pop\n        /* \"#utility.yul\":4194:4196   */\n      0x20\n        /* \"#utility.yul\":4183:4192   */\n      dup4\n        /* \"#utility.yul\":4179:4197   */\n      add\n        /* \"#utility.yul\":4166:4198   */\n      calldataload\n        /* \"#utility.yul\":4225:4243   */\n      0xffffffffffffffff\n        /* \"#utility.yul\":4217:4223   */\n      dup2\n        /* \"#utility.yul\":4214:4244   */\n      gt\n        /* \"#utility.yul\":4211:4328   */\n      iszero\n      tag_205\n      jumpi\n        /* \"#utility.yul\":4247:4326   */\n      tag_206\n      tag_100\n      jump\t// in\n    tag_206:\n        /* \"#utility.yul\":4211:4328   */\n    tag_205:\n        /* \"#utility.yul\":4352:4415   */\n      tag_207\n        /* \"#utility.yul\":4407:4414   */\n      dup6\n        /* \"#utility.yul\":4398:4404   */\n      dup3\n        /* \"#utility.yul\":4387:4396   */\n      dup7\n        /* \"#utility.yul\":4383:4405   */\n      add\n        /* \"#utility.yul\":4352:4415   */\n      tag_110\n      jump\t// in\n    tag_207:\n        /* \"#utility.yul\":4342:4415   */\n      swap2\n      pop\n        /* \"#utility.yul\":4137:4425   */\n      pop\n        /* \"#utility.yul\":3778:4432   */\n      swap3\n      pop\n      swap3\n      swap1\n      pop\n      jump\t// out\n        /* \"#utility.yul\":4438:4562   */\n    tag_115:\n        /* \"#utility.yul\":4515:4521   */\n      0x00\n        /* \"#utility.yul\":4549:4554   */\n      dup2\n        /* \"#utility.yul\":4543:4555   */\n      mload\n        /* \"#utility.yul\":4533:4555   */\n      swap1\n      pop\n        /* \"#utility.yul\":4438:4562   */\n      swap2\n      swap1\n      pop\n      jump\t// out\n        /* \"#utility.yul\":4568:4762   */\n    tag_116:\n        /* \"#utility.yul\":4677:4688   */\n      0x00\n        /* \"#utility.yul\":4711:4717   */\n      dup3\n        /* \"#utility.yul\":4706:4709   */\n      dup3\n        /* \"#utility.yul\":4699:4718   */\n      mstore\n        /* \"#utility.yul\":4751:4755   */\n      0x20\n        /* \"#utility.yul\":4746:4749   */\n      dup3\n        /* \"#utility.yul\":4742:4756   */\n      add\n        /* \"#utility.yul\":4727:4756   */\n      swap1\n      pop\n        /* \"#utility.yul\":4568:4762   */\n      swap3\n      swap2\n      pop\n      pop\n      jump\t// out\n        /* \"#utility.yul\":4768:4910   */\n    tag_117:\n        /* \"#utility.yul\":4845:4849   */\n      0x00\n        /* \"#utility.yul\":4868:4871   */\n      dup2\n        /* \"#utility.yul\":4860:4871   */\n      swap1\n      pop\n        /* \"#utility.yul\":4898:4902   */\n      0x20\n        /* \"#utility.yul\":4893:4896   */\n      dup3\n        /* \"#utility.yul\":4889:4903   */\n      add\n        /* \"#utility.yul\":4881:4903   */\n      swap1\n      pop\n        /* \"#utility.yul\":4768:4910   */\n      swap2\n      swap1\n      pop\n      jump\t// out\n        /* \"#utility.yul\":4916:5015   */\n    tag_118:\n        /* \"#utility.yul\":4968:4974   */\n      0x00\n        /* \"#utility.yul\":5002:5007   */\n      dup2\n        /* \"#utility.yul\":4996:5008   */\n      mload\n        /* \"#utility.yul\":4986:5008   */\n      swap1\n      pop\n        /* \"#utility.yul\":4916:5015   */\n      swap2\n      swap1\n      pop\n      jump\t// out\n        /* \"#utility.yul\":5021:5180   */\n    tag_119:\n        /* \"#utility.yul\":5095:5106   */\n      0x00\n        /* \"#utility.yul\":5129:5135   */\n      dup3\n        /* \"#utility.yul\":5124:5127   */\n      dup3\n        /* \"#utility.yul\":5117:5136   */\n      mstore\n        /* \"#utility.yul\":5169:5173   */\n      0x20\n        /* \"#utility.yul\":5164:5167   */\n      dup3\n        /* \"#utility.yul\":5160:5174   */\n      add\n        /* \"#utility.yul\":5145:5174   */\n      swap1\n      pop\n        /* \"#utility.yul\":5021:5180   */\n      swap3\n      swap2\n      pop\n      pop\n      jump\t// out\n        /* \"#utility.yul\":5186:5325   */\n    tag_120:\n        /* \"#utility.yul\":5275:5281   */\n      dup3\n        /* \"#utility.yul\":5270:5273   */\n      dup2\n        /* \"#utility.yul\":5265:5268   */\n      dup4\n        /* \"#utility.yul\":5259:5282   */\n      mcopy\n        /* \"#utility.yul\":5316:5317   */\n      0x00\n        /* \"#utility.yul\":5307:5313   */\n      dup4\n        /* \"#utility.yul\":5302:5305   */\n      dup4\n        /* \"#utility.yul\":5298:5314   */\n      add\n        /* \"#utility.yul\":5291:5318   */\n      mstore\n        /* \"#utility.yul\":5186:5325   */\n      pop\n      pop\n      pop\n      jump\t// out\n        /* \"#utility.yul\":5331:5688   */\n    tag_121:\n        /* \"#utility.yul\":5409:5412   */\n      0x00\n        /* \"#utility.yul\":5437:5476   */\n      tag_215\n        /* \"#utility.yul\":5470:5475   */\n      dup3\n        /* \"#utility.yul\":5437:5476   */\n      tag_118\n      jump\t// in\n    tag_215:\n        /* \"#utility.yul\":5492:5553   */\n      tag_216\n        /* \"#utility.yul\":5546:5552   */\n      dup2\n        /* \"#utility.yul\":5541:5544   */\n      dup6\n        /* \"#utility.yul\":5492:5553   */\n      tag_119\n      jump\t// in\n    tag_216:\n        /* \"#utility.yul\":5485:5553   */\n      swap4\n      pop\n        /* \"#utility.yul\":5562:5627   */\n      tag_217\n        /* \"#utility.yul\":5620:5626   */\n      dup2\n        /* \"#utility.yul\":5615:5618   */\n      dup6\n        /* \"#utility.yul\":5608:5612   */\n      0x20\n        /* \"#utility.yul\":5601:5606   */\n      dup7\n        /* \"#utility.yul\":5597:5613   */\n      add\n        /* \"#utility.yul\":5562:5627   */\n      tag_120\n      jump\t// in\n    tag_217:\n        /* \"#utility.yul\":5652:5681   */\n      tag_218\n        /* \"#utility.yul\":5674:5680   */\n      dup2\n        /* \"#utility.yul\":5652:5681   */\n      tag_103\n      jump\t// in\n    tag_218:\n        /* \"#utility.yul\":5647:5650   */\n      dup5\n        /* \"#utility.yul\":5643:5682   */\n      add\n        /* \"#utility.yul\":5636:5682   */\n      swap2\n      pop\n        /* \"#utility.yul\":5413:5688   */\n      pop\n        /* \"#utility.yul\":5331:5688   */\n      swap3\n      swap2\n      pop\n      pop\n      jump\t// out\n        /* \"#utility.yul\":5694:5890   */\n    tag_122:\n        /* \"#utility.yul\":5783:5793   */\n      0x00\n        /* \"#utility.yul\":5818:5884   */\n      tag_220\n        /* \"#utility.yul\":5880:5883   */\n      dup4\n        /* \"#utility.yul\":5872:5878   */\n      dup4\n        /* \"#utility.yul\":5818:5884   */\n      tag_121\n      jump\t// in\n    tag_220:\n        /* \"#utility.yul\":5804:5884   */\n      swap1\n      pop\n        /* \"#utility.yul\":5694:5890   */\n      swap3\n      swap2\n      pop\n      pop\n      jump\t// out\n        /* \"#utility.yul\":5896:6019   */\n    tag_123:\n        /* \"#utility.yul\":5976:5980   */\n      0x00\n        /* \"#utility.yul\":6008:6012   */\n      0x20\n        /* \"#utility.yul\":6003:6006   */\n      dup3\n        /* \"#utility.yul\":5999:6013   */\n      add\n        /* \"#utility.yul\":5991:6013   */\n      swap1\n      pop\n        /* \"#utility.yul\":5896:6019   */\n      swap2\n      swap1\n      pop\n      jump\t// out\n        /* \"#utility.yul\":6053:7044   */\n    tag_124:\n        /* \"#utility.yul\":6192:6195   */\n      0x00\n        /* \"#utility.yul\":6221:6285   */\n      tag_223\n        /* \"#utility.yul\":6279:6284   */\n      dup3\n        /* \"#utility.yul\":6221:6285   */\n      tag_115\n      jump\t// in\n    tag_223:\n        /* \"#utility.yul\":6301:6397   */\n      tag_224\n        /* \"#utility.yul\":6390:6396   */\n      dup2\n        /* \"#utility.yul\":6385:6388   */\n      dup6\n        /* \"#utility.yul\":6301:6397   */\n      tag_116\n      jump\t// in\n    tag_224:\n        /* \"#utility.yul\":6294:6397   */\n      swap4\n      pop\n        /* \"#utility.yul\":6423:6426   */\n      dup4\n        /* \"#utility.yul\":6468:6472   */\n      0x20\n        /* \"#utility.yul\":6460:6466   */\n      dup3\n        /* \"#utility.yul\":6456:6473   */\n      mul\n        /* \"#utility.yul\":6451:6454   */\n      dup6\n        /* \"#utility.yul\":6447:6474   */\n      add\n        /* \"#utility.yul\":6498:6564   */\n      tag_225\n        /* \"#utility.yul\":6558:6563   */\n      dup6\n        /* \"#utility.yul\":6498:6564   */\n      tag_117\n      jump\t// in\n    tag_225:\n        /* \"#utility.yul\":6587:6594   */\n      dup1\n        /* \"#utility.yul\":6618:6619   */\n      0x00\n        /* \"#utility.yul\":6603:6999   */\n    tag_226:\n        /* \"#utility.yul\":6628:6634   */\n      dup6\n        /* \"#utility.yul\":6625:6626   */\n      dup2\n        /* \"#utility.yul\":6622:6635   */\n      lt\n        /* \"#utility.yul\":6603:6999   */\n      iszero\n      tag_228\n      jumpi\n        /* \"#utility.yul\":6699:6708   */\n      dup5\n        /* \"#utility.yul\":6693:6697   */\n      dup5\n        /* \"#utility.yul\":6689:6709   */\n      sub\n        /* \"#utility.yul\":6684:6687   */\n      dup10\n        /* \"#utility.yul\":6677:6710   */\n      mstore\n        /* \"#utility.yul\":6750:6756   */\n      dup2\n        /* \"#utility.yul\":6744:6757   */\n      mload\n        /* \"#utility.yul\":6778:6862   */\n      tag_229\n        /* \"#utility.yul\":6857:6861   */\n      dup6\n        /* \"#utility.yul\":6842:6855   */\n      dup3\n        /* \"#utility.yul\":6778:6862   */\n      tag_122\n      jump\t// in\n    tag_229:\n        /* \"#utility.yul\":6770:6862   */\n      swap5\n      pop\n        /* \"#utility.yul\":6885:6955   */\n      tag_230\n        /* \"#utility.yul\":6948:6954   */\n      dup4\n        /* \"#utility.yul\":6885:6955   */\n      tag_123\n      jump\t// in\n    tag_230:\n        /* \"#utility.yul\":6875:6955   */\n      swap3\n      pop\n        /* \"#utility.yul\":6984:6988   */\n      0x20\n        /* \"#utility.yul\":6979:6982   */\n      dup11\n        /* \"#utility.yul\":6975:6989   */\n      add\n        /* \"#utility.yul\":6968:6989   */\n      swap10\n      pop\n        /* \"#utility.yul\":6663:6999   */\n      pop\n        /* \"#utility.yul\":6650:6651   */\n      0x01\n        /* \"#utility.yul\":6647:6648   */\n      dup2\n        /* \"#utility.yul\":6643:6652   */\n      add\n        /* \"#utility.yul\":6638:6652   */\n      swap1\n      pop\n        /* \"#utility.yul\":6603:6999   */\n      jump(tag_226)\n    tag_228:\n        /* \"#utility.yul\":6607:6621   */\n      pop\n        /* \"#utility.yul\":7015:7019   */\n      dup3\n        /* \"#utility.yul\":7008:7019   */\n      swap8\n      pop\n        /* \"#utility.yul\":7035:7038   */\n      dup8\n        /* \"#utility.yul\":7028:7038   */\n      swap6\n      pop\n        /* \"#utility.yul\":6197:7044   */\n      pop\n      pop\n      pop\n      pop\n      pop\n        /* \"#utility.yul\":6053:7044   */\n      swap3\n      swap2\n      pop\n      pop\n      jump\t// out\n        /* \"#utility.yul\":7050:7463   */\n    tag_27:\n        /* \"#utility.yul\":7213:7217   */\n      0x00\n        /* \"#utility.yul\":7251:7253   */\n      0x20\n        /* \"#utility.yul\":7240:7249   */\n      dup3\n        /* \"#utility.yul\":7236:7254   */\n      add\n        /* \"#utility.yul\":7228:7254   */\n      swap1\n      pop\n        /* \"#utility.yul\":7300:7309   */\n      dup2\n        /* \"#utility.yul\":7294:7298   */\n      dup2\n        /* \"#utility.yul\":7290:7310   */\n      sub\n        /* \"#utility.yul\":7286:7287   */\n      0x00\n        /* \"#utility.yul\":7275:7284   */\n      dup4\n        /* \"#utility.yul\":7271:7288   */\n      add\n        /* \"#utility.yul\":7264:7311   */\n      mstore\n        /* \"#utility.yul\":7328:7456   */\n      tag_232\n        /* \"#utility.yul\":7451:7455   */\n      dup2\n        /* \"#utility.yul\":7442:7448   */\n      dup5\n        /* \"#utility.yul\":7328:7456   */\n      tag_124\n      jump\t// in\n    tag_232:\n        /* \"#utility.yul\":7320:7456   */\n      swap1\n      pop\n        /* \"#utility.yul\":7050:7463   */\n      swap3\n      swap2\n      pop\n      pop\n      jump\t// out\n        /* \"#utility.yul\":7469:7798   */\n    tag_30:\n        /* \"#utility.yul\":7528:7534   */\n      0x00\n        /* \"#utility.yul\":7577:7579   */\n      0x20\n        /* \"#utility.yul\":7565:7574   */\n      dup3\n        /* \"#utility.yul\":7556:7563   */\n      dup5\n        /* \"#utility.yul\":7552:7575   */\n      sub\n        /* \"#utility.yul\":7548:7580   */\n      slt\n        /* \"#utility.yul\":7545:7664   */\n      iszero\n      tag_234\n      jumpi\n        /* \"#utility.yul\":7583:7662   */\n      tag_235\n      tag_99\n      jump\t// in\n    tag_235:\n        /* \"#utility.yul\":7545:7664   */\n    tag_234:\n        /* \"#utility.yul\":7703:7704   */\n      0x00\n        /* \"#utility.yul\":7728:7781   */\n      tag_236\n        /* \"#utility.yul\":7773:7780   */\n      dup5\n        /* \"#utility.yul\":7764:7770   */\n      dup3\n        /* \"#utility.yul\":7753:7762   */\n      dup6\n        /* \"#utility.yul\":7749:7771   */\n      add\n        /* \"#utility.yul\":7728:7781   */\n      tag_114\n      jump\t// in\n    tag_236:\n        /* \"#utility.yul\":7718:7781   */\n      swap2\n      pop\n        /* \"#utility.yul\":7674:7791   */\n      pop\n        /* \"#utility.yul\":7469:7798   */\n      swap3\n      swap2\n      pop\n      pop\n      jump\t// out\n        /* \"#utility.yul\":7804:7973   */\n    tag_125:\n        /* \"#utility.yul\":7888:7899   */\n      0x00\n        /* \"#utility.yul\":7922:7928   */\n      dup3\n        /* \"#utility.yul\":7917:7920   */\n      dup3\n        /* \"#utility.yul\":7910:7929   */\n      mstore\n        /* \"#utility.yul\":7962:7966   */\n      0x20\n        /* \"#utility.yul\":7957:7960   */\n      dup3\n        /* \"#utility.yul\":7953:7967   */\n      add\n        /* \"#utility.yul\":7938:7967   */\n      swap1\n      pop\n        /* \"#utility.yul\":7804:7973   */\n      swap3\n      swap2\n      pop\n      pop\n      jump\t// out\n        /* \"#utility.yul\":7979:8356   */\n    tag_126:\n        /* \"#utility.yul\":8067:8070   */\n      0x00\n        /* \"#utility.yul\":8095:8134   */\n      tag_239\n        /* \"#utility.yul\":8128:8133   */\n      dup3\n        /* \"#utility.yul\":8095:8134   */\n      tag_118\n      jump\t// in\n    tag_239:\n        /* \"#utility.yul\":8150:8221   */\n      tag_240\n        /* \"#utility.yul\":8214:8220   */\n      dup2\n        /* \"#utility.yul\":8209:8212   */\n      dup6\n        /* \"#utility.yul\":8150:8221   */\n      tag_125\n      jump\t// in\n    tag_240:\n        /* \"#utility.yul\":8143:8221   */\n      swap4\n      pop\n        /* \"#utility.yul\":8230:8295   */\n      tag_241\n        /* \"#utility.yul\":8288:8294   */\n      dup2\n        /* \"#utility.yul\":8283:8286   */\n      dup6\n        /* \"#utility.yul\":8276:8280   */\n      0x20\n        /* \"#utility.yul\":8269:8274   */\n      dup7\n        /* \"#utility.yul\":8265:8281   */\n      add\n        /* \"#utility.yul\":8230:8295   */\n      tag_120\n      jump\t// in\n    tag_241:\n        /* \"#utility.yul\":8320:8349   */\n      tag_242\n        /* \"#utility.yul\":8342:8348   */\n      dup2\n        /* \"#utility.yul\":8320:8349   */\n      tag_103\n      jump\t// in\n    tag_242:\n        /* \"#utility.yul\":8315:8318   */\n      dup5\n        /* \"#utility.yul\":8311:8350   */\n      add\n        /* \"#utility.yul\":8304:8350   */\n      swap2\n      pop\n        /* \"#utility.yul\":8071:8356   */\n      pop\n        /* \"#utility.yul\":7979:8356   */\n      swap3\n      swap2\n      pop\n      pop\n      jump\t// out\n        /* \"#utility.yul\":8362:8675   */\n    tag_33:\n        /* \"#utility.yul\":8475:8479   */\n      0x00\n        /* \"#utility.yul\":8513:8515   */\n      0x20\n        /* \"#utility.yul\":8502:8511   */\n      dup3\n        /* \"#utility.yul\":8498:8516   */\n      add\n        /* \"#utility.yul\":8490:8516   */\n      swap1\n      pop\n        /* \"#utility.yul\":8562:8571   */\n      dup2\n        /* \"#utility.yul\":8556:8560   */\n      dup2\n        /* \"#utility.yul\":8552:8572   */\n      sub\n        /* \"#utility.yul\":8548:8549   */\n      0x00\n        /* \"#utility.yul\":8537:8546   */\n      dup4\n        /* \"#utility.yul\":8533:8550   */\n      add\n        /* \"#utility.yul\":8526:8573   */\n      mstore\n        /* \"#utility.yul\":8590:8668   */\n      tag_244\n        /* \"#utility.yul\":8663:8667   */\n      dup2\n        /* \"#utility.yul\":8654:8660   */\n      dup5\n        /* \"#utility.yul\":8590:8668   */\n      tag_126\n      jump\t// in\n    tag_244:\n        /* \"#utility.yul\":8582:8668   */\n      swap1\n      pop\n        /* \"#utility.yul\":8362:8675   */\n      swap3\n      swap2\n      pop\n      pop\n      jump\t// out\n        /* \"#utility.yul\":8681:8807   */\n    tag_127:\n        /* \"#utility.yul\":8718:8725   */\n      0x00\n        /* \"#utility.yul\":8758:8800   */\n      0xffffffffffffffffffffffffffffffffffffffff\n        /* \"#utility.yul\":8751:8756   */\n      dup3\n        /* \"#utility.yul\":8747:8801   */\n      and\n        /* \"#utility.yul\":8736:8801   */\n      swap1\n      pop\n        /* \"#utility.yul\":8681:8807   */\n      swap2\n      swap1\n      pop\n      jump\t// out\n        /* \"#utility.yul\":8813:8909   */\n    tag_128:\n        /* \"#utility.yul\":8850:8857   */\n      0x00\n        /* \"#utility.yul\":8879:8903   */\n      tag_247\n        /* \"#utility.yul\":8897:8902   */\n      dup3\n        /* \"#utility.yul\":8879:8903   */\n      tag_127\n      jump\t// in\n    tag_247:\n        /* \"#utility.yul\":8868:8903   */\n      swap1\n      pop\n        /* \"#utility.yul\":8813:8909   */\n      swap2\n      swap1\n      pop\n      jump\t// out\n        /* \"#utility.yul\":8915:9037   */\n    tag_129:\n        /* \"#utility.yul\":8988:9012   */\n      tag_249\n        /* \"#utility.yul\":9006:9011   */\n      dup2\n        /* \"#utility.yul\":8988:9012   */\n      tag_128\n      jump\t// in\n    tag_249:\n        /* \"#utility.yul\":8981:8986   */\n      dup2\n        /* \"#utility.yul\":8978:9013   */\n      eq\n        /* \"#utility.yul\":8968:9031   */\n      tag_250\n      jumpi\n        /* \"#utility.yul\":9027:9028   */\n      0x00\n        /* \"#utility.yul\":9024:9025   */\n      0x00\n        /* \"#utility.yul\":9017:9029   */\n      revert\n        /* \"#utility.yul\":8968:9031   */\n    tag_250:\n        /* \"#utility.yul\":8915:9037   */\n      pop\n      jump\t// out\n        /* \"#utility.yul\":9043:9182   */\n    tag_130:\n        /* \"#utility.yul\":9089:9094   */\n      0x00\n        /* \"#utility.yul\":9127:9133   */\n      dup2\n        /* \"#utility.yul\":9114:9134   */\n      calldataload\n        /* \"#utility.yul\":9105:9134   */\n      swap1\n      pop\n        /* \"#utility.yul\":9143:9176   */\n      tag_252\n        /* \"#utility.yul\":9170:9175   */\n      dup2\n        /* \"#utility.yul\":9143:9176   */\n      tag_129\n      jump\t// in\n    tag_252:\n        /* \"#utility.yul\":9043:9182   */\n      swap3\n      swap2\n      pop\n      pop\n      jump\t// out\n        /* \"#utility.yul\":9188:9517   */\n    tag_36:\n        /* \"#utility.yul\":9247:9253   */\n      0x00\n        /* \"#utility.yul\":9296:9298   */\n      0x20\n        /* \"#utility.yul\":9284:9293   */\n      dup3\n        /* \"#utility.yul\":9275:9282   */\n      dup5\n        /* \"#utility.yul\":9271:9294   */\n      sub\n        /* \"#utility.yul\":9267:9299   */\n      slt\n        /* \"#utility.yul\":9264:9383   */\n      iszero\n      tag_254\n      jumpi\n        /* \"#utility.yul\":9302:9381   */\n      tag_255\n      tag_99\n      jump\t// in\n    tag_255:\n        /* \"#utility.yul\":9264:9383   */\n    tag_254:\n        /* \"#utility.yul\":9422:9423   */\n      0x00\n        /* \"#utility.yul\":9447:9500   */\n      tag_256\n        /* \"#utility.yul\":9492:9499   */\n      dup5\n        /* \"#utility.yul\":9483:9489   */\n      dup3\n        /* \"#utility.yul\":9472:9481   */\n      dup6\n        /* \"#utility.yul\":9468:9490   */\n      add\n        /* \"#utility.yul\":9447:9500   */\n      tag_130\n      jump\t// in\n    tag_256:\n        /* \"#utility.yul\":9437:9500   */\n      swap2\n      pop\n        /* \"#utility.yul\":9393:9510   */\n      pop\n        /* \"#utility.yul\":9188:9517   */\n      swap3\n      swap2\n      pop\n      pop\n      jump\t// out\n        /* \"#utility.yul\":9523:9759   */\n    tag_131:\n        /* \"#utility.yul\":9663:9697   */\n      0x4f6e6c792077686974656c6973746564206163636f756e74732063616e207065\n        /* \"#utility.yul\":9659:9660   */\n      0x00\n        /* \"#utility.yul\":9651:9657   */\n      dup3\n        /* \"#utility.yul\":9647:9661   */\n      add\n        /* \"#utility.yul\":9640:9698   */\n      mstore\n        /* \"#utility.yul\":9732:9751   */\n      0x72666f726d207468697320616374696f6e000000000000000000000000000000\n        /* \"#utility.yul\":9727:9729   */\n      0x20\n        /* \"#utility.yul\":9719:9725   */\n      dup3\n        /* \"#utility.yul\":9715:9730   */\n      add\n        /* \"#utility.yul\":9708:9752   */\n      mstore\n        /* \"#utility.yul\":9523:9759   */\n      pop\n      jump\t// out\n        /* \"#utility.yul\":9765:10131   */\n    tag_132:\n        /* \"#utility.yul\":9907:9910   */\n      0x00\n        /* \"#utility.yul\":9928:9995   */\n      tag_259\n        /* \"#utility.yul\":9992:9994   */\n      0x31\n        /* \"#utility.yul\":9987:9990   */\n      dup4\n        /* \"#utility.yul\":9928:9995   */\n      tag_125\n      jump\t// in\n    tag_259:\n        /* \"#utility.yul\":9921:9995   */\n      swap2\n      pop\n        /* \"#utility.yul\":10004:10097   */\n      tag_260\n        /* \"#utility.yul\":10093:10096   */\n      dup3\n        /* \"#utility.yul\":10004:10097   */\n      tag_131\n      jump\t// in\n    tag_260:\n        /* \"#utility.yul\":10122:10124   */\n      0x40\n        /* \"#utility.yul\":10117:10120   */\n      dup3\n        /* \"#utility.yul\":10113:10125   */\n      add\n        /* \"#utility.yul\":10106:10125   */\n      swap1\n      pop\n        /* \"#utility.yul\":9765:10131   */\n      swap2\n      swap1\n      pop\n      jump\t// out\n        /* \"#utility.yul\":10137:10556   */\n    tag_44:\n        /* \"#utility.yul\":10303:10307   */\n      0x00\n        /* \"#utility.yul\":10341:10343   */\n      0x20\n        /* \"#utility.yul\":10330:10339   */\n      dup3\n        /* \"#utility.yul\":10326:10344   */\n      add\n        /* \"#utility.yul\":10318:10344   */\n      swap1\n      pop\n        /* \"#utility.yul\":10390:10399   */\n      dup2\n        /* \"#utility.yul\":10384:10388   */\n      dup2\n        /* \"#utility.yul\":10380:10400   */\n      sub\n        /* \"#utility.yul\":10376:10377   */\n      0x00\n        /* \"#utility.yul\":10365:10374   */\n      dup4\n        /* \"#utility.yul\":10361:10378   */\n      add\n        /* \"#utility.yul\":10354:10401   */\n      mstore\n        /* \"#utility.yul\":10418:10549   */\n      tag_262\n        /* \"#utility.yul\":10544:10548   */\n      dup2\n        /* \"#utility.yul\":10418:10549   */\n      tag_132\n      jump\t// in\n    tag_262:\n        /* \"#utility.yul\":10410:10549   */\n      swap1\n      pop\n        /* \"#utility.yul\":10137:10556   */\n      swap2\n      swap1\n      pop\n      jump\t// out\n        /* \"#utility.yul\":10562:10680   */\n    tag_133:\n        /* \"#utility.yul\":10649:10673   */\n      tag_264\n        /* \"#utility.yul\":10667:10672   */\n      dup2\n        /* \"#utility.yul\":10649:10673   */\n      tag_128\n      jump\t// in\n    tag_264:\n        /* \"#utility.yul\":10644:10647   */\n      dup3\n        /* \"#utility.yul\":10637:10674   */\n      mstore\n        /* \"#utility.yul\":10562:10680   */\n      pop\n      pop\n      jump\t// out\n        /* \"#utility.yul\":10686:11219   */\n    tag_47:\n        /* \"#utility.yul\":10855:10859   */\n      0x00\n        /* \"#utility.yul\":10893:10895   */\n      0x60\n        /* \"#utility.yul\":10882:10891   */\n      dup3\n        /* \"#utility.yul\":10878:10896   */\n      add\n        /* \"#utility.yul\":10870:10896   */\n      swap1\n      pop\n        /* \"#utility.yul\":10906:10977   */\n      tag_266\n        /* \"#utility.yul\":10974:10975   */\n      0x00\n        /* \"#utility.yul\":10963:10972   */\n      dup4\n        /* \"#utility.yul\":10959:10976   */\n      add\n        /* \"#utility.yul\":10950:10956   */\n      dup7\n        /* \"#utility.yul\":10906:10977   */\n      tag_112\n      jump\t// in\n    tag_266:\n        /* \"#utility.yul\":11024:11033   */\n      dup2\n        /* \"#utility.yul\":11018:11022   */\n      dup2\n        /* \"#utility.yul\":11014:11034   */\n      sub\n        /* \"#utility.yul\":11009:11011   */\n      0x20\n        /* \"#utility.yul\":10998:11007   */\n      dup4\n        /* \"#utility.yul\":10994:11012   */\n      add\n        /* \"#utility.yul\":10987:11035   */\n      mstore\n        /* \"#utility.yul\":11052:11130   */\n      tag_267\n        /* \"#utility.yul\":11125:11129   */\n      dup2\n        /* \"#utility.yul\":11116:11122   */\n      dup6\n        /* \"#utility.yul\":11052:11130   */\n      tag_126\n      jump\t// in\n    tag_267:\n        /* \"#utility.yul\":11044:11130   */\n      swap1\n      pop\n        /* \"#utility.yul\":11140:11212   */\n      tag_268\n        /* \"#utility.yul\":11208:11210   */\n      0x40\n        /* \"#utility.yul\":11197:11206   */\n      dup4\n        /* \"#utility.yul\":11193:11211   */\n      add\n        /* \"#utility.yul\":11184:11190   */\n      dup5\n        /* \"#utility.yul\":11140:11212   */\n      tag_133\n      jump\t// in\n    tag_268:\n        /* \"#utility.yul\":10686:11219   */\n      swap5\n      swap4\n      pop\n      pop\n      pop\n      pop\n      jump\t// out\n        /* \"#utility.yul\":11225:11405   */\n    tag_134:\n        /* \"#utility.yul\":11273:11350   */\n      0x4e487b7100000000000000000000000000000000000000000000000000000000\n        /* \"#utility.yul\":11270:11271   */\n      0x00\n        /* \"#utility.yul\":11263:11351   */\n      mstore\n        /* \"#utility.yul\":11370:11374   */\n      0x22\n        /* \"#utility.yul\":11367:11368   */\n      0x04\n        /* \"#utility.yul\":11360:11375   */\n      mstore\n        /* \"#utility.yul\":11394:11398   */\n      0x24\n        /* \"#utility.yul\":11391:11392   */\n      0x00\n        /* \"#utility.yul\":11384:11399   */\n      revert\n        /* \"#utility.yul\":11411:11731   */\n    tag_73:\n        /* \"#utility.yul\":11455:11461   */\n      0x00\n        /* \"#utility.yul\":11492:11493   */\n      0x02\n        /* \"#utility.yul\":11486:11490   */\n      dup3\n        /* \"#utility.yul\":11482:11494   */\n      div\n        /* \"#utility.yul\":11472:11494   */\n      swap1\n      pop\n        /* \"#utility.yul\":11539:11540   */\n      0x01\n        /* \"#utility.yul\":11533:11537   */\n      dup3\n        /* \"#utility.yul\":11529:11541   */\n      and\n        /* \"#utility.yul\":11560:11578   */\n      dup1\n        /* \"#utility.yul\":11550:11631   */\n      tag_271\n      jumpi\n        /* \"#utility.yul\":11616:11620   */\n      0x7f\n        /* \"#utility.yul\":11608:11614   */\n      dup3\n        /* \"#utility.yul\":11604:11621   */\n      and\n        /* \"#utility.yul\":11594:11621   */\n      swap2\n      pop\n        /* \"#utility.yul\":11550:11631   */\n    tag_271:\n        /* \"#utility.yul\":11678:11680   */\n      0x20\n        /* \"#utility.yul\":11670:11676   */\n      dup3\n        /* \"#utility.yul\":11667:11681   */\n      lt\n        /* \"#utility.yul\":11647:11665   */\n      dup2\n        /* \"#utility.yul\":11644:11682   */\n      sub\n        /* \"#utility.yul\":11641:11725   */\n      tag_272\n      jumpi\n        /* \"#utility.yul\":11697:11715   */\n      tag_273\n      tag_134\n      jump\t// in\n    tag_273:\n        /* \"#utility.yul\":11641:11725   */\n    tag_272:\n        /* \"#utility.yul\":11462:11731   */\n      pop\n        /* \"#utility.yul\":11411:11731   */\n      swap2\n      swap1\n      pop\n      jump\t// out\n        /* \"#utility.yul\":11737:11878   */\n    tag_135:\n        /* \"#utility.yul\":11786:11790   */\n      0x00\n        /* \"#utility.yul\":11809:11812   */\n      dup2\n        /* \"#utility.yul\":11801:11812   */\n      swap1\n      pop\n        /* \"#utility.yul\":11832:11835   */\n      dup2\n        /* \"#utility.yul\":11829:11830   */\n      0x00\n        /* \"#utility.yul\":11822:11836   */\n      mstore\n        /* \"#utility.yul\":11866:11870   */\n      0x20\n        /* \"#utility.yul\":11863:11864   */\n      0x00\n        /* \"#utility.yul\":11853:11871   */\n      keccak256\n        /* \"#utility.yul\":11845:11871   */\n      swap1\n      pop\n        /* \"#utility.yul\":11737:11878   */\n      swap2\n      swap1\n      pop\n      jump\t// out\n        /* \"#utility.yul\":11884:11977   */\n    tag_136:\n        /* \"#utility.yul\":11921:11927   */\n      0x00\n        /* \"#utility.yul\":11968:11970   */\n      0x20\n        /* \"#utility.yul\":11963:11965   */\n      0x1f\n        /* \"#utility.yul\":11956:11961   */\n      dup4\n        /* \"#utility.yul\":11952:11966   */\n      add\n        /* \"#utility.yul\":11948:11971   */\n      div\n        /* \"#utility.yul\":11938:11971   */\n      swap1\n      pop\n        /* \"#utility.yul\":11884:11977   */\n      swap2\n      swap1\n      pop\n      jump\t// out\n        /* \"#utility.yul\":11983:12090   */\n    tag_137:\n        /* \"#utility.yul\":12027:12035   */\n      0x00\n        /* \"#utility.yul\":12077:12082   */\n      dup3\n        /* \"#utility.yul\":12071:12075   */\n      dup3\n        /* \"#utility.yul\":12067:12083   */\n      shl\n        /* \"#utility.yul\":12046:12083   */\n      swap1\n      pop\n        /* \"#utility.yul\":11983:12090   */\n      swap3\n      swap2\n      pop\n      pop\n      jump\t// out\n        /* \"#utility.yul\":12096:12489   */\n    tag_138:\n        /* \"#utility.yul\":12165:12171   */\n      0x00\n        /* \"#utility.yul\":12215:12216   */\n      0x08\n        /* \"#utility.yul\":12203:12213   */\n      dup4\n        /* \"#utility.yul\":12199:12217   */\n      mul\n        /* \"#utility.yul\":12238:12335   */\n      tag_278\n        /* \"#utility.yul\":12268:12334   */\n      0xffffffffffffffffffffffffffffffffffffffffffffffffffffffffffffffff\n        /* \"#utility.yul\":12257:12266   */\n      dup3\n        /* \"#utility.yul\":12238:12335   */\n      tag_137\n      jump\t// in\n    tag_278:\n        /* \"#utility.yul\":12356:12395   */\n      tag_279\n        /* \"#utility.yul\":12386:12394   */\n      dup7\n        /* \"#utility.yul\":12375:12384   */\n      dup4\n        /* \"#utility.yul\":12356:12395   */\n      tag_137\n      jump\t// in\n    tag_279:\n        /* \"#utility.yul\":12344:12395   */\n      swap6\n      pop\n        /* \"#utility.yul\":12428:12432   */\n      dup1\n        /* \"#utility.yul\":12424:12433   */\n      not\n        /* \"#utility.yul\":12417:12422   */\n      dup5\n        /* \"#utility.yul\":12413:12434   */\n      and\n        /* \"#utility.yul\":12404:12434   */\n      swap4\n      pop\n        /* \"#utility.yul\":12477:12481   */\n      dup1\n        /* \"#utility.yul\":12467:12475   */\n      dup7\n        /* \"#utility.yul\":12463:12482   */\n      and\n        /* \"#utility.yul\":12456:12461   */\n      dup5\n        /* \"#utility.yul\":12453:12483   */\n      or\n        /* \"#utility.yul\":12443:12483   */\n      swap3\n      pop\n        /* \"#utility.yul\":12172:12489   */\n      pop\n      pop\n        /* \"#utility.yul\":12096:12489   */\n      swap4\n      swap3\n      pop\n      pop\n      pop\n      jump\t// out\n        /* \"#utility.yul\":12495:12555   */\n    tag_139:\n        /* \"#utility.yul\":12523:12526   */\n      0x00\n        /* \"#utility.yul\":12544:12549   */\n      dup2\n        /* \"#utility.yul\":12537:12549   */\n      swap1\n      pop\n        /* \"#utility.yul\":12495:12555   */\n      swap2\n      swap1\n      pop\n      jump\t// out\n        /* \"#utility.yul\":12561:12703   */\n    tag_140:\n        /* \"#utility.yul\":12611:12620   */\n      0x00\n        /* \"#utility.yul\":12644:12697   */\n      tag_282\n        /* \"#utility.yul\":12662:12696   */\n      tag_283\n        /* \"#utility.yul\":12671:12695   */\n      tag_284\n        /* \"#utility.yul\":12689:12694   */\n      dup5\n        /* \"#utility.yul\":12671:12695   */\n      tag_111\n      jump\t// in\n    tag_284:\n        /* \"#utility.yul\":12662:12696   */\n      tag_139\n      jump\t// in\n    tag_283:\n        /* \"#utility.yul\":12644:12697   */\n      tag_111\n      jump\t// in\n    tag_282:\n        /* \"#utility.yul\":12631:12697   */\n      swap1\n      pop\n        /* \"#utility.yul\":12561:12703   */\n      swap2\n      swap1\n      pop\n      jump\t// out\n        /* \"#utility.yul\":12709:12784   */\n    tag_141:\n        /* \"#utility.yul\":12752:12755   */\n      0x00\n        /* \"#utility.yul\":12773:12778   */\n      dup2\n        /* \"#utility.yul\":12766:12778   */\n      swap1\n      pop\n        /* \"#utility.yul\":12709:12784   */\n      swap2\n      swap1\n      pop\n      jump\t// out\n        /* \"#utility.yul\":12790:13059   */\n    tag_142:\n        /* \"#utility.yul\":12900:12939   */\n      tag_287\n        /* \"#utility.yul\":12931:12938   */\n      dup4\n        /* \"#utility.yul\":12900:12939   */\n      tag_140\n      jump\t// in\n    tag_287:\n        /* \"#utility.yul\":12961:13052   */\n      tag_288\n        /* \"#utility.yul\":13010:13051   */\n      tag_289\n        /* \"#utility.yul\":13034:13050   */\n      dup3\n        /* \"#utility.yul\":13010:13051   */\n      tag_141\n      jump\t// in\n    tag_289:\n        /* \"#utility.yul\":13002:13008   */\n      dup5\n        /* \"#utility.yul\":12995:12999   */\n      dup5\n        /* \"#utility.yul\":12989:13000   */\n      sload\n        /* \"#utility.yul\":12961:13052   */\n      tag_138\n      jump\t// in\n    tag_288:\n        /* \"#utility.yul\":12955:12959   */\n      dup3\n        /* \"#utility.yul\":12948:13053   */\n      sstore\n        /* \"#utility.yul\":12866:13059   */\n      pop\n        /* \"#utility.yul\":12790:13059   */\n      pop\n      pop\n      pop\n      jump\t// out\n        /* \"#utility.yul\":13065:13138   */\n    tag_143:\n        /* \"#utility.yul\":13110:13113   */\n      0x00\n        /* \"#utility.yul\":13131:13132   */\n      0x00\n        /* \"#utility.yul\":13124:13132   */\n      swap1\n      pop\n        /* \"#utility.yul\":13065:13138   */\n      swap1\n      jump\t// out\n        /* \"#utility.yul\":13144:13333   */\n    tag_144:\n        /* \"#utility.yul\":13221:13253   */\n      tag_292\n      tag_143\n      jump\t// in\n    tag_292:\n        /* \"#utility.yul\":13262:13327   */\n      tag_293\n        /* \"#utility.yul\":13320:13326   */\n      dup2\n        /* \"#utility.yul\":13312:13318   */\n      dup5\n        /* \"#utility.yul\":13306:13310   */\n      dup5\n        /* \"#utility.yul\":13262:13327   */\n      tag_142\n      jump\t// in\n    tag_293:\n        /* \"#utility.yul\":13197:13333   */\n      pop\n        /* \"#utility.yul\":13144:13333   */\n      pop\n      pop\n      jump\t// out\n        /* \"#utility.yul\":13339:13525   */\n    tag_145:\n        /* \"#utility.yul\":13399:13519   */\n    tag_295:\n        /* \"#utility.yul\":13416:13419   */\n      dup2\n        /* \"#utility.yul\":13409:13414   */\n      dup2\n        /* \"#utility.yul\":13406:13420   */\n      lt\n        /* \"#utility.yul\":13399:13519   */\n      iszero\n      tag_297\n      jumpi\n        /* \"#utility.yul\":13470:13509   */\n      tag_298\n        /* \"#utility.yul\":13507:13508   */\n      0x00\n        /* \"#utility.yul\":13500:13505   */\n      dup3\n        /* \"#utility.yul\":13470:13509   */\n      tag_144\n      jump\t// in\n    tag_298:\n        /* \"#utility.yul\":13443:13444   */\n      0x01\n        /* \"#utility.yul\":13436:13441   */\n      dup2\n        /* \"#utility.yul\":13432:13445   */\n      add\n        /* \"#utility.yul\":13423:13445   */\n      swap1\n      pop\n        /* \"#utility.yul\":13399:13519   */\n      jump(tag_295)\n    tag_297:\n        /* \"#utility.yul\":13339:13525   */\n      pop\n      pop\n      jump\t// out\n        /* \"#utility.yul\":13531:14074   */\n    tag_146:\n        /* \"#utility.yul\":13632:13634   */\n      0x1f\n        /* \"#utility.yul\":13627:13630   */\n      dup3\n        /* \"#utility.yul\":13624:13635   */\n      gt\n        /* \"#utility.yul\":13621:14067   */\n      iszero\n      tag_300\n      jumpi\n        /* \"#utility.yul\":13666:13704   */\n      tag_301\n        /* \"#utility.yul\":13698:13703   */\n      dup2\n        /* \"#utility.yul\":13666:13704   */\n      tag_135\n      jump\t// in\n    tag_301:\n        /* \"#utility.yul\":13750:13779   */\n      tag_302\n        /* \"#utility.yul\":13768:13778   */\n      dup5\n        /* \"#utility.yul\":13750:13779   */\n      tag_136\n      jump\t// in\n    tag_302:\n        /* \"#utility.yul\":13740:13748   */\n      dup2\n        /* \"#utility.yul\":13736:13780   */\n      add\n        /* \"#utility.yul\":13933:13935   */\n      0x20\n        /* \"#utility.yul\":13921:13931   */\n      dup6\n        /* \"#utility.yul\":13918:13936   */\n      lt\n        /* \"#utility.yul\":13915:13964   */\n      iszero\n      tag_303\n      jumpi\n        /* \"#utility.yul\":13954:13962   */\n      dup2\n        /* \"#utility.yul\":13939:13962   */\n      swap1\n      pop\n        /* \"#utility.yul\":13915:13964   */\n    tag_303:\n        /* \"#utility.yul\":13977:14057   */\n      tag_304\n        /* \"#utility.yul\":14033:14055   */\n      tag_305\n        /* \"#utility.yul\":14051:14054   */\n      dup6\n        /* \"#utility.yul\":14033:14055   */\n      tag_136\n      jump\t// in\n    tag_305:\n        /* \"#utility.yul\":14023:14031   */\n      dup4\n        /* \"#utility.yul\":14019:14056   */\n      add\n        /* \"#utility.yul\":14006:14017   */\n      dup3\n        /* \"#utility.yul\":13977:14057   */\n      tag_145\n      jump\t// in\n    tag_304:\n        /* \"#utility.yul\":13636:14067   */\n      pop\n      pop\n        /* \"#utility.yul\":13621:14067   */\n    tag_300:\n        /* \"#utility.yul\":13531:14074   */\n      pop\n      pop\n      pop\n      jump\t// out\n        /* \"#utility.yul\":14080:14197   */\n    tag_147:\n        /* \"#utility.yul\":14134:14142   */\n      0x00\n        /* \"#utility.yul\":14184:14189   */\n      dup3\n        /* \"#utility.yul\":14178:14182   */\n      dup3\n        /* \"#utility.yul\":14174:14190   */\n      shr\n        /* \"#utility.yul\":14153:14190   */\n      swap1\n      pop\n        /* \"#utility.yul\":14080:14197   */\n      swap3\n      swap2\n      pop\n      pop\n      jump\t// out\n        /* \"#utility.yul\":14203:14372   */\n    tag_148:\n        /* \"#utility.yul\":14247:14253   */\n      0x00\n        /* \"#utility.yul\":14280:14331   */\n      tag_308\n        /* \"#utility.yul\":14328:14329   */\n      0x00\n        /* \"#utility.yul\":14324:14330   */\n      not\n        /* \"#utility.yul\":14316:14321   */\n      dup5\n        /* \"#utility.yul\":14313:14314   */\n      0x08\n        /* \"#utility.yul\":14309:14322   */\n      mul\n        /* \"#utility.yul\":14280:14331   */\n      tag_147\n      jump\t// in\n    tag_308:\n        /* \"#utility.yul\":14276:14332   */\n      not\n        /* \"#utility.yul\":14361:14365   */\n      dup1\n        /* \"#utility.yul\":14355:14359   */\n      dup4\n        /* \"#utility.yul\":14351:14366   */\n      and\n        /* \"#utility.yul\":14341:14366   */\n      swap2\n      pop\n        /* \"#utility.yul\":14254:14372   */\n      pop\n        /* \"#utility.yul\":14203:14372   */\n      swap3\n      swap2\n      pop\n      pop\n      jump\t// out\n        /* \"#utility.yul\":14377:14672   */\n    tag_149:\n        /* \"#utility.yul\":14453:14457   */\n      0x00\n        /* \"#utility.yul\":14599:14628   */\n      tag_310\n        /* \"#utility.yul\":14624:14627   */\n      dup4\n        /* \"#utility.yul\":14618:14622   */\n      dup4\n        /* \"#utility.yul\":14599:14628   */\n      tag_148\n      jump\t// in\n    tag_310:\n        /* \"#utility.yul\":14591:14628   */\n      swap2\n      pop\n        /* \"#utility.yul\":14661:14664   */\n      dup3\n        /* \"#utility.yul\":14658:14659   */\n      0x02\n        /* \"#utility.yul\":14654:14665   */\n      mul\n        /* \"#utility.yul\":14648:14652   */\n      dup3\n        /* \"#utility.yul\":14645:14666   */\n      or\n        /* \"#utility.yul\":14637:14666   */\n      swap1\n      pop\n        /* \"#utility.yul\":14377:14672   */\n      swap3\n      swap2\n      pop\n      pop\n      jump\t// out\n        /* \"#utility.yul\":14677:16072   */\n    tag_50:\n        /* \"#utility.yul\":14794:14831   */\n      tag_312\n        /* \"#utility.yul\":14827:14830   */\n      dup3\n        /* \"#utility.yul\":14794:14831   */\n      tag_118\n      jump\t// in\n    tag_312:\n        /* \"#utility.yul\":14896:14914   */\n      0xffffffffffffffff\n        /* \"#utility.yul\":14888:14894   */\n      dup2\n        /* \"#utility.yul\":14885:14915   */\n      gt\n        /* \"#utility.yul\":14882:14938   */\n      iszero\n      tag_313\n      jumpi\n        /* \"#utility.yul\":14918:14936   */\n      tag_314\n      tag_104\n      jump\t// in\n    tag_314:\n        /* \"#utility.yul\":14882:14938   */\n    tag_313:\n        /* \"#utility.yul\":14962:15000   */\n      tag_315\n        /* \"#utility.yul\":14994:14998   */\n      dup3\n        /* \"#utility.yul\":14988:14999   */\n      sload\n        /* \"#utility.yul\":14962:15000   */\n      tag_73\n      jump\t// in\n    tag_315:\n        /* \"#utility.yul\":15047:15114   */\n      tag_316\n        /* \"#utility.yul\":15107:15113   */\n      dup3\n        /* \"#utility.yul\":15099:15105   */\n      dup3\n        /* \"#utility.yul\":15093:15097   */\n      dup6\n        /* \"#utility.yul\":15047:15114   */\n      tag_146\n      jump\t// in\n    tag_316:\n        /* \"#utility.yul\":15141:15142   */\n      0x00\n        /* \"#utility.yul\":15165:15169   */\n      0x20\n        /* \"#utility.yul\":15152:15169   */\n      swap1\n      pop\n        /* \"#utility.yul\":15197:15199   */\n      0x1f\n        /* \"#utility.yul\":15189:15195   */\n      dup4\n        /* \"#utility.yul\":15186:15200   */\n      gt\n        /* \"#utility.yul\":15214:15215   */\n      0x01\n        /* \"#utility.yul\":15209:15827   */\n      dup2\n      eq\n      tag_318\n      jumpi\n        /* \"#utility.yul\":15871:15872   */\n      0x00\n        /* \"#utility.yul\":15888:15894   */\n      dup5\n        /* \"#utility.yul\":15885:15962   */\n      iszero\n      tag_319\n      jumpi\n        /* \"#utility.yul\":15937:15946   */\n      dup3\n        /* \"#utility.yul\":15932:15935   */\n      dup8\n        /* \"#utility.yul\":15928:15947   */\n      add\n        /* \"#utility.yul\":15922:15948   */\n      mload\n        /* \"#utility.yul\":15913:15948   */\n      swap1\n      pop\n        /* \"#utility.yul\":15885:15962   */\n    tag_319:\n        /* \"#utility.yul\":15988:16055   */\n      tag_320\n        /* \"#utility.yul\":16048:16054   */\n      dup6\n        /* \"#utility.yul\":16041:16046   */\n      dup3\n        /* \"#utility.yul\":15988:16055   */\n      tag_149\n      jump\t// in\n    tag_320:\n        /* \"#utility.yul\":15982:15986   */\n      dup7\n        /* \"#utility.yul\":15975:16056   */\n      sstore\n        /* \"#utility.yul\":15844:16066   */\n      pop\n        /* \"#utility.yul\":15179:16066   */\n      jump(tag_317)\n        /* \"#utility.yul\":15209:15827   */\n    tag_318:\n        /* \"#utility.yul\":15261:15265   */\n      0x1f\n        /* \"#utility.yul\":15257:15266   */\n      not\n        /* \"#utility.yul\":15249:15255   */\n      dup5\n        /* \"#utility.yul\":15245:15267   */\n      and\n        /* \"#utility.yul\":15295:15332   */\n      tag_321\n        /* \"#utility.yul\":15327:15331   */\n      dup7\n        /* \"#utility.yul\":15295:15332   */\n      tag_135\n      jump\t// in\n    tag_321:\n        /* \"#utility.yul\":15354:15355   */\n      0x00\n        /* \"#utility.yul\":15368:15576   */\n    tag_322:\n        /* \"#utility.yul\":15382:15389   */\n      dup3\n        /* \"#utility.yul\":15379:15380   */\n      dup2\n        /* \"#utility.yul\":15376:15390   */\n      lt\n        /* \"#utility.yul\":15368:15576   */\n      iszero\n      tag_324\n      jumpi\n        /* \"#utility.yul\":15461:15470   */\n      dup5\n        /* \"#utility.yul\":15456:15459   */\n      dup10\n        /* \"#utility.yul\":15452:15471   */\n      add\n        /* \"#utility.yul\":15446:15472   */\n      mload\n        /* \"#utility.yul\":15438:15444   */\n      dup3\n        /* \"#utility.yul\":15431:15473   */\n      sstore\n        /* \"#utility.yul\":15512:15513   */\n      0x01\n        /* \"#utility.yul\":15504:15510   */\n      dup3\n        /* \"#utility.yul\":15500:15514   */\n      add\n        /* \"#utility.yul\":15490:15514   */\n      swap2\n      pop\n        /* \"#utility.yul\":15559:15561   */\n      0x20\n        /* \"#utility.yul\":15548:15557   */\n      dup6\n        /* \"#utility.yul\":15544:15562   */\n      add\n        /* \"#utility.yul\":15531:15562   */\n      swap5\n      pop\n        /* \"#utility.yul\":15405:15409   */\n      0x20\n        /* \"#utility.yul\":15402:15403   */\n      dup2\n        /* \"#utility.yul\":15398:15410   */\n      add\n        /* \"#utility.yul\":15393:15410   */\n      swap1\n      pop\n        /* \"#utility.yul\":15368:15576   */\n      jump(tag_322)\n    tag_324:\n        /* \"#utility.yul\":15604:15610   */\n      dup7\n        /* \"#utility.yul\":15595:15602   */\n      dup4\n        /* \"#utility.yul\":15592:15611   */\n      lt\n        /* \"#utility.yul\":15589:15768   */\n      iszero\n      tag_325\n      jumpi\n        /* \"#utility.yul\":15662:15671   */\n      dup5\n        /* \"#utility.yul\":15657:15660   */\n      dup10\n        /* \"#utility.yul\":15653:15672   */\n      add\n        /* \"#utility.yul\":15647:15673   */\n      mload\n        /* \"#utility.yul\":15705:15753   */\n      tag_326\n        /* \"#utility.yul\":15747:15751   */\n      0x1f\n        /* \"#utility.yul\":15739:15745   */\n      dup10\n        /* \"#utility.yul\":15735:15752   */\n      and\n        /* \"#utility.yul\":15724:15733   */\n      dup3\n        /* \"#utility.yul\":15705:15753   */\n      tag_148\n      jump\t// in\n    tag_326:\n        /* \"#utility.yul\":15697:15703   */\n      dup4\n        /* \"#utility.yul\":15690:15754   */\n      sstore\n        /* \"#utility.yul\":15612:15768   */\n      pop\n        /* \"#utility.yul\":15589:15768   */\n    tag_325:\n        /* \"#utility.yul\":15814:15815   */\n      0x01\n        /* \"#utility.yul\":15810:15811   */\n      0x02\n        /* \"#utility.yul\":15802:15808   */\n      dup9\n        /* \"#utility.yul\":15798:15812   */\n      mul\n        /* \"#utility.yul\":15794:15816   */\n      add\n        /* \"#utility.yul\":15788:15792   */\n      dup9\n        /* \"#utility.yul\":15781:15817   */\n      sstore\n        /* \"#utility.yul\":15216:15827   */\n      pop\n      pop\n      pop\n        /* \"#utility.yul\":15179:16066   */\n    tag_317:\n      pop\n        /* \"#utility.yul\":14769:16072   */\n      pop\n      pop\n      pop\n        /* \"#utility.yul\":14677:16072   */\n      pop\n      pop\n      jump\t// out\n        /* \"#utility.yul\":16078:16258   */\n    tag_150:\n        /* \"#utility.yul\":16126:16203   */\n      0x4e487b7100000000000000000000000000000000000000000000000000000000\n        /* \"#utility.yul\":16123:16124   */\n      0x00\n        /* \"#utility.yul\":16116:16204   */\n      mstore\n        /* \"#utility.yul\":16223:16227   */\n      0x11\n        /* \"#utility.yul\":16220:16221   */\n      0x04\n        /* \"#utility.yul\":16213:16228   */\n      mstore\n        /* \"#utility.yul\":16247:16251   */\n      0x24\n        /* \"#utility.yul\":16244:16245   */\n      0x00\n        /* \"#utility.yul\":16237:16252   */\n      revert\n        /* \"#utility.yul\":16264:16458   */\n    tag_52:\n        /* \"#utility.yul\":16304:16308   */\n      0x00\n        /* \"#utility.yul\":16324:16344   */\n      tag_329\n        /* \"#utility.yul\":16342:16343   */\n      dup3\n        /* \"#utility.yul\":16324:16344   */\n      tag_111\n      jump\t// in\n    tag_329:\n        /* \"#utility.yul\":16319:16344   */\n      swap2\n      pop\n        /* \"#utility.yul\":16358:16378   */\n      tag_330\n        /* \"#utility.yul\":16376:16377   */\n      dup4\n        /* \"#utility.yul\":16358:16378   */\n      tag_111\n      jump\t// in\n    tag_330:\n        /* \"#utility.yul\":16353:16378   */\n      swap3\n      pop\n        /* \"#utility.yul\":16402:16403   */\n      dup3\n        /* \"#utility.yul\":16399:16400   */\n      dup3\n        /* \"#utility.yul\":16395:16404   */\n      sub\n        /* \"#utility.yul\":16387:16404   */\n      swap1\n      pop\n        /* \"#utility.yul\":16426:16427   */\n      dup2\n        /* \"#utility.yul\":16420:16424   */\n      dup2\n        /* \"#utility.yul\":16417:16428   */\n      gt\n        /* \"#utility.yul\":16414:16451   */\n      iszero\n      tag_331\n      jumpi\n        /* \"#utility.yul\":16431:16449   */\n      tag_332\n      tag_150\n      jump\t// in\n    tag_332:\n        /* \"#utility.yul\":16414:16451   */\n    tag_331:\n        /* \"#utility.yul\":16264:16458   */\n      swap3\n      swap2\n      pop\n      pop\n      jump\t// out\n        /* \"#utility.yul\":16464:16697   */\n    tag_54:\n        /* \"#utility.yul\":16503:16506   */\n      0x00\n        /* \"#utility.yul\":16526:16550   */\n      tag_334\n        /* \"#utility.yul\":16544:16549   */\n      dup3\n        /* \"#utility.yul\":16526:16550   */\n      tag_111\n      jump\t// in\n    tag_334:\n        /* \"#utility.yul\":16517:16550   */\n      swap2\n      pop\n        /* \"#utility.yul\":16572:16638   */\n      0xffffffffffffffffffffffffffffffffffffffffffffffffffffffffffffffff\n        /* \"#utility.yul\":16565:16570   */\n      dup3\n        /* \"#utility.yul\":16562:16639   */\n      sub\n        /* \"#utility.yul\":16559:16662   */\n      tag_335\n      jumpi\n        /* \"#utility.yul\":16642:16660   */\n      tag_336\n      tag_150\n      jump\t// in\n    tag_336:\n        /* \"#utility.yul\":16559:16662   */\n    tag_335:\n        /* \"#utility.yul\":16689:16690   */\n      0x01\n        /* \"#utility.yul\":16682:16687   */\n      dup3\n        /* \"#utility.yul\":16678:16691   */\n      add\n        /* \"#utility.yul\":16671:16691   */\n      swap1\n      pop\n        /* \"#utility.yul\":16464:16697   */\n      swap2\n      swap1\n      pop\n      jump\t// out\n        /* \"#utility.yul\":16703:16883   */\n    tag_151:\n        /* \"#utility.yul\":16843:16875   */\n      0x4e6f207375636820706f736974696f6e20696e207468652061727261792e0000\n        /* \"#utility.yul\":16839:16840   */\n      0x00\n        /* \"#utility.yul\":16831:16837   */\n      dup3\n        /* \"#utility.yul\":16827:16841   */\n      add\n        /* \"#utility.yul\":16820:16876   */\n      mstore\n        /* \"#utility.yul\":16703:16883   */\n      pop\n      jump\t// out\n        /* \"#utility.yul\":16889:17255   */\n    tag_152:\n        /* \"#utility.yul\":17031:17034   */\n      0x00\n        /* \"#utility.yul\":17052:17119   */\n      tag_339\n        /* \"#utility.yul\":17116:17118   */\n      0x1e\n        /* \"#utility.yul\":17111:17114   */\n      dup4\n        /* \"#utility.yul\":17052:17119   */\n      tag_125\n      jump\t// in\n    tag_339:\n        /* \"#utility.yul\":17045:17119   */\n      swap2\n      pop\n        /* \"#utility.yul\":17128:17221   */\n      tag_340\n        /* \"#utility.yul\":17217:17220   */\n      dup3\n        /* \"#utility.yul\":17128:17221   */\n      tag_151\n      jump\t// in\n    tag_340:\n        /* \"#utility.yul\":17246:17248   */\n      0x20\n        /* \"#utility.yul\":17241:17244   */\n      dup3\n        /* \"#utility.yul\":17237:17249   */\n      add\n        /* \"#utility.yul\":17230:17249   */\n      swap1\n      pop\n        /* \"#utility.yul\":16889:17255   */\n      swap2\n      swap1\n      pop\n      jump\t// out\n        /* \"#utility.yul\":17261:17680   */\n    tag_61:\n        /* \"#utility.yul\":17427:17431   */\n      0x00\n        /* \"#utility.yul\":17465:17467   */\n      0x20\n        /* \"#utility.yul\":17454:17463   */\n      dup3\n        /* \"#utility.yul\":17450:17468   */\n      add\n        /* \"#utility.yul\":17442:17468   */\n      swap1\n      pop\n        /* \"#utility.yul\":17514:17523   */\n      dup2\n        /* \"#utility.yul\":17508:17512   */\n      dup2\n        /* \"#utility.yul\":17504:17524   */\n      sub\n        /* \"#utility.yul\":17500:17501   */\n      0x00\n        /* \"#utility.yul\":17489:17498   */\n      dup4\n        /* \"#utility.yul\":17485:17502   */\n      add\n        /* \"#utility.yul\":17478:17525   */\n      mstore\n        /* \"#utility.yul\":17542:17673   */\n      tag_342\n        /* \"#utility.yul\":17668:17672   */\n      dup2\n        /* \"#utility.yul\":17542:17673   */\n      tag_152\n      jump\t// in\n    tag_342:\n        /* \"#utility.yul\":17534:17673   */\n      swap1\n      pop\n        /* \"#utility.yul\":17261:17680   */\n      swap2\n      swap1\n      pop\n      jump\t// out\n        /* \"#utility.yul\":17686:17866   */\n    tag_65:\n        /* \"#utility.yul\":17734:17811   */\n      0x4e487b7100000000000000000000000000000000000000000000000000000000\n        /* \"#utility.yul\":17731:17732   */\n      0x00\n        /* \"#utility.yul\":17724:17812   */\n      mstore\n        /* \"#utility.yul\":17831:17835   */\n      0x32\n        /* \"#utility.yul\":17828:17829   */\n      0x04\n        /* \"#utility.yul\":17821:17836   */\n      mstore\n        /* \"#utility.yul\":17855:17859   */\n      0x24\n        /* \"#utility.yul\":17852:17853   */\n      0x00\n        /* \"#utility.yul\":17845:17860   */\n      revert\n        /* \"#utility.yul\":17872:18093   */\n    tag_153:\n        /* \"#utility.yul\":18012:18046   */\n      0x4f6e6c79206f776e65722063616e20706572666f726d20746869732061637469\n        /* \"#utility.yul\":18008:18009   */\n      0x00\n        /* \"#utility.yul\":18000:18006   */\n      dup3\n        /* \"#utility.yul\":17996:18010   */\n      add\n        /* \"#utility.yul\":17989:18047   */\n      mstore\n        /* \"#utility.yul\":18081:18085   */\n      0x6f6e000000000000000000000000000000000000000000000000000000000000\n        /* \"#utility.yul\":18076:18078   */\n      0x20\n        /* \"#utility.yul\":18068:18074   */\n      dup3\n        /* \"#utility.yul\":18064:18079   */\n      add\n        /* \"#utility.yul\":18057:18086   */\n      mstore\n        /* \"#utility.yul\":17872:18093   */\n      pop\n      jump\t// out\n        /* \"#utility.yul\":18099:18465   */\n    tag_154:\n        /* \"#utility.yul\":18241:18244   */\n      0x00\n        /* \"#utility.yul\":18262:18329   */\n      tag_346\n        /* \"#utility.yul\":18326:18328   */\n      0x22\n        /* \"#utility.yul\":18321:18324   */\n      dup4\n        /* \"#utility.yul\":18262:18329   */\n      tag_125\n      jump\t// in\n    tag_346:\n        /* \"#utility.yul\":18255:18329   */\n      swap2\n      pop\n        /* \"#utility.yul\":18338:18431   */\n      tag_347\n        /* \"#utility.yul\":18427:18430   */\n      dup3\n        /* \"#utility.yul\":18338:18431   */\n      tag_153\n      jump\t// in\n    tag_347:\n        /* \"#utility.yul\":18456:18458   */\n      0x40\n        /* \"#utility.yul\":18451:18454   */\n      dup3\n        /* \"#utility.yul\":18447:18459   */\n      add\n        /* \"#utility.yul\":18440:18459   */\n      swap1\n      pop\n        /* \"#utility.yul\":18099:18465   */\n      swap2\n      swap1\n      pop\n      jump\t// out\n        /* \"#utility.yul\":18471:18890   */\n    tag_92:\n        /* \"#utility.yul\":18637:18641   */\n      0x00\n        /* \"#utility.yul\":18675:18677   */\n      0x20\n        /* \"#utility.yul\":18664:18673   */\n      dup3\n        /* \"#utility.yul\":18660:18678   */\n      add\n        /* \"#utility.yul\":18652:18678   */\n      swap1\n      pop\n        /* \"#utility.yul\":18724:18733   */\n      dup2\n        /* \"#utility.yul\":18718:18722   */\n      dup2\n        /* \"#utility.yul\":18714:18734   */\n      sub\n        /* \"#utility.yul\":18710:18711   */\n      0x00\n        /* \"#utility.yul\":18699:18708   */\n      dup4\n        /* \"#utility.yul\":18695:18712   */\n      add\n        /* \"#utility.yul\":18688:18735   */\n      mstore\n        /* \"#utility.yul\":18752:18883   */\n      tag_349\n        /* \"#utility.yul\":18878:18882   */\n      dup2\n        /* \"#utility.yul\":18752:18883   */\n      tag_154\n      jump\t// in\n    tag_349:\n        /* \"#utility.yul\":18744:18883   */\n      swap1\n      pop\n        /* \"#utility.yul\":18471:18890   */\n      swap2\n      swap1\n      pop\n      jump\t// out\n\n    auxdata: 0xa264697066735822122063ce7f542bd976249c4fda98ebbea0cc747804688eee1fcf25a797d0afb26c9f64736f6c634300081e0033\n}\n",
				"bytecode": {
					"linkReferences": {},
					"object": "60806040525f6001553480156012575f5ffd5b503360025f6101000a81548173ffffffffffffffffffffffffffffffffffffffff021916908373ffffffffffffffffffffffffffffffffffffffff1602179055506111ba806100605f395ff3fe608060405234801561000f575f5ffd5b506004361061007b575f3560e01c80635a9b0b89116100595780635a9b0b89146100e957806394b1a5bc14610107578063e43252d714610137578063fae26d33146101535761007b565b80630bf803e41461007f5780632af2bc27146100af57806350c00197146100cd575b5f5ffd5b610099600480360381019061009491906108c6565b61016f565b6040516100a69190610925565b60405180910390f35b6100b76102a4565b6040516100c49190610925565b60405180910390f35b6100e760048036038101906100e29190610968565b6102aa565b005b6100f16103e8565b6040516100fe9190610add565b60405180910390f35b610121600480360381019061011c9190610afd565b6104bb565b60405161012e9190610b70565b60405180910390f35b610151600480360381019061014c9190610bea565b6105ac565b005b61016d60048036038101906101689190610bea565b610693565b005b5f6001151560035f3373ffffffffffffffffffffffffffffffffffffffff1673ffffffffffffffffffffffffffffffffffffffff1681526020019081526020015f205f9054906101000a900460ff16151514610200576040517f08c379a00000000000000000000000000000000000000000000000000000000081526004016101f790610c85565b60405180910390fd5b5f5f8054905090507f08b992eed17b037bc0eb3b239f559bc789f9d0c50710c107fb1ef0b40edea46d81843360405161023b93929190610cb2565b60405180910390a15f83908060018154018082558091505060019003905f5260205f20015f9091909190915090816102739190610eeb565b5060015f805490506102859190610fe7565b915060015f8154809291906102999061101a565b919050555050919050565b60015481565b6001151560035f3373ffffffffffffffffffffffffffffffffffffffff1673ffffffffffffffffffffffffffffffffffffffff1681526020019081526020015f205f9054906101000a900460ff1615151461033a576040517f08c379a000000000000000000000000000000000000000000000000000000000815260040161033190610c85565b60405180910390fd5b5f805490508210610380576040517f08c379a0000000000000000000000000000000000000000000000000000000008152600401610377906110ab565b60405180910390fd5b7f08b992eed17b037bc0eb3b239f559bc789f9d0c50710c107fb1ef0b40edea46d8282336040516103b393929190610cb2565b60405180910390a1805f83815481106103cf576103ce6110c9565b5b905f5260205f200190816103e39190610eeb565b505050565b60605f805480602002602001604051908101604052809291908181526020015f905b828210156104b2578382905f5260205f2001805461042790610d1b565b80601f016020809104026020016040519081016040528092919081815260200182805461045390610d1b565b801561049e5780601f106104755761010080835404028352916020019161049e565b820191905f5260205f20905b81548152906001019060200180831161048157829003601f168201915b50505050508152602001906001019061040a565b50505050905090565b60605f805490508210610503576040517f08c379a00000000000000000000000000000000000000000000000000000000081526004016104fa906110ab565b60405180910390fd5b5f8281548110610516576105156110c9565b5b905f5260205f2001805461052990610d1b565b80601f016020809104026020016040519081016040528092919081815260200182805461055590610d1b565b80156105a05780601f10610577576101008083540402835291602001916105a0565b820191905f5260205f20905b81548152906001019060200180831161058357829003601f168201915b50505050509050919050565b3373ffffffffffffffffffffffffffffffffffffffff1660025f9054906101000a900473ffffffffffffffffffffffffffffffffffffffff1673ffffffffffffffffffffffffffffffffffffffff161461063b576040517f08c379a000000000000000000000000000000000000000000000000000000000815260040161063290611166565b60405180910390fd5b600160035f8373ffffffffffffffffffffffffffffffffffffffff1673ffffffffffffffffffffffffffffffffffffffff1681526020019081526020015f205f6101000a81548160ff02191690831515021790555050565b3373ffffffffffffffffffffffffffffffffffffffff1660025f9054906101000a900473ffffffffffffffffffffffffffffffffffffffff1673ffffffffffffffffffffffffffffffffffffffff1614610722576040517f08c379a000000000000000000000000000000000000000000000000000000000815260040161071990611166565b60405180910390fd5b5f60035f8373ffffffffffffffffffffffffffffffffffffffff1673ffffffffffffffffffffffffffffffffffffffff1681526020019081526020015f205f6101000a81548160ff02191690831515021790555050565b5f604051905090565b5f5ffd5b5f5ffd5b5f5ffd5b5f5ffd5b5f601f19601f8301169050919050565b7f4e487b71000000000000000000000000000000000000000000000000000000005f52604160045260245ffd5b6107d882610792565b810181811067ffffffffffffffff821117156107f7576107f66107a2565b5b80604052505050565b5f610809610779565b905061081582826107cf565b919050565b5f67ffffffffffffffff821115610834576108336107a2565b5b61083d82610792565b9050602081019050919050565b828183375f83830152505050565b5f61086a6108658461081a565b610800565b9050828152602081018484840111156108865761088561078e565b5b61089184828561084a565b509392505050565b5f82601f8301126108ad576108ac61078a565b5b81356108bd848260208601610858565b91505092915050565b5f602082840312156108db576108da610782565b5b5f82013567ffffffffffffffff8111156108f8576108f7610786565b5b61090484828501610899565b91505092915050565b5f819050919050565b61091f8161090d565b82525050565b5f6020820190506109385f830184610916565b92915050565b6109478161090d565b8114610951575f5ffd5b50565b5f813590506109628161093e565b92915050565b5f5f6040838503121561097e5761097d610782565b5b5f61098b85828601610954565b925050602083013567ffffffffffffffff8111156109ac576109ab610786565b5b6109b885828601610899565b9150509250929050565b5f81519050919050565b5f82825260208201905092915050565b5f819050602082019050919050565b5f81519050919050565b5f82825260208201905092915050565b8281835e5f83830152505050565b5f610a1d826109eb565b610a2781856109f5565b9350610a37818560208601610a05565b610a4081610792565b840191505092915050565b5f610a568383610a13565b905092915050565b5f602082019050919050565b5f610a74826109c2565b610a7e81856109cc565b935083602082028501610a90856109dc565b805f5b85811015610acb5784840389528151610aac8582610a4b565b9450610ab783610a5e565b925060208a01995050600181019050610a93565b50829750879550505050505092915050565b5f6020820190508181035f830152610af58184610a6a565b905092915050565b5f60208284031215610b1257610b11610782565b5b5f610b1f84828501610954565b91505092915050565b5f82825260208201905092915050565b5f610b42826109eb565b610b4c8185610b28565b9350610b5c818560208601610a05565b610b6581610792565b840191505092915050565b5f6020820190508181035f830152610b888184610b38565b905092915050565b5f73ffffffffffffffffffffffffffffffffffffffff82169050919050565b5f610bb982610b90565b9050919050565b610bc981610baf565b8114610bd3575f5ffd5b50565b5f81359050610be481610bc0565b92915050565b5f60208284031215610bff57610bfe610782565b5b5f610c0c84828501610bd6565b91505092915050565b7f4f6e6c792077686974656c6973746564206163636f756e74732063616e2070655f8201527f72666f726d207468697320616374696f6e000000000000000000000000000000602082015250565b5f610c6f603183610b28565b9150610c7a82610c15565b604082019050919050565b5f6020820190508181035f830152610c9c81610c63565b9050919050565b610cac81610baf565b82525050565b5f606082019050610cc55f830186610916565b8181036020830152610cd78185610b38565b9050610ce66040830184610ca3565b949350505050565b7f4e487b71000000000000000000000000000000000000000000000000000000005f52602260045260245ffd5b5f6002820490506001821680610d3257607f821691505b602082108103610d4557610d44610cee565b5b50919050565b5f819050815f5260205f209050919050565b5f6020601f8301049050919050565b5f82821b905092915050565b5f60088302610da77fffffffffffffffffffffffffffffffffffffffffffffffffffffffffffffffff82610d6c565b610db18683610d6c565b95508019841693508086168417925050509392505050565b5f819050919050565b5f610dec610de7610de28461090d565b610dc9565b61090d565b9050919050565b5f819050919050565b610e0583610dd2565b610e19610e1182610df3565b848454610d78565b825550505050565b5f5f905090565b610e30610e21565b610e3b818484610dfc565b505050565b5b81811015610e5e57610e535f82610e28565b600181019050610e41565b5050565b601f821115610ea357610e7481610d4b565b610e7d84610d5d565b81016020851015610e8c578190505b610ea0610e9885610d5d565b830182610e40565b50505b505050565b5f82821c905092915050565b5f610ec35f1984600802610ea8565b1980831691505092915050565b5f610edb8383610eb4565b9150826002028217905092915050565b610ef4826109eb565b67ffffffffffffffff811115610f0d57610f0c6107a2565b5b610f178254610d1b565b610f22828285610e62565b5f60209050601f831160018114610f53575f8415610f41578287015190505b610f4b8582610ed0565b865550610fb2565b601f198416610f6186610d4b565b5f5b82811015610f8857848901518255600182019150602085019450602081019050610f63565b86831015610fa55784890151610fa1601f891682610eb4565b8355505b6001600288020188555050505b505050505050565b7f4e487b71000000000000000000000000000000000000000000000000000000005f52601160045260245ffd5b5f610ff18261090d565b9150610ffc8361090d565b925082820390508181111561101457611013610fba565b5b92915050565b5f6110248261090d565b91507fffffffffffffffffffffffffffffffffffffffffffffffffffffffffffffffff820361105657611055610fba565b5b600182019050919050565b7f4e6f207375636820706f736974696f6e20696e207468652061727261792e00005f82015250565b5f611095601e83610b28565b91506110a082611061565b602082019050919050565b5f6020820190508181035f8301526110c281611089565b9050919050565b7f4e487b71000000000000000000000000000000000000000000000000000000005f52603260045260245ffd5b7f4f6e6c79206f776e65722063616e20706572666f726d207468697320616374695f8201527f6f6e000000000000000000000000000000000000000000000000000000000000602082015250565b5f611150602283610b28565b915061115b826110f6565b604082019050919050565b5f6020820190508181035f83015261117d81611144565b905091905056fea264697066735822122063ce7f542bd976249c4fda98ebbea0cc747804688eee1fcf25a797d0afb26c9f64736f6c634300081e0033",
					"opcodes": "PUSH1 0x80 PUSH1 0x40 MSTORE PUSH0 PUSH1 0x1 SSTORE CALLVALUE DUP1 ISZERO PUSH1 0x12 JUMPI PUSH0 PUSH0 REVERT JUMPDEST POP CALLER PUSH1 0x2 PUSH0 PUSH2 0x100 EXP DUP2 SLOAD DUP2 PUSH20 0xFFFFFFFFFFFFFFFFFFFFFFFFFFFFFFFFFFFFFFFF MUL NOT AND SWAP1 DUP4 PUSH20 0xFFFFFFFFFFFFFFFFFFFFFFFFFFFFFFFFFFFFFFFF AND MUL OR SWAP1 SSTORE POP PUSH2 0x11BA DUP1 PUSH2 0x60 PUSH0 CODECOPY PUSH0 RETURN INVALID PUSH1 0x80 PUSH1 0x40 MSTORE CALLVALUE DUP1 ISZERO PUSH2 0xF JUMPI PUSH0 PUSH0 REVERT JUMPDEST POP PUSH1 0x4 CALLDATASIZE LT PUSH2 0x7B JUMPI PUSH0 CALLDATALOAD PUSH1 0xE0 SHR DUP1 PUSH4 0x5A9B0B89 GT PUSH2 0x59 JUMPI DUP1 PUSH4 0x5A9B0B89 EQ PUSH2 0xE9 JUMPI DUP1 PUSH4 0x94B1A5BC EQ PUSH2 0x107 JUMPI DUP1 PUSH4 0xE43252D7 EQ PUSH2 0x137 JUMPI DUP1 PUSH4 0xFAE26D33 EQ PUSH2 0x153 JUMPI PUSH2 0x7B JUMP JUMPDEST DUP1 PUSH4 0xBF803E4 EQ PUSH2 0x7F JUMPI DUP1 PUSH4 0x2AF2BC27 EQ PUSH2 0xAF JUMPI DUP1 PUSH4 0x50C00197 EQ PUSH2 0xCD JUMPI JUMPDEST PUSH0 PUSH0 REVERT JUMPDEST PUSH2 0x99 PUSH1 0x4 DUP1 CALLDATASIZE SUB DUP2 ADD SWAP1 PUSH2 0x94 SWAP2 SWAP1 PUSH2 0x8C6 JUMP JUMPDEST PUSH2 0x16F JUMP JUMPDEST PUSH1 0x40 MLOAD PUSH2 0xA6 SWAP2 SWAP1 PUSH2 0x925 JUMP JUMPDEST PUSH1 0x40 MLOAD DUP1 SWAP2 SUB SWAP1 RETURN JUMPDEST PUSH2 0xB7 PUSH2 0x2A4 JUMP JUMPDEST PUSH1 0x40 MLOAD PUSH2 0xC4 SWAP2 SWAP1 PUSH2 0x925 JUMP JUMPDEST PUSH1 0x40 MLOAD DUP1 SWAP2 SUB SWAP1 RETURN JUMPDEST PUSH2 0xE7 PUSH1 0x4 DUP1 CALLDATASIZE SUB DUP2 ADD SWAP1 PUSH2 0xE2 SWAP2 SWAP1 PUSH2 0x968 JUMP JUMPDEST PUSH2 0x2AA JUMP JUMPDEST STOP JUMPDEST PUSH2 0xF1 PUSH2 0x3E8 JUMP JUMPDEST PUSH1 0x40 MLOAD PUSH2 0xFE SWAP2 SWAP1 PUSH2 0xADD JUMP JUMPDEST PUSH1 0x40 MLOAD DUP1 SWAP2 SUB SWAP1 RETURN JUMPDEST PUSH2 0x121 PUSH1 0x4 DUP1 CALLDATASIZE SUB DUP2 ADD SWAP1 PUSH2 0x11C SWAP2 SWAP1 PUSH2 0xAFD JUMP JUMPDEST PUSH2 0x4BB JUMP JUMPDEST PUSH1 0x40 MLOAD PUSH2 0x12E SWAP2 SWAP1 PUSH2 0xB70 JUMP JUMPDEST PUSH1 0x40 MLOAD DUP1 SWAP2 SUB SWAP1 RETURN JUMPDEST PUSH2 0x151 PUSH1 0x4 DUP1 CALLDATASIZE SUB DUP2 ADD SWAP1 PUSH2 0x14C SWAP2 SWAP1 PUSH2 0xBEA JUMP JUMPDEST PUSH2 0x5AC JUMP JUMPDEST STOP JUMPDEST PUSH2 0x16D PUSH1 0x4 DUP1 CALLDATASIZE SUB DUP2 ADD SWAP1 PUSH2 0x168 SWAP2 SWAP1 PUSH2 0xBEA JUMP JUMPDEST PUSH2 0x693 JUMP JUMPDEST STOP JUMPDEST PUSH0 PUSH1 0x1 ISZERO ISZERO PUSH1 0x3 PUSH0 CALLER PUSH20 0xFFFFFFFFFFFFFFFFFFFFFFFFFFFFFFFFFFFFFFFF AND PUSH20 0xFFFFFFFFFFFFFFFFFFFFFFFFFFFFFFFFFFFFFFFF AND DUP2 MSTORE PUSH1 0x20 ADD SWAP1 DUP2 MSTORE PUSH1 0x20 ADD PUSH0 KECCAK256 PUSH0 SWAP1 SLOAD SWAP1 PUSH2 0x100 EXP SWAP1 DIV PUSH1 0xFF AND ISZERO ISZERO EQ PUSH2 0x200 JUMPI PUSH1 0x40 MLOAD PUSH32 0x8C379A000000000000000000000000000000000000000000000000000000000 DUP2 MSTORE PUSH1 0x4 ADD PUSH2 0x1F7 SWAP1 PUSH2 0xC85 JUMP JUMPDEST PUSH1 0x40 MLOAD DUP1 SWAP2 SUB SWAP1 REVERT JUMPDEST PUSH0 PUSH0 DUP1 SLOAD SWAP1 POP SWAP1 POP PUSH32 0x8B992EED17B037BC0EB3B239F559BC789F9D0C50710C107FB1EF0B40EDEA46D DUP2 DUP5 CALLER PUSH1 0x40 MLOAD PUSH2 0x23B SWAP4 SWAP3 SWAP2 SWAP1 PUSH2 0xCB2 JUMP JUMPDEST PUSH1 0x40 MLOAD DUP1 SWAP2 SUB SWAP1 LOG1 PUSH0 DUP4 SWAP1 DUP1 PUSH1 0x1 DUP2 SLOAD ADD DUP1 DUP3 SSTORE DUP1 SWAP2 POP POP PUSH1 0x1 SWAP1 SUB SWAP1 PUSH0 MSTORE PUSH1 0x20 PUSH0 KECCAK256 ADD PUSH0 SWAP1 SWAP2 SWAP1 SWAP2 SWAP1 SWAP2 POP SWAP1 DUP2 PUSH2 0x273 SWAP2 SWAP1 PUSH2 0xEEB JUMP JUMPDEST POP PUSH1 0x1 PUSH0 DUP1 SLOAD SWAP1 POP PUSH2 0x285 SWAP2 SWAP1 PUSH2 0xFE7 JUMP JUMPDEST SWAP2 POP PUSH1 0x1 PUSH0 DUP2 SLOAD DUP1 SWAP3 SWAP2 SWAP1 PUSH2 0x299 SWAP1 PUSH2 0x101A JUMP JUMPDEST SWAP2 SWAP1 POP SSTORE POP POP SWAP2 SWAP1 POP JUMP JUMPDEST PUSH1 0x1 SLOAD DUP2 JUMP JUMPDEST PUSH1 0x1 ISZERO ISZERO PUSH1 0x3 PUSH0 CALLER PUSH20 0xFFFFFFFFFFFFFFFFFFFFFFFFFFFFFFFFFFFFFFFF AND PUSH20 0xFFFFFFFFFFFFFFFFFFFFFFFFFFFFFFFFFFFFFFFF AND DUP2 MSTORE PUSH1 0x20 ADD SWAP1 DUP2 MSTORE PUSH1 0x20 ADD PUSH0 KECCAK256 PUSH0 SWAP1 SLOAD SWAP1 PUSH2 0x100 EXP SWAP1 DIV PUSH1 0xFF AND ISZERO ISZERO EQ PUSH2 0x33A JUMPI PUSH1 0x40 MLOAD PUSH32 0x8C379A000000000000000000000000000000000000000000000000000000000 DUP2 MSTORE PUSH1 0x4 ADD PUSH2 0x331 SWAP1 PUSH2 0xC85 JUMP JUMPDEST PUSH1 0x40 MLOAD DUP1 SWAP2 SUB SWAP1 REVERT JUMPDEST PUSH0 DUP1 SLOAD SWAP1 POP DUP3 LT PUSH2 0x380 JUMPI PUSH1 0x40 MLOAD PUSH32 0x8C379A000000000000000000000000000000000000000000000000000000000 DUP2 MSTORE PUSH1 0x4 ADD PUSH2 0x377 SWAP1 PUSH2 0x10AB JUMP JUMPDEST PUSH1 0x40 MLOAD DUP1 SWAP2 SUB SWAP1 REVERT JUMPDEST PUSH32 0x8B992EED17B037BC0EB3B239F559BC789F9D0C50710C107FB1EF0B40EDEA46D DUP3 DUP3 CALLER PUSH1 0x40 MLOAD PUSH2 0x3B3 SWAP4 SWAP3 SWAP2 SWAP1 PUSH2 0xCB2 JUMP JUMPDEST PUSH1 0x40 MLOAD DUP1 SWAP2 SUB SWAP1 LOG1 DUP1 PUSH0 DUP4 DUP2 SLOAD DUP2 LT PUSH2 0x3CF JUMPI PUSH2 0x3CE PUSH2 0x10C9 JUMP JUMPDEST JUMPDEST SWAP1 PUSH0 MSTORE PUSH1 0x20 PUSH0 KECCAK256 ADD SWAP1 DUP2 PUSH2 0x3E3 SWAP2 SWAP1 PUSH2 0xEEB JUMP JUMPDEST POP POP POP JUMP JUMPDEST PUSH1 0x60 PUSH0 DUP1 SLOAD DUP1 PUSH1 0x20 MUL PUSH1 0x20 ADD PUSH1 0x40 MLOAD SWAP1 DUP2 ADD PUSH1 0x40 MSTORE DUP1 SWAP3 SWAP2 SWAP1 DUP2 DUP2 MSTORE PUSH1 0x20 ADD PUSH0 SWAP1 JUMPDEST DUP3 DUP3 LT ISZERO PUSH2 0x4B2 JUMPI DUP4 DUP3 SWAP1 PUSH0 MSTORE PUSH1 0x20 PUSH0 KECCAK256 ADD DUP1 SLOAD PUSH2 0x427 SWAP1 PUSH2 0xD1B JUMP JUMPDEST DUP1 PUSH1 0x1F ADD PUSH1 0x20 DUP1 SWAP2 DIV MUL PUSH1 0x20 ADD PUSH1 0x40 MLOAD SWAP1 DUP2 ADD PUSH1 0x40 MSTORE DUP1 SWAP3 SWAP2 SWAP1 DUP2 DUP2 MSTORE PUSH1 0x20 ADD DUP3 DUP1 SLOAD PUSH2 0x453 SWAP1 PUSH2 0xD1B JUMP JUMPDEST DUP1 ISZERO PUSH2 0x49E JUMPI DUP1 PUSH1 0x1F LT PUSH2 0x475 JUMPI PUSH2 0x100 DUP1 DUP4 SLOAD DIV MUL DUP4 MSTORE SWAP2 PUSH1 0x20 ADD SWAP2 PUSH2 0x49E JUMP JUMPDEST DUP3 ADD SWAP2 SWAP1 PUSH0 MSTORE PUSH1 0x20 PUSH0 KECCAK256 SWAP1 JUMPDEST DUP2 SLOAD DUP2 MSTORE SWAP1 PUSH1 0x1 ADD SWAP1 PUSH1 0x20 ADD DUP1 DUP4 GT PUSH2 0x481 JUMPI DUP3 SWAP1 SUB PUSH1 0x1F AND DUP3 ADD SWAP2 JUMPDEST POP POP POP POP POP DUP2 MSTORE PUSH1 0x20 ADD SWAP1 PUSH1 0x1 ADD SWAP1 PUSH2 0x40A JUMP JUMPDEST POP POP POP POP SWAP1 POP SWAP1 JUMP JUMPDEST PUSH1 0x60 PUSH0 DUP1 SLOAD SWAP1 POP DUP3 LT PUSH2 0x503 JUMPI PUSH1 0x40 MLOAD PUSH32 0x8C379A000000000000000000000000000000000000000000000000000000000 DUP2 MSTORE PUSH1 0x4 ADD PUSH2 0x4FA SWAP1 PUSH2 0x10AB JUMP JUMPDEST PUSH1 0x40 MLOAD DUP1 SWAP2 SUB SWAP1 REVERT JUMPDEST PUSH0 DUP3 DUP2 SLOAD DUP2 LT PUSH2 0x516 JUMPI PUSH2 0x515 PUSH2 0x10C9 JUMP JUMPDEST JUMPDEST SWAP1 PUSH0 MSTORE PUSH1 0x20 PUSH0 KECCAK256 ADD DUP1 SLOAD PUSH2 0x529 SWAP1 PUSH2 0xD1B JUMP JUMPDEST DUP1 PUSH1 0x1F ADD PUSH1 0x20 DUP1 SWAP2 DIV MUL PUSH1 0x20 ADD PUSH1 0x40 MLOAD SWAP1 DUP2 ADD PUSH1 0x40 MSTORE DUP1 SWAP3 SWAP2 SWAP1 DUP2 DUP2 MSTORE PUSH1 0x20 ADD DUP3 DUP1 SLOAD PUSH2 0x555 SWAP1 PUSH2 0xD1B JUMP JUMPDEST DUP1 ISZERO PUSH2 0x5A0 JUMPI DUP1 PUSH1 0x1F LT PUSH2 0x577 JUMPI PUSH2 0x100 DUP1 DUP4 SLOAD DIV MUL DUP4 MSTORE SWAP2 PUSH1 0x20 ADD SWAP2 PUSH2 0x5A0 JUMP JUMPDEST DUP3 ADD SWAP2 SWAP1 PUSH0 MSTORE PUSH1 0x20 PUSH0 KECCAK256 SWAP1 JUMPDEST DUP2 SLOAD DUP2 MSTORE SWAP1 PUSH1 0x1 ADD SWAP1 PUSH1 0x20 ADD DUP1 DUP4 GT PUSH2 0x583 JUMPI DUP3 SWAP1 SUB PUSH1 0x1F AND DUP3 ADD SWAP2 JUMPDEST POP POP POP POP POP SWAP1 POP SWAP2 SWAP1 POP JUMP JUMPDEST CALLER PUSH20 0xFFFFFFFFFFFFFFFFFFFFFFFFFFFFFFFFFFFFFFFF AND PUSH1 0x2 PUSH0 SWAP1 SLOAD SWAP1 PUSH2 0x100 EXP SWAP1 DIV PUSH20 0xFFFFFFFFFFFFFFFFFFFFFFFFFFFFFFFFFFFFFFFF AND PUSH20 0xFFFFFFFFFFFFFFFFFFFFFFFFFFFFFFFFFFFFFFFF AND EQ PUSH2 0x63B JUMPI PUSH1 0x40 MLOAD PUSH32 0x8C379A000000000000000000000000000000000000000000000000000000000 DUP2 MSTORE PUSH1 0x4 ADD PUSH2 0x632 SWAP1 PUSH2 0x1166 JUMP JUMPDEST PUSH1 0x40 MLOAD DUP1 SWAP2 SUB SWAP1 REVERT JUMPDEST PUSH1 0x1 PUSH1 0x3 PUSH0 DUP4 PUSH20 0xFFFFFFFFFFFFFFFFFFFFFFFFFFFFFFFFFFFFFFFF AND PUSH20 0xFFFFFFFFFFFFFFFFFFFFFFFFFFFFFFFFFFFFFFFF AND DUP2 MSTORE PUSH1 0x20 ADD SWAP1 DUP2 MSTORE PUSH1 0x20 ADD PUSH0 KECCAK256 PUSH0 PUSH2 0x100 EXP DUP2 SLOAD DUP2 PUSH1 0xFF MUL NOT AND SWAP1 DUP4 ISZERO ISZERO MUL OR SWAP1 SSTORE POP POP JUMP JUMPDEST CALLER PUSH20 0xFFFFFFFFFFFFFFFFFFFFFFFFFFFFFFFFFFFFFFFF AND PUSH1 0x2 PUSH0 SWAP1 SLOAD SWAP1 PUSH2 0x100 EXP SWAP1 DIV PUSH20 0xFFFFFFFFFFFFFFFFFFFFFFFFFFFFFFFFFFFFFFFF AND PUSH20 0xFFFFFFFFFFFFFFFFFFFFFFFFFFFFFFFFFFFFFFFF AND EQ PUSH2 0x722 JUMPI PUSH1 0x40 MLOAD PUSH32 0x8C379A000000000000000000000000000000000000000000000000000000000 DUP2 MSTORE PUSH1 0x4 ADD PUSH2 0x719 SWAP1 PUSH2 0x1166 JUMP JUMPDEST PUSH1 0x40 MLOAD DUP1 SWAP2 SUB SWAP1 REVERT JUMPDEST PUSH0 PUSH1 0x3 PUSH0 DUP4 PUSH20 0xFFFFFFFFFFFFFFFFFFFFFFFFFFFFFFFFFFFFFFFF AND PUSH20 0xFFFFFFFFFFFFFFFFFFFFFFFFFFFFFFFFFFFFFFFF AND DUP2 MSTORE PUSH1 0x20 ADD SWAP1 DUP2 MSTORE PUSH1 0x20 ADD PUSH0 KECCAK256 PUSH0 PUSH2 0x100 EXP DUP2 SLOAD DUP2 PUSH1 0xFF MUL NOT AND SWAP1 DUP4 ISZERO ISZERO MUL OR SWAP1 SSTORE POP POP JUMP JUMPDEST PUSH0 PUSH1 0x40 MLOAD SWAP1 POP SWAP1 JUMP JUMPDEST PUSH0 PUSH0 REVERT JUMPDEST PUSH0 PUSH0 REVERT JUMPDEST PUSH0 PUSH0 REVERT JUMPDEST PUSH0 PUSH0 REVERT JUMPDEST PUSH0 PUSH1 0x1F NOT PUSH1 0x1F DUP4 ADD AND SWAP1 POP SWAP2 SWAP1 POP JUMP JUMPDEST PUSH32 0x4E487B7100000000000000000000000000000000000000000000000000000000 PUSH0 MSTORE PUSH1 0x41 PUSH1 0x4 MSTORE PUSH1 0x24 PUSH0 REVERT JUMPDEST PUSH2 0x7D8 DUP3 PUSH2 0x792 JUMP JUMPDEST DUP2 ADD DUP2 DUP2 LT PUSH8 0xFFFFFFFFFFFFFFFF DUP3 GT OR ISZERO PUSH2 0x7F7 JUMPI PUSH2 0x7F6 PUSH2 0x7A2 JUMP JUMPDEST JUMPDEST DUP1 PUSH1 0x40 MSTORE POP POP POP JUMP JUMPDEST PUSH0 PUSH2 0x809 PUSH2 0x779 JUMP JUMPDEST SWAP1 POP PUSH2 0x815 DUP3 DUP3 PUSH2 0x7CF JUMP JUMPDEST SWAP2 SWAP1 POP JUMP JUMPDEST PUSH0 PUSH8 0xFFFFFFFFFFFFFFFF DUP3 GT ISZERO PUSH2 0x834 JUMPI PUSH2 0x833 PUSH2 0x7A2 JUMP JUMPDEST JUMPDEST PUSH2 0x83D DUP3 PUSH2 0x792 JUMP JUMPDEST SWAP1 POP PUSH1 0x20 DUP2 ADD SWAP1 POP SWAP2 SWAP1 POP JUMP JUMPDEST DUP3 DUP2 DUP4 CALLDATACOPY PUSH0 DUP4 DUP4 ADD MSTORE POP POP POP JUMP JUMPDEST PUSH0 PUSH2 0x86A PUSH2 0x865 DUP5 PUSH2 0x81A JUMP JUMPDEST PUSH2 0x800 JUMP JUMPDEST SWAP1 POP DUP3 DUP2 MSTORE PUSH1 0x20 DUP2 ADD DUP5 DUP5 DUP5 ADD GT ISZERO PUSH2 0x886 JUMPI PUSH2 0x885 PUSH2 0x78E JUMP JUMPDEST JUMPDEST PUSH2 0x891 DUP5 DUP3 DUP6 PUSH2 0x84A JUMP JUMPDEST POP SWAP4 SWAP3 POP POP POP JUMP JUMPDEST PUSH0 DUP3 PUSH1 0x1F DUP4 ADD SLT PUSH2 0x8AD JUMPI PUSH2 0x8AC PUSH2 0x78A JUMP JUMPDEST JUMPDEST DUP2 CALLDATALOAD PUSH2 0x8BD DUP5 DUP3 PUSH1 0x20 DUP7 ADD PUSH2 0x858 JUMP JUMPDEST SWAP2 POP POP SWAP3 SWAP2 POP POP JUMP JUMPDEST PUSH0 PUSH1 0x20 DUP3 DUP5 SUB SLT ISZERO PUSH2 0x8DB JUMPI PUSH2 0x8DA PUSH2 0x782 JUMP JUMPDEST JUMPDEST PUSH0 DUP3 ADD CALLDATALOAD PUSH8 0xFFFFFFFFFFFFFFFF DUP2 GT ISZERO PUSH2 0x8F8 JUMPI PUSH2 0x8F7 PUSH2 0x786 JUMP JUMPDEST JUMPDEST PUSH2 0x904 DUP5 DUP3 DUP6 ADD PUSH2 0x899 JUMP JUMPDEST SWAP2 POP POP SWAP3 SWAP2 POP POP JUMP JUMPDEST PUSH0 DUP2 SWAP1 POP SWAP2 SWAP1 POP JUMP JUMPDEST PUSH2 0x91F DUP2 PUSH2 0x90D JUMP JUMPDEST DUP3 MSTORE POP POP JUMP JUMPDEST PUSH0 PUSH1 0x20 DUP3 ADD SWAP1 POP PUSH2 0x938 PUSH0 DUP4 ADD DUP5 PUSH2 0x916 JUMP JUMPDEST SWAP3 SWAP2 POP POP JUMP JUMPDEST PUSH2 0x947 DUP2 PUSH2 0x90D JUMP JUMPDEST DUP2 EQ PUSH2 0x951 JUMPI PUSH0 PUSH0 REVERT JUMPDEST POP JUMP JUMPDEST PUSH0 DUP2 CALLDATALOAD SWAP1 POP PUSH2 0x962 DUP2 PUSH2 0x93E JUMP JUMPDEST SWAP3 SWAP2 POP POP JUMP JUMPDEST PUSH0 PUSH0 PUSH1 0x40 DUP4 DUP6 SUB SLT ISZERO PUSH2 0x97E JUMPI PUSH2 0x97D PUSH2 0x782 JUMP JUMPDEST JUMPDEST PUSH0 PUSH2 0x98B DUP6 DUP3 DUP7 ADD PUSH2 0x954 JUMP JUMPDEST SWAP3 POP POP PUSH1 0x20 DUP4 ADD CALLDATALOAD PUSH8 0xFFFFFFFFFFFFFFFF DUP2 GT ISZERO PUSH2 0x9AC JUMPI PUSH2 0x9AB PUSH2 0x786 JUMP JUMPDEST JUMPDEST PUSH2 0x9B8 DUP6 DUP3 DUP7 ADD PUSH2 0x899 JUMP JUMPDEST SWAP2 POP POP SWAP3 POP SWAP3 SWAP1 POP JUMP JUMPDEST PUSH0 DUP2 MLOAD SWAP1 POP SWAP2 SWAP1 POP JUMP JUMPDEST PUSH0 DUP3 DUP3 MSTORE PUSH1 0x20 DUP3 ADD SWAP1 POP SWAP3 SWAP2 POP POP JUMP JUMPDEST PUSH0 DUP2 SWAP1 POP PUSH1 0x20 DUP3 ADD SWAP1 POP SWAP2 SWAP1 POP JUMP JUMPDEST PUSH0 DUP2 MLOAD SWAP1 POP SWAP2 SWAP1 POP JUMP JUMPDEST PUSH0 DUP3 DUP3 MSTORE PUSH1 0x20 DUP3 ADD SWAP1 POP SWAP3 SWAP2 POP POP JUMP JUMPDEST DUP3 DUP2 DUP4 MCOPY PUSH0 DUP4 DUP4 ADD MSTORE POP POP POP JUMP JUMPDEST PUSH0 PUSH2 0xA1D DUP3 PUSH2 0x9EB JUMP JUMPDEST PUSH2 0xA27 DUP2 DUP6 PUSH2 0x9F5 JUMP JUMPDEST SWAP4 POP PUSH2 0xA37 DUP2 DUP6 PUSH1 0x20 DUP7 ADD PUSH2 0xA05 JUMP JUMPDEST PUSH2 0xA40 DUP2 PUSH2 0x792 JUMP JUMPDEST DUP5 ADD SWAP2 POP POP SWAP3 SWAP2 POP POP JUMP JUMPDEST PUSH0 PUSH2 0xA56 DUP4 DUP4 PUSH2 0xA13 JUMP JUMPDEST SWAP1 POP SWAP3 SWAP2 POP POP JUMP JUMPDEST PUSH0 PUSH1 0x20 DUP3 ADD SWAP1 POP SWAP2 SWAP1 POP JUMP JUMPDEST PUSH0 PUSH2 0xA74 DUP3 PUSH2 0x9C2 JUMP JUMPDEST PUSH2 0xA7E DUP2 DUP6 PUSH2 0x9CC JUMP JUMPDEST SWAP4 POP DUP4 PUSH1 0x20 DUP3 MUL DUP6 ADD PUSH2 0xA90 DUP6 PUSH2 0x9DC JUMP JUMPDEST DUP1 PUSH0 JUMPDEST DUP6 DUP2 LT ISZERO PUSH2 0xACB JUMPI DUP5 DUP5 SUB DUP10 MSTORE DUP2 MLOAD PUSH2 0xAAC DUP6 DUP3 PUSH2 0xA4B JUMP JUMPDEST SWAP5 POP PUSH2 0xAB7 DUP4 PUSH2 0xA5E JUMP JUMPDEST SWAP3 POP PUSH1 0x20 DUP11 ADD SWAP10 POP POP PUSH1 0x1 DUP2 ADD SWAP1 POP PUSH2 0xA93 JUMP JUMPDEST POP DUP3 SWAP8 POP DUP8 SWAP6 POP POP POP POP POP POP SWAP3 SWAP2 POP POP JUMP JUMPDEST PUSH0 PUSH1 0x20 DUP3 ADD SWAP1 POP DUP2 DUP2 SUB PUSH0 DUP4 ADD MSTORE PUSH2 0xAF5 DUP2 DUP5 PUSH2 0xA6A JUMP JUMPDEST SWAP1 POP SWAP3 SWAP2 POP POP JUMP JUMPDEST PUSH0 PUSH1 0x20 DUP3 DUP5 SUB SLT ISZERO PUSH2 0xB12 JUMPI PUSH2 0xB11 PUSH2 0x782 JUMP JUMPDEST JUMPDEST PUSH0 PUSH2 0xB1F DUP5 DUP3 DUP6 ADD PUSH2 0x954 JUMP JUMPDEST SWAP2 POP POP SWAP3 SWAP2 POP POP JUMP JUMPDEST PUSH0 DUP3 DUP3 MSTORE PUSH1 0x20 DUP3 ADD SWAP1 POP SWAP3 SWAP2 POP POP JUMP JUMPDEST PUSH0 PUSH2 0xB42 DUP3 PUSH2 0x9EB JUMP JUMPDEST PUSH2 0xB4C DUP2 DUP6 PUSH2 0xB28 JUMP JUMPDEST SWAP4 POP PUSH2 0xB5C DUP2 DUP6 PUSH1 0x20 DUP7 ADD PUSH2 0xA05 JUMP JUMPDEST PUSH2 0xB65 DUP2 PUSH2 0x792 JUMP JUMPDEST DUP5 ADD SWAP2 POP POP SWAP3 SWAP2 POP POP JUMP JUMPDEST PUSH0 PUSH1 0x20 DUP3 ADD SWAP1 POP DUP2 DUP2 SUB PUSH0 DUP4 ADD MSTORE PUSH2 0xB88 DUP2 DUP5 PUSH2 0xB38 JUMP JUMPDEST SWAP1 POP SWAP3 SWAP2 POP POP JUMP JUMPDEST PUSH0 PUSH20 0xFFFFFFFFFFFFFFFFFFFFFFFFFFFFFFFFFFFFFFFF DUP3 AND SWAP1 POP SWAP2 SWAP1 POP JUMP JUMPDEST PUSH0 PUSH2 0xBB9 DUP3 PUSH2 0xB90 JUMP JUMPDEST SWAP1 POP SWAP2 SWAP1 POP JUMP JUMPDEST PUSH2 0xBC9 DUP2 PUSH2 0xBAF JUMP JUMPDEST DUP2 EQ PUSH2 0xBD3 JUMPI PUSH0 PUSH0 REVERT JUMPDEST POP JUMP JUMPDEST PUSH0 DUP2 CALLDATALOAD SWAP1 POP PUSH2 0xBE4 DUP2 PUSH2 0xBC0 JUMP JUMPDEST SWAP3 SWAP2 POP POP JUMP JUMPDEST PUSH0 PUSH1 0x20 DUP3 DUP5 SUB SLT ISZERO PUSH2 0xBFF JUMPI PUSH2 0xBFE PUSH2 0x782 JUMP JUMPDEST JUMPDEST PUSH0 PUSH2 0xC0C DUP5 DUP3 DUP6 ADD PUSH2 0xBD6 JUMP JUMPDEST SWAP2 POP POP SWAP3 SWAP2 POP POP JUMP JUMPDEST PUSH32 0x4F6E6C792077686974656C6973746564206163636F756E74732063616E207065 PUSH0 DUP3 ADD MSTORE PUSH32 0x72666F726D207468697320616374696F6E000000000000000000000000000000 PUSH1 0x20 DUP3 ADD MSTORE POP JUMP JUMPDEST PUSH0 PUSH2 0xC6F PUSH1 0x31 DUP4 PUSH2 0xB28 JUMP JUMPDEST SWAP2 POP PUSH2 0xC7A DUP3 PUSH2 0xC15 JUMP JUMPDEST PUSH1 0x40 DUP3 ADD SWAP1 POP SWAP2 SWAP1 POP JUMP JUMPDEST PUSH0 PUSH1 0x20 DUP3 ADD SWAP1 POP DUP2 DUP2 SUB PUSH0 DUP4 ADD MSTORE PUSH2 0xC9C DUP2 PUSH2 0xC63 JUMP JUMPDEST SWAP1 POP SWAP2 SWAP1 POP JUMP JUMPDEST PUSH2 0xCAC DUP2 PUSH2 0xBAF JUMP JUMPDEST DUP3 MSTORE POP POP JUMP JUMPDEST PUSH0 PUSH1 0x60 DUP3 ADD SWAP1 POP PUSH2 0xCC5 PUSH0 DUP4 ADD DUP7 PUSH2 0x916 JUMP JUMPDEST DUP2 DUP2 SUB PUSH1 0x20 DUP4 ADD MSTORE PUSH2 0xCD7 DUP2 DUP6 PUSH2 0xB38 JUMP JUMPDEST SWAP1 POP PUSH2 0xCE6 PUSH1 0x40 DUP4 ADD DUP5 PUSH2 0xCA3 JUMP JUMPDEST SWAP5 SWAP4 POP POP POP POP JUMP JUMPDEST PUSH32 0x4E487B7100000000000000000000000000000000000000000000000000000000 PUSH0 MSTORE PUSH1 0x22 PUSH1 0x4 MSTORE PUSH1 0x24 PUSH0 REVERT JUMPDEST PUSH0 PUSH1 0x2 DUP3 DIV SWAP1 POP PUSH1 0x1 DUP3 AND DUP1 PUSH2 0xD32 JUMPI PUSH1 0x7F DUP3 AND SWAP2 POP JUMPDEST PUSH1 0x20 DUP3 LT DUP2 SUB PUSH2 0xD45 JUMPI PUSH2 0xD44 PUSH2 0xCEE JUMP JUMPDEST JUMPDEST POP SWAP2 SWAP1 POP JUMP JUMPDEST PUSH0 DUP2 SWAP1 POP DUP2 PUSH0 MSTORE PUSH1 0x20 PUSH0 KECCAK256 SWAP1 POP SWAP2 SWAP1 POP JUMP JUMPDEST PUSH0 PUSH1 0x20 PUSH1 0x1F DUP4 ADD DIV SWAP1 POP SWAP2 SWAP1 POP JUMP JUMPDEST PUSH0 DUP3 DUP3 SHL SWAP1 POP SWAP3 SWAP2 POP POP JUMP JUMPDEST PUSH0 PUSH1 0x8 DUP4 MUL PUSH2 0xDA7 PUSH32 0xFFFFFFFFFFFFFFFFFFFFFFFFFFFFFFFFFFFFFFFFFFFFFFFFFFFFFFFFFFFFFFFF DUP3 PUSH2 0xD6C JUMP JUMPDEST PUSH2 0xDB1 DUP7 DUP4 PUSH2 0xD6C JUMP JUMPDEST SWAP6 POP DUP1 NOT DUP5 AND SWAP4 POP DUP1 DUP7 AND DUP5 OR SWAP3 POP POP POP SWAP4 SWAP3 POP POP POP JUMP JUMPDEST PUSH0 DUP2 SWAP1 POP SWAP2 SWAP1 POP JUMP JUMPDEST PUSH0 PUSH2 0xDEC PUSH2 0xDE7 PUSH2 0xDE2 DUP5 PUSH2 0x90D JUMP JUMPDEST PUSH2 0xDC9 JUMP JUMPDEST PUSH2 0x90D JUMP JUMPDEST SWAP1 POP SWAP2 SWAP1 POP JUMP JUMPDEST PUSH0 DUP2 SWAP1 POP SWAP2 SWAP1 POP JUMP JUMPDEST PUSH2 0xE05 DUP4 PUSH2 0xDD2 JUMP JUMPDEST PUSH2 0xE19 PUSH2 0xE11 DUP3 PUSH2 0xDF3 JUMP JUMPDEST DUP5 DUP5 SLOAD PUSH2 0xD78 JUMP JUMPDEST DUP3 SSTORE POP POP POP POP JUMP JUMPDEST PUSH0 PUSH0 SWAP1 POP SWAP1 JUMP JUMPDEST PUSH2 0xE30 PUSH2 0xE21 JUMP JUMPDEST PUSH2 0xE3B DUP2 DUP5 DUP5 PUSH2 0xDFC JUMP JUMPDEST POP POP POP JUMP JUMPDEST JUMPDEST DUP2 DUP2 LT ISZERO PUSH2 0xE5E JUMPI PUSH2 0xE53 PUSH0 DUP3 PUSH2 0xE28 JUMP JUMPDEST PUSH1 0x1 DUP2 ADD SWAP1 POP PUSH2 0xE41 JUMP JUMPDEST POP POP JUMP JUMPDEST PUSH1 0x1F DUP3 GT ISZERO PUSH2 0xEA3 JUMPI PUSH2 0xE74 DUP2 PUSH2 0xD4B JUMP JUMPDEST PUSH2 0xE7D DUP5 PUSH2 0xD5D JUMP JUMPDEST DUP2 ADD PUSH1 0x20 DUP6 LT ISZERO PUSH2 0xE8C JUMPI DUP2 SWAP1 POP JUMPDEST PUSH2 0xEA0 PUSH2 0xE98 DUP6 PUSH2 0xD5D JUMP JUMPDEST DUP4 ADD DUP3 PUSH2 0xE40 JUMP JUMPDEST POP POP JUMPDEST POP POP POP JUMP JUMPDEST PUSH0 DUP3 DUP3 SHR SWAP1 POP SWAP3 SWAP2 POP POP JUMP JUMPDEST PUSH0 PUSH2 0xEC3 PUSH0 NOT DUP5 PUSH1 0x8 MUL PUSH2 0xEA8 JUMP JUMPDEST NOT DUP1 DUP4 AND SWAP2 POP POP SWAP3 SWAP2 POP POP JUMP JUMPDEST PUSH0 PUSH2 0xEDB DUP4 DUP4 PUSH2 0xEB4 JUMP JUMPDEST SWAP2 POP DUP3 PUSH1 0x2 MUL DUP3 OR SWAP1 POP SWAP3 SWAP2 POP POP JUMP JUMPDEST PUSH2 0xEF4 DUP3 PUSH2 0x9EB JUMP JUMPDEST PUSH8 0xFFFFFFFFFFFFFFFF DUP2 GT ISZERO PUSH2 0xF0D JUMPI PUSH2 0xF0C PUSH2 0x7A2 JUMP JUMPDEST JUMPDEST PUSH2 0xF17 DUP3 SLOAD PUSH2 0xD1B JUMP JUMPDEST PUSH2 0xF22 DUP3 DUP3 DUP6 PUSH2 0xE62 JUMP JUMPDEST PUSH0 PUSH1 0x20 SWAP1 POP PUSH1 0x1F DUP4 GT PUSH1 0x1 DUP2 EQ PUSH2 0xF53 JUMPI PUSH0 DUP5 ISZERO PUSH2 0xF41 JUMPI DUP3 DUP8 ADD MLOAD SWAP1 POP JUMPDEST PUSH2 0xF4B DUP6 DUP3 PUSH2 0xED0 JUMP JUMPDEST DUP7 SSTORE POP PUSH2 0xFB2 JUMP JUMPDEST PUSH1 0x1F NOT DUP5 AND PUSH2 0xF61 DUP7 PUSH2 0xD4B JUMP JUMPDEST PUSH0 JUMPDEST DUP3 DUP2 LT ISZERO PUSH2 0xF88 JUMPI DUP5 DUP10 ADD MLOAD DUP3 SSTORE PUSH1 0x1 DUP3 ADD SWAP2 POP PUSH1 0x20 DUP6 ADD SWAP5 POP PUSH1 0x20 DUP2 ADD SWAP1 POP PUSH2 0xF63 JUMP JUMPDEST DUP7 DUP4 LT ISZERO PUSH2 0xFA5 JUMPI DUP5 DUP10 ADD MLOAD PUSH2 0xFA1 PUSH1 0x1F DUP10 AND DUP3 PUSH2 0xEB4 JUMP JUMPDEST DUP4 SSTORE POP JUMPDEST PUSH1 0x1 PUSH1 0x2 DUP9 MUL ADD DUP9 SSTORE POP POP POP JUMPDEST POP POP POP POP POP POP JUMP JUMPDEST PUSH32 0x4E487B7100000000000000000000000000000000000000000000000000000000 PUSH0 MSTORE PUSH1 0x11 PUSH1 0x4 MSTORE PUSH1 0x24 PUSH0 REVERT JUMPDEST PUSH0 PUSH2 0xFF1 DUP3 PUSH2 0x90D JUMP JUMPDEST SWAP2 POP PUSH2 0xFFC DUP4 PUSH2 0x90D JUMP JUMPDEST SWAP3 POP DUP3 DUP3 SUB SWAP1 POP DUP2 DUP2 GT ISZERO PUSH2 0x1014 JUMPI PUSH2 0x1013 PUSH2 0xFBA JUMP JUMPDEST JUMPDEST SWAP3 SWAP2 POP POP JUMP JUMPDEST PUSH0 PUSH2 0x1024 DUP3 PUSH2 0x90D JUMP JUMPDEST SWAP2 POP PUSH32 0xFFFFFFFFFFFFFFFFFFFFFFFFFFFFFFFFFFFFFFFFFFFFFFFFFFFFFFFFFFFFFFFF DUP3 SUB PUSH2 0x1056 JUMPI PUSH2 0x1055 PUSH2 0xFBA JUMP JUMPDEST JUMPDEST PUSH1 0x1 DUP3 ADD SWAP1 POP SWAP2 SWAP1 POP JUMP JUMPDEST PUSH32 0x4E6F207375636820706F736974696F6E20696E207468652061727261792E0000 PUSH0 DUP3 ADD MSTORE POP JUMP JUMPDEST PUSH0 PUSH2 0x1095 PUSH1 0x1E DUP4 PUSH2 0xB28 JUMP JUMPDEST SWAP2 POP PUSH2 0x10A0 DUP3 PUSH2 0x1061 JUMP JUMPDEST PUSH1 0x20 DUP3 ADD SWAP1 POP SWAP2 SWAP1 POP JUMP JUMPDEST PUSH0 PUSH1 0x20 DUP3 ADD SWAP1 POP DUP2 DUP2 SUB PUSH0 DUP4 ADD MSTORE PUSH2 0x10C2 DUP2 PUSH2 0x1089 JUMP JUMPDEST SWAP1 POP SWAP2 SWAP1 POP JUMP JUMPDEST PUSH32 0x4E487B7100000000000000000000000000000000000000000000000000000000 PUSH0 MSTORE PUSH1 0x32 PUSH1 0x4 MSTORE PUSH1 0x24 PUSH0 REVERT JUMPDEST PUSH32 0x4F6E6C79206F776E65722063616E20706572666F726D20746869732061637469 PUSH0 DUP3 ADD MSTORE PUSH32 0x6F6E000000000000000000000000000000000000000000000000000000000000 PUSH1 0x20 DUP3 ADD MSTORE POP JUMP JUMPDEST PUSH0 PUSH2 0x1150 PUSH1 0x22 DUP4 PUSH2 0xB28 JUMP JUMPDEST SWAP2 POP PUSH2 0x115B DUP3 PUSH2 0x10F6 JUMP JUMPDEST PUSH1 0x40 DUP3 ADD SWAP1 POP SWAP2 SWAP1 POP JUMP JUMPDEST PUSH0 PUSH1 0x20 DUP3 ADD SWAP1 POP DUP2 DUP2 SUB PUSH0 DUP4 ADD MSTORE PUSH2 0x117D DUP2 PUSH2 0x1144 JUMP JUMPDEST SWAP1 POP SWAP2 SWAP1 POP JUMP INVALID LOG2 PUSH5 0x6970667358 0x22 SLT KECCAK256 PUSH4 0xCE7F542B 0xD9 PUSH23 0x249C4FDA98EBBEA0CC747804688EEE1FCF25A797D0AFB2 PUSH13 0x9F64736F6C634300081E003300 "
				},
				"gasEstimates": {
					"creation": {
						"codeDepositCost": "907600",
						"executionCost": "30210",
						"totalCost": "937810"
					},
					"external": {
						"addInfo(string)": "infinite",
						"addToWhitelist(address)": "27016",
						"countChanges()": "2448",
						"delFromWhitelist(address)": "27037",
						"getInfo()": "infinite",
						"getOneInfo(uint256)": "infinite",
						"updateInfo(uint256,string)": "infinite"
					}
				},
				"methodIdentifiers": {
					"addInfo(string)": "0bf803e4",
					"addToWhitelist(address)": "e43252d7",
					"countChanges()": "2af2bc27",
					"delFromWhitelist(address)": "fae26d33",
					"getInfo()": "5a9b0b89",
					"getOneInfo(uint256)": "94b1a5bc",
					"updateInfo(uint256,string)": "50c00197"
				}
			},
			"storageLayout": {
				"storage": [
					{
						"astId": 4,
						"contract": "contracts/ejercicio7.sol:exercise6",
						"label": "storedInfos",
						"offset": 0,
						"slot": "0",
						"type": "t_array(t_string_storage)dyn_storage"
					},
					{
						"astId": 7,
						"contract": "contracts/ejercicio7.sol:exercise6",
						"label": "countChanges",
						"offset": 0,
						"slot": "1",
						"type": "t_uint256"
					},
					{
						"astId": 9,
						"contract": "contracts/ejercicio7.sol:exercise6",
						"label": "owner",
						"offset": 0,
						"slot": "2",
						"type": "t_address"
					},
					{
						"astId": 30,
						"contract": "contracts/ejercicio7.sol:exercise6",
						"label": "whitelist",
						"offset": 0,
						"slot": "3",
						"type": "t_mapping(t_address,t_bool)"
					}
				],
				"types": {
					"t_address": {
						"encoding": "inplace",
						"label": "address",
						"numberOfBytes": "20"
					},
					"t_array(t_string_storage)dyn_storage": {
						"base": "t_string_storage",
						"encoding": "dynamic_array",
						"label": "string[]",
						"numberOfBytes": "32"
					},
					"t_bool": {
						"encoding": "inplace",
						"label": "bool",
						"numberOfBytes": "1"
					},
					"t_mapping(t_address,t_bool)": {
						"encoding": "mapping",
						"key": "t_address",
						"label": "mapping(address => bool)",
						"numberOfBytes": "32",
						"value": "t_bool"
					},
					"t_string_storage": {
						"encoding": "bytes",
						"label": "string",
						"numberOfBytes": "32"
					},
					"t_uint256": {
						"encoding": "inplace",
						"label": "uint256",
						"numberOfBytes": "32"
					}
				}
			},
			"userdoc": {
				"kind": "user",
				"methods": {},
				"version": 1
			}
		}
	}
}