{
	"contracts/auction.sol": {
		"Auction": {
			"abi": [
				{
					"inputs": [
						{
							"internalType": "uint256",
							"name": "_endDateAuction",
							"type": "uint256"
						},
						{
							"internalType": "uint256",
							"name": "_offer",
							"type": "uint256"
						}
					],
					"stateMutability": "nonpayable",
					"type": "constructor"
				},
				{
					"anonymous": false,
					"inputs": [
						{
							"indexed": false,
							"internalType": "address",
							"name": "topAccount",
							"type": "address"
						},
						{
							"indexed": false,
							"internalType": "uint256",
							"name": "topOffer",
							"type": "uint256"
						},
						{
							"indexed": false,
							"internalType": "uint256",
							"name": "timestamp",
							"type": "uint256"
						}
					],
					"name": "endAuctionEvent",
					"type": "event"
				},
				{
					"anonymous": false,
					"inputs": [
						{
							"indexed": false,
							"internalType": "address",
							"name": "account",
							"type": "address"
						},
						{
							"indexed": false,
							"internalType": "uint256",
							"name": "offer",
							"type": "uint256"
						}
					],
					"name": "newOfferEvent",
					"type": "event"
				},
				{
					"inputs": [],
					"name": "CreateOffer",
					"outputs": [],
					"stateMutability": "payable",
					"type": "function"
				},
				{
					"inputs": [],
					"name": "EndAuction",
					"outputs": [],
					"stateMutability": "nonpayable",
					"type": "function"
				},
				{
					"inputs": [],
					"name": "ShowAuctionOffers",
					"outputs": [
						{
							"components": [
								{
									"internalType": "address",
									"name": "account",
									"type": "address"
								},
								{
									"internalType": "uint256",
									"name": "amount",
									"type": "uint256"
								}
							],
							"internalType": "struct Auction.StructOfferAccount[]",
							"name": "",
							"type": "tuple[]"
						}
					],
					"stateMutability": "view",
					"type": "function"
				},
				{
					"inputs": [],
					"name": "ShowAuctionWinner",
					"outputs": [
						{
							"components": [
								{
									"internalType": "address",
									"name": "account",
									"type": "address"
								},
								{
									"internalType": "uint256",
									"name": "amount",
									"type": "uint256"
								},
								{
									"internalType": "bool",
									"name": "auctionEnded",
									"type": "bool"
								}
							],
							"internalType": "struct Auction.auxStructResult",
							"name": "",
							"type": "tuple"
						}
					],
					"stateMutability": "view",
					"type": "function"
				},
				{
					"inputs": [],
					"name": "endDateAuction",
					"outputs": [
						{
							"internalType": "uint256",
							"name": "",
							"type": "uint256"
						}
					],
					"stateMutability": "view",
					"type": "function"
				},
				{
					"inputs": [],
					"name": "minimumNewOfferPercentage",
					"outputs": [
						{
							"internalType": "uint256",
							"name": "",
							"type": "uint256"
						}
					],
					"stateMutability": "view",
					"type": "function"
				},
				{
					"inputs": [
						{
							"internalType": "uint256",
							"name": "amount",
							"type": "uint256"
						}
					],
					"name": "refund",
					"outputs": [],
					"stateMutability": "nonpayable",
					"type": "function"
				},
				{
					"inputs": [],
					"name": "returnCommission",
					"outputs": [
						{
							"internalType": "uint256",
							"name": "",
							"type": "uint256"
						}
					],
					"stateMutability": "view",
					"type": "function"
				},
				{
					"inputs": [],
					"name": "startDateAuction",
					"outputs": [
						{
							"internalType": "uint256",
							"name": "",
							"type": "uint256"
						}
					],
					"stateMutability": "view",
					"type": "function"
				}
			],
			"devdoc": {
				"kind": "dev",
				"methods": {},
				"version": 1
			},
			"evm": {
				"assembly": "    /* \"contracts/auction.sol\":74:4329  contract Auction {... */\n  mstore(0x40, 0x80)\n    /* \"contracts/auction.sol\":721:1125  constructor(uint256 _endDateAuction, uint256 _offer){... */\n  callvalue\n  dup1\n  iszero\n  tag_1\n  jumpi\n  revert(0x00, 0x00)\ntag_1:\n  pop\n  mload(0x40)\n  sub(codesize, bytecodeSize)\n  dup1\n  bytecodeSize\n  dup4\n  codecopy\n  dup2\n  dup2\n  add\n  0x40\n  mstore\n  dup2\n  add\n  swap1\n  tag_2\n  swap2\n  swap1\n  tag_3\n  jump\t// in\ntag_2:\n    /* \"contracts/auction.sol\":800:805  false */\n  0x00\n    /* \"contracts/auction.sol\":784:797  auctionClosed */\n  0x05\n  0x00\n    /* \"contracts/auction.sol\":784:805  auctionClosed = false */\n  0x0100\n  exp\n  dup2\n  sload\n  dup2\n  0xff\n  mul\n  not\n  and\n  swap1\n  dup4\n  iszero\n  iszero\n  mul\n  or\n  swap1\n  sstore\n  pop\n    /* \"contracts/auction.sol\":824:834  msg.sender */\n  caller\n    /* \"contracts/auction.sol\":816:821  owner */\n  0x00\n  0x00\n    /* \"contracts/auction.sol\":816:834  owner = msg.sender */\n  0x0100\n  exp\n  dup2\n  sload\n  dup2\n  0xffffffffffffffffffffffffffffffffffffffff\n  mul\n  not\n  and\n  swap1\n  dup4\n  0xffffffffffffffffffffffffffffffffffffffff\n  and\n  mul\n  or\n  swap1\n  sstore\n  pop\n    /* \"contracts/auction.sol\":856:862  _offer */\n  dup1\n    /* \"contracts/auction.sol\":845:853  topOffer */\n  0x01\n    /* \"contracts/auction.sol\":845:862  topOffer = _offer */\n  dup2\n  swap1\n  sstore\n  pop\n    /* \"contracts/auction.sol\":891:901  msg.sender */\n  caller\n    /* \"contracts/auction.sol\":873:888  topOfferAccount */\n  0x02\n  0x00\n    /* \"contracts/auction.sol\":873:901  topOfferAccount = msg.sender */\n  0x0100\n  exp\n  dup2\n  sload\n  dup2\n  0xffffffffffffffffffffffffffffffffffffffff\n  mul\n  not\n  and\n  swap1\n  dup4\n  0xffffffffffffffffffffffffffffffffffffffff\n  and\n  mul\n  or\n  swap1\n  sstore\n  pop\n    /* \"contracts/auction.sol\":931:946  block.timestamp */\n  timestamp\n    /* \"contracts/auction.sol\":912:928  startDateAuction */\n  0x03\n    /* \"contracts/auction.sol\":912:946  startDateAuction = block.timestamp */\n  dup2\n  swap1\n  sstore\n  pop\n    /* \"contracts/auction.sol\":993:1008  _endDateAuction */\n  dup2\n    /* \"contracts/auction.sol\":974:990  startDateAuction */\n  sload(0x03)\n    /* \"contracts/auction.sol\":974:1008  startDateAuction + _endDateAuction */\n  tag_6\n  swap2\n  swap1\n  tag_7\n  jump\t// in\ntag_6:\n    /* \"contracts/auction.sol\":957:971  endDateAuction */\n  0x04\n    /* \"contracts/auction.sol\":957:1008  endDateAuction = startDateAuction + _endDateAuction */\n  dup2\n  swap1\n  sstore\n  pop\n    /* \"contracts/auction.sol\":1047:1048  5 */\n  0x05\n    /* \"contracts/auction.sol\":1019:1044  minimumNewOfferPercentage */\n  0x06\n    /* \"contracts/auction.sol\":1019:1048  minimumNewOfferPercentage = 5 */\n  dup2\n  swap1\n  sstore\n  pop\n    /* \"contracts/auction.sol\":1078:1079  2 */\n  0x02\n    /* \"contracts/auction.sol\":1059:1075  returnCommission */\n  0x07\n    /* \"contracts/auction.sol\":1059:1079  returnCommission = 2 */\n  dup2\n  swap1\n  sstore\n  pop\n    /* \"contracts/auction.sol\":1111:1117  _offer */\n  dup1\n    /* \"contracts/auction.sol\":1090:1096  offers */\n  0x08\n    /* \"contracts/auction.sol\":1090:1108  offers[msg.sender] */\n  0x00\n    /* \"contracts/auction.sol\":1097:1107  msg.sender */\n  caller\n    /* \"contracts/auction.sol\":1090:1108  offers[msg.sender] */\n  0xffffffffffffffffffffffffffffffffffffffff\n  and\n  0xffffffffffffffffffffffffffffffffffffffff\n  and\n  dup2\n  mstore\n  0x20\n  add\n  swap1\n  dup2\n  mstore\n  0x20\n  add\n  0x00\n  keccak256\n    /* \"contracts/auction.sol\":1090:1117  offers[msg.sender] = _offer */\n  dup2\n  swap1\n  sstore\n  pop\n    /* \"contracts/auction.sol\":721:1125  constructor(uint256 _endDateAuction, uint256 _offer){... */\n  pop\n  pop\n    /* \"contracts/auction.sol\":74:4329  contract Auction {... */\n  jump(tag_8)\n    /* \"#utility.yul\":88:205   */\ntag_10:\n    /* \"#utility.yul\":197:198   */\n  0x00\n    /* \"#utility.yul\":194:195   */\n  0x00\n    /* \"#utility.yul\":187:199   */\n  revert\n    /* \"#utility.yul\":334:411   */\ntag_12:\n    /* \"#utility.yul\":371:378   */\n  0x00\n    /* \"#utility.yul\":400:405   */\n  dup2\n    /* \"#utility.yul\":389:405   */\n  swap1\n  pop\n    /* \"#utility.yul\":334:411   */\n  swap2\n  swap1\n  pop\n  jump\t// out\n    /* \"#utility.yul\":417:539   */\ntag_13:\n    /* \"#utility.yul\":490:514   */\n  tag_22\n    /* \"#utility.yul\":508:513   */\n  dup2\n    /* \"#utility.yul\":490:514   */\n  tag_12\n  jump\t// in\ntag_22:\n    /* \"#utility.yul\":483:488   */\n  dup2\n    /* \"#utility.yul\":480:515   */\n  eq\n    /* \"#utility.yul\":470:533   */\n  tag_23\n  jumpi\n    /* \"#utility.yul\":529:530   */\n  0x00\n    /* \"#utility.yul\":526:527   */\n  0x00\n    /* \"#utility.yul\":519:531   */\n  revert\n    /* \"#utility.yul\":470:533   */\ntag_23:\n    /* \"#utility.yul\":417:539   */\n  pop\n  jump\t// out\n    /* \"#utility.yul\":545:688   */\ntag_14:\n    /* \"#utility.yul\":602:607   */\n  0x00\n    /* \"#utility.yul\":633:639   */\n  dup2\n    /* \"#utility.yul\":627:640   */\n  mload\n    /* \"#utility.yul\":618:640   */\n  swap1\n  pop\n    /* \"#utility.yul\":649:682   */\n  tag_25\n    /* \"#utility.yul\":676:681   */\n  dup2\n    /* \"#utility.yul\":649:682   */\n  tag_13\n  jump\t// in\ntag_25:\n    /* \"#utility.yul\":545:688   */\n  swap3\n  swap2\n  pop\n  pop\n  jump\t// out\n    /* \"#utility.yul\":694:1201   */\ntag_3:\n    /* \"#utility.yul\":773:779   */\n  0x00\n    /* \"#utility.yul\":781:787   */\n  0x00\n    /* \"#utility.yul\":830:832   */\n  0x40\n    /* \"#utility.yul\":818:827   */\n  dup4\n    /* \"#utility.yul\":809:816   */\n  dup6\n    /* \"#utility.yul\":805:828   */\n  sub\n    /* \"#utility.yul\":801:833   */\n  slt\n    /* \"#utility.yul\":798:917   */\n  iszero\n  tag_27\n  jumpi\n    /* \"#utility.yul\":836:915   */\n  tag_28\n  tag_10\n  jump\t// in\ntag_28:\n    /* \"#utility.yul\":798:917   */\ntag_27:\n    /* \"#utility.yul\":956:957   */\n  0x00\n    /* \"#utility.yul\":981:1045   */\n  tag_29\n    /* \"#utility.yul\":1037:1044   */\n  dup6\n    /* \"#utility.yul\":1028:1034   */\n  dup3\n    /* \"#utility.yul\":1017:1026   */\n  dup7\n    /* \"#utility.yul\":1013:1035   */\n  add\n    /* \"#utility.yul\":981:1045   */\n  tag_14\n  jump\t// in\ntag_29:\n    /* \"#utility.yul\":971:1045   */\n  swap3\n  pop\n    /* \"#utility.yul\":927:1055   */\n  pop\n    /* \"#utility.yul\":1094:1096   */\n  0x20\n    /* \"#utility.yul\":1120:1184   */\n  tag_30\n    /* \"#utility.yul\":1176:1183   */\n  dup6\n    /* \"#utility.yul\":1167:1173   */\n  dup3\n    /* \"#utility.yul\":1156:1165   */\n  dup7\n    /* \"#utility.yul\":1152:1174   */\n  add\n    /* \"#utility.yul\":1120:1184   */\n  tag_14\n  jump\t// in\ntag_30:\n    /* \"#utility.yul\":1110:1184   */\n  swap2\n  pop\n    /* \"#utility.yul\":1065:1194   */\n  pop\n    /* \"#utility.yul\":694:1201   */\n  swap3\n  pop\n  swap3\n  swap1\n  pop\n  jump\t// out\n    /* \"#utility.yul\":1207:1387   */\ntag_15:\n    /* \"#utility.yul\":1255:1332   */\n  0x4e487b7100000000000000000000000000000000000000000000000000000000\n    /* \"#utility.yul\":1252:1253   */\n  0x00\n    /* \"#utility.yul\":1245:1333   */\n  mstore\n    /* \"#utility.yul\":1352:1356   */\n  0x11\n    /* \"#utility.yul\":1349:1350   */\n  0x04\n    /* \"#utility.yul\":1342:1357   */\n  mstore\n    /* \"#utility.yul\":1376:1380   */\n  0x24\n    /* \"#utility.yul\":1373:1374   */\n  0x00\n    /* \"#utility.yul\":1366:1381   */\n  revert\n    /* \"#utility.yul\":1393:1584   */\ntag_7:\n    /* \"#utility.yul\":1433:1436   */\n  0x00\n    /* \"#utility.yul\":1452:1472   */\n  tag_33\n    /* \"#utility.yul\":1470:1471   */\n  dup3\n    /* \"#utility.yul\":1452:1472   */\n  tag_12\n  jump\t// in\ntag_33:\n    /* \"#utility.yul\":1447:1472   */\n  swap2\n  pop\n    /* \"#utility.yul\":1486:1506   */\n  tag_34\n    /* \"#utility.yul\":1504:1505   */\n  dup4\n    /* \"#utility.yul\":1486:1506   */\n  tag_12\n  jump\t// in\ntag_34:\n    /* \"#utility.yul\":1481:1506   */\n  swap3\n  pop\n    /* \"#utility.yul\":1529:1530   */\n  dup3\n    /* \"#utility.yul\":1526:1527   */\n  dup3\n    /* \"#utility.yul\":1522:1531   */\n  add\n    /* \"#utility.yul\":1515:1531   */\n  swap1\n  pop\n    /* \"#utility.yul\":1550:1553   */\n  dup1\n    /* \"#utility.yul\":1547:1548   */\n  dup3\n    /* \"#utility.yul\":1544:1554   */\n  gt\n    /* \"#utility.yul\":1541:1577   */\n  iszero\n  tag_35\n  jumpi\n    /* \"#utility.yul\":1557:1575   */\n  tag_36\n  tag_15\n  jump\t// in\ntag_36:\n    /* \"#utility.yul\":1541:1577   */\ntag_35:\n    /* \"#utility.yul\":1393:1584   */\n  swap3\n  swap2\n  pop\n  pop\n  jump\t// out\n    /* \"contracts/auction.sol\":74:4329  contract Auction {... */\ntag_8:\n  dataSize(sub_0)\n  dup1\n  dataOffset(sub_0)\n  0x00\n  codecopy\n  0x00\n  return\nstop\n\nsub_0: assembly {\n        /* \"contracts/auction.sol\":74:4329  contract Auction {... */\n      mstore(0x40, 0x80)\n      jumpi(tag_1, lt(calldatasize, 0x04))\n      shr(0xe0, calldataload(0x00))\n      dup1\n      0x41d71b60\n      gt\n      tag_11\n      jumpi\n      dup1\n      0x41d71b60\n      eq\n      tag_6\n      jumpi\n      dup1\n      0x6a7798ee\n      eq\n      tag_7\n      jumpi\n      dup1\n      0x7b02c518\n      eq\n      tag_8\n      jumpi\n      dup1\n      0xa7cbe83a\n      eq\n      tag_9\n      jumpi\n      dup1\n      0xd88a540d\n      eq\n      tag_10\n      jumpi\n      jump(tag_1)\n    tag_11:\n      dup1\n      0x02dcade9\n      eq\n      tag_2\n      jumpi\n      dup1\n      0x278ecde1\n      eq\n      tag_3\n      jumpi\n      dup1\n      0x328b8d15\n      eq\n      tag_4\n      jumpi\n      dup1\n      0x3f9af859\n      eq\n      tag_5\n      jumpi\n    tag_1:\n      revert(0x00, 0x00)\n        /* \"contracts/auction.sol\":197:228  uint256 public startDateAuction */\n    tag_2:\n      callvalue\n      dup1\n      iszero\n      tag_12\n      jumpi\n      revert(0x00, 0x00)\n    tag_12:\n      pop\n      tag_13\n      tag_14\n      jump\t// in\n    tag_13:\n      mload(0x40)\n      tag_15\n      swap2\n      swap1\n      tag_16\n      jump\t// in\n    tag_15:\n      mload(0x40)\n      dup1\n      swap2\n      sub\n      swap1\n      return\n        /* \"contracts/auction.sol\":3329:4326  function refund(uint256 amount) public {... */\n    tag_3:\n      callvalue\n      dup1\n      iszero\n      tag_17\n      jumpi\n      revert(0x00, 0x00)\n    tag_17:\n      pop\n      tag_18\n      0x04\n      dup1\n      calldatasize\n      sub\n      dup2\n      add\n      swap1\n      tag_19\n      swap2\n      swap1\n      tag_20\n      jump\t// in\n    tag_19:\n      tag_21\n      jump\t// in\n    tag_18:\n      stop\n        /* \"contracts/auction.sol\":352:383  uint256 public returnCommission */\n    tag_4:\n      callvalue\n      dup1\n      iszero\n      tag_22\n      jumpi\n      revert(0x00, 0x00)\n    tag_22:\n      pop\n      tag_23\n      tag_24\n      jump\t// in\n    tag_23:\n      mload(0x40)\n      tag_25\n      swap2\n      swap1\n      tag_16\n      jump\t// in\n    tag_25:\n      mload(0x40)\n      dup1\n      swap2\n      sub\n      swap1\n      return\n        /* \"contracts/auction.sol\":305:345  uint256 public minimumNewOfferPercentage */\n    tag_5:\n      callvalue\n      dup1\n      iszero\n      tag_26\n      jumpi\n      revert(0x00, 0x00)\n    tag_26:\n      pop\n      tag_27\n      tag_28\n      jump\t// in\n    tag_27:\n      mload(0x40)\n      tag_29\n      swap2\n      swap1\n      tag_16\n      jump\t// in\n    tag_29:\n      mload(0x40)\n      dup1\n      swap2\n      sub\n      swap1\n      return\n        /* \"contracts/auction.sol\":2629:2925  function ShowAuctionWinner() public view returns (auxStructResult memory){... */\n    tag_6:\n      callvalue\n      dup1\n      iszero\n      tag_30\n      jumpi\n      revert(0x00, 0x00)\n    tag_30:\n      pop\n      tag_31\n      tag_32\n      jump\t// in\n    tag_31:\n      mload(0x40)\n      tag_33\n      swap2\n      swap1\n      tag_34\n      jump\t// in\n    tag_33:\n      mload(0x40)\n      dup1\n      swap2\n      sub\n      swap1\n      return\n        /* \"contracts/auction.sol\":3060:3321  function EndAuction() external onlyOwner {... */\n    tag_7:\n      callvalue\n      dup1\n      iszero\n      tag_35\n      jumpi\n      revert(0x00, 0x00)\n    tag_35:\n      pop\n      tag_36\n      tag_37\n      jump\t// in\n    tag_36:\n      stop\n        /* \"contracts/auction.sol\":2933:3050  function ShowAuctionOffers() public view returns (StructOfferAccount[] memory){... */\n    tag_8:\n      callvalue\n      dup1\n      iszero\n      tag_38\n      jumpi\n      revert(0x00, 0x00)\n    tag_38:\n      pop\n      tag_39\n      tag_40\n      jump\t// in\n    tag_39:\n      mload(0x40)\n      tag_41\n      swap2\n      swap1\n      tag_42\n      jump\t// in\n    tag_41:\n      mload(0x40)\n      dup1\n      swap2\n      sub\n      swap1\n      return\n        /* \"contracts/auction.sol\":2236:2621  function CreateOffer() external payable chkAuctionActive goodBid checkLastTimeBid {... */\n    tag_9:\n      tag_43\n      tag_44\n      jump\t// in\n    tag_43:\n      stop\n        /* \"contracts/auction.sol\":235:265  uint256 public  endDateAuction */\n    tag_10:\n      callvalue\n      dup1\n      iszero\n      tag_45\n      jumpi\n      revert(0x00, 0x00)\n    tag_45:\n      pop\n      tag_46\n      tag_47\n      jump\t// in\n    tag_46:\n      mload(0x40)\n      tag_48\n      swap2\n      swap1\n      tag_16\n      jump\t// in\n    tag_48:\n      mload(0x40)\n      dup1\n      swap2\n      sub\n      swap1\n      return\n        /* \"contracts/auction.sol\":197:228  uint256 public startDateAuction */\n    tag_14:\n      sload(0x03)\n      dup2\n      jump\t// out\n        /* \"contracts/auction.sol\":3329:4326  function refund(uint256 amount) public {... */\n    tag_21:\n        /* \"contracts/auction.sol\":3408:3409  0 */\n      0x00\n        /* \"contracts/auction.sol\":3387:3393  offers */\n      0x08\n        /* \"contracts/auction.sol\":3387:3405  offers[msg.sender] */\n      0x00\n        /* \"contracts/auction.sol\":3394:3404  msg.sender */\n      caller\n        /* \"contracts/auction.sol\":3387:3405  offers[msg.sender] */\n      0xffffffffffffffffffffffffffffffffffffffff\n      and\n      0xffffffffffffffffffffffffffffffffffffffff\n      and\n      dup2\n      mstore\n      0x20\n      add\n      swap1\n      dup2\n      mstore\n      0x20\n      add\n      0x00\n      keccak256\n      sload\n        /* \"contracts/auction.sol\":3387:3409  offers[msg.sender] > 0 */\n      gt\n        /* \"contracts/auction.sol\":3379:3434  require(offers[msg.sender] > 0,\"Insufficient balance.\") */\n      tag_50\n      jumpi\n      mload(0x40)\n      0x08c379a000000000000000000000000000000000000000000000000000000000\n      dup2\n      mstore\n      0x04\n      add\n      tag_51\n      swap1\n      tag_52\n      jump\t// in\n    tag_51:\n      mload(0x40)\n      dup1\n      swap2\n      sub\n      swap1\n      revert\n    tag_50:\n        /* \"contracts/auction.sol\":3467:3482  topOfferAccount */\n      0x02\n      0x00\n      swap1\n      sload\n      swap1\n      0x0100\n      exp\n      swap1\n      div\n      0xffffffffffffffffffffffffffffffffffffffff\n      and\n        /* \"contracts/auction.sol\":3453:3482  msg.sender != topOfferAccount */\n      0xffffffffffffffffffffffffffffffffffffffff\n      and\n        /* \"contracts/auction.sol\":3453:3463  msg.sender */\n      caller\n        /* \"contracts/auction.sol\":3453:3482  msg.sender != topOfferAccount */\n      0xffffffffffffffffffffffffffffffffffffffff\n      and\n      sub\n        /* \"contracts/auction.sol\":3445:3521  require(msg.sender != topOfferAccount, \"You can't withdraw the winning bid\") */\n      tag_53\n      jumpi\n      mload(0x40)\n      0x08c379a000000000000000000000000000000000000000000000000000000000\n      dup2\n      mstore\n      0x04\n      add\n      tag_54\n      swap1\n      tag_55\n      jump\t// in\n    tag_54:\n      mload(0x40)\n      dup1\n      swap2\n      sub\n      swap1\n      revert\n    tag_53:\n        /* \"contracts/auction.sol\":3545:3546  0 */\n      0x00\n        /* \"contracts/auction.sol\":3535:3541  amount */\n      dup2\n        /* \"contracts/auction.sol\":3535:3546  amount == 0 */\n      sub\n        /* \"contracts/auction.sol\":3532:3695  if(amount == 0){... */\n      tag_56\n      jumpi\n        /* \"contracts/auction.sol\":3571:3577  offers */\n      0x08\n        /* \"contracts/auction.sol\":3571:3589  offers[msg.sender] */\n      0x00\n        /* \"contracts/auction.sol\":3578:3588  msg.sender */\n      caller\n        /* \"contracts/auction.sol\":3571:3589  offers[msg.sender] */\n      0xffffffffffffffffffffffffffffffffffffffff\n      and\n      0xffffffffffffffffffffffffffffffffffffffff\n      and\n      dup2\n      mstore\n      0x20\n      add\n      swap1\n      dup2\n      mstore\n      0x20\n      add\n      0x00\n      keccak256\n      sload\n        /* \"contracts/auction.sol\":3562:3589  amount = offers[msg.sender] */\n      swap1\n      pop\n        /* \"contracts/auction.sol\":3532:3695  if(amount == 0){... */\n      jump(tag_57)\n    tag_56:\n        /* \"contracts/auction.sol\":3640:3646  offers */\n      0x08\n        /* \"contracts/auction.sol\":3640:3658  offers[msg.sender] */\n      0x00\n        /* \"contracts/auction.sol\":3647:3657  msg.sender */\n      caller\n        /* \"contracts/auction.sol\":3640:3658  offers[msg.sender] */\n      0xffffffffffffffffffffffffffffffffffffffff\n      and\n      0xffffffffffffffffffffffffffffffffffffffff\n      and\n      dup2\n      mstore\n      0x20\n      add\n      swap1\n      dup2\n      mstore\n      0x20\n      add\n      0x00\n      keccak256\n      sload\n        /* \"contracts/auction.sol\":3630:3636  amount */\n      dup2\n        /* \"contracts/auction.sol\":3630:3658  amount <= offers[msg.sender] */\n      gt\n      iszero\n        /* \"contracts/auction.sol\":3622:3683  require(amount <= offers[msg.sender], \"Insufficient balance\") */\n      tag_58\n      jumpi\n      mload(0x40)\n      0x08c379a000000000000000000000000000000000000000000000000000000000\n      dup2\n      mstore\n      0x04\n      add\n      tag_59\n      swap1\n      tag_60\n      jump\t// in\n    tag_59:\n      mload(0x40)\n      dup1\n      swap2\n      sub\n      swap1\n      revert\n    tag_58:\n        /* \"contracts/auction.sol\":3532:3695  if(amount == 0){... */\n    tag_57:\n        /* \"contracts/auction.sol\":3875:3893  uint256 commission */\n      0x00\n        /* \"contracts/auction.sol\":3931:3934  100 */\n      0x64\n        /* \"contracts/auction.sol\":3925:3927  99 */\n      0x63\n        /* \"contracts/auction.sol\":3906:3922  returnCommission */\n      sload(0x07)\n        /* \"contracts/auction.sol\":3897:3903  amount */\n      dup5\n        /* \"contracts/auction.sol\":3897:3922  amount * returnCommission */\n      tag_61\n      swap2\n      swap1\n      tag_62\n      jump\t// in\n    tag_61:\n        /* \"contracts/auction.sol\":3897:3927  amount * returnCommission + 99 */\n      tag_63\n      swap2\n      swap1\n      tag_64\n      jump\t// in\n    tag_63:\n        /* \"contracts/auction.sol\":3896:3934  (amount * returnCommission + 99) / 100 */\n      tag_65\n      swap2\n      swap1\n      tag_66\n      jump\t// in\n    tag_65:\n        /* \"contracts/auction.sol\":3875:3934  uint256 commission = (amount * returnCommission + 99) / 100 */\n      swap1\n      pop\n        /* \"contracts/auction.sol\":3945:3965  uint256 refundAmount */\n      0x00\n        /* \"contracts/auction.sol\":3977:3987  commission */\n      dup2\n        /* \"contracts/auction.sol\":3968:3974  amount */\n      dup4\n        /* \"contracts/auction.sol\":3968:3987  amount - commission */\n      tag_67\n      swap2\n      swap1\n      tag_68\n      jump\t// in\n    tag_67:\n        /* \"contracts/auction.sol\":3945:3987  uint256 refundAmount = amount - commission */\n      swap1\n      pop\n        /* \"contracts/auction.sol\":4020:4026  amount */\n      dup3\n        /* \"contracts/auction.sol\":3998:4004  offers */\n      0x08\n        /* \"contracts/auction.sol\":3998:4016  offers[msg.sender] */\n      0x00\n        /* \"contracts/auction.sol\":4005:4015  msg.sender */\n      caller\n        /* \"contracts/auction.sol\":3998:4016  offers[msg.sender] */\n      0xffffffffffffffffffffffffffffffffffffffff\n      and\n      0xffffffffffffffffffffffffffffffffffffffff\n      and\n      dup2\n      mstore\n      0x20\n      add\n      swap1\n      dup2\n      mstore\n      0x20\n      add\n      0x00\n      keccak256\n      0x00\n        /* \"contracts/auction.sol\":3998:4026  offers[msg.sender] -= amount */\n      dup3\n      dup3\n      sload\n      tag_69\n      swap2\n      swap1\n      tag_68\n      jump\t// in\n    tag_69:\n      swap3\n      pop\n      pop\n      dup2\n      swap1\n      sstore\n      pop\n        /* \"contracts/auction.sol\":4038:4050  bool refSent */\n      0x00\n        /* \"contracts/auction.sol\":4064:4074  msg.sender */\n      caller\n        /* \"contracts/auction.sol\":4056:4080  payable(msg.sender).call */\n      0xffffffffffffffffffffffffffffffffffffffff\n      and\n        /* \"contracts/auction.sol\":4088:4100  refundAmount */\n      dup3\n        /* \"contracts/auction.sol\":4056:4105  payable(msg.sender).call{value: refundAmount}(\"\") */\n      mload(0x40)\n      tag_70\n      swap1\n      tag_71\n      jump\t// in\n    tag_70:\n      0x00\n      mload(0x40)\n      dup1\n      dup4\n      sub\n      dup2\n      dup6\n      dup8\n      gas\n      call\n      swap3\n      pop\n      pop\n      pop\n      returndatasize\n      dup1\n      0x00\n      dup2\n      eq\n      tag_74\n      jumpi\n      mload(0x40)\n      swap2\n      pop\n      and(add(returndatasize, 0x3f), not(0x1f))\n      dup3\n      add\n      0x40\n      mstore\n      returndatasize\n      dup3\n      mstore\n      returndatasize\n      0x00\n      0x20\n      dup5\n      add\n      returndatacopy\n      jump(tag_73)\n    tag_74:\n      0x60\n      swap2\n      pop\n    tag_73:\n      pop\n        /* \"contracts/auction.sol\":4037:4105  (bool refSent, ) = payable(msg.sender).call{value: refundAmount}(\"\") */\n      pop\n      swap1\n      pop\n        /* \"contracts/auction.sol\":4124:4131  refSent */\n      dup1\n        /* \"contracts/auction.sol\":4116:4152  require(refSent, \"Failed to refund\") */\n      tag_75\n      jumpi\n      mload(0x40)\n      0x08c379a000000000000000000000000000000000000000000000000000000000\n      dup2\n      mstore\n      0x04\n      add\n      tag_76\n      swap1\n      tag_77\n      jump\t// in\n    tag_76:\n      mload(0x40)\n      dup1\n      swap2\n      sub\n      swap1\n      revert\n    tag_75:\n        /* \"contracts/auction.sol\":4202:4214  bool comSent */\n      0x00\n        /* \"contracts/auction.sol\":4228:4233  owner */\n      0x00\n      0x00\n      swap1\n      sload\n      swap1\n      0x0100\n      exp\n      swap1\n      div\n      0xffffffffffffffffffffffffffffffffffffffff\n      and\n        /* \"contracts/auction.sol\":4220:4239  payable(owner).call */\n      0xffffffffffffffffffffffffffffffffffffffff\n      and\n        /* \"contracts/auction.sol\":4247:4257  commission */\n      dup5\n        /* \"contracts/auction.sol\":4220:4262  payable(owner).call{value: commission}(\"\") */\n      mload(0x40)\n      tag_78\n      swap1\n      tag_71\n      jump\t// in\n    tag_78:\n      0x00\n      mload(0x40)\n      dup1\n      dup4\n      sub\n      dup2\n      dup6\n      dup8\n      gas\n      call\n      swap3\n      pop\n      pop\n      pop\n      returndatasize\n      dup1\n      0x00\n      dup2\n      eq\n      tag_81\n      jumpi\n      mload(0x40)\n      swap2\n      pop\n      and(add(returndatasize, 0x3f), not(0x1f))\n      dup3\n      add\n      0x40\n      mstore\n      returndatasize\n      dup3\n      mstore\n      returndatasize\n      0x00\n      0x20\n      dup5\n      add\n      returndatacopy\n      jump(tag_80)\n    tag_81:\n      0x60\n      swap2\n      pop\n    tag_80:\n      pop\n        /* \"contracts/auction.sol\":4201:4262  (bool comSent, ) = payable(owner).call{value: commission}(\"\") */\n      pop\n      swap1\n      pop\n        /* \"contracts/auction.sol\":4281:4288  comSent */\n      dup1\n        /* \"contracts/auction.sol\":4273:4318  require(comSent, \"Failed to send commission\") */\n      tag_82\n      jumpi\n      mload(0x40)\n      0x08c379a000000000000000000000000000000000000000000000000000000000\n      dup2\n      mstore\n      0x04\n      add\n      tag_83\n      swap1\n      tag_84\n      jump\t// in\n    tag_83:\n      mload(0x40)\n      dup1\n      swap2\n      sub\n      swap1\n      revert\n    tag_82:\n        /* \"contracts/auction.sol\":3368:4326  {... */\n      pop\n      pop\n      pop\n      pop\n        /* \"contracts/auction.sol\":3329:4326  function refund(uint256 amount) public {... */\n      pop\n      jump\t// out\n        /* \"contracts/auction.sol\":352:383  uint256 public returnCommission */\n    tag_24:\n      sload(0x07)\n      dup2\n      jump\t// out\n        /* \"contracts/auction.sol\":305:345  uint256 public minimumNewOfferPercentage */\n    tag_28:\n      sload(0x06)\n      dup2\n      jump\t// out\n        /* \"contracts/auction.sol\":2629:2925  function ShowAuctionWinner() public view returns (auxStructResult memory){... */\n    tag_32:\n        /* \"contracts/auction.sol\":2679:2701  auxStructResult memory */\n      tag_85\n      tag_86\n      jump\t// in\n    tag_85:\n        /* \"contracts/auction.sol\":2713:2745  auxStructResult memory auxResult */\n      0x00\n        /* \"contracts/auction.sol\":2748:2890  auxStructResult({... */\n      mload(0x40)\n      dup1\n      0x60\n      add\n      0x40\n      mstore\n      dup1\n        /* \"contracts/auction.sol\":2788:2803  topOfferAccount */\n      0x02\n      0x00\n      swap1\n      sload\n      swap1\n      0x0100\n      exp\n      swap1\n      div\n      0xffffffffffffffffffffffffffffffffffffffff\n      and\n        /* \"contracts/auction.sol\":2748:2890  auxStructResult({... */\n      0xffffffffffffffffffffffffffffffffffffffff\n      and\n      dup2\n      mstore\n      0x20\n      add\n        /* \"contracts/auction.sol\":2826:2834  topOffer */\n      sload(0x01)\n        /* \"contracts/auction.sol\":2748:2890  auxStructResult({... */\n      dup2\n      mstore\n      0x20\n      add\n        /* \"contracts/auction.sol\":2863:2876  auctionClosed */\n      0x05\n      0x00\n      swap1\n      sload\n      swap1\n      0x0100\n      exp\n      swap1\n      div\n      0xff\n      and\n        /* \"contracts/auction.sol\":2748:2890  auxStructResult({... */\n      iszero\n      iszero\n      dup2\n      mstore\n      pop\n        /* \"contracts/auction.sol\":2713:2890  auxStructResult memory auxResult = auxStructResult({... */\n      swap1\n      pop\n        /* \"contracts/auction.sol\":2908:2917  auxResult */\n      dup1\n        /* \"contracts/auction.sol\":2901:2917  return auxResult */\n      swap2\n      pop\n      pop\n        /* \"contracts/auction.sol\":2629:2925  function ShowAuctionWinner() public view returns (auxStructResult memory){... */\n      swap1\n      jump\t// out\n        /* \"contracts/auction.sol\":3060:3321  function EndAuction() external onlyOwner {... */\n    tag_37:\n        /* \"contracts/auction.sol\":1565:1570  owner */\n      0x00\n      0x00\n      swap1\n      sload\n      swap1\n      0x0100\n      exp\n      swap1\n      div\n      0xffffffffffffffffffffffffffffffffffffffff\n      and\n        /* \"contracts/auction.sol\":1551:1570  msg.sender == owner */\n      0xffffffffffffffffffffffffffffffffffffffff\n      and\n        /* \"contracts/auction.sol\":1551:1561  msg.sender */\n      caller\n        /* \"contracts/auction.sol\":1551:1570  msg.sender == owner */\n      0xffffffffffffffffffffffffffffffffffffffff\n      and\n      eq\n        /* \"contracts/auction.sol\":1543:1605  require(msg.sender == owner, \"Only owner can do this action.\") */\n      tag_89\n      jumpi\n      mload(0x40)\n      0x08c379a000000000000000000000000000000000000000000000000000000000\n      dup2\n      mstore\n      0x04\n      add\n      tag_90\n      swap1\n      tag_91\n      jump\t// in\n    tag_90:\n      mload(0x40)\n      dup1\n      swap2\n      sub\n      swap1\n      revert\n    tag_89:\n        /* \"contracts/auction.sol\":3138:3152  endDateAuction */\n      sload(0x04)\n        /* \"contracts/auction.sol\":3120:3135  block.timestamp */\n      timestamp\n        /* \"contracts/auction.sol\":3120:3152  block.timestamp > endDateAuction */\n      gt\n        /* \"contracts/auction.sol\":3112:3214  require(block.timestamp > endDateAuction, \"You can't end the auction before the stablished end date.\") */\n      tag_93\n      jumpi\n      mload(0x40)\n      0x08c379a000000000000000000000000000000000000000000000000000000000\n      dup2\n      mstore\n      0x04\n      add\n      tag_94\n      swap1\n      tag_95\n      jump\t// in\n    tag_94:\n      mload(0x40)\n      dup1\n      swap2\n      sub\n      swap1\n      revert\n    tag_93:\n        /* \"contracts/auction.sol\":3234:3247  auctionClosed */\n      0x05\n      0x00\n      swap1\n      sload\n      swap1\n      0x0100\n      exp\n      swap1\n      div\n      0xff\n      and\n        /* \"contracts/auction.sol\":3233:3247  !auctionClosed */\n      iszero\n        /* \"contracts/auction.sol\":3225:3282  require(!auctionClosed, \"The auction is already closed.\") */\n      tag_96\n      jumpi\n      mload(0x40)\n      0x08c379a000000000000000000000000000000000000000000000000000000000\n      dup2\n      mstore\n      0x04\n      add\n      tag_97\n      swap1\n      tag_98\n      jump\t// in\n    tag_97:\n      mload(0x40)\n      dup1\n      swap2\n      sub\n      swap1\n      revert\n    tag_96:\n        /* \"contracts/auction.sol\":3309:3313  true */\n      0x01\n        /* \"contracts/auction.sol\":3293:3306  auctionClosed */\n      0x05\n      0x00\n        /* \"contracts/auction.sol\":3293:3313  auctionClosed = true */\n      0x0100\n      exp\n      dup2\n      sload\n      dup2\n      0xff\n      mul\n      not\n      and\n      swap1\n      dup4\n      iszero\n      iszero\n      mul\n      or\n      swap1\n      sstore\n      pop\n        /* \"contracts/auction.sol\":3060:3321  function EndAuction() external onlyOwner {... */\n      jump\t// out\n        /* \"contracts/auction.sol\":2933:3050  function ShowAuctionOffers() public view returns (StructOfferAccount[] memory){... */\n    tag_40:\n        /* \"contracts/auction.sol\":2983:3010  StructOfferAccount[] memory */\n      0x60\n        /* \"contracts/auction.sol\":3029:3042  offerRegistry */\n      0x09\n        /* \"contracts/auction.sol\":3022:3042  return offerRegistry */\n      dup1\n      sload\n      dup1\n      0x20\n      mul\n      0x20\n      add\n      mload(0x40)\n      swap1\n      dup2\n      add\n      0x40\n      mstore\n      dup1\n      swap3\n      swap2\n      swap1\n      dup2\n      dup2\n      mstore\n      0x20\n      add\n      0x00\n      swap1\n    tag_100:\n      dup3\n      dup3\n      lt\n      iszero\n      tag_101\n      jumpi\n      dup4\n      dup3\n      swap1\n      0x00\n      mstore\n      keccak256(0x00, 0x20)\n      swap1\n      0x02\n      mul\n      add\n      mload(0x40)\n      dup1\n      0x40\n      add\n      0x40\n      mstore\n      swap1\n      dup2\n      0x00\n      dup3\n      add\n      0x00\n      swap1\n      sload\n      swap1\n      0x0100\n      exp\n      swap1\n      div\n      0xffffffffffffffffffffffffffffffffffffffff\n      and\n      0xffffffffffffffffffffffffffffffffffffffff\n      and\n      0xffffffffffffffffffffffffffffffffffffffff\n      and\n      dup2\n      mstore\n      0x20\n      add\n      0x01\n      dup3\n      add\n      sload\n      dup2\n      mstore\n      pop\n      pop\n      dup2\n      mstore\n      0x20\n      add\n      swap1\n      0x01\n      add\n      swap1\n      jump(tag_100)\n    tag_101:\n      pop\n      pop\n      pop\n      pop\n      swap1\n      pop\n        /* \"contracts/auction.sol\":2933:3050  function ShowAuctionOffers() public view returns (StructOfferAccount[] memory){... */\n      swap1\n      jump\t// out\n        /* \"contracts/auction.sol\":2236:2621  function CreateOffer() external payable chkAuctionActive goodBid checkLastTimeBid {... */\n    tag_44:\n        /* \"contracts/auction.sol\":1344:1359  block.timestamp */\n      timestamp\n        /* \"contracts/auction.sol\":1327:1341  endDateAuction */\n      sload(0x04)\n        /* \"contracts/auction.sol\":1327:1359  endDateAuction > block.timestamp */\n      gt\n        /* \"contracts/auction.sol\":1319:1423  require(endDateAuction > block.timestamp, \"You can't offer after the established period of the auction\") */\n      tag_104\n      jumpi\n      mload(0x40)\n      0x08c379a000000000000000000000000000000000000000000000000000000000\n      dup2\n      mstore\n      0x04\n      add\n      tag_105\n      swap1\n      tag_106\n      jump\t// in\n    tag_105:\n      mload(0x40)\n      dup1\n      swap2\n      sub\n      swap1\n      revert\n    tag_104:\n        /* \"contracts/auction.sol\":1443:1456  auctionClosed */\n      0x05\n      0x00\n      swap1\n      sload\n      swap1\n      0x0100\n      exp\n      swap1\n      div\n      0xff\n      and\n        /* \"contracts/auction.sol\":1442:1456  !auctionClosed */\n      iszero\n        /* \"contracts/auction.sol\":1434:1483  require(!auctionClosed , \"The auction is closed\") */\n      tag_107\n      jumpi\n      mload(0x40)\n      0x08c379a000000000000000000000000000000000000000000000000000000000\n      dup2\n      mstore\n      0x04\n      add\n      tag_108\n      swap1\n      tag_109\n      jump\t// in\n    tag_108:\n      mload(0x40)\n      dup1\n      swap2\n      sub\n      swap1\n      revert\n    tag_107:\n        /* \"contracts/auction.sol\":1663:1686  uint256 minimumNewOffer */\n      0x00\n        /* \"contracts/auction.sol\":1736:1739  100 */\n      0x64\n        /* \"contracts/auction.sol\":1707:1732  minimumNewOfferPercentage */\n      sload(0x06)\n        /* \"contracts/auction.sol\":1701:1704  100 */\n      0x64\n        /* \"contracts/auction.sol\":1701:1732  100 + minimumNewOfferPercentage */\n      tag_111\n      swap2\n      swap1\n      tag_64\n      jump\t// in\n    tag_111:\n        /* \"contracts/auction.sol\":1689:1697  topOffer */\n      sload(0x01)\n        /* \"contracts/auction.sol\":1689:1733  topOffer * (100 + minimumNewOfferPercentage) */\n      tag_112\n      swap2\n      swap1\n      tag_62\n      jump\t// in\n    tag_112:\n        /* \"contracts/auction.sol\":1689:1739  topOffer * (100 + minimumNewOfferPercentage) / 100 */\n      tag_113\n      swap2\n      swap1\n      tag_66\n      jump\t// in\n    tag_113:\n        /* \"contracts/auction.sol\":1663:1739  uint256 minimumNewOffer = topOffer * (100 + minimumNewOfferPercentage) / 100 */\n      swap1\n      pop\n        /* \"contracts/auction.sol\":1751:1767  uint256 newOffer */\n      0x00\n        /* \"contracts/auction.sol\":1770:1779  msg.value */\n      callvalue\n        /* \"contracts/auction.sol\":1751:1779  uint256 newOffer = msg.value */\n      swap1\n      pop\n        /* \"contracts/auction.sol\":1809:1810  0 */\n      0x00\n        /* \"contracts/auction.sol\":1798:1806  newOffer */\n      dup2\n        /* \"contracts/auction.sol\":1798:1810  newOffer > 0 */\n      gt\n        /* \"contracts/auction.sol\":1790:1872  require(newOffer > 0, \"The amount offered for this auction must be higher than 0\") */\n      tag_114\n      jumpi\n      mload(0x40)\n      0x08c379a000000000000000000000000000000000000000000000000000000000\n      dup2\n      mstore\n      0x04\n      add\n      tag_115\n      swap1\n      tag_116\n      jump\t// in\n    tag_115:\n      mload(0x40)\n      dup1\n      swap2\n      sub\n      swap1\n      revert\n    tag_114:\n        /* \"contracts/auction.sol\":1898:1899  0 */\n      0x00\n        /* \"contracts/auction.sol\":1886:1894  topOffer */\n      sload(0x01)\n        /* \"contracts/auction.sol\":1886:1899  topOffer != 0 */\n      eq\n        /* \"contracts/auction.sol\":1883:2040  if(topOffer != 0){... */\n      tag_117\n      jumpi\n        /* \"contracts/auction.sol\":1934:1949  minimumNewOffer */\n      dup2\n        /* \"contracts/auction.sol\":1923:1931  newOffer */\n      dup2\n        /* \"contracts/auction.sol\":1923:1949  newOffer > minimumNewOffer */\n      gt\n        /* \"contracts/auction.sol\":1915:2027  require(newOffer > minimumNewOffer, \"The amount offered for this auction must be 5% higher than the best offer\") */\n      tag_118\n      jumpi\n      mload(0x40)\n      0x08c379a000000000000000000000000000000000000000000000000000000000\n      dup2\n      mstore\n      0x04\n      add\n      tag_119\n      swap1\n      tag_120\n      jump\t// in\n    tag_119:\n      mload(0x40)\n      dup1\n      swap2\n      sub\n      swap1\n      revert\n    tag_118:\n        /* \"contracts/auction.sol\":1883:2040  if(topOffer != 0){... */\n    tag_117:\n        /* \"contracts/auction.sol\":2143:2153  10 seconds */\n      0x0a\n        /* \"contracts/auction.sol\":2126:2140  endDateAuction */\n      sload(0x04)\n        /* \"contracts/auction.sol\":2126:2153  endDateAuction - 10 seconds */\n      tag_122\n      swap2\n      swap1\n      tag_68\n      jump\t// in\n    tag_122:\n        /* \"contracts/auction.sol\":2108:2123  block.timestamp */\n      timestamp\n        /* \"contracts/auction.sol\":2108:2153  block.timestamp < endDateAuction - 10 seconds */\n      lt\n        /* \"contracts/auction.sol\":2105:2209  if(block.timestamp < endDateAuction - 10 seconds){... */\n      iszero\n      tag_123\n      jumpi\n        /* \"contracts/auction.sol\":2187:2197  10 seconds */\n      0x0a\n        /* \"contracts/auction.sol\":2169:2183  endDateAuction */\n      0x04\n      0x00\n        /* \"contracts/auction.sol\":2169:2197  endDateAuction += 10 seconds */\n      dup3\n      dup3\n      sload\n      tag_124\n      swap2\n      swap1\n      tag_64\n      jump\t// in\n    tag_124:\n      swap3\n      pop\n      pop\n      dup2\n      swap1\n      sstore\n      pop\n        /* \"contracts/auction.sol\":2105:2209  if(block.timestamp < endDateAuction - 10 seconds){... */\n    tag_123:\n        /* \"contracts/auction.sol\":2347:2357  msg.sender */\n      caller\n        /* \"contracts/auction.sol\":2329:2344  topOfferAccount */\n      0x02\n      0x00\n        /* \"contracts/auction.sol\":2329:2357  topOfferAccount = msg.sender */\n      0x0100\n      exp\n      dup2\n      sload\n      dup2\n      0xffffffffffffffffffffffffffffffffffffffff\n      mul\n      not\n      and\n      swap1\n      dup4\n      0xffffffffffffffffffffffffffffffffffffffff\n      and\n      mul\n      or\n      swap1\n      sstore\n      pop\n        /* \"contracts/auction.sol\":2379:2388  msg.value */\n      callvalue\n        /* \"contracts/auction.sol\":2368:2376  topOffer */\n      0x01\n        /* \"contracts/auction.sol\":2368:2388  topOffer = msg.value */\n      dup2\n      swap1\n      sstore\n      pop\n        /* \"contracts/auction.sol\":2420:2429  msg.value */\n      callvalue\n        /* \"contracts/auction.sol\":2399:2405  offers */\n      0x08\n        /* \"contracts/auction.sol\":2399:2417  offers[msg.sender] */\n      0x00\n        /* \"contracts/auction.sol\":2406:2416  msg.sender */\n      caller\n        /* \"contracts/auction.sol\":2399:2417  offers[msg.sender] */\n      0xffffffffffffffffffffffffffffffffffffffff\n      and\n      0xffffffffffffffffffffffffffffffffffffffff\n      and\n      dup2\n      mstore\n      0x20\n      add\n      swap1\n      dup2\n      mstore\n      0x20\n      add\n      0x00\n      keccak256\n        /* \"contracts/auction.sol\":2399:2429  offers[msg.sender] = msg.value */\n      dup2\n      swap1\n      sstore\n      pop\n        /* \"contracts/auction.sol\":2442:2475  StructOfferAccount memory auxInfo */\n      0x00\n        /* \"contracts/auction.sol\":2478:2575  StructOfferAccount({... */\n      mload(0x40)\n      dup1\n      0x40\n      add\n      0x40\n      mstore\n      dup1\n        /* \"contracts/auction.sol\":2521:2531  msg.sender */\n      caller\n        /* \"contracts/auction.sol\":2478:2575  StructOfferAccount({... */\n      0xffffffffffffffffffffffffffffffffffffffff\n      and\n      dup2\n      mstore\n      0x20\n      add\n        /* \"contracts/auction.sol\":2554:2563  msg.value */\n      callvalue\n        /* \"contracts/auction.sol\":2478:2575  StructOfferAccount({... */\n      dup2\n      mstore\n      pop\n        /* \"contracts/auction.sol\":2442:2575  StructOfferAccount memory auxInfo = StructOfferAccount({... */\n      swap1\n      pop\n        /* \"contracts/auction.sol\":2586:2599  offerRegistry */\n      0x09\n        /* \"contracts/auction.sol\":2605:2612  auxInfo */\n      dup2\n        /* \"contracts/auction.sol\":2586:2613  offerRegistry.push(auxInfo) */\n      swap1\n      dup1\n      0x01\n      dup2\n      sload\n      add\n      dup1\n      dup3\n      sstore\n      dup1\n      swap2\n      pop\n      pop\n      0x01\n      swap1\n      sub\n      swap1\n      0x00\n      mstore\n      keccak256(0x00, 0x20)\n      swap1\n      0x02\n      mul\n      add\n      0x00\n      swap1\n      swap2\n      swap1\n      swap2\n      swap1\n      swap2\n      pop\n      0x00\n      dup3\n      add\n      mload\n      dup2\n      0x00\n      add\n      exp(0x0100, 0x00)\n      dup2\n      sload\n      dup2\n      0xffffffffffffffffffffffffffffffffffffffff\n      mul\n      not\n      and\n      swap1\n      dup4\n      0xffffffffffffffffffffffffffffffffffffffff\n      and\n      mul\n      or\n      swap1\n      sstore\n      pop\n      0x20\n      dup3\n      add\n      mload\n      dup2\n      0x01\n      add\n      sstore\n      pop\n      pop\n        /* \"contracts/auction.sol\":2318:2621  {... */\n      pop\n        /* \"contracts/auction.sol\":1652:2059  {... */\n      pop\n      pop\n        /* \"contracts/auction.sol\":2236:2621  function CreateOffer() external payable chkAuctionActive goodBid checkLastTimeBid {... */\n      jump\t// out\n        /* \"contracts/auction.sol\":235:265  uint256 public  endDateAuction */\n    tag_47:\n      sload(0x04)\n      dup2\n      jump\t// out\n    tag_86:\n      mload(0x40)\n      dup1\n      0x60\n      add\n      0x40\n      mstore\n      dup1\n      and(0xffffffffffffffffffffffffffffffffffffffff, 0x00)\n      dup2\n      mstore\n      0x20\n      add\n      0x00\n      dup2\n      mstore\n      0x20\n      add\n      iszero(iszero(0x00))\n      dup2\n      mstore\n      pop\n      swap1\n      jump\t// out\n        /* \"#utility.yul\":7:84   */\n    tag_127:\n        /* \"#utility.yul\":44:51   */\n      0x00\n        /* \"#utility.yul\":73:78   */\n      dup2\n        /* \"#utility.yul\":62:78   */\n      swap1\n      pop\n        /* \"#utility.yul\":7:84   */\n      swap2\n      swap1\n      pop\n      jump\t// out\n        /* \"#utility.yul\":90:208   */\n    tag_128:\n        /* \"#utility.yul\":177:201   */\n      tag_181\n        /* \"#utility.yul\":195:200   */\n      dup2\n        /* \"#utility.yul\":177:201   */\n      tag_127\n      jump\t// in\n    tag_181:\n        /* \"#utility.yul\":172:175   */\n      dup3\n        /* \"#utility.yul\":165:202   */\n      mstore\n        /* \"#utility.yul\":90:208   */\n      pop\n      pop\n      jump\t// out\n        /* \"#utility.yul\":214:436   */\n    tag_16:\n        /* \"#utility.yul\":307:311   */\n      0x00\n        /* \"#utility.yul\":345:347   */\n      0x20\n        /* \"#utility.yul\":334:343   */\n      dup3\n        /* \"#utility.yul\":330:348   */\n      add\n        /* \"#utility.yul\":322:348   */\n      swap1\n      pop\n        /* \"#utility.yul\":358:429   */\n      tag_183\n        /* \"#utility.yul\":426:427   */\n      0x00\n        /* \"#utility.yul\":415:424   */\n      dup4\n        /* \"#utility.yul\":411:428   */\n      add\n        /* \"#utility.yul\":402:408   */\n      dup5\n        /* \"#utility.yul\":358:429   */\n      tag_128\n      jump\t// in\n    tag_183:\n        /* \"#utility.yul\":214:436   */\n      swap3\n      swap2\n      pop\n      pop\n      jump\t// out\n        /* \"#utility.yul\":523:640   */\n    tag_130:\n        /* \"#utility.yul\":632:633   */\n      0x00\n        /* \"#utility.yul\":629:630   */\n      0x00\n        /* \"#utility.yul\":622:634   */\n      revert\n        /* \"#utility.yul\":769:891   */\n    tag_132:\n        /* \"#utility.yul\":842:866   */\n      tag_188\n        /* \"#utility.yul\":860:865   */\n      dup2\n        /* \"#utility.yul\":842:866   */\n      tag_127\n      jump\t// in\n    tag_188:\n        /* \"#utility.yul\":835:840   */\n      dup2\n        /* \"#utility.yul\":832:867   */\n      eq\n        /* \"#utility.yul\":822:885   */\n      tag_189\n      jumpi\n        /* \"#utility.yul\":881:882   */\n      0x00\n        /* \"#utility.yul\":878:879   */\n      0x00\n        /* \"#utility.yul\":871:883   */\n      revert\n        /* \"#utility.yul\":822:885   */\n    tag_189:\n        /* \"#utility.yul\":769:891   */\n      pop\n      jump\t// out\n        /* \"#utility.yul\":897:1036   */\n    tag_133:\n        /* \"#utility.yul\":943:948   */\n      0x00\n        /* \"#utility.yul\":981:987   */\n      dup2\n        /* \"#utility.yul\":968:988   */\n      calldataload\n        /* \"#utility.yul\":959:988   */\n      swap1\n      pop\n        /* \"#utility.yul\":997:1030   */\n      tag_191\n        /* \"#utility.yul\":1024:1029   */\n      dup2\n        /* \"#utility.yul\":997:1030   */\n      tag_132\n      jump\t// in\n    tag_191:\n        /* \"#utility.yul\":897:1036   */\n      swap3\n      swap2\n      pop\n      pop\n      jump\t// out\n        /* \"#utility.yul\":1042:1371   */\n    tag_20:\n        /* \"#utility.yul\":1101:1107   */\n      0x00\n        /* \"#utility.yul\":1150:1152   */\n      0x20\n        /* \"#utility.yul\":1138:1147   */\n      dup3\n        /* \"#utility.yul\":1129:1136   */\n      dup5\n        /* \"#utility.yul\":1125:1148   */\n      sub\n        /* \"#utility.yul\":1121:1153   */\n      slt\n        /* \"#utility.yul\":1118:1237   */\n      iszero\n      tag_193\n      jumpi\n        /* \"#utility.yul\":1156:1235   */\n      tag_194\n      tag_130\n      jump\t// in\n    tag_194:\n        /* \"#utility.yul\":1118:1237   */\n    tag_193:\n        /* \"#utility.yul\":1276:1277   */\n      0x00\n        /* \"#utility.yul\":1301:1354   */\n      tag_195\n        /* \"#utility.yul\":1346:1353   */\n      dup5\n        /* \"#utility.yul\":1337:1343   */\n      dup3\n        /* \"#utility.yul\":1326:1335   */\n      dup6\n        /* \"#utility.yul\":1322:1344   */\n      add\n        /* \"#utility.yul\":1301:1354   */\n      tag_133\n      jump\t// in\n    tag_195:\n        /* \"#utility.yul\":1291:1354   */\n      swap2\n      pop\n        /* \"#utility.yul\":1247:1364   */\n      pop\n        /* \"#utility.yul\":1042:1371   */\n      swap3\n      swap2\n      pop\n      pop\n      jump\t// out\n        /* \"#utility.yul\":1377:1503   */\n    tag_134:\n        /* \"#utility.yul\":1414:1421   */\n      0x00\n        /* \"#utility.yul\":1454:1496   */\n      0xffffffffffffffffffffffffffffffffffffffff\n        /* \"#utility.yul\":1447:1452   */\n      dup3\n        /* \"#utility.yul\":1443:1497   */\n      and\n        /* \"#utility.yul\":1432:1497   */\n      swap1\n      pop\n        /* \"#utility.yul\":1377:1503   */\n      swap2\n      swap1\n      pop\n      jump\t// out\n        /* \"#utility.yul\":1509:1605   */\n    tag_135:\n        /* \"#utility.yul\":1546:1553   */\n      0x00\n        /* \"#utility.yul\":1575:1599   */\n      tag_198\n        /* \"#utility.yul\":1593:1598   */\n      dup3\n        /* \"#utility.yul\":1575:1599   */\n      tag_134\n      jump\t// in\n    tag_198:\n        /* \"#utility.yul\":1564:1599   */\n      swap1\n      pop\n        /* \"#utility.yul\":1509:1605   */\n      swap2\n      swap1\n      pop\n      jump\t// out\n        /* \"#utility.yul\":1611:1719   */\n    tag_136:\n        /* \"#utility.yul\":1688:1712   */\n      tag_200\n        /* \"#utility.yul\":1706:1711   */\n      dup2\n        /* \"#utility.yul\":1688:1712   */\n      tag_135\n      jump\t// in\n    tag_200:\n        /* \"#utility.yul\":1683:1686   */\n      dup3\n        /* \"#utility.yul\":1676:1713   */\n      mstore\n        /* \"#utility.yul\":1611:1719   */\n      pop\n      pop\n      jump\t// out\n        /* \"#utility.yul\":1725:1833   */\n    tag_137:\n        /* \"#utility.yul\":1802:1826   */\n      tag_202\n        /* \"#utility.yul\":1820:1825   */\n      dup2\n        /* \"#utility.yul\":1802:1826   */\n      tag_127\n      jump\t// in\n    tag_202:\n        /* \"#utility.yul\":1797:1800   */\n      dup3\n        /* \"#utility.yul\":1790:1827   */\n      mstore\n        /* \"#utility.yul\":1725:1833   */\n      pop\n      pop\n      jump\t// out\n        /* \"#utility.yul\":1839:1929   */\n    tag_138:\n        /* \"#utility.yul\":1873:1880   */\n      0x00\n        /* \"#utility.yul\":1916:1921   */\n      dup2\n        /* \"#utility.yul\":1909:1922   */\n      iszero\n        /* \"#utility.yul\":1902:1923   */\n      iszero\n        /* \"#utility.yul\":1891:1923   */\n      swap1\n      pop\n        /* \"#utility.yul\":1839:1929   */\n      swap2\n      swap1\n      pop\n      jump\t// out\n        /* \"#utility.yul\":1935:2034   */\n    tag_139:\n        /* \"#utility.yul\":2006:2027   */\n      tag_205\n        /* \"#utility.yul\":2021:2026   */\n      dup2\n        /* \"#utility.yul\":2006:2027   */\n      tag_138\n      jump\t// in\n    tag_205:\n        /* \"#utility.yul\":2001:2004   */\n      dup3\n        /* \"#utility.yul\":1994:2028   */\n      mstore\n        /* \"#utility.yul\":1935:2034   */\n      pop\n      pop\n      jump\t// out\n        /* \"#utility.yul\":2112:2812   */\n    tag_140:\n        /* \"#utility.yul\":2271:2275   */\n      0x60\n        /* \"#utility.yul\":2266:2269   */\n      dup3\n        /* \"#utility.yul\":2262:2276   */\n      add\n        /* \"#utility.yul\":2361:2365   */\n      0x00\n        /* \"#utility.yul\":2354:2359   */\n      dup3\n        /* \"#utility.yul\":2350:2366   */\n      add\n        /* \"#utility.yul\":2344:2367   */\n      mload\n        /* \"#utility.yul\":2380:2443   */\n      tag_207\n        /* \"#utility.yul\":2437:2441   */\n      0x00\n        /* \"#utility.yul\":2432:2435   */\n      dup6\n        /* \"#utility.yul\":2428:2442   */\n      add\n        /* \"#utility.yul\":2414:2426   */\n      dup3\n        /* \"#utility.yul\":2380:2443   */\n      tag_136\n      jump\t// in\n    tag_207:\n        /* \"#utility.yul\":2286:2453   */\n      pop\n        /* \"#utility.yul\":2537:2541   */\n      0x20\n        /* \"#utility.yul\":2530:2535   */\n      dup3\n        /* \"#utility.yul\":2526:2542   */\n      add\n        /* \"#utility.yul\":2520:2543   */\n      mload\n        /* \"#utility.yul\":2556:2619   */\n      tag_208\n        /* \"#utility.yul\":2613:2617   */\n      0x20\n        /* \"#utility.yul\":2608:2611   */\n      dup6\n        /* \"#utility.yul\":2604:2618   */\n      add\n        /* \"#utility.yul\":2590:2602   */\n      dup3\n        /* \"#utility.yul\":2556:2619   */\n      tag_137\n      jump\t// in\n    tag_208:\n        /* \"#utility.yul\":2463:2629   */\n      pop\n        /* \"#utility.yul\":2719:2723   */\n      0x40\n        /* \"#utility.yul\":2712:2717   */\n      dup3\n        /* \"#utility.yul\":2708:2724   */\n      add\n        /* \"#utility.yul\":2702:2725   */\n      mload\n        /* \"#utility.yul\":2738:2795   */\n      tag_209\n        /* \"#utility.yul\":2789:2793   */\n      0x40\n        /* \"#utility.yul\":2784:2787   */\n      dup6\n        /* \"#utility.yul\":2780:2794   */\n      add\n        /* \"#utility.yul\":2766:2778   */\n      dup3\n        /* \"#utility.yul\":2738:2795   */\n      tag_139\n      jump\t// in\n    tag_209:\n        /* \"#utility.yul\":2639:2805   */\n      pop\n        /* \"#utility.yul\":2240:2812   */\n      pop\n        /* \"#utility.yul\":2112:2812   */\n      pop\n      pop\n      jump\t// out\n        /* \"#utility.yul\":2818:3164   */\n    tag_34:\n        /* \"#utility.yul\":2973:2977   */\n      0x00\n        /* \"#utility.yul\":3011:3013   */\n      0x60\n        /* \"#utility.yul\":3000:3009   */\n      dup3\n        /* \"#utility.yul\":2996:3014   */\n      add\n        /* \"#utility.yul\":2988:3014   */\n      swap1\n      pop\n        /* \"#utility.yul\":3024:3157   */\n      tag_211\n        /* \"#utility.yul\":3154:3155   */\n      0x00\n        /* \"#utility.yul\":3143:3152   */\n      dup4\n        /* \"#utility.yul\":3139:3156   */\n      add\n        /* \"#utility.yul\":3130:3136   */\n      dup5\n        /* \"#utility.yul\":3024:3157   */\n      tag_140\n      jump\t// in\n    tag_211:\n        /* \"#utility.yul\":2818:3164   */\n      swap3\n      swap2\n      pop\n      pop\n      jump\t// out\n        /* \"#utility.yul\":3170:3318   */\n    tag_141:\n        /* \"#utility.yul\":3271:3277   */\n      0x00\n        /* \"#utility.yul\":3305:3310   */\n      dup2\n        /* \"#utility.yul\":3299:3311   */\n      mload\n        /* \"#utility.yul\":3289:3311   */\n      swap1\n      pop\n        /* \"#utility.yul\":3170:3318   */\n      swap2\n      swap1\n      pop\n      jump\t// out\n        /* \"#utility.yul\":3324:3542   */\n    tag_142:\n        /* \"#utility.yul\":3457:3468   */\n      0x00\n        /* \"#utility.yul\":3491:3497   */\n      dup3\n        /* \"#utility.yul\":3486:3489   */\n      dup3\n        /* \"#utility.yul\":3479:3498   */\n      mstore\n        /* \"#utility.yul\":3531:3535   */\n      0x20\n        /* \"#utility.yul\":3526:3529   */\n      dup3\n        /* \"#utility.yul\":3522:3536   */\n      add\n        /* \"#utility.yul\":3507:3536   */\n      swap1\n      pop\n        /* \"#utility.yul\":3324:3542   */\n      swap3\n      swap2\n      pop\n      pop\n      jump\t// out\n        /* \"#utility.yul\":3548:3714   */\n    tag_143:\n        /* \"#utility.yul\":3649:3653   */\n      0x00\n        /* \"#utility.yul\":3672:3675   */\n      dup2\n        /* \"#utility.yul\":3664:3675   */\n      swap1\n      pop\n        /* \"#utility.yul\":3702:3706   */\n      0x20\n        /* \"#utility.yul\":3697:3700   */\n      dup3\n        /* \"#utility.yul\":3693:3707   */\n      add\n        /* \"#utility.yul\":3685:3707   */\n      swap1\n      pop\n        /* \"#utility.yul\":3548:3714   */\n      swap2\n      swap1\n      pop\n      jump\t// out\n        /* \"#utility.yul\":3798:4318   */\n    tag_144:\n        /* \"#utility.yul\":3953:3957   */\n      0x40\n        /* \"#utility.yul\":3948:3951   */\n      dup3\n        /* \"#utility.yul\":3944:3958   */\n      add\n        /* \"#utility.yul\":4043:4047   */\n      0x00\n        /* \"#utility.yul\":4036:4041   */\n      dup3\n        /* \"#utility.yul\":4032:4048   */\n      add\n        /* \"#utility.yul\":4026:4049   */\n      mload\n        /* \"#utility.yul\":4062:4125   */\n      tag_216\n        /* \"#utility.yul\":4119:4123   */\n      0x00\n        /* \"#utility.yul\":4114:4117   */\n      dup6\n        /* \"#utility.yul\":4110:4124   */\n      add\n        /* \"#utility.yul\":4096:4108   */\n      dup3\n        /* \"#utility.yul\":4062:4125   */\n      tag_136\n      jump\t// in\n    tag_216:\n        /* \"#utility.yul\":3968:4135   */\n      pop\n        /* \"#utility.yul\":4219:4223   */\n      0x20\n        /* \"#utility.yul\":4212:4217   */\n      dup3\n        /* \"#utility.yul\":4208:4224   */\n      add\n        /* \"#utility.yul\":4202:4225   */\n      mload\n        /* \"#utility.yul\":4238:4301   */\n      tag_217\n        /* \"#utility.yul\":4295:4299   */\n      0x20\n        /* \"#utility.yul\":4290:4293   */\n      dup6\n        /* \"#utility.yul\":4286:4300   */\n      add\n        /* \"#utility.yul\":4272:4284   */\n      dup3\n        /* \"#utility.yul\":4238:4301   */\n      tag_137\n      jump\t// in\n    tag_217:\n        /* \"#utility.yul\":4145:4311   */\n      pop\n        /* \"#utility.yul\":3922:4318   */\n      pop\n        /* \"#utility.yul\":3798:4318   */\n      pop\n      pop\n      jump\t// out\n        /* \"#utility.yul\":4324:4639   */\n    tag_145:\n        /* \"#utility.yul\":4461:4471   */\n      0x00\n        /* \"#utility.yul\":4482:4596   */\n      tag_219\n        /* \"#utility.yul\":4592:4595   */\n      dup4\n        /* \"#utility.yul\":4584:4590   */\n      dup4\n        /* \"#utility.yul\":4482:4596   */\n      tag_144\n      jump\t// in\n    tag_219:\n        /* \"#utility.yul\":4628:4632   */\n      0x40\n        /* \"#utility.yul\":4623:4626   */\n      dup4\n        /* \"#utility.yul\":4619:4633   */\n      add\n        /* \"#utility.yul\":4605:4633   */\n      swap1\n      pop\n        /* \"#utility.yul\":4324:4639   */\n      swap3\n      swap2\n      pop\n      pop\n      jump\t// out\n        /* \"#utility.yul\":4645:4792   */\n    tag_146:\n        /* \"#utility.yul\":4749:4753   */\n      0x00\n        /* \"#utility.yul\":4781:4785   */\n      0x20\n        /* \"#utility.yul\":4776:4779   */\n      dup3\n        /* \"#utility.yul\":4772:4786   */\n      add\n        /* \"#utility.yul\":4764:4786   */\n      swap1\n      pop\n        /* \"#utility.yul\":4645:4792   */\n      swap2\n      swap1\n      pop\n      jump\t// out\n        /* \"#utility.yul\":4880:5884   */\n    tag_147:\n        /* \"#utility.yul\":5067:5070   */\n      0x00\n        /* \"#utility.yul\":5096:5184   */\n      tag_222\n        /* \"#utility.yul\":5178:5183   */\n      dup3\n        /* \"#utility.yul\":5096:5184   */\n      tag_141\n      jump\t// in\n    tag_222:\n        /* \"#utility.yul\":5200:5320   */\n      tag_223\n        /* \"#utility.yul\":5313:5319   */\n      dup2\n        /* \"#utility.yul\":5308:5311   */\n      dup6\n        /* \"#utility.yul\":5200:5320   */\n      tag_142\n      jump\t// in\n    tag_223:\n        /* \"#utility.yul\":5193:5320   */\n      swap4\n      pop\n        /* \"#utility.yul\":5344:5434   */\n      tag_224\n        /* \"#utility.yul\":5428:5433   */\n      dup4\n        /* \"#utility.yul\":5344:5434   */\n      tag_143\n      jump\t// in\n    tag_224:\n        /* \"#utility.yul\":5457:5464   */\n      dup1\n        /* \"#utility.yul\":5488:5489   */\n      0x00\n        /* \"#utility.yul\":5473:5859   */\n    tag_225:\n        /* \"#utility.yul\":5498:5504   */\n      dup4\n        /* \"#utility.yul\":5495:5496   */\n      dup2\n        /* \"#utility.yul\":5492:5505   */\n      lt\n        /* \"#utility.yul\":5473:5859   */\n      iszero\n      tag_227\n      jumpi\n        /* \"#utility.yul\":5574:5580   */\n      dup2\n        /* \"#utility.yul\":5568:5581   */\n      mload\n        /* \"#utility.yul\":5601:5732   */\n      tag_228\n        /* \"#utility.yul\":5728:5731   */\n      dup9\n        /* \"#utility.yul\":5713:5726   */\n      dup3\n        /* \"#utility.yul\":5601:5732   */\n      tag_145\n      jump\t// in\n    tag_228:\n        /* \"#utility.yul\":5594:5732   */\n      swap8\n      pop\n        /* \"#utility.yul\":5755:5849   */\n      tag_229\n        /* \"#utility.yul\":5842:5848   */\n      dup4\n        /* \"#utility.yul\":5755:5849   */\n      tag_146\n      jump\t// in\n    tag_229:\n        /* \"#utility.yul\":5745:5849   */\n      swap3\n      pop\n        /* \"#utility.yul\":5533:5859   */\n      pop\n        /* \"#utility.yul\":5520:5521   */\n      0x01\n        /* \"#utility.yul\":5517:5518   */\n      dup2\n        /* \"#utility.yul\":5513:5522   */\n      add\n        /* \"#utility.yul\":5508:5522   */\n      swap1\n      pop\n        /* \"#utility.yul\":5473:5859   */\n      jump(tag_225)\n    tag_227:\n        /* \"#utility.yul\":5477:5491   */\n      pop\n        /* \"#utility.yul\":5875:5878   */\n      dup6\n        /* \"#utility.yul\":5868:5878   */\n      swap4\n      pop\n        /* \"#utility.yul\":5072:5884   */\n      pop\n      pop\n      pop\n        /* \"#utility.yul\":4880:5884   */\n      swap3\n      swap2\n      pop\n      pop\n      jump\t// out\n        /* \"#utility.yul\":5890:6399   */\n    tag_42:\n        /* \"#utility.yul\":6101:6105   */\n      0x00\n        /* \"#utility.yul\":6139:6141   */\n      0x20\n        /* \"#utility.yul\":6128:6137   */\n      dup3\n        /* \"#utility.yul\":6124:6142   */\n      add\n        /* \"#utility.yul\":6116:6142   */\n      swap1\n      pop\n        /* \"#utility.yul\":6188:6197   */\n      dup2\n        /* \"#utility.yul\":6182:6186   */\n      dup2\n        /* \"#utility.yul\":6178:6198   */\n      sub\n        /* \"#utility.yul\":6174:6175   */\n      0x00\n        /* \"#utility.yul\":6163:6172   */\n      dup4\n        /* \"#utility.yul\":6159:6176   */\n      add\n        /* \"#utility.yul\":6152:6199   */\n      mstore\n        /* \"#utility.yul\":6216:6392   */\n      tag_231\n        /* \"#utility.yul\":6387:6391   */\n      dup2\n        /* \"#utility.yul\":6378:6384   */\n      dup5\n        /* \"#utility.yul\":6216:6392   */\n      tag_147\n      jump\t// in\n    tag_231:\n        /* \"#utility.yul\":6208:6392   */\n      swap1\n      pop\n        /* \"#utility.yul\":5890:6399   */\n      swap3\n      swap2\n      pop\n      pop\n      jump\t// out\n        /* \"#utility.yul\":6405:6574   */\n    tag_148:\n        /* \"#utility.yul\":6489:6500   */\n      0x00\n        /* \"#utility.yul\":6523:6529   */\n      dup3\n        /* \"#utility.yul\":6518:6521   */\n      dup3\n        /* \"#utility.yul\":6511:6530   */\n      mstore\n        /* \"#utility.yul\":6563:6567   */\n      0x20\n        /* \"#utility.yul\":6558:6561   */\n      dup3\n        /* \"#utility.yul\":6554:6568   */\n      add\n        /* \"#utility.yul\":6539:6568   */\n      swap1\n      pop\n        /* \"#utility.yul\":6405:6574   */\n      swap3\n      swap2\n      pop\n      pop\n      jump\t// out\n        /* \"#utility.yul\":6580:6751   */\n    tag_149:\n        /* \"#utility.yul\":6720:6743   */\n      0x496e73756666696369656e742062616c616e63652e0000000000000000000000\n        /* \"#utility.yul\":6716:6717   */\n      0x00\n        /* \"#utility.yul\":6708:6714   */\n      dup3\n        /* \"#utility.yul\":6704:6718   */\n      add\n        /* \"#utility.yul\":6697:6744   */\n      mstore\n        /* \"#utility.yul\":6580:6751   */\n      pop\n      jump\t// out\n        /* \"#utility.yul\":6757:7123   */\n    tag_150:\n        /* \"#utility.yul\":6899:6902   */\n      0x00\n        /* \"#utility.yul\":6920:6987   */\n      tag_235\n        /* \"#utility.yul\":6984:6986   */\n      0x15\n        /* \"#utility.yul\":6979:6982   */\n      dup4\n        /* \"#utility.yul\":6920:6987   */\n      tag_148\n      jump\t// in\n    tag_235:\n        /* \"#utility.yul\":6913:6987   */\n      swap2\n      pop\n        /* \"#utility.yul\":6996:7089   */\n      tag_236\n        /* \"#utility.yul\":7085:7088   */\n      dup3\n        /* \"#utility.yul\":6996:7089   */\n      tag_149\n      jump\t// in\n    tag_236:\n        /* \"#utility.yul\":7114:7116   */\n      0x20\n        /* \"#utility.yul\":7109:7112   */\n      dup3\n        /* \"#utility.yul\":7105:7117   */\n      add\n        /* \"#utility.yul\":7098:7117   */\n      swap1\n      pop\n        /* \"#utility.yul\":6757:7123   */\n      swap2\n      swap1\n      pop\n      jump\t// out\n        /* \"#utility.yul\":7129:7548   */\n    tag_52:\n        /* \"#utility.yul\":7295:7299   */\n      0x00\n        /* \"#utility.yul\":7333:7335   */\n      0x20\n        /* \"#utility.yul\":7322:7331   */\n      dup3\n        /* \"#utility.yul\":7318:7336   */\n      add\n        /* \"#utility.yul\":7310:7336   */\n      swap1\n      pop\n        /* \"#utility.yul\":7382:7391   */\n      dup2\n        /* \"#utility.yul\":7376:7380   */\n      dup2\n        /* \"#utility.yul\":7372:7392   */\n      sub\n        /* \"#utility.yul\":7368:7369   */\n      0x00\n        /* \"#utility.yul\":7357:7366   */\n      dup4\n        /* \"#utility.yul\":7353:7370   */\n      add\n        /* \"#utility.yul\":7346:7393   */\n      mstore\n        /* \"#utility.yul\":7410:7541   */\n      tag_238\n        /* \"#utility.yul\":7536:7540   */\n      dup2\n        /* \"#utility.yul\":7410:7541   */\n      tag_150\n      jump\t// in\n    tag_238:\n        /* \"#utility.yul\":7402:7541   */\n      swap1\n      pop\n        /* \"#utility.yul\":7129:7548   */\n      swap2\n      swap1\n      pop\n      jump\t// out\n        /* \"#utility.yul\":7554:7775   */\n    tag_151:\n        /* \"#utility.yul\":7694:7728   */\n      0x596f752063616e2774207769746864726177207468652077696e6e696e672062\n        /* \"#utility.yul\":7690:7691   */\n      0x00\n        /* \"#utility.yul\":7682:7688   */\n      dup3\n        /* \"#utility.yul\":7678:7692   */\n      add\n        /* \"#utility.yul\":7671:7729   */\n      mstore\n        /* \"#utility.yul\":7763:7767   */\n      0x6964000000000000000000000000000000000000000000000000000000000000\n        /* \"#utility.yul\":7758:7760   */\n      0x20\n        /* \"#utility.yul\":7750:7756   */\n      dup3\n        /* \"#utility.yul\":7746:7761   */\n      add\n        /* \"#utility.yul\":7739:7768   */\n      mstore\n        /* \"#utility.yul\":7554:7775   */\n      pop\n      jump\t// out\n        /* \"#utility.yul\":7781:8147   */\n    tag_152:\n        /* \"#utility.yul\":7923:7926   */\n      0x00\n        /* \"#utility.yul\":7944:8011   */\n      tag_241\n        /* \"#utility.yul\":8008:8010   */\n      0x22\n        /* \"#utility.yul\":8003:8006   */\n      dup4\n        /* \"#utility.yul\":7944:8011   */\n      tag_148\n      jump\t// in\n    tag_241:\n        /* \"#utility.yul\":7937:8011   */\n      swap2\n      pop\n        /* \"#utility.yul\":8020:8113   */\n      tag_242\n        /* \"#utility.yul\":8109:8112   */\n      dup3\n        /* \"#utility.yul\":8020:8113   */\n      tag_151\n      jump\t// in\n    tag_242:\n        /* \"#utility.yul\":8138:8140   */\n      0x40\n        /* \"#utility.yul\":8133:8136   */\n      dup3\n        /* \"#utility.yul\":8129:8141   */\n      add\n        /* \"#utility.yul\":8122:8141   */\n      swap1\n      pop\n        /* \"#utility.yul\":7781:8147   */\n      swap2\n      swap1\n      pop\n      jump\t// out\n        /* \"#utility.yul\":8153:8572   */\n    tag_55:\n        /* \"#utility.yul\":8319:8323   */\n      0x00\n        /* \"#utility.yul\":8357:8359   */\n      0x20\n        /* \"#utility.yul\":8346:8355   */\n      dup3\n        /* \"#utility.yul\":8342:8360   */\n      add\n        /* \"#utility.yul\":8334:8360   */\n      swap1\n      pop\n        /* \"#utility.yul\":8406:8415   */\n      dup2\n        /* \"#utility.yul\":8400:8404   */\n      dup2\n        /* \"#utility.yul\":8396:8416   */\n      sub\n        /* \"#utility.yul\":8392:8393   */\n      0x00\n        /* \"#utility.yul\":8381:8390   */\n      dup4\n        /* \"#utility.yul\":8377:8394   */\n      add\n        /* \"#utility.yul\":8370:8417   */\n      mstore\n        /* \"#utility.yul\":8434:8565   */\n      tag_244\n        /* \"#utility.yul\":8560:8564   */\n      dup2\n        /* \"#utility.yul\":8434:8565   */\n      tag_152\n      jump\t// in\n    tag_244:\n        /* \"#utility.yul\":8426:8565   */\n      swap1\n      pop\n        /* \"#utility.yul\":8153:8572   */\n      swap2\n      swap1\n      pop\n      jump\t// out\n        /* \"#utility.yul\":8578:8748   */\n    tag_153:\n        /* \"#utility.yul\":8718:8740   */\n      0x496e73756666696369656e742062616c616e6365000000000000000000000000\n        /* \"#utility.yul\":8714:8715   */\n      0x00\n        /* \"#utility.yul\":8706:8712   */\n      dup3\n        /* \"#utility.yul\":8702:8716   */\n      add\n        /* \"#utility.yul\":8695:8741   */\n      mstore\n        /* \"#utility.yul\":8578:8748   */\n      pop\n      jump\t// out\n        /* \"#utility.yul\":8754:9120   */\n    tag_154:\n        /* \"#utility.yul\":8896:8899   */\n      0x00\n        /* \"#utility.yul\":8917:8984   */\n      tag_247\n        /* \"#utility.yul\":8981:8983   */\n      0x14\n        /* \"#utility.yul\":8976:8979   */\n      dup4\n        /* \"#utility.yul\":8917:8984   */\n      tag_148\n      jump\t// in\n    tag_247:\n        /* \"#utility.yul\":8910:8984   */\n      swap2\n      pop\n        /* \"#utility.yul\":8993:9086   */\n      tag_248\n        /* \"#utility.yul\":9082:9085   */\n      dup3\n        /* \"#utility.yul\":8993:9086   */\n      tag_153\n      jump\t// in\n    tag_248:\n        /* \"#utility.yul\":9111:9113   */\n      0x20\n        /* \"#utility.yul\":9106:9109   */\n      dup3\n        /* \"#utility.yul\":9102:9114   */\n      add\n        /* \"#utility.yul\":9095:9114   */\n      swap1\n      pop\n        /* \"#utility.yul\":8754:9120   */\n      swap2\n      swap1\n      pop\n      jump\t// out\n        /* \"#utility.yul\":9126:9545   */\n    tag_60:\n        /* \"#utility.yul\":9292:9296   */\n      0x00\n        /* \"#utility.yul\":9330:9332   */\n      0x20\n        /* \"#utility.yul\":9319:9328   */\n      dup3\n        /* \"#utility.yul\":9315:9333   */\n      add\n        /* \"#utility.yul\":9307:9333   */\n      swap1\n      pop\n        /* \"#utility.yul\":9379:9388   */\n      dup2\n        /* \"#utility.yul\":9373:9377   */\n      dup2\n        /* \"#utility.yul\":9369:9389   */\n      sub\n        /* \"#utility.yul\":9365:9366   */\n      0x00\n        /* \"#utility.yul\":9354:9363   */\n      dup4\n        /* \"#utility.yul\":9350:9367   */\n      add\n        /* \"#utility.yul\":9343:9390   */\n      mstore\n        /* \"#utility.yul\":9407:9538   */\n      tag_250\n        /* \"#utility.yul\":9533:9537   */\n      dup2\n        /* \"#utility.yul\":9407:9538   */\n      tag_154\n      jump\t// in\n    tag_250:\n        /* \"#utility.yul\":9399:9538   */\n      swap1\n      pop\n        /* \"#utility.yul\":9126:9545   */\n      swap2\n      swap1\n      pop\n      jump\t// out\n        /* \"#utility.yul\":9551:9731   */\n    tag_155:\n        /* \"#utility.yul\":9599:9676   */\n      0x4e487b7100000000000000000000000000000000000000000000000000000000\n        /* \"#utility.yul\":9596:9597   */\n      0x00\n        /* \"#utility.yul\":9589:9677   */\n      mstore\n        /* \"#utility.yul\":9696:9700   */\n      0x11\n        /* \"#utility.yul\":9693:9694   */\n      0x04\n        /* \"#utility.yul\":9686:9701   */\n      mstore\n        /* \"#utility.yul\":9720:9724   */\n      0x24\n        /* \"#utility.yul\":9717:9718   */\n      0x00\n        /* \"#utility.yul\":9710:9725   */\n      revert\n        /* \"#utility.yul\":9737:10147   */\n    tag_62:\n        /* \"#utility.yul\":9777:9784   */\n      0x00\n        /* \"#utility.yul\":9800:9820   */\n      tag_253\n        /* \"#utility.yul\":9818:9819   */\n      dup3\n        /* \"#utility.yul\":9800:9820   */\n      tag_127\n      jump\t// in\n    tag_253:\n        /* \"#utility.yul\":9795:9820   */\n      swap2\n      pop\n        /* \"#utility.yul\":9834:9854   */\n      tag_254\n        /* \"#utility.yul\":9852:9853   */\n      dup4\n        /* \"#utility.yul\":9834:9854   */\n      tag_127\n      jump\t// in\n    tag_254:\n        /* \"#utility.yul\":9829:9854   */\n      swap3\n      pop\n        /* \"#utility.yul\":9889:9890   */\n      dup3\n        /* \"#utility.yul\":9886:9887   */\n      dup3\n        /* \"#utility.yul\":9882:9891   */\n      mul\n        /* \"#utility.yul\":9911:9941   */\n      tag_255\n        /* \"#utility.yul\":9929:9940   */\n      dup2\n        /* \"#utility.yul\":9911:9941   */\n      tag_127\n      jump\t// in\n    tag_255:\n        /* \"#utility.yul\":9900:9941   */\n      swap2\n      pop\n        /* \"#utility.yul\":10090:10091   */\n      dup3\n        /* \"#utility.yul\":10081:10088   */\n      dup3\n        /* \"#utility.yul\":10077:10092   */\n      div\n        /* \"#utility.yul\":10074:10075   */\n      dup5\n        /* \"#utility.yul\":10071:10093   */\n      eq\n        /* \"#utility.yul\":10051:10052   */\n      dup4\n        /* \"#utility.yul\":10044:10053   */\n      iszero\n        /* \"#utility.yul\":10024:10107   */\n      or\n        /* \"#utility.yul\":10001:10140   */\n      tag_256\n      jumpi\n        /* \"#utility.yul\":10120:10138   */\n      tag_257\n      tag_155\n      jump\t// in\n    tag_257:\n        /* \"#utility.yul\":10001:10140   */\n    tag_256:\n        /* \"#utility.yul\":9785:10147   */\n      pop\n        /* \"#utility.yul\":9737:10147   */\n      swap3\n      swap2\n      pop\n      pop\n      jump\t// out\n        /* \"#utility.yul\":10153:10344   */\n    tag_64:\n        /* \"#utility.yul\":10193:10196   */\n      0x00\n        /* \"#utility.yul\":10212:10232   */\n      tag_259\n        /* \"#utility.yul\":10230:10231   */\n      dup3\n        /* \"#utility.yul\":10212:10232   */\n      tag_127\n      jump\t// in\n    tag_259:\n        /* \"#utility.yul\":10207:10232   */\n      swap2\n      pop\n        /* \"#utility.yul\":10246:10266   */\n      tag_260\n        /* \"#utility.yul\":10264:10265   */\n      dup4\n        /* \"#utility.yul\":10246:10266   */\n      tag_127\n      jump\t// in\n    tag_260:\n        /* \"#utility.yul\":10241:10266   */\n      swap3\n      pop\n        /* \"#utility.yul\":10289:10290   */\n      dup3\n        /* \"#utility.yul\":10286:10287   */\n      dup3\n        /* \"#utility.yul\":10282:10291   */\n      add\n        /* \"#utility.yul\":10275:10291   */\n      swap1\n      pop\n        /* \"#utility.yul\":10310:10313   */\n      dup1\n        /* \"#utility.yul\":10307:10308   */\n      dup3\n        /* \"#utility.yul\":10304:10314   */\n      gt\n        /* \"#utility.yul\":10301:10337   */\n      iszero\n      tag_261\n      jumpi\n        /* \"#utility.yul\":10317:10335   */\n      tag_262\n      tag_155\n      jump\t// in\n    tag_262:\n        /* \"#utility.yul\":10301:10337   */\n    tag_261:\n        /* \"#utility.yul\":10153:10344   */\n      swap3\n      swap2\n      pop\n      pop\n      jump\t// out\n        /* \"#utility.yul\":10350:10530   */\n    tag_156:\n        /* \"#utility.yul\":10398:10475   */\n      0x4e487b7100000000000000000000000000000000000000000000000000000000\n        /* \"#utility.yul\":10395:10396   */\n      0x00\n        /* \"#utility.yul\":10388:10476   */\n      mstore\n        /* \"#utility.yul\":10495:10499   */\n      0x12\n        /* \"#utility.yul\":10492:10493   */\n      0x04\n        /* \"#utility.yul\":10485:10500   */\n      mstore\n        /* \"#utility.yul\":10519:10523   */\n      0x24\n        /* \"#utility.yul\":10516:10517   */\n      0x00\n        /* \"#utility.yul\":10509:10524   */\n      revert\n        /* \"#utility.yul\":10536:10721   */\n    tag_66:\n        /* \"#utility.yul\":10576:10577   */\n      0x00\n        /* \"#utility.yul\":10593:10613   */\n      tag_265\n        /* \"#utility.yul\":10611:10612   */\n      dup3\n        /* \"#utility.yul\":10593:10613   */\n      tag_127\n      jump\t// in\n    tag_265:\n        /* \"#utility.yul\":10588:10613   */\n      swap2\n      pop\n        /* \"#utility.yul\":10627:10647   */\n      tag_266\n        /* \"#utility.yul\":10645:10646   */\n      dup4\n        /* \"#utility.yul\":10627:10647   */\n      tag_127\n      jump\t// in\n    tag_266:\n        /* \"#utility.yul\":10622:10647   */\n      swap3\n      pop\n        /* \"#utility.yul\":10666:10667   */\n      dup3\n        /* \"#utility.yul\":10656:10691   */\n      tag_267\n      jumpi\n        /* \"#utility.yul\":10671:10689   */\n      tag_268\n      tag_156\n      jump\t// in\n    tag_268:\n        /* \"#utility.yul\":10656:10691   */\n    tag_267:\n        /* \"#utility.yul\":10713:10714   */\n      dup3\n        /* \"#utility.yul\":10710:10711   */\n      dup3\n        /* \"#utility.yul\":10706:10715   */\n      div\n        /* \"#utility.yul\":10701:10715   */\n      swap1\n      pop\n        /* \"#utility.yul\":10536:10721   */\n      swap3\n      swap2\n      pop\n      pop\n      jump\t// out\n        /* \"#utility.yul\":10727:10921   */\n    tag_68:\n        /* \"#utility.yul\":10767:10771   */\n      0x00\n        /* \"#utility.yul\":10787:10807   */\n      tag_270\n        /* \"#utility.yul\":10805:10806   */\n      dup3\n        /* \"#utility.yul\":10787:10807   */\n      tag_127\n      jump\t// in\n    tag_270:\n        /* \"#utility.yul\":10782:10807   */\n      swap2\n      pop\n        /* \"#utility.yul\":10821:10841   */\n      tag_271\n        /* \"#utility.yul\":10839:10840   */\n      dup4\n        /* \"#utility.yul\":10821:10841   */\n      tag_127\n      jump\t// in\n    tag_271:\n        /* \"#utility.yul\":10816:10841   */\n      swap3\n      pop\n        /* \"#utility.yul\":10865:10866   */\n      dup3\n        /* \"#utility.yul\":10862:10863   */\n      dup3\n        /* \"#utility.yul\":10858:10867   */\n      sub\n        /* \"#utility.yul\":10850:10867   */\n      swap1\n      pop\n        /* \"#utility.yul\":10889:10890   */\n      dup2\n        /* \"#utility.yul\":10883:10887   */\n      dup2\n        /* \"#utility.yul\":10880:10891   */\n      gt\n        /* \"#utility.yul\":10877:10914   */\n      iszero\n      tag_272\n      jumpi\n        /* \"#utility.yul\":10894:10912   */\n      tag_273\n      tag_155\n      jump\t// in\n    tag_273:\n        /* \"#utility.yul\":10877:10914   */\n    tag_272:\n        /* \"#utility.yul\":10727:10921   */\n      swap3\n      swap2\n      pop\n      pop\n      jump\t// out\n        /* \"#utility.yul\":10927:11074   */\n    tag_157:\n        /* \"#utility.yul\":11028:11039   */\n      0x00\n        /* \"#utility.yul\":11065:11068   */\n      dup2\n        /* \"#utility.yul\":11050:11068   */\n      swap1\n      pop\n        /* \"#utility.yul\":10927:11074   */\n      swap3\n      swap2\n      pop\n      pop\n      jump\t// out\n        /* \"#utility.yul\":11080:11194   */\n    tag_158:\n      pop\n      jump\t// out\n        /* \"#utility.yul\":11200:11598   */\n    tag_159:\n        /* \"#utility.yul\":11359:11362   */\n      0x00\n        /* \"#utility.yul\":11380:11463   */\n      tag_277\n        /* \"#utility.yul\":11461:11462   */\n      0x00\n        /* \"#utility.yul\":11456:11459   */\n      dup4\n        /* \"#utility.yul\":11380:11463   */\n      tag_157\n      jump\t// in\n    tag_277:\n        /* \"#utility.yul\":11373:11463   */\n      swap2\n      pop\n        /* \"#utility.yul\":11472:11565   */\n      tag_278\n        /* \"#utility.yul\":11561:11564   */\n      dup3\n        /* \"#utility.yul\":11472:11565   */\n      tag_158\n      jump\t// in\n    tag_278:\n        /* \"#utility.yul\":11590:11591   */\n      0x00\n        /* \"#utility.yul\":11585:11588   */\n      dup3\n        /* \"#utility.yul\":11581:11592   */\n      add\n        /* \"#utility.yul\":11574:11592   */\n      swap1\n      pop\n        /* \"#utility.yul\":11200:11598   */\n      swap2\n      swap1\n      pop\n      jump\t// out\n        /* \"#utility.yul\":11604:11983   */\n    tag_71:\n        /* \"#utility.yul\":11788:11791   */\n      0x00\n        /* \"#utility.yul\":11810:11957   */\n      tag_280\n        /* \"#utility.yul\":11953:11956   */\n      dup3\n        /* \"#utility.yul\":11810:11957   */\n      tag_159\n      jump\t// in\n    tag_280:\n        /* \"#utility.yul\":11803:11957   */\n      swap2\n      pop\n        /* \"#utility.yul\":11974:11977   */\n      dup2\n        /* \"#utility.yul\":11967:11977   */\n      swap1\n      pop\n        /* \"#utility.yul\":11604:11983   */\n      swap2\n      swap1\n      pop\n      jump\t// out\n        /* \"#utility.yul\":11989:12155   */\n    tag_160:\n        /* \"#utility.yul\":12129:12147   */\n      0x4661696c656420746f20726566756e6400000000000000000000000000000000\n        /* \"#utility.yul\":12125:12126   */\n      0x00\n        /* \"#utility.yul\":12117:12123   */\n      dup3\n        /* \"#utility.yul\":12113:12127   */\n      add\n        /* \"#utility.yul\":12106:12148   */\n      mstore\n        /* \"#utility.yul\":11989:12155   */\n      pop\n      jump\t// out\n        /* \"#utility.yul\":12161:12527   */\n    tag_161:\n        /* \"#utility.yul\":12303:12306   */\n      0x00\n        /* \"#utility.yul\":12324:12391   */\n      tag_283\n        /* \"#utility.yul\":12388:12390   */\n      0x10\n        /* \"#utility.yul\":12383:12386   */\n      dup4\n        /* \"#utility.yul\":12324:12391   */\n      tag_148\n      jump\t// in\n    tag_283:\n        /* \"#utility.yul\":12317:12391   */\n      swap2\n      pop\n        /* \"#utility.yul\":12400:12493   */\n      tag_284\n        /* \"#utility.yul\":12489:12492   */\n      dup3\n        /* \"#utility.yul\":12400:12493   */\n      tag_160\n      jump\t// in\n    tag_284:\n        /* \"#utility.yul\":12518:12520   */\n      0x20\n        /* \"#utility.yul\":12513:12516   */\n      dup3\n        /* \"#utility.yul\":12509:12521   */\n      add\n        /* \"#utility.yul\":12502:12521   */\n      swap1\n      pop\n        /* \"#utility.yul\":12161:12527   */\n      swap2\n      swap1\n      pop\n      jump\t// out\n        /* \"#utility.yul\":12533:12952   */\n    tag_77:\n        /* \"#utility.yul\":12699:12703   */\n      0x00\n        /* \"#utility.yul\":12737:12739   */\n      0x20\n        /* \"#utility.yul\":12726:12735   */\n      dup3\n        /* \"#utility.yul\":12722:12740   */\n      add\n        /* \"#utility.yul\":12714:12740   */\n      swap1\n      pop\n        /* \"#utility.yul\":12786:12795   */\n      dup2\n        /* \"#utility.yul\":12780:12784   */\n      dup2\n        /* \"#utility.yul\":12776:12796   */\n      sub\n        /* \"#utility.yul\":12772:12773   */\n      0x00\n        /* \"#utility.yul\":12761:12770   */\n      dup4\n        /* \"#utility.yul\":12757:12774   */\n      add\n        /* \"#utility.yul\":12750:12797   */\n      mstore\n        /* \"#utility.yul\":12814:12945   */\n      tag_286\n        /* \"#utility.yul\":12940:12944   */\n      dup2\n        /* \"#utility.yul\":12814:12945   */\n      tag_161\n      jump\t// in\n    tag_286:\n        /* \"#utility.yul\":12806:12945   */\n      swap1\n      pop\n        /* \"#utility.yul\":12533:12952   */\n      swap2\n      swap1\n      pop\n      jump\t// out\n        /* \"#utility.yul\":12958:13133   */\n    tag_162:\n        /* \"#utility.yul\":13098:13125   */\n      0x4661696c656420746f2073656e6420636f6d6d697373696f6e00000000000000\n        /* \"#utility.yul\":13094:13095   */\n      0x00\n        /* \"#utility.yul\":13086:13092   */\n      dup3\n        /* \"#utility.yul\":13082:13096   */\n      add\n        /* \"#utility.yul\":13075:13126   */\n      mstore\n        /* \"#utility.yul\":12958:13133   */\n      pop\n      jump\t// out\n        /* \"#utility.yul\":13139:13505   */\n    tag_163:\n        /* \"#utility.yul\":13281:13284   */\n      0x00\n        /* \"#utility.yul\":13302:13369   */\n      tag_289\n        /* \"#utility.yul\":13366:13368   */\n      0x19\n        /* \"#utility.yul\":13361:13364   */\n      dup4\n        /* \"#utility.yul\":13302:13369   */\n      tag_148\n      jump\t// in\n    tag_289:\n        /* \"#utility.yul\":13295:13369   */\n      swap2\n      pop\n        /* \"#utility.yul\":13378:13471   */\n      tag_290\n        /* \"#utility.yul\":13467:13470   */\n      dup3\n        /* \"#utility.yul\":13378:13471   */\n      tag_162\n      jump\t// in\n    tag_290:\n        /* \"#utility.yul\":13496:13498   */\n      0x20\n        /* \"#utility.yul\":13491:13494   */\n      dup3\n        /* \"#utility.yul\":13487:13499   */\n      add\n        /* \"#utility.yul\":13480:13499   */\n      swap1\n      pop\n        /* \"#utility.yul\":13139:13505   */\n      swap2\n      swap1\n      pop\n      jump\t// out\n        /* \"#utility.yul\":13511:13930   */\n    tag_84:\n        /* \"#utility.yul\":13677:13681   */\n      0x00\n        /* \"#utility.yul\":13715:13717   */\n      0x20\n        /* \"#utility.yul\":13704:13713   */\n      dup3\n        /* \"#utility.yul\":13700:13718   */\n      add\n        /* \"#utility.yul\":13692:13718   */\n      swap1\n      pop\n        /* \"#utility.yul\":13764:13773   */\n      dup2\n        /* \"#utility.yul\":13758:13762   */\n      dup2\n        /* \"#utility.yul\":13754:13774   */\n      sub\n        /* \"#utility.yul\":13750:13751   */\n      0x00\n        /* \"#utility.yul\":13739:13748   */\n      dup4\n        /* \"#utility.yul\":13735:13752   */\n      add\n        /* \"#utility.yul\":13728:13775   */\n      mstore\n        /* \"#utility.yul\":13792:13923   */\n      tag_292\n        /* \"#utility.yul\":13918:13922   */\n      dup2\n        /* \"#utility.yul\":13792:13923   */\n      tag_163\n      jump\t// in\n    tag_292:\n        /* \"#utility.yul\":13784:13923   */\n      swap1\n      pop\n        /* \"#utility.yul\":13511:13930   */\n      swap2\n      swap1\n      pop\n      jump\t// out\n        /* \"#utility.yul\":13936:14116   */\n    tag_164:\n        /* \"#utility.yul\":14076:14108   */\n      0x4f6e6c79206f776e65722063616e20646f207468697320616374696f6e2e0000\n        /* \"#utility.yul\":14072:14073   */\n      0x00\n        /* \"#utility.yul\":14064:14070   */\n      dup3\n        /* \"#utility.yul\":14060:14074   */\n      add\n        /* \"#utility.yul\":14053:14109   */\n      mstore\n        /* \"#utility.yul\":13936:14116   */\n      pop\n      jump\t// out\n        /* \"#utility.yul\":14122:14488   */\n    tag_165:\n        /* \"#utility.yul\":14264:14267   */\n      0x00\n        /* \"#utility.yul\":14285:14352   */\n      tag_295\n        /* \"#utility.yul\":14349:14351   */\n      0x1e\n        /* \"#utility.yul\":14344:14347   */\n      dup4\n        /* \"#utility.yul\":14285:14352   */\n      tag_148\n      jump\t// in\n    tag_295:\n        /* \"#utility.yul\":14278:14352   */\n      swap2\n      pop\n        /* \"#utility.yul\":14361:14454   */\n      tag_296\n        /* \"#utility.yul\":14450:14453   */\n      dup3\n        /* \"#utility.yul\":14361:14454   */\n      tag_164\n      jump\t// in\n    tag_296:\n        /* \"#utility.yul\":14479:14481   */\n      0x20\n        /* \"#utility.yul\":14474:14477   */\n      dup3\n        /* \"#utility.yul\":14470:14482   */\n      add\n        /* \"#utility.yul\":14463:14482   */\n      swap1\n      pop\n        /* \"#utility.yul\":14122:14488   */\n      swap2\n      swap1\n      pop\n      jump\t// out\n        /* \"#utility.yul\":14494:14913   */\n    tag_91:\n        /* \"#utility.yul\":14660:14664   */\n      0x00\n        /* \"#utility.yul\":14698:14700   */\n      0x20\n        /* \"#utility.yul\":14687:14696   */\n      dup3\n        /* \"#utility.yul\":14683:14701   */\n      add\n        /* \"#utility.yul\":14675:14701   */\n      swap1\n      pop\n        /* \"#utility.yul\":14747:14756   */\n      dup2\n        /* \"#utility.yul\":14741:14745   */\n      dup2\n        /* \"#utility.yul\":14737:14757   */\n      sub\n        /* \"#utility.yul\":14733:14734   */\n      0x00\n        /* \"#utility.yul\":14722:14731   */\n      dup4\n        /* \"#utility.yul\":14718:14735   */\n      add\n        /* \"#utility.yul\":14711:14758   */\n      mstore\n        /* \"#utility.yul\":14775:14906   */\n      tag_298\n        /* \"#utility.yul\":14901:14905   */\n      dup2\n        /* \"#utility.yul\":14775:14906   */\n      tag_165\n      jump\t// in\n    tag_298:\n        /* \"#utility.yul\":14767:14906   */\n      swap1\n      pop\n        /* \"#utility.yul\":14494:14913   */\n      swap2\n      swap1\n      pop\n      jump\t// out\n        /* \"#utility.yul\":14919:15163   */\n    tag_166:\n        /* \"#utility.yul\":15059:15093   */\n      0x596f752063616e277420656e64207468652061756374696f6e206265666f7265\n        /* \"#utility.yul\":15055:15056   */\n      0x00\n        /* \"#utility.yul\":15047:15053   */\n      dup3\n        /* \"#utility.yul\":15043:15057   */\n      add\n        /* \"#utility.yul\":15036:15094   */\n      mstore\n        /* \"#utility.yul\":15128:15155   */\n      0x2074686520737461626c697368656420656e6420646174652e00000000000000\n        /* \"#utility.yul\":15123:15125   */\n      0x20\n        /* \"#utility.yul\":15115:15121   */\n      dup3\n        /* \"#utility.yul\":15111:15126   */\n      add\n        /* \"#utility.yul\":15104:15156   */\n      mstore\n        /* \"#utility.yul\":14919:15163   */\n      pop\n      jump\t// out\n        /* \"#utility.yul\":15169:15535   */\n    tag_167:\n        /* \"#utility.yul\":15311:15314   */\n      0x00\n        /* \"#utility.yul\":15332:15399   */\n      tag_301\n        /* \"#utility.yul\":15396:15398   */\n      0x39\n        /* \"#utility.yul\":15391:15394   */\n      dup4\n        /* \"#utility.yul\":15332:15399   */\n      tag_148\n      jump\t// in\n    tag_301:\n        /* \"#utility.yul\":15325:15399   */\n      swap2\n      pop\n        /* \"#utility.yul\":15408:15501   */\n      tag_302\n        /* \"#utility.yul\":15497:15500   */\n      dup3\n        /* \"#utility.yul\":15408:15501   */\n      tag_166\n      jump\t// in\n    tag_302:\n        /* \"#utility.yul\":15526:15528   */\n      0x40\n        /* \"#utility.yul\":15521:15524   */\n      dup3\n        /* \"#utility.yul\":15517:15529   */\n      add\n        /* \"#utility.yul\":15510:15529   */\n      swap1\n      pop\n        /* \"#utility.yul\":15169:15535   */\n      swap2\n      swap1\n      pop\n      jump\t// out\n        /* \"#utility.yul\":15541:15960   */\n    tag_95:\n        /* \"#utility.yul\":15707:15711   */\n      0x00\n        /* \"#utility.yul\":15745:15747   */\n      0x20\n        /* \"#utility.yul\":15734:15743   */\n      dup3\n        /* \"#utility.yul\":15730:15748   */\n      add\n        /* \"#utility.yul\":15722:15748   */\n      swap1\n      pop\n        /* \"#utility.yul\":15794:15803   */\n      dup2\n        /* \"#utility.yul\":15788:15792   */\n      dup2\n        /* \"#utility.yul\":15784:15804   */\n      sub\n        /* \"#utility.yul\":15780:15781   */\n      0x00\n        /* \"#utility.yul\":15769:15778   */\n      dup4\n        /* \"#utility.yul\":15765:15782   */\n      add\n        /* \"#utility.yul\":15758:15805   */\n      mstore\n        /* \"#utility.yul\":15822:15953   */\n      tag_304\n        /* \"#utility.yul\":15948:15952   */\n      dup2\n        /* \"#utility.yul\":15822:15953   */\n      tag_167\n      jump\t// in\n    tag_304:\n        /* \"#utility.yul\":15814:15953   */\n      swap1\n      pop\n        /* \"#utility.yul\":15541:15960   */\n      swap2\n      swap1\n      pop\n      jump\t// out\n        /* \"#utility.yul\":15966:16146   */\n    tag_168:\n        /* \"#utility.yul\":16106:16138   */\n      0x5468652061756374696f6e20697320616c726561647920636c6f7365642e0000\n        /* \"#utility.yul\":16102:16103   */\n      0x00\n        /* \"#utility.yul\":16094:16100   */\n      dup3\n        /* \"#utility.yul\":16090:16104   */\n      add\n        /* \"#utility.yul\":16083:16139   */\n      mstore\n        /* \"#utility.yul\":15966:16146   */\n      pop\n      jump\t// out\n        /* \"#utility.yul\":16152:16518   */\n    tag_169:\n        /* \"#utility.yul\":16294:16297   */\n      0x00\n        /* \"#utility.yul\":16315:16382   */\n      tag_307\n        /* \"#utility.yul\":16379:16381   */\n      0x1e\n        /* \"#utility.yul\":16374:16377   */\n      dup4\n        /* \"#utility.yul\":16315:16382   */\n      tag_148\n      jump\t// in\n    tag_307:\n        /* \"#utility.yul\":16308:16382   */\n      swap2\n      pop\n        /* \"#utility.yul\":16391:16484   */\n      tag_308\n        /* \"#utility.yul\":16480:16483   */\n      dup3\n        /* \"#utility.yul\":16391:16484   */\n      tag_168\n      jump\t// in\n    tag_308:\n        /* \"#utility.yul\":16509:16511   */\n      0x20\n        /* \"#utility.yul\":16504:16507   */\n      dup3\n        /* \"#utility.yul\":16500:16512   */\n      add\n        /* \"#utility.yul\":16493:16512   */\n      swap1\n      pop\n        /* \"#utility.yul\":16152:16518   */\n      swap2\n      swap1\n      pop\n      jump\t// out\n        /* \"#utility.yul\":16524:16943   */\n    tag_98:\n        /* \"#utility.yul\":16690:16694   */\n      0x00\n        /* \"#utility.yul\":16728:16730   */\n      0x20\n        /* \"#utility.yul\":16717:16726   */\n      dup3\n        /* \"#utility.yul\":16713:16731   */\n      add\n        /* \"#utility.yul\":16705:16731   */\n      swap1\n      pop\n        /* \"#utility.yul\":16777:16786   */\n      dup2\n        /* \"#utility.yul\":16771:16775   */\n      dup2\n        /* \"#utility.yul\":16767:16787   */\n      sub\n        /* \"#utility.yul\":16763:16764   */\n      0x00\n        /* \"#utility.yul\":16752:16761   */\n      dup4\n        /* \"#utility.yul\":16748:16765   */\n      add\n        /* \"#utility.yul\":16741:16788   */\n      mstore\n        /* \"#utility.yul\":16805:16936   */\n      tag_310\n        /* \"#utility.yul\":16931:16935   */\n      dup2\n        /* \"#utility.yul\":16805:16936   */\n      tag_169\n      jump\t// in\n    tag_310:\n        /* \"#utility.yul\":16797:16936   */\n      swap1\n      pop\n        /* \"#utility.yul\":16524:16943   */\n      swap2\n      swap1\n      pop\n      jump\t// out\n        /* \"#utility.yul\":16949:17195   */\n    tag_170:\n        /* \"#utility.yul\":17089:17123   */\n      0x596f752063616e2774206f66666572206166746572207468652065737461626c\n        /* \"#utility.yul\":17085:17086   */\n      0x00\n        /* \"#utility.yul\":17077:17083   */\n      dup3\n        /* \"#utility.yul\":17073:17087   */\n      add\n        /* \"#utility.yul\":17066:17124   */\n      mstore\n        /* \"#utility.yul\":17158:17187   */\n      0x697368656420706572696f64206f66207468652061756374696f6e0000000000\n        /* \"#utility.yul\":17153:17155   */\n      0x20\n        /* \"#utility.yul\":17145:17151   */\n      dup3\n        /* \"#utility.yul\":17141:17156   */\n      add\n        /* \"#utility.yul\":17134:17188   */\n      mstore\n        /* \"#utility.yul\":16949:17195   */\n      pop\n      jump\t// out\n        /* \"#utility.yul\":17201:17567   */\n    tag_171:\n        /* \"#utility.yul\":17343:17346   */\n      0x00\n        /* \"#utility.yul\":17364:17431   */\n      tag_313\n        /* \"#utility.yul\":17428:17430   */\n      0x3b\n        /* \"#utility.yul\":17423:17426   */\n      dup4\n        /* \"#utility.yul\":17364:17431   */\n      tag_148\n      jump\t// in\n    tag_313:\n        /* \"#utility.yul\":17357:17431   */\n      swap2\n      pop\n        /* \"#utility.yul\":17440:17533   */\n      tag_314\n        /* \"#utility.yul\":17529:17532   */\n      dup3\n        /* \"#utility.yul\":17440:17533   */\n      tag_170\n      jump\t// in\n    tag_314:\n        /* \"#utility.yul\":17558:17560   */\n      0x40\n        /* \"#utility.yul\":17553:17556   */\n      dup3\n        /* \"#utility.yul\":17549:17561   */\n      add\n        /* \"#utility.yul\":17542:17561   */\n      swap1\n      pop\n        /* \"#utility.yul\":17201:17567   */\n      swap2\n      swap1\n      pop\n      jump\t// out\n        /* \"#utility.yul\":17573:17992   */\n    tag_106:\n        /* \"#utility.yul\":17739:17743   */\n      0x00\n        /* \"#utility.yul\":17777:17779   */\n      0x20\n        /* \"#utility.yul\":17766:17775   */\n      dup3\n        /* \"#utility.yul\":17762:17780   */\n      add\n        /* \"#utility.yul\":17754:17780   */\n      swap1\n      pop\n        /* \"#utility.yul\":17826:17835   */\n      dup2\n        /* \"#utility.yul\":17820:17824   */\n      dup2\n        /* \"#utility.yul\":17816:17836   */\n      sub\n        /* \"#utility.yul\":17812:17813   */\n      0x00\n        /* \"#utility.yul\":17801:17810   */\n      dup4\n        /* \"#utility.yul\":17797:17814   */\n      add\n        /* \"#utility.yul\":17790:17837   */\n      mstore\n        /* \"#utility.yul\":17854:17985   */\n      tag_316\n        /* \"#utility.yul\":17980:17984   */\n      dup2\n        /* \"#utility.yul\":17854:17985   */\n      tag_171\n      jump\t// in\n    tag_316:\n        /* \"#utility.yul\":17846:17985   */\n      swap1\n      pop\n        /* \"#utility.yul\":17573:17992   */\n      swap2\n      swap1\n      pop\n      jump\t// out\n        /* \"#utility.yul\":17998:18169   */\n    tag_172:\n        /* \"#utility.yul\":18138:18161   */\n      0x5468652061756374696f6e20697320636c6f7365640000000000000000000000\n        /* \"#utility.yul\":18134:18135   */\n      0x00\n        /* \"#utility.yul\":18126:18132   */\n      dup3\n        /* \"#utility.yul\":18122:18136   */\n      add\n        /* \"#utility.yul\":18115:18162   */\n      mstore\n        /* \"#utility.yul\":17998:18169   */\n      pop\n      jump\t// out\n        /* \"#utility.yul\":18175:18541   */\n    tag_173:\n        /* \"#utility.yul\":18317:18320   */\n      0x00\n        /* \"#utility.yul\":18338:18405   */\n      tag_319\n        /* \"#utility.yul\":18402:18404   */\n      0x15\n        /* \"#utility.yul\":18397:18400   */\n      dup4\n        /* \"#utility.yul\":18338:18405   */\n      tag_148\n      jump\t// in\n    tag_319:\n        /* \"#utility.yul\":18331:18405   */\n      swap2\n      pop\n        /* \"#utility.yul\":18414:18507   */\n      tag_320\n        /* \"#utility.yul\":18503:18506   */\n      dup3\n        /* \"#utility.yul\":18414:18507   */\n      tag_172\n      jump\t// in\n    tag_320:\n        /* \"#utility.yul\":18532:18534   */\n      0x20\n        /* \"#utility.yul\":18527:18530   */\n      dup3\n        /* \"#utility.yul\":18523:18535   */\n      add\n        /* \"#utility.yul\":18516:18535   */\n      swap1\n      pop\n        /* \"#utility.yul\":18175:18541   */\n      swap2\n      swap1\n      pop\n      jump\t// out\n        /* \"#utility.yul\":18547:18966   */\n    tag_109:\n        /* \"#utility.yul\":18713:18717   */\n      0x00\n        /* \"#utility.yul\":18751:18753   */\n      0x20\n        /* \"#utility.yul\":18740:18749   */\n      dup3\n        /* \"#utility.yul\":18736:18754   */\n      add\n        /* \"#utility.yul\":18728:18754   */\n      swap1\n      pop\n        /* \"#utility.yul\":18800:18809   */\n      dup2\n        /* \"#utility.yul\":18794:18798   */\n      dup2\n        /* \"#utility.yul\":18790:18810   */\n      sub\n        /* \"#utility.yul\":18786:18787   */\n      0x00\n        /* \"#utility.yul\":18775:18784   */\n      dup4\n        /* \"#utility.yul\":18771:18788   */\n      add\n        /* \"#utility.yul\":18764:18811   */\n      mstore\n        /* \"#utility.yul\":18828:18959   */\n      tag_322\n        /* \"#utility.yul\":18954:18958   */\n      dup2\n        /* \"#utility.yul\":18828:18959   */\n      tag_173\n      jump\t// in\n    tag_322:\n        /* \"#utility.yul\":18820:18959   */\n      swap1\n      pop\n        /* \"#utility.yul\":18547:18966   */\n      swap2\n      swap1\n      pop\n      jump\t// out\n        /* \"#utility.yul\":18972:19216   */\n    tag_174:\n        /* \"#utility.yul\":19112:19146   */\n      0x54686520616d6f756e74206f66666572656420666f7220746869732061756374\n        /* \"#utility.yul\":19108:19109   */\n      0x00\n        /* \"#utility.yul\":19100:19106   */\n      dup3\n        /* \"#utility.yul\":19096:19110   */\n      add\n        /* \"#utility.yul\":19089:19147   */\n      mstore\n        /* \"#utility.yul\":19181:19208   */\n      0x696f6e206d75737420626520686967686572207468616e203000000000000000\n        /* \"#utility.yul\":19176:19178   */\n      0x20\n        /* \"#utility.yul\":19168:19174   */\n      dup3\n        /* \"#utility.yul\":19164:19179   */\n      add\n        /* \"#utility.yul\":19157:19209   */\n      mstore\n        /* \"#utility.yul\":18972:19216   */\n      pop\n      jump\t// out\n        /* \"#utility.yul\":19222:19588   */\n    tag_175:\n        /* \"#utility.yul\":19364:19367   */\n      0x00\n        /* \"#utility.yul\":19385:19452   */\n      tag_325\n        /* \"#utility.yul\":19449:19451   */\n      0x39\n        /* \"#utility.yul\":19444:19447   */\n      dup4\n        /* \"#utility.yul\":19385:19452   */\n      tag_148\n      jump\t// in\n    tag_325:\n        /* \"#utility.yul\":19378:19452   */\n      swap2\n      pop\n        /* \"#utility.yul\":19461:19554   */\n      tag_326\n        /* \"#utility.yul\":19550:19553   */\n      dup3\n        /* \"#utility.yul\":19461:19554   */\n      tag_174\n      jump\t// in\n    tag_326:\n        /* \"#utility.yul\":19579:19581   */\n      0x40\n        /* \"#utility.yul\":19574:19577   */\n      dup3\n        /* \"#utility.yul\":19570:19582   */\n      add\n        /* \"#utility.yul\":19563:19582   */\n      swap1\n      pop\n        /* \"#utility.yul\":19222:19588   */\n      swap2\n      swap1\n      pop\n      jump\t// out\n        /* \"#utility.yul\":19594:20013   */\n    tag_116:\n        /* \"#utility.yul\":19760:19764   */\n      0x00\n        /* \"#utility.yul\":19798:19800   */\n      0x20\n        /* \"#utility.yul\":19787:19796   */\n      dup3\n        /* \"#utility.yul\":19783:19801   */\n      add\n        /* \"#utility.yul\":19775:19801   */\n      swap1\n      pop\n        /* \"#utility.yul\":19847:19856   */\n      dup2\n        /* \"#utility.yul\":19841:19845   */\n      dup2\n        /* \"#utility.yul\":19837:19857   */\n      sub\n        /* \"#utility.yul\":19833:19834   */\n      0x00\n        /* \"#utility.yul\":19822:19831   */\n      dup4\n        /* \"#utility.yul\":19818:19835   */\n      add\n        /* \"#utility.yul\":19811:19858   */\n      mstore\n        /* \"#utility.yul\":19875:20006   */\n      tag_328\n        /* \"#utility.yul\":20001:20005   */\n      dup2\n        /* \"#utility.yul\":19875:20006   */\n      tag_175\n      jump\t// in\n    tag_328:\n        /* \"#utility.yul\":19867:20006   */\n      swap1\n      pop\n        /* \"#utility.yul\":19594:20013   */\n      swap2\n      swap1\n      pop\n      jump\t// out\n        /* \"#utility.yul\":20019:20316   */\n    tag_176:\n        /* \"#utility.yul\":20159:20193   */\n      0x54686520616d6f756e74206f66666572656420666f7220746869732061756374\n        /* \"#utility.yul\":20155:20156   */\n      0x00\n        /* \"#utility.yul\":20147:20153   */\n      dup3\n        /* \"#utility.yul\":20143:20157   */\n      add\n        /* \"#utility.yul\":20136:20194   */\n      mstore\n        /* \"#utility.yul\":20228:20262   */\n      0x696f6e206d75737420626520352520686967686572207468616e207468652062\n        /* \"#utility.yul\":20223:20225   */\n      0x20\n        /* \"#utility.yul\":20215:20221   */\n      dup3\n        /* \"#utility.yul\":20211:20226   */\n      add\n        /* \"#utility.yul\":20204:20263   */\n      mstore\n        /* \"#utility.yul\":20297:20308   */\n      0x657374206f666665720000000000000000000000000000000000000000000000\n        /* \"#utility.yul\":20292:20294   */\n      0x40\n        /* \"#utility.yul\":20284:20290   */\n      dup3\n        /* \"#utility.yul\":20280:20295   */\n      add\n        /* \"#utility.yul\":20273:20309   */\n      mstore\n        /* \"#utility.yul\":20019:20316   */\n      pop\n      jump\t// out\n        /* \"#utility.yul\":20322:20688   */\n    tag_177:\n        /* \"#utility.yul\":20464:20467   */\n      0x00\n        /* \"#utility.yul\":20485:20552   */\n      tag_331\n        /* \"#utility.yul\":20549:20551   */\n      0x49\n        /* \"#utility.yul\":20544:20547   */\n      dup4\n        /* \"#utility.yul\":20485:20552   */\n      tag_148\n      jump\t// in\n    tag_331:\n        /* \"#utility.yul\":20478:20552   */\n      swap2\n      pop\n        /* \"#utility.yul\":20561:20654   */\n      tag_332\n        /* \"#utility.yul\":20650:20653   */\n      dup3\n        /* \"#utility.yul\":20561:20654   */\n      tag_176\n      jump\t// in\n    tag_332:\n        /* \"#utility.yul\":20679:20681   */\n      0x60\n        /* \"#utility.yul\":20674:20677   */\n      dup3\n        /* \"#utility.yul\":20670:20682   */\n      add\n        /* \"#utility.yul\":20663:20682   */\n      swap1\n      pop\n        /* \"#utility.yul\":20322:20688   */\n      swap2\n      swap1\n      pop\n      jump\t// out\n        /* \"#utility.yul\":20694:21113   */\n    tag_120:\n        /* \"#utility.yul\":20860:20864   */\n      0x00\n        /* \"#utility.yul\":20898:20900   */\n      0x20\n        /* \"#utility.yul\":20887:20896   */\n      dup3\n        /* \"#utility.yul\":20883:20901   */\n      add\n        /* \"#utility.yul\":20875:20901   */\n      swap1\n      pop\n        /* \"#utility.yul\":20947:20956   */\n      dup2\n        /* \"#utility.yul\":20941:20945   */\n      dup2\n        /* \"#utility.yul\":20937:20957   */\n      sub\n        /* \"#utility.yul\":20933:20934   */\n      0x00\n        /* \"#utility.yul\":20922:20931   */\n      dup4\n        /* \"#utility.yul\":20918:20935   */\n      add\n        /* \"#utility.yul\":20911:20958   */\n      mstore\n        /* \"#utility.yul\":20975:21106   */\n      tag_334\n        /* \"#utility.yul\":21101:21105   */\n      dup2\n        /* \"#utility.yul\":20975:21106   */\n      tag_177\n      jump\t// in\n    tag_334:\n        /* \"#utility.yul\":20967:21106   */\n      swap1\n      pop\n        /* \"#utility.yul\":20694:21113   */\n      swap2\n      swap1\n      pop\n      jump\t// out\n\n    auxdata: 0xa26469706673582212200bdf85545a454f06365826f93a0080e77c73dab9d26b9765944186ea498b3a9464736f6c634300081e0033\n}\n",
				"bytecode": {
					"linkReferences": {},
					"object": "608060405234801561000f575f5ffd5b506040516116fc3803806116fc8339818101604052810190610031919061017b565b5f60055f6101000a81548160ff021916908315150217905550335f5f6101000a81548173ffffffffffffffffffffffffffffffffffffffff021916908373ffffffffffffffffffffffffffffffffffffffff160217905550806001819055503360025f6101000a81548173ffffffffffffffffffffffffffffffffffffffff021916908373ffffffffffffffffffffffffffffffffffffffff16021790555042600381905550816003546100e591906101e6565b600481905550600560068190555060026007819055508060085f3373ffffffffffffffffffffffffffffffffffffffff1673ffffffffffffffffffffffffffffffffffffffff1681526020019081526020015f20819055505050610219565b5f5ffd5b5f819050919050565b61015a81610148565b8114610164575f5ffd5b50565b5f8151905061017581610151565b92915050565b5f5f6040838503121561019157610190610144565b5b5f61019e85828601610167565b92505060206101af85828601610167565b9150509250929050565b7f4e487b71000000000000000000000000000000000000000000000000000000005f52601160045260245ffd5b5f6101f082610148565b91506101fb83610148565b9250828201905080821115610213576102126101b9565b5b92915050565b6114d6806102265f395ff3fe608060405260043610610085575f3560e01c806341d71b601161005857806341d71b601461012f5780636a7798ee146101595780637b02c5181461016f578063a7cbe83a14610199578063d88a540d146101a357610085565b806302dcade914610089578063278ecde1146100b3578063328b8d15146100db5780633f9af85914610105575b5f5ffd5b348015610094575f5ffd5b5061009d6101cd565b6040516100aa9190610b32565b60405180910390f35b3480156100be575f5ffd5b506100d960048036038101906100d49190610b79565b6101d3565b005b3480156100e6575f5ffd5b506100ef6105b0565b6040516100fc9190610b32565b60405180910390f35b348015610110575f5ffd5b506101196105b6565b6040516101269190610b32565b60405180910390f35b34801561013a575f5ffd5b506101436105bc565b6040516101509190610c4c565b60405180910390f35b348015610164575f5ffd5b5061016d610632565b005b34801561017a575f5ffd5b5061018361076f565b6040516101909190610d3a565b60405180910390f35b6101a1610829565b005b3480156101ae575f5ffd5b506101b7610ade565b6040516101c49190610b32565b60405180910390f35b60035481565b5f60085f3373ffffffffffffffffffffffffffffffffffffffff1673ffffffffffffffffffffffffffffffffffffffff1681526020019081526020015f205411610252576040517f08c379a000000000000000000000000000000000000000000000000000000000815260040161024990610db4565b60405180910390fd5b60025f9054906101000a900473ffffffffffffffffffffffffffffffffffffffff1673ffffffffffffffffffffffffffffffffffffffff163373ffffffffffffffffffffffffffffffffffffffff16036102e1576040517f08c379a00000000000000000000000000000000000000000000000000000000081526004016102d890610e42565b60405180910390fd5b5f810361032d5760085f3373ffffffffffffffffffffffffffffffffffffffff1673ffffffffffffffffffffffffffffffffffffffff1681526020019081526020015f205490506103ae565b60085f3373ffffffffffffffffffffffffffffffffffffffff1673ffffffffffffffffffffffffffffffffffffffff1681526020019081526020015f20548111156103ad576040517f08c379a00000000000000000000000000000000000000000000000000000000081526004016103a490610eaa565b60405180910390fd5b5b5f60646063600754846103c19190610ef5565b6103cb9190610f36565b6103d59190610f96565b90505f81836103e49190610fc6565b90508260085f3373ffffffffffffffffffffffffffffffffffffffff1673ffffffffffffffffffffffffffffffffffffffff1681526020019081526020015f205f8282546104329190610fc6565b925050819055505f3373ffffffffffffffffffffffffffffffffffffffff168260405161045e90611026565b5f6040518083038185875af1925050503d805f8114610498576040519150601f19603f3d011682016040523d82523d5f602084013e61049d565b606091505b50509050806104e1576040517f08c379a00000000000000000000000000000000000000000000000000000000081526004016104d890611084565b60405180910390fd5b5f5f5f9054906101000a900473ffffffffffffffffffffffffffffffffffffffff1673ffffffffffffffffffffffffffffffffffffffff168460405161052690611026565b5f6040518083038185875af1925050503d805f8114610560576040519150601f19603f3d011682016040523d82523d5f602084013e610565565b606091505b50509050806105a9576040517f08c379a00000000000000000000000000000000000000000000000000000000081526004016105a0906110ec565b60405180910390fd5b5050505050565b60075481565b60065481565b6105c4610ae4565b5f604051806060016040528060025f9054906101000a900473ffffffffffffffffffffffffffffffffffffffff1673ffffffffffffffffffffffffffffffffffffffff168152602001600154815260200160055f9054906101000a900460ff16151581525090508091505090565b5f5f9054906101000a900473ffffffffffffffffffffffffffffffffffffffff1673ffffffffffffffffffffffffffffffffffffffff163373ffffffffffffffffffffffffffffffffffffffff16146106c0576040517f08c379a00000000000000000000000000000000000000000000000000000000081526004016106b790611154565b60405180910390fd5b6004544211610704576040517f08c379a00000000000000000000000000000000000000000000000000000000081526004016106fb906111e2565b60405180910390fd5b60055f9054906101000a900460ff1615610753576040517f08c379a000000000000000000000000000000000000000000000000000000000815260040161074a9061124a565b60405180910390fd5b600160055f6101000a81548160ff021916908315150217905550565b60606009805480602002602001604051908101604052809291908181526020015f905b82821015610820578382905f5260205f2090600202016040518060400160405290815f82015f9054906101000a900473ffffffffffffffffffffffffffffffffffffffff1673ffffffffffffffffffffffffffffffffffffffff1673ffffffffffffffffffffffffffffffffffffffff16815260200160018201548152505081526020019060010190610792565b50505050905090565b426004541161086d576040517f08c379a0000000000000000000000000000000000000000000000000000000008152600401610864906112d8565b60405180910390fd5b60055f9054906101000a900460ff16156108bc576040517f08c379a00000000000000000000000000000000000000000000000000000000081526004016108b390611340565b60405180910390fd5b5f606460065460646108ce9190610f36565b6001546108db9190610ef5565b6108e59190610f96565b90505f3490505f811161092d576040517f08c379a0000000000000000000000000000000000000000000000000000000008152600401610924906113ce565b60405180910390fd5b5f6001541461097957818111610978576040517f08c379a000000000000000000000000000000000000000000000000000000000815260040161096f90611482565b60405180910390fd5b5b600a6004546109889190610fc6565b4210156109a957600a60045f8282546109a19190610f36565b925050819055505b3360025f6101000a81548173ffffffffffffffffffffffffffffffffffffffff021916908373ffffffffffffffffffffffffffffffffffffffff160217905550346001819055503460085f3373ffffffffffffffffffffffffffffffffffffffff1673ffffffffffffffffffffffffffffffffffffffff1681526020019081526020015f20819055505f60405180604001604052803373ffffffffffffffffffffffffffffffffffffffff168152602001348152509050600981908060018154018082558091505060019003905f5260205f2090600202015f909190919091505f820151815f015f6101000a81548173ffffffffffffffffffffffffffffffffffffffff021916908373ffffffffffffffffffffffffffffffffffffffff160217905550602082015181600101555050505050565b60045481565b60405180606001604052805f73ffffffffffffffffffffffffffffffffffffffff1681526020015f81526020015f151581525090565b5f819050919050565b610b2c81610b1a565b82525050565b5f602082019050610b455f830184610b23565b92915050565b5f5ffd5b610b5881610b1a565b8114610b62575f5ffd5b50565b5f81359050610b7381610b4f565b92915050565b5f60208284031215610b8e57610b8d610b4b565b5b5f610b9b84828501610b65565b91505092915050565b5f73ffffffffffffffffffffffffffffffffffffffff82169050919050565b5f610bcd82610ba4565b9050919050565b610bdd81610bc3565b82525050565b610bec81610b1a565b82525050565b5f8115159050919050565b610c0681610bf2565b82525050565b606082015f820151610c205f850182610bd4565b506020820151610c336020850182610be3565b506040820151610c466040850182610bfd565b50505050565b5f606082019050610c5f5f830184610c0c565b92915050565b5f81519050919050565b5f82825260208201905092915050565b5f819050602082019050919050565b604082015f820151610ca25f850182610bd4565b506020820151610cb56020850182610be3565b50505050565b5f610cc68383610c8e565b60408301905092915050565b5f602082019050919050565b5f610ce882610c65565b610cf28185610c6f565b9350610cfd83610c7f565b805f5b83811015610d2d578151610d148882610cbb565b9750610d1f83610cd2565b925050600181019050610d00565b5085935050505092915050565b5f6020820190508181035f830152610d528184610cde565b905092915050565b5f82825260208201905092915050565b7f496e73756666696369656e742062616c616e63652e00000000000000000000005f82015250565b5f610d9e601583610d5a565b9150610da982610d6a565b602082019050919050565b5f6020820190508181035f830152610dcb81610d92565b9050919050565b7f596f752063616e2774207769746864726177207468652077696e6e696e6720625f8201527f6964000000000000000000000000000000000000000000000000000000000000602082015250565b5f610e2c602283610d5a565b9150610e3782610dd2565b604082019050919050565b5f6020820190508181035f830152610e5981610e20565b9050919050565b7f496e73756666696369656e742062616c616e63650000000000000000000000005f82015250565b5f610e94601483610d5a565b9150610e9f82610e60565b602082019050919050565b5f6020820190508181035f830152610ec181610e88565b9050919050565b7f4e487b71000000000000000000000000000000000000000000000000000000005f52601160045260245ffd5b5f610eff82610b1a565b9150610f0a83610b1a565b9250828202610f1881610b1a565b91508282048414831517610f2f57610f2e610ec8565b5b5092915050565b5f610f4082610b1a565b9150610f4b83610b1a565b9250828201905080821115610f6357610f62610ec8565b5b92915050565b7f4e487b71000000000000000000000000000000000000000000000000000000005f52601260045260245ffd5b5f610fa082610b1a565b9150610fab83610b1a565b925082610fbb57610fba610f69565b5b828204905092915050565b5f610fd082610b1a565b9150610fdb83610b1a565b9250828203905081811115610ff357610ff2610ec8565b5b92915050565b5f81905092915050565b50565b5f6110115f83610ff9565b915061101c82611003565b5f82019050919050565b5f61103082611006565b9150819050919050565b7f4661696c656420746f20726566756e64000000000000000000000000000000005f82015250565b5f61106e601083610d5a565b91506110798261103a565b602082019050919050565b5f6020820190508181035f83015261109b81611062565b9050919050565b7f4661696c656420746f2073656e6420636f6d6d697373696f6e000000000000005f82015250565b5f6110d6601983610d5a565b91506110e1826110a2565b602082019050919050565b5f6020820190508181035f830152611103816110ca565b9050919050565b7f4f6e6c79206f776e65722063616e20646f207468697320616374696f6e2e00005f82015250565b5f61113e601e83610d5a565b91506111498261110a565b602082019050919050565b5f6020820190508181035f83015261116b81611132565b9050919050565b7f596f752063616e277420656e64207468652061756374696f6e206265666f72655f8201527f2074686520737461626c697368656420656e6420646174652e00000000000000602082015250565b5f6111cc603983610d5a565b91506111d782611172565b604082019050919050565b5f6020820190508181035f8301526111f9816111c0565b9050919050565b7f5468652061756374696f6e20697320616c726561647920636c6f7365642e00005f82015250565b5f611234601e83610d5a565b915061123f82611200565b602082019050919050565b5f6020820190508181035f83015261126181611228565b9050919050565b7f596f752063616e2774206f66666572206166746572207468652065737461626c5f8201527f697368656420706572696f64206f66207468652061756374696f6e0000000000602082015250565b5f6112c2603b83610d5a565b91506112cd82611268565b604082019050919050565b5f6020820190508181035f8301526112ef816112b6565b9050919050565b7f5468652061756374696f6e20697320636c6f73656400000000000000000000005f82015250565b5f61132a601583610d5a565b9150611335826112f6565b602082019050919050565b5f6020820190508181035f8301526113578161131e565b9050919050565b7f54686520616d6f756e74206f66666572656420666f72207468697320617563745f8201527f696f6e206d75737420626520686967686572207468616e203000000000000000602082015250565b5f6113b8603983610d5a565b91506113c38261135e565b604082019050919050565b5f6020820190508181035f8301526113e5816113ac565b9050919050565b7f54686520616d6f756e74206f66666572656420666f72207468697320617563745f8201527f696f6e206d75737420626520352520686967686572207468616e20746865206260208201527f657374206f666665720000000000000000000000000000000000000000000000604082015250565b5f61146c604983610d5a565b9150611477826113ec565b606082019050919050565b5f6020820190508181035f83015261149981611460565b905091905056fea26469706673582212200bdf85545a454f06365826f93a0080e77c73dab9d26b9765944186ea498b3a9464736f6c634300081e0033",
					"opcodes": "PUSH1 0x80 PUSH1 0x40 MSTORE CALLVALUE DUP1 ISZERO PUSH2 0xF JUMPI PUSH0 PUSH0 REVERT JUMPDEST POP PUSH1 0x40 MLOAD PUSH2 0x16FC CODESIZE SUB DUP1 PUSH2 0x16FC DUP4 CODECOPY DUP2 DUP2 ADD PUSH1 0x40 MSTORE DUP2 ADD SWAP1 PUSH2 0x31 SWAP2 SWAP1 PUSH2 0x17B JUMP JUMPDEST PUSH0 PUSH1 0x5 PUSH0 PUSH2 0x100 EXP DUP2 SLOAD DUP2 PUSH1 0xFF MUL NOT AND SWAP1 DUP4 ISZERO ISZERO MUL OR SWAP1 SSTORE POP CALLER PUSH0 PUSH0 PUSH2 0x100 EXP DUP2 SLOAD DUP2 PUSH20 0xFFFFFFFFFFFFFFFFFFFFFFFFFFFFFFFFFFFFFFFF MUL NOT AND SWAP1 DUP4 PUSH20 0xFFFFFFFFFFFFFFFFFFFFFFFFFFFFFFFFFFFFFFFF AND MUL OR SWAP1 SSTORE POP DUP1 PUSH1 0x1 DUP2 SWAP1 SSTORE POP CALLER PUSH1 0x2 PUSH0 PUSH2 0x100 EXP DUP2 SLOAD DUP2 PUSH20 0xFFFFFFFFFFFFFFFFFFFFFFFFFFFFFFFFFFFFFFFF MUL NOT AND SWAP1 DUP4 PUSH20 0xFFFFFFFFFFFFFFFFFFFFFFFFFFFFFFFFFFFFFFFF AND MUL OR SWAP1 SSTORE POP TIMESTAMP PUSH1 0x3 DUP2 SWAP1 SSTORE POP DUP2 PUSH1 0x3 SLOAD PUSH2 0xE5 SWAP2 SWAP1 PUSH2 0x1E6 JUMP JUMPDEST PUSH1 0x4 DUP2 SWAP1 SSTORE POP PUSH1 0x5 PUSH1 0x6 DUP2 SWAP1 SSTORE POP PUSH1 0x2 PUSH1 0x7 DUP2 SWAP1 SSTORE POP DUP1 PUSH1 0x8 PUSH0 CALLER PUSH20 0xFFFFFFFFFFFFFFFFFFFFFFFFFFFFFFFFFFFFFFFF AND PUSH20 0xFFFFFFFFFFFFFFFFFFFFFFFFFFFFFFFFFFFFFFFF AND DUP2 MSTORE PUSH1 0x20 ADD SWAP1 DUP2 MSTORE PUSH1 0x20 ADD PUSH0 KECCAK256 DUP2 SWAP1 SSTORE POP POP POP PUSH2 0x219 JUMP JUMPDEST PUSH0 PUSH0 REVERT JUMPDEST PUSH0 DUP2 SWAP1 POP SWAP2 SWAP1 POP JUMP JUMPDEST PUSH2 0x15A DUP2 PUSH2 0x148 JUMP JUMPDEST DUP2 EQ PUSH2 0x164 JUMPI PUSH0 PUSH0 REVERT JUMPDEST POP JUMP JUMPDEST PUSH0 DUP2 MLOAD SWAP1 POP PUSH2 0x175 DUP2 PUSH2 0x151 JUMP JUMPDEST SWAP3 SWAP2 POP POP JUMP JUMPDEST PUSH0 PUSH0 PUSH1 0x40 DUP4 DUP6 SUB SLT ISZERO PUSH2 0x191 JUMPI PUSH2 0x190 PUSH2 0x144 JUMP JUMPDEST JUMPDEST PUSH0 PUSH2 0x19E DUP6 DUP3 DUP7 ADD PUSH2 0x167 JUMP JUMPDEST SWAP3 POP POP PUSH1 0x20 PUSH2 0x1AF DUP6 DUP3 DUP7 ADD PUSH2 0x167 JUMP JUMPDEST SWAP2 POP POP SWAP3 POP SWAP3 SWAP1 POP JUMP JUMPDEST PUSH32 0x4E487B7100000000000000000000000000000000000000000000000000000000 PUSH0 MSTORE PUSH1 0x11 PUSH1 0x4 MSTORE PUSH1 0x24 PUSH0 REVERT JUMPDEST PUSH0 PUSH2 0x1F0 DUP3 PUSH2 0x148 JUMP JUMPDEST SWAP2 POP PUSH2 0x1FB DUP4 PUSH2 0x148 JUMP JUMPDEST SWAP3 POP DUP3 DUP3 ADD SWAP1 POP DUP1 DUP3 GT ISZERO PUSH2 0x213 JUMPI PUSH2 0x212 PUSH2 0x1B9 JUMP JUMPDEST JUMPDEST SWAP3 SWAP2 POP POP JUMP JUMPDEST PUSH2 0x14D6 DUP1 PUSH2 0x226 PUSH0 CODECOPY PUSH0 RETURN INVALID PUSH1 0x80 PUSH1 0x40 MSTORE PUSH1 0x4 CALLDATASIZE LT PUSH2 0x85 JUMPI PUSH0 CALLDATALOAD PUSH1 0xE0 SHR DUP1 PUSH4 0x41D71B60 GT PUSH2 0x58 JUMPI DUP1 PUSH4 0x41D71B60 EQ PUSH2 0x12F JUMPI DUP1 PUSH4 0x6A7798EE EQ PUSH2 0x159 JUMPI DUP1 PUSH4 0x7B02C518 EQ PUSH2 0x16F JUMPI DUP1 PUSH4 0xA7CBE83A EQ PUSH2 0x199 JUMPI DUP1 PUSH4 0xD88A540D EQ PUSH2 0x1A3 JUMPI PUSH2 0x85 JUMP JUMPDEST DUP1 PUSH4 0x2DCADE9 EQ PUSH2 0x89 JUMPI DUP1 PUSH4 0x278ECDE1 EQ PUSH2 0xB3 JUMPI DUP1 PUSH4 0x328B8D15 EQ PUSH2 0xDB JUMPI DUP1 PUSH4 0x3F9AF859 EQ PUSH2 0x105 JUMPI JUMPDEST PUSH0 PUSH0 REVERT JUMPDEST CALLVALUE DUP1 ISZERO PUSH2 0x94 JUMPI PUSH0 PUSH0 REVERT JUMPDEST POP PUSH2 0x9D PUSH2 0x1CD JUMP JUMPDEST PUSH1 0x40 MLOAD PUSH2 0xAA SWAP2 SWAP1 PUSH2 0xB32 JUMP JUMPDEST PUSH1 0x40 MLOAD DUP1 SWAP2 SUB SWAP1 RETURN JUMPDEST CALLVALUE DUP1 ISZERO PUSH2 0xBE JUMPI PUSH0 PUSH0 REVERT JUMPDEST POP PUSH2 0xD9 PUSH1 0x4 DUP1 CALLDATASIZE SUB DUP2 ADD SWAP1 PUSH2 0xD4 SWAP2 SWAP1 PUSH2 0xB79 JUMP JUMPDEST PUSH2 0x1D3 JUMP JUMPDEST STOP JUMPDEST CALLVALUE DUP1 ISZERO PUSH2 0xE6 JUMPI PUSH0 PUSH0 REVERT JUMPDEST POP PUSH2 0xEF PUSH2 0x5B0 JUMP JUMPDEST PUSH1 0x40 MLOAD PUSH2 0xFC SWAP2 SWAP1 PUSH2 0xB32 JUMP JUMPDEST PUSH1 0x40 MLOAD DUP1 SWAP2 SUB SWAP1 RETURN JUMPDEST CALLVALUE DUP1 ISZERO PUSH2 0x110 JUMPI PUSH0 PUSH0 REVERT JUMPDEST POP PUSH2 0x119 PUSH2 0x5B6 JUMP JUMPDEST PUSH1 0x40 MLOAD PUSH2 0x126 SWAP2 SWAP1 PUSH2 0xB32 JUMP JUMPDEST PUSH1 0x40 MLOAD DUP1 SWAP2 SUB SWAP1 RETURN JUMPDEST CALLVALUE DUP1 ISZERO PUSH2 0x13A JUMPI PUSH0 PUSH0 REVERT JUMPDEST POP PUSH2 0x143 PUSH2 0x5BC JUMP JUMPDEST PUSH1 0x40 MLOAD PUSH2 0x150 SWAP2 SWAP1 PUSH2 0xC4C JUMP JUMPDEST PUSH1 0x40 MLOAD DUP1 SWAP2 SUB SWAP1 RETURN JUMPDEST CALLVALUE DUP1 ISZERO PUSH2 0x164 JUMPI PUSH0 PUSH0 REVERT JUMPDEST POP PUSH2 0x16D PUSH2 0x632 JUMP JUMPDEST STOP JUMPDEST CALLVALUE DUP1 ISZERO PUSH2 0x17A JUMPI PUSH0 PUSH0 REVERT JUMPDEST POP PUSH2 0x183 PUSH2 0x76F JUMP JUMPDEST PUSH1 0x40 MLOAD PUSH2 0x190 SWAP2 SWAP1 PUSH2 0xD3A JUMP JUMPDEST PUSH1 0x40 MLOAD DUP1 SWAP2 SUB SWAP1 RETURN JUMPDEST PUSH2 0x1A1 PUSH2 0x829 JUMP JUMPDEST STOP JUMPDEST CALLVALUE DUP1 ISZERO PUSH2 0x1AE JUMPI PUSH0 PUSH0 REVERT JUMPDEST POP PUSH2 0x1B7 PUSH2 0xADE JUMP JUMPDEST PUSH1 0x40 MLOAD PUSH2 0x1C4 SWAP2 SWAP1 PUSH2 0xB32 JUMP JUMPDEST PUSH1 0x40 MLOAD DUP1 SWAP2 SUB SWAP1 RETURN JUMPDEST PUSH1 0x3 SLOAD DUP2 JUMP JUMPDEST PUSH0 PUSH1 0x8 PUSH0 CALLER PUSH20 0xFFFFFFFFFFFFFFFFFFFFFFFFFFFFFFFFFFFFFFFF AND PUSH20 0xFFFFFFFFFFFFFFFFFFFFFFFFFFFFFFFFFFFFFFFF AND DUP2 MSTORE PUSH1 0x20 ADD SWAP1 DUP2 MSTORE PUSH1 0x20 ADD PUSH0 KECCAK256 SLOAD GT PUSH2 0x252 JUMPI PUSH1 0x40 MLOAD PUSH32 0x8C379A000000000000000000000000000000000000000000000000000000000 DUP2 MSTORE PUSH1 0x4 ADD PUSH2 0x249 SWAP1 PUSH2 0xDB4 JUMP JUMPDEST PUSH1 0x40 MLOAD DUP1 SWAP2 SUB SWAP1 REVERT JUMPDEST PUSH1 0x2 PUSH0 SWAP1 SLOAD SWAP1 PUSH2 0x100 EXP SWAP1 DIV PUSH20 0xFFFFFFFFFFFFFFFFFFFFFFFFFFFFFFFFFFFFFFFF AND PUSH20 0xFFFFFFFFFFFFFFFFFFFFFFFFFFFFFFFFFFFFFFFF AND CALLER PUSH20 0xFFFFFFFFFFFFFFFFFFFFFFFFFFFFFFFFFFFFFFFF AND SUB PUSH2 0x2E1 JUMPI PUSH1 0x40 MLOAD PUSH32 0x8C379A000000000000000000000000000000000000000000000000000000000 DUP2 MSTORE PUSH1 0x4 ADD PUSH2 0x2D8 SWAP1 PUSH2 0xE42 JUMP JUMPDEST PUSH1 0x40 MLOAD DUP1 SWAP2 SUB SWAP1 REVERT JUMPDEST PUSH0 DUP2 SUB PUSH2 0x32D JUMPI PUSH1 0x8 PUSH0 CALLER PUSH20 0xFFFFFFFFFFFFFFFFFFFFFFFFFFFFFFFFFFFFFFFF AND PUSH20 0xFFFFFFFFFFFFFFFFFFFFFFFFFFFFFFFFFFFFFFFF AND DUP2 MSTORE PUSH1 0x20 ADD SWAP1 DUP2 MSTORE PUSH1 0x20 ADD PUSH0 KECCAK256 SLOAD SWAP1 POP PUSH2 0x3AE JUMP JUMPDEST PUSH1 0x8 PUSH0 CALLER PUSH20 0xFFFFFFFFFFFFFFFFFFFFFFFFFFFFFFFFFFFFFFFF AND PUSH20 0xFFFFFFFFFFFFFFFFFFFFFFFFFFFFFFFFFFFFFFFF AND DUP2 MSTORE PUSH1 0x20 ADD SWAP1 DUP2 MSTORE PUSH1 0x20 ADD PUSH0 KECCAK256 SLOAD DUP2 GT ISZERO PUSH2 0x3AD JUMPI PUSH1 0x40 MLOAD PUSH32 0x8C379A000000000000000000000000000000000000000000000000000000000 DUP2 MSTORE PUSH1 0x4 ADD PUSH2 0x3A4 SWAP1 PUSH2 0xEAA JUMP JUMPDEST PUSH1 0x40 MLOAD DUP1 SWAP2 SUB SWAP1 REVERT JUMPDEST JUMPDEST PUSH0 PUSH1 0x64 PUSH1 0x63 PUSH1 0x7 SLOAD DUP5 PUSH2 0x3C1 SWAP2 SWAP1 PUSH2 0xEF5 JUMP JUMPDEST PUSH2 0x3CB SWAP2 SWAP1 PUSH2 0xF36 JUMP JUMPDEST PUSH2 0x3D5 SWAP2 SWAP1 PUSH2 0xF96 JUMP JUMPDEST SWAP1 POP PUSH0 DUP2 DUP4 PUSH2 0x3E4 SWAP2 SWAP1 PUSH2 0xFC6 JUMP JUMPDEST SWAP1 POP DUP3 PUSH1 0x8 PUSH0 CALLER PUSH20 0xFFFFFFFFFFFFFFFFFFFFFFFFFFFFFFFFFFFFFFFF AND PUSH20 0xFFFFFFFFFFFFFFFFFFFFFFFFFFFFFFFFFFFFFFFF AND DUP2 MSTORE PUSH1 0x20 ADD SWAP1 DUP2 MSTORE PUSH1 0x20 ADD PUSH0 KECCAK256 PUSH0 DUP3 DUP3 SLOAD PUSH2 0x432 SWAP2 SWAP1 PUSH2 0xFC6 JUMP JUMPDEST SWAP3 POP POP DUP2 SWAP1 SSTORE POP PUSH0 CALLER PUSH20 0xFFFFFFFFFFFFFFFFFFFFFFFFFFFFFFFFFFFFFFFF AND DUP3 PUSH1 0x40 MLOAD PUSH2 0x45E SWAP1 PUSH2 0x1026 JUMP JUMPDEST PUSH0 PUSH1 0x40 MLOAD DUP1 DUP4 SUB DUP2 DUP6 DUP8 GAS CALL SWAP3 POP POP POP RETURNDATASIZE DUP1 PUSH0 DUP2 EQ PUSH2 0x498 JUMPI PUSH1 0x40 MLOAD SWAP2 POP PUSH1 0x1F NOT PUSH1 0x3F RETURNDATASIZE ADD AND DUP3 ADD PUSH1 0x40 MSTORE RETURNDATASIZE DUP3 MSTORE RETURNDATASIZE PUSH0 PUSH1 0x20 DUP5 ADD RETURNDATACOPY PUSH2 0x49D JUMP JUMPDEST PUSH1 0x60 SWAP2 POP JUMPDEST POP POP SWAP1 POP DUP1 PUSH2 0x4E1 JUMPI PUSH1 0x40 MLOAD PUSH32 0x8C379A000000000000000000000000000000000000000000000000000000000 DUP2 MSTORE PUSH1 0x4 ADD PUSH2 0x4D8 SWAP1 PUSH2 0x1084 JUMP JUMPDEST PUSH1 0x40 MLOAD DUP1 SWAP2 SUB SWAP1 REVERT JUMPDEST PUSH0 PUSH0 PUSH0 SWAP1 SLOAD SWAP1 PUSH2 0x100 EXP SWAP1 DIV PUSH20 0xFFFFFFFFFFFFFFFFFFFFFFFFFFFFFFFFFFFFFFFF AND PUSH20 0xFFFFFFFFFFFFFFFFFFFFFFFFFFFFFFFFFFFFFFFF AND DUP5 PUSH1 0x40 MLOAD PUSH2 0x526 SWAP1 PUSH2 0x1026 JUMP JUMPDEST PUSH0 PUSH1 0x40 MLOAD DUP1 DUP4 SUB DUP2 DUP6 DUP8 GAS CALL SWAP3 POP POP POP RETURNDATASIZE DUP1 PUSH0 DUP2 EQ PUSH2 0x560 JUMPI PUSH1 0x40 MLOAD SWAP2 POP PUSH1 0x1F NOT PUSH1 0x3F RETURNDATASIZE ADD AND DUP3 ADD PUSH1 0x40 MSTORE RETURNDATASIZE DUP3 MSTORE RETURNDATASIZE PUSH0 PUSH1 0x20 DUP5 ADD RETURNDATACOPY PUSH2 0x565 JUMP JUMPDEST PUSH1 0x60 SWAP2 POP JUMPDEST POP POP SWAP1 POP DUP1 PUSH2 0x5A9 JUMPI PUSH1 0x40 MLOAD PUSH32 0x8C379A000000000000000000000000000000000000000000000000000000000 DUP2 MSTORE PUSH1 0x4 ADD PUSH2 0x5A0 SWAP1 PUSH2 0x10EC JUMP JUMPDEST PUSH1 0x40 MLOAD DUP1 SWAP2 SUB SWAP1 REVERT JUMPDEST POP POP POP POP POP JUMP JUMPDEST PUSH1 0x7 SLOAD DUP2 JUMP JUMPDEST PUSH1 0x6 SLOAD DUP2 JUMP JUMPDEST PUSH2 0x5C4 PUSH2 0xAE4 JUMP JUMPDEST PUSH0 PUSH1 0x40 MLOAD DUP1 PUSH1 0x60 ADD PUSH1 0x40 MSTORE DUP1 PUSH1 0x2 PUSH0 SWAP1 SLOAD SWAP1 PUSH2 0x100 EXP SWAP1 DIV PUSH20 0xFFFFFFFFFFFFFFFFFFFFFFFFFFFFFFFFFFFFFFFF AND PUSH20 0xFFFFFFFFFFFFFFFFFFFFFFFFFFFFFFFFFFFFFFFF AND DUP2 MSTORE PUSH1 0x20 ADD PUSH1 0x1 SLOAD DUP2 MSTORE PUSH1 0x20 ADD PUSH1 0x5 PUSH0 SWAP1 SLOAD SWAP1 PUSH2 0x100 EXP SWAP1 DIV PUSH1 0xFF AND ISZERO ISZERO DUP2 MSTORE POP SWAP1 POP DUP1 SWAP2 POP POP SWAP1 JUMP JUMPDEST PUSH0 PUSH0 SWAP1 SLOAD SWAP1 PUSH2 0x100 EXP SWAP1 DIV PUSH20 0xFFFFFFFFFFFFFFFFFFFFFFFFFFFFFFFFFFFFFFFF AND PUSH20 0xFFFFFFFFFFFFFFFFFFFFFFFFFFFFFFFFFFFFFFFF AND CALLER PUSH20 0xFFFFFFFFFFFFFFFFFFFFFFFFFFFFFFFFFFFFFFFF AND EQ PUSH2 0x6C0 JUMPI PUSH1 0x40 MLOAD PUSH32 0x8C379A000000000000000000000000000000000000000000000000000000000 DUP2 MSTORE PUSH1 0x4 ADD PUSH2 0x6B7 SWAP1 PUSH2 0x1154 JUMP JUMPDEST PUSH1 0x40 MLOAD DUP1 SWAP2 SUB SWAP1 REVERT JUMPDEST PUSH1 0x4 SLOAD TIMESTAMP GT PUSH2 0x704 JUMPI PUSH1 0x40 MLOAD PUSH32 0x8C379A000000000000000000000000000000000000000000000000000000000 DUP2 MSTORE PUSH1 0x4 ADD PUSH2 0x6FB SWAP1 PUSH2 0x11E2 JUMP JUMPDEST PUSH1 0x40 MLOAD DUP1 SWAP2 SUB SWAP1 REVERT JUMPDEST PUSH1 0x5 PUSH0 SWAP1 SLOAD SWAP1 PUSH2 0x100 EXP SWAP1 DIV PUSH1 0xFF AND ISZERO PUSH2 0x753 JUMPI PUSH1 0x40 MLOAD PUSH32 0x8C379A000000000000000000000000000000000000000000000000000000000 DUP2 MSTORE PUSH1 0x4 ADD PUSH2 0x74A SWAP1 PUSH2 0x124A JUMP JUMPDEST PUSH1 0x40 MLOAD DUP1 SWAP2 SUB SWAP1 REVERT JUMPDEST PUSH1 0x1 PUSH1 0x5 PUSH0 PUSH2 0x100 EXP DUP2 SLOAD DUP2 PUSH1 0xFF MUL NOT AND SWAP1 DUP4 ISZERO ISZERO MUL OR SWAP1 SSTORE POP JUMP JUMPDEST PUSH1 0x60 PUSH1 0x9 DUP1 SLOAD DUP1 PUSH1 0x20 MUL PUSH1 0x20 ADD PUSH1 0x40 MLOAD SWAP1 DUP2 ADD PUSH1 0x40 MSTORE DUP1 SWAP3 SWAP2 SWAP1 DUP2 DUP2 MSTORE PUSH1 0x20 ADD PUSH0 SWAP1 JUMPDEST DUP3 DUP3 LT ISZERO PUSH2 0x820 JUMPI DUP4 DUP3 SWAP1 PUSH0 MSTORE PUSH1 0x20 PUSH0 KECCAK256 SWAP1 PUSH1 0x2 MUL ADD PUSH1 0x40 MLOAD DUP1 PUSH1 0x40 ADD PUSH1 0x40 MSTORE SWAP1 DUP2 PUSH0 DUP3 ADD PUSH0 SWAP1 SLOAD SWAP1 PUSH2 0x100 EXP SWAP1 DIV PUSH20 0xFFFFFFFFFFFFFFFFFFFFFFFFFFFFFFFFFFFFFFFF AND PUSH20 0xFFFFFFFFFFFFFFFFFFFFFFFFFFFFFFFFFFFFFFFF AND PUSH20 0xFFFFFFFFFFFFFFFFFFFFFFFFFFFFFFFFFFFFFFFF AND DUP2 MSTORE PUSH1 0x20 ADD PUSH1 0x1 DUP3 ADD SLOAD DUP2 MSTORE POP POP DUP2 MSTORE PUSH1 0x20 ADD SWAP1 PUSH1 0x1 ADD SWAP1 PUSH2 0x792 JUMP JUMPDEST POP POP POP POP SWAP1 POP SWAP1 JUMP JUMPDEST TIMESTAMP PUSH1 0x4 SLOAD GT PUSH2 0x86D JUMPI PUSH1 0x40 MLOAD PUSH32 0x8C379A000000000000000000000000000000000000000000000000000000000 DUP2 MSTORE PUSH1 0x4 ADD PUSH2 0x864 SWAP1 PUSH2 0x12D8 JUMP JUMPDEST PUSH1 0x40 MLOAD DUP1 SWAP2 SUB SWAP1 REVERT JUMPDEST PUSH1 0x5 PUSH0 SWAP1 SLOAD SWAP1 PUSH2 0x100 EXP SWAP1 DIV PUSH1 0xFF AND ISZERO PUSH2 0x8BC JUMPI PUSH1 0x40 MLOAD PUSH32 0x8C379A000000000000000000000000000000000000000000000000000000000 DUP2 MSTORE PUSH1 0x4 ADD PUSH2 0x8B3 SWAP1 PUSH2 0x1340 JUMP JUMPDEST PUSH1 0x40 MLOAD DUP1 SWAP2 SUB SWAP1 REVERT JUMPDEST PUSH0 PUSH1 0x64 PUSH1 0x6 SLOAD PUSH1 0x64 PUSH2 0x8CE SWAP2 SWAP1 PUSH2 0xF36 JUMP JUMPDEST PUSH1 0x1 SLOAD PUSH2 0x8DB SWAP2 SWAP1 PUSH2 0xEF5 JUMP JUMPDEST PUSH2 0x8E5 SWAP2 SWAP1 PUSH2 0xF96 JUMP JUMPDEST SWAP1 POP PUSH0 CALLVALUE SWAP1 POP PUSH0 DUP2 GT PUSH2 0x92D JUMPI PUSH1 0x40 MLOAD PUSH32 0x8C379A000000000000000000000000000000000000000000000000000000000 DUP2 MSTORE PUSH1 0x4 ADD PUSH2 0x924 SWAP1 PUSH2 0x13CE JUMP JUMPDEST PUSH1 0x40 MLOAD DUP1 SWAP2 SUB SWAP1 REVERT JUMPDEST PUSH0 PUSH1 0x1 SLOAD EQ PUSH2 0x979 JUMPI DUP2 DUP2 GT PUSH2 0x978 JUMPI PUSH1 0x40 MLOAD PUSH32 0x8C379A000000000000000000000000000000000000000000000000000000000 DUP2 MSTORE PUSH1 0x4 ADD PUSH2 0x96F SWAP1 PUSH2 0x1482 JUMP JUMPDEST PUSH1 0x40 MLOAD DUP1 SWAP2 SUB SWAP1 REVERT JUMPDEST JUMPDEST PUSH1 0xA PUSH1 0x4 SLOAD PUSH2 0x988 SWAP2 SWAP1 PUSH2 0xFC6 JUMP JUMPDEST TIMESTAMP LT ISZERO PUSH2 0x9A9 JUMPI PUSH1 0xA PUSH1 0x4 PUSH0 DUP3 DUP3 SLOAD PUSH2 0x9A1 SWAP2 SWAP1 PUSH2 0xF36 JUMP JUMPDEST SWAP3 POP POP DUP2 SWAP1 SSTORE POP JUMPDEST CALLER PUSH1 0x2 PUSH0 PUSH2 0x100 EXP DUP2 SLOAD DUP2 PUSH20 0xFFFFFFFFFFFFFFFFFFFFFFFFFFFFFFFFFFFFFFFF MUL NOT AND SWAP1 DUP4 PUSH20 0xFFFFFFFFFFFFFFFFFFFFFFFFFFFFFFFFFFFFFFFF AND MUL OR SWAP1 SSTORE POP CALLVALUE PUSH1 0x1 DUP2 SWAP1 SSTORE POP CALLVALUE PUSH1 0x8 PUSH0 CALLER PUSH20 0xFFFFFFFFFFFFFFFFFFFFFFFFFFFFFFFFFFFFFFFF AND PUSH20 0xFFFFFFFFFFFFFFFFFFFFFFFFFFFFFFFFFFFFFFFF AND DUP2 MSTORE PUSH1 0x20 ADD SWAP1 DUP2 MSTORE PUSH1 0x20 ADD PUSH0 KECCAK256 DUP2 SWAP1 SSTORE POP PUSH0 PUSH1 0x40 MLOAD DUP1 PUSH1 0x40 ADD PUSH1 0x40 MSTORE DUP1 CALLER PUSH20 0xFFFFFFFFFFFFFFFFFFFFFFFFFFFFFFFFFFFFFFFF AND DUP2 MSTORE PUSH1 0x20 ADD CALLVALUE DUP2 MSTORE POP SWAP1 POP PUSH1 0x9 DUP2 SWAP1 DUP1 PUSH1 0x1 DUP2 SLOAD ADD DUP1 DUP3 SSTORE DUP1 SWAP2 POP POP PUSH1 0x1 SWAP1 SUB SWAP1 PUSH0 MSTORE PUSH1 0x20 PUSH0 KECCAK256 SWAP1 PUSH1 0x2 MUL ADD PUSH0 SWAP1 SWAP2 SWAP1 SWAP2 SWAP1 SWAP2 POP PUSH0 DUP3 ADD MLOAD DUP2 PUSH0 ADD PUSH0 PUSH2 0x100 EXP DUP2 SLOAD DUP2 PUSH20 0xFFFFFFFFFFFFFFFFFFFFFFFFFFFFFFFFFFFFFFFF MUL NOT AND SWAP1 DUP4 PUSH20 0xFFFFFFFFFFFFFFFFFFFFFFFFFFFFFFFFFFFFFFFF AND MUL OR SWAP1 SSTORE POP PUSH1 0x20 DUP3 ADD MLOAD DUP2 PUSH1 0x1 ADD SSTORE POP POP POP POP POP JUMP JUMPDEST PUSH1 0x4 SLOAD DUP2 JUMP JUMPDEST PUSH1 0x40 MLOAD DUP1 PUSH1 0x60 ADD PUSH1 0x40 MSTORE DUP1 PUSH0 PUSH20 0xFFFFFFFFFFFFFFFFFFFFFFFFFFFFFFFFFFFFFFFF AND DUP2 MSTORE PUSH1 0x20 ADD PUSH0 DUP2 MSTORE PUSH1 0x20 ADD PUSH0 ISZERO ISZERO DUP2 MSTORE POP SWAP1 JUMP JUMPDEST PUSH0 DUP2 SWAP1 POP SWAP2 SWAP1 POP JUMP JUMPDEST PUSH2 0xB2C DUP2 PUSH2 0xB1A JUMP JUMPDEST DUP3 MSTORE POP POP JUMP JUMPDEST PUSH0 PUSH1 0x20 DUP3 ADD SWAP1 POP PUSH2 0xB45 PUSH0 DUP4 ADD DUP5 PUSH2 0xB23 JUMP JUMPDEST SWAP3 SWAP2 POP POP JUMP JUMPDEST PUSH0 PUSH0 REVERT JUMPDEST PUSH2 0xB58 DUP2 PUSH2 0xB1A JUMP JUMPDEST DUP2 EQ PUSH2 0xB62 JUMPI PUSH0 PUSH0 REVERT JUMPDEST POP JUMP JUMPDEST PUSH0 DUP2 CALLDATALOAD SWAP1 POP PUSH2 0xB73 DUP2 PUSH2 0xB4F JUMP JUMPDEST SWAP3 SWAP2 POP POP JUMP JUMPDEST PUSH0 PUSH1 0x20 DUP3 DUP5 SUB SLT ISZERO PUSH2 0xB8E JUMPI PUSH2 0xB8D PUSH2 0xB4B JUMP JUMPDEST JUMPDEST PUSH0 PUSH2 0xB9B DUP5 DUP3 DUP6 ADD PUSH2 0xB65 JUMP JUMPDEST SWAP2 POP POP SWAP3 SWAP2 POP POP JUMP JUMPDEST PUSH0 PUSH20 0xFFFFFFFFFFFFFFFFFFFFFFFFFFFFFFFFFFFFFFFF DUP3 AND SWAP1 POP SWAP2 SWAP1 POP JUMP JUMPDEST PUSH0 PUSH2 0xBCD DUP3 PUSH2 0xBA4 JUMP JUMPDEST SWAP1 POP SWAP2 SWAP1 POP JUMP JUMPDEST PUSH2 0xBDD DUP2 PUSH2 0xBC3 JUMP JUMPDEST DUP3 MSTORE POP POP JUMP JUMPDEST PUSH2 0xBEC DUP2 PUSH2 0xB1A JUMP JUMPDEST DUP3 MSTORE POP POP JUMP JUMPDEST PUSH0 DUP2 ISZERO ISZERO SWAP1 POP SWAP2 SWAP1 POP JUMP JUMPDEST PUSH2 0xC06 DUP2 PUSH2 0xBF2 JUMP JUMPDEST DUP3 MSTORE POP POP JUMP JUMPDEST PUSH1 0x60 DUP3 ADD PUSH0 DUP3 ADD MLOAD PUSH2 0xC20 PUSH0 DUP6 ADD DUP3 PUSH2 0xBD4 JUMP JUMPDEST POP PUSH1 0x20 DUP3 ADD MLOAD PUSH2 0xC33 PUSH1 0x20 DUP6 ADD DUP3 PUSH2 0xBE3 JUMP JUMPDEST POP PUSH1 0x40 DUP3 ADD MLOAD PUSH2 0xC46 PUSH1 0x40 DUP6 ADD DUP3 PUSH2 0xBFD JUMP JUMPDEST POP POP POP POP JUMP JUMPDEST PUSH0 PUSH1 0x60 DUP3 ADD SWAP1 POP PUSH2 0xC5F PUSH0 DUP4 ADD DUP5 PUSH2 0xC0C JUMP JUMPDEST SWAP3 SWAP2 POP POP JUMP JUMPDEST PUSH0 DUP2 MLOAD SWAP1 POP SWAP2 SWAP1 POP JUMP JUMPDEST PUSH0 DUP3 DUP3 MSTORE PUSH1 0x20 DUP3 ADD SWAP1 POP SWAP3 SWAP2 POP POP JUMP JUMPDEST PUSH0 DUP2 SWAP1 POP PUSH1 0x20 DUP3 ADD SWAP1 POP SWAP2 SWAP1 POP JUMP JUMPDEST PUSH1 0x40 DUP3 ADD PUSH0 DUP3 ADD MLOAD PUSH2 0xCA2 PUSH0 DUP6 ADD DUP3 PUSH2 0xBD4 JUMP JUMPDEST POP PUSH1 0x20 DUP3 ADD MLOAD PUSH2 0xCB5 PUSH1 0x20 DUP6 ADD DUP3 PUSH2 0xBE3 JUMP JUMPDEST POP POP POP POP JUMP JUMPDEST PUSH0 PUSH2 0xCC6 DUP4 DUP4 PUSH2 0xC8E JUMP JUMPDEST PUSH1 0x40 DUP4 ADD SWAP1 POP SWAP3 SWAP2 POP POP JUMP JUMPDEST PUSH0 PUSH1 0x20 DUP3 ADD SWAP1 POP SWAP2 SWAP1 POP JUMP JUMPDEST PUSH0 PUSH2 0xCE8 DUP3 PUSH2 0xC65 JUMP JUMPDEST PUSH2 0xCF2 DUP2 DUP6 PUSH2 0xC6F JUMP JUMPDEST SWAP4 POP PUSH2 0xCFD DUP4 PUSH2 0xC7F JUMP JUMPDEST DUP1 PUSH0 JUMPDEST DUP4 DUP2 LT ISZERO PUSH2 0xD2D JUMPI DUP2 MLOAD PUSH2 0xD14 DUP9 DUP3 PUSH2 0xCBB JUMP JUMPDEST SWAP8 POP PUSH2 0xD1F DUP4 PUSH2 0xCD2 JUMP JUMPDEST SWAP3 POP POP PUSH1 0x1 DUP2 ADD SWAP1 POP PUSH2 0xD00 JUMP JUMPDEST POP DUP6 SWAP4 POP POP POP POP SWAP3 SWAP2 POP POP JUMP JUMPDEST PUSH0 PUSH1 0x20 DUP3 ADD SWAP1 POP DUP2 DUP2 SUB PUSH0 DUP4 ADD MSTORE PUSH2 0xD52 DUP2 DUP5 PUSH2 0xCDE JUMP JUMPDEST SWAP1 POP SWAP3 SWAP2 POP POP JUMP JUMPDEST PUSH0 DUP3 DUP3 MSTORE PUSH1 0x20 DUP3 ADD SWAP1 POP SWAP3 SWAP2 POP POP JUMP JUMPDEST PUSH32 0x496E73756666696369656E742062616C616E63652E0000000000000000000000 PUSH0 DUP3 ADD MSTORE POP JUMP JUMPDEST PUSH0 PUSH2 0xD9E PUSH1 0x15 DUP4 PUSH2 0xD5A JUMP JUMPDEST SWAP2 POP PUSH2 0xDA9 DUP3 PUSH2 0xD6A JUMP JUMPDEST PUSH1 0x20 DUP3 ADD SWAP1 POP SWAP2 SWAP1 POP JUMP JUMPDEST PUSH0 PUSH1 0x20 DUP3 ADD SWAP1 POP DUP2 DUP2 SUB PUSH0 DUP4 ADD MSTORE PUSH2 0xDCB DUP2 PUSH2 0xD92 JUMP JUMPDEST SWAP1 POP SWAP2 SWAP1 POP JUMP JUMPDEST PUSH32 0x596F752063616E2774207769746864726177207468652077696E6E696E672062 PUSH0 DUP3 ADD MSTORE PUSH32 0x6964000000000000000000000000000000000000000000000000000000000000 PUSH1 0x20 DUP3 ADD MSTORE POP JUMP JUMPDEST PUSH0 PUSH2 0xE2C PUSH1 0x22 DUP4 PUSH2 0xD5A JUMP JUMPDEST SWAP2 POP PUSH2 0xE37 DUP3 PUSH2 0xDD2 JUMP JUMPDEST PUSH1 0x40 DUP3 ADD SWAP1 POP SWAP2 SWAP1 POP JUMP JUMPDEST PUSH0 PUSH1 0x20 DUP3 ADD SWAP1 POP DUP2 DUP2 SUB PUSH0 DUP4 ADD MSTORE PUSH2 0xE59 DUP2 PUSH2 0xE20 JUMP JUMPDEST SWAP1 POP SWAP2 SWAP1 POP JUMP JUMPDEST PUSH32 0x496E73756666696369656E742062616C616E6365000000000000000000000000 PUSH0 DUP3 ADD MSTORE POP JUMP JUMPDEST PUSH0 PUSH2 0xE94 PUSH1 0x14 DUP4 PUSH2 0xD5A JUMP JUMPDEST SWAP2 POP PUSH2 0xE9F DUP3 PUSH2 0xE60 JUMP JUMPDEST PUSH1 0x20 DUP3 ADD SWAP1 POP SWAP2 SWAP1 POP JUMP JUMPDEST PUSH0 PUSH1 0x20 DUP3 ADD SWAP1 POP DUP2 DUP2 SUB PUSH0 DUP4 ADD MSTORE PUSH2 0xEC1 DUP2 PUSH2 0xE88 JUMP JUMPDEST SWAP1 POP SWAP2 SWAP1 POP JUMP JUMPDEST PUSH32 0x4E487B7100000000000000000000000000000000000000000000000000000000 PUSH0 MSTORE PUSH1 0x11 PUSH1 0x4 MSTORE PUSH1 0x24 PUSH0 REVERT JUMPDEST PUSH0 PUSH2 0xEFF DUP3 PUSH2 0xB1A JUMP JUMPDEST SWAP2 POP PUSH2 0xF0A DUP4 PUSH2 0xB1A JUMP JUMPDEST SWAP3 POP DUP3 DUP3 MUL PUSH2 0xF18 DUP2 PUSH2 0xB1A JUMP JUMPDEST SWAP2 POP DUP3 DUP3 DIV DUP5 EQ DUP4 ISZERO OR PUSH2 0xF2F JUMPI PUSH2 0xF2E PUSH2 0xEC8 JUMP JUMPDEST JUMPDEST POP SWAP3 SWAP2 POP POP JUMP JUMPDEST PUSH0 PUSH2 0xF40 DUP3 PUSH2 0xB1A JUMP JUMPDEST SWAP2 POP PUSH2 0xF4B DUP4 PUSH2 0xB1A JUMP JUMPDEST SWAP3 POP DUP3 DUP3 ADD SWAP1 POP DUP1 DUP3 GT ISZERO PUSH2 0xF63 JUMPI PUSH2 0xF62 PUSH2 0xEC8 JUMP JUMPDEST JUMPDEST SWAP3 SWAP2 POP POP JUMP JUMPDEST PUSH32 0x4E487B7100000000000000000000000000000000000000000000000000000000 PUSH0 MSTORE PUSH1 0x12 PUSH1 0x4 MSTORE PUSH1 0x24 PUSH0 REVERT JUMPDEST PUSH0 PUSH2 0xFA0 DUP3 PUSH2 0xB1A JUMP JUMPDEST SWAP2 POP PUSH2 0xFAB DUP4 PUSH2 0xB1A JUMP JUMPDEST SWAP3 POP DUP3 PUSH2 0xFBB JUMPI PUSH2 0xFBA PUSH2 0xF69 JUMP JUMPDEST JUMPDEST DUP3 DUP3 DIV SWAP1 POP SWAP3 SWAP2 POP POP JUMP JUMPDEST PUSH0 PUSH2 0xFD0 DUP3 PUSH2 0xB1A JUMP JUMPDEST SWAP2 POP PUSH2 0xFDB DUP4 PUSH2 0xB1A JUMP JUMPDEST SWAP3 POP DUP3 DUP3 SUB SWAP1 POP DUP2 DUP2 GT ISZERO PUSH2 0xFF3 JUMPI PUSH2 0xFF2 PUSH2 0xEC8 JUMP JUMPDEST JUMPDEST SWAP3 SWAP2 POP POP JUMP JUMPDEST PUSH0 DUP2 SWAP1 POP SWAP3 SWAP2 POP POP JUMP JUMPDEST POP JUMP JUMPDEST PUSH0 PUSH2 0x1011 PUSH0 DUP4 PUSH2 0xFF9 JUMP JUMPDEST SWAP2 POP PUSH2 0x101C DUP3 PUSH2 0x1003 JUMP JUMPDEST PUSH0 DUP3 ADD SWAP1 POP SWAP2 SWAP1 POP JUMP JUMPDEST PUSH0 PUSH2 0x1030 DUP3 PUSH2 0x1006 JUMP JUMPDEST SWAP2 POP DUP2 SWAP1 POP SWAP2 SWAP1 POP JUMP JUMPDEST PUSH32 0x4661696C656420746F20726566756E6400000000000000000000000000000000 PUSH0 DUP3 ADD MSTORE POP JUMP JUMPDEST PUSH0 PUSH2 0x106E PUSH1 0x10 DUP4 PUSH2 0xD5A JUMP JUMPDEST SWAP2 POP PUSH2 0x1079 DUP3 PUSH2 0x103A JUMP JUMPDEST PUSH1 0x20 DUP3 ADD SWAP1 POP SWAP2 SWAP1 POP JUMP JUMPDEST PUSH0 PUSH1 0x20 DUP3 ADD SWAP1 POP DUP2 DUP2 SUB PUSH0 DUP4 ADD MSTORE PUSH2 0x109B DUP2 PUSH2 0x1062 JUMP JUMPDEST SWAP1 POP SWAP2 SWAP1 POP JUMP JUMPDEST PUSH32 0x4661696C656420746F2073656E6420636F6D6D697373696F6E00000000000000 PUSH0 DUP3 ADD MSTORE POP JUMP JUMPDEST PUSH0 PUSH2 0x10D6 PUSH1 0x19 DUP4 PUSH2 0xD5A JUMP JUMPDEST SWAP2 POP PUSH2 0x10E1 DUP3 PUSH2 0x10A2 JUMP JUMPDEST PUSH1 0x20 DUP3 ADD SWAP1 POP SWAP2 SWAP1 POP JUMP JUMPDEST PUSH0 PUSH1 0x20 DUP3 ADD SWAP1 POP DUP2 DUP2 SUB PUSH0 DUP4 ADD MSTORE PUSH2 0x1103 DUP2 PUSH2 0x10CA JUMP JUMPDEST SWAP1 POP SWAP2 SWAP1 POP JUMP JUMPDEST PUSH32 0x4F6E6C79206F776E65722063616E20646F207468697320616374696F6E2E0000 PUSH0 DUP3 ADD MSTORE POP JUMP JUMPDEST PUSH0 PUSH2 0x113E PUSH1 0x1E DUP4 PUSH2 0xD5A JUMP JUMPDEST SWAP2 POP PUSH2 0x1149 DUP3 PUSH2 0x110A JUMP JUMPDEST PUSH1 0x20 DUP3 ADD SWAP1 POP SWAP2 SWAP1 POP JUMP JUMPDEST PUSH0 PUSH1 0x20 DUP3 ADD SWAP1 POP DUP2 DUP2 SUB PUSH0 DUP4 ADD MSTORE PUSH2 0x116B DUP2 PUSH2 0x1132 JUMP JUMPDEST SWAP1 POP SWAP2 SWAP1 POP JUMP JUMPDEST PUSH32 0x596F752063616E277420656E64207468652061756374696F6E206265666F7265 PUSH0 DUP3 ADD MSTORE PUSH32 0x2074686520737461626C697368656420656E6420646174652E00000000000000 PUSH1 0x20 DUP3 ADD MSTORE POP JUMP JUMPDEST PUSH0 PUSH2 0x11CC PUSH1 0x39 DUP4 PUSH2 0xD5A JUMP JUMPDEST SWAP2 POP PUSH2 0x11D7 DUP3 PUSH2 0x1172 JUMP JUMPDEST PUSH1 0x40 DUP3 ADD SWAP1 POP SWAP2 SWAP1 POP JUMP JUMPDEST PUSH0 PUSH1 0x20 DUP3 ADD SWAP1 POP DUP2 DUP2 SUB PUSH0 DUP4 ADD MSTORE PUSH2 0x11F9 DUP2 PUSH2 0x11C0 JUMP JUMPDEST SWAP1 POP SWAP2 SWAP1 POP JUMP JUMPDEST PUSH32 0x5468652061756374696F6E20697320616C726561647920636C6F7365642E0000 PUSH0 DUP3 ADD MSTORE POP JUMP JUMPDEST PUSH0 PUSH2 0x1234 PUSH1 0x1E DUP4 PUSH2 0xD5A JUMP JUMPDEST SWAP2 POP PUSH2 0x123F DUP3 PUSH2 0x1200 JUMP JUMPDEST PUSH1 0x20 DUP3 ADD SWAP1 POP SWAP2 SWAP1 POP JUMP JUMPDEST PUSH0 PUSH1 0x20 DUP3 ADD SWAP1 POP DUP2 DUP2 SUB PUSH0 DUP4 ADD MSTORE PUSH2 0x1261 DUP2 PUSH2 0x1228 JUMP JUMPDEST SWAP1 POP SWAP2 SWAP1 POP JUMP JUMPDEST PUSH32 0x596F752063616E2774206F66666572206166746572207468652065737461626C PUSH0 DUP3 ADD MSTORE PUSH32 0x697368656420706572696F64206F66207468652061756374696F6E0000000000 PUSH1 0x20 DUP3 ADD MSTORE POP JUMP JUMPDEST PUSH0 PUSH2 0x12C2 PUSH1 0x3B DUP4 PUSH2 0xD5A JUMP JUMPDEST SWAP2 POP PUSH2 0x12CD DUP3 PUSH2 0x1268 JUMP JUMPDEST PUSH1 0x40 DUP3 ADD SWAP1 POP SWAP2 SWAP1 POP JUMP JUMPDEST PUSH0 PUSH1 0x20 DUP3 ADD SWAP1 POP DUP2 DUP2 SUB PUSH0 DUP4 ADD MSTORE PUSH2 0x12EF DUP2 PUSH2 0x12B6 JUMP JUMPDEST SWAP1 POP SWAP2 SWAP1 POP JUMP JUMPDEST PUSH32 0x5468652061756374696F6E20697320636C6F7365640000000000000000000000 PUSH0 DUP3 ADD MSTORE POP JUMP JUMPDEST PUSH0 PUSH2 0x132A PUSH1 0x15 DUP4 PUSH2 0xD5A JUMP JUMPDEST SWAP2 POP PUSH2 0x1335 DUP3 PUSH2 0x12F6 JUMP JUMPDEST PUSH1 0x20 DUP3 ADD SWAP1 POP SWAP2 SWAP1 POP JUMP JUMPDEST PUSH0 PUSH1 0x20 DUP3 ADD SWAP1 POP DUP2 DUP2 SUB PUSH0 DUP4 ADD MSTORE PUSH2 0x1357 DUP2 PUSH2 0x131E JUMP JUMPDEST SWAP1 POP SWAP2 SWAP1 POP JUMP JUMPDEST PUSH32 0x54686520616D6F756E74206F66666572656420666F7220746869732061756374 PUSH0 DUP3 ADD MSTORE PUSH32 0x696F6E206D75737420626520686967686572207468616E203000000000000000 PUSH1 0x20 DUP3 ADD MSTORE POP JUMP JUMPDEST PUSH0 PUSH2 0x13B8 PUSH1 0x39 DUP4 PUSH2 0xD5A JUMP JUMPDEST SWAP2 POP PUSH2 0x13C3 DUP3 PUSH2 0x135E JUMP JUMPDEST PUSH1 0x40 DUP3 ADD SWAP1 POP SWAP2 SWAP1 POP JUMP JUMPDEST PUSH0 PUSH1 0x20 DUP3 ADD SWAP1 POP DUP2 DUP2 SUB PUSH0 DUP4 ADD MSTORE PUSH2 0x13E5 DUP2 PUSH2 0x13AC JUMP JUMPDEST SWAP1 POP SWAP2 SWAP1 POP JUMP JUMPDEST PUSH32 0x54686520616D6F756E74206F66666572656420666F7220746869732061756374 PUSH0 DUP3 ADD MSTORE PUSH32 0x696F6E206D75737420626520352520686967686572207468616E207468652062 PUSH1 0x20 DUP3 ADD MSTORE PUSH32 0x657374206F666665720000000000000000000000000000000000000000000000 PUSH1 0x40 DUP3 ADD MSTORE POP JUMP JUMPDEST PUSH0 PUSH2 0x146C PUSH1 0x49 DUP4 PUSH2 0xD5A JUMP JUMPDEST SWAP2 POP PUSH2 0x1477 DUP3 PUSH2 0x13EC JUMP JUMPDEST PUSH1 0x60 DUP3 ADD SWAP1 POP SWAP2 SWAP1 POP JUMP JUMPDEST PUSH0 PUSH1 0x20 DUP3 ADD SWAP1 POP DUP2 DUP2 SUB PUSH0 DUP4 ADD MSTORE PUSH2 0x1499 DUP2 PUSH2 0x1460 JUMP JUMPDEST SWAP1 POP SWAP2 SWAP1 POP JUMP INVALID LOG2 PUSH5 0x6970667358 0x22 SLT KECCAK256 SIGNEXTEND 0xDF DUP6 SLOAD GAS GASLIMIT 0x4F MOD CALLDATASIZE PC 0x26 EXTDELEGATECALL GASPRICE STOP DUP1 SWAPN 0x7C PUSH20 0xDAB9D26B9765944186EA498B3A9464736F6C6343 STOP ADDMOD 0x1E STOP CALLER "
				},
				"gasEstimates": {
					"creation": {
						"codeDepositCost": "1066800",
						"executionCost": "infinite",
						"totalCost": "infinite"
					},
					"external": {
						"CreateOffer()": "infinite",
						"EndAuction()": "30876",
						"ShowAuctionOffers()": "infinite",
						"ShowAuctionWinner()": "7238",
						"endDateAuction()": "2513",
						"minimumNewOfferPercentage()": "2492",
						"refund(uint256)": "infinite",
						"returnCommission()": "2470",
						"startDateAuction()": "2426"
					}
				},
				"methodIdentifiers": {
					"CreateOffer()": "a7cbe83a",
					"EndAuction()": "6a7798ee",
					"ShowAuctionOffers()": "7b02c518",
					"ShowAuctionWinner()": "41d71b60",
					"endDateAuction()": "d88a540d",
					"minimumNewOfferPercentage()": "3f9af859",
					"refund(uint256)": "278ecde1",
					"returnCommission()": "328b8d15",
					"startDateAuction()": "02dcade9"
				}
			},
			"storageLayout": {
				"storage": [
					{
						"astId": 3,
						"contract": "contracts/auction.sol:Auction",
						"label": "owner",
						"offset": 0,
						"slot": "0",
						"type": "t_address"
					},
					{
						"astId": 5,
						"contract": "contracts/auction.sol:Auction",
						"label": "topOffer",
						"offset": 0,
						"slot": "1",
						"type": "t_uint256"
					},
					{
						"astId": 7,
						"contract": "contracts/auction.sol:Auction",
						"label": "topOfferAccount",
						"offset": 0,
						"slot": "2",
						"type": "t_address"
					},
					{
						"astId": 9,
						"contract": "contracts/auction.sol:Auction",
						"label": "startDateAuction",
						"offset": 0,
						"slot": "3",
						"type": "t_uint256"
					},
					{
						"astId": 11,
						"contract": "contracts/auction.sol:Auction",
						"label": "endDateAuction",
						"offset": 0,
						"slot": "4",
						"type": "t_uint256"
					},
					{
						"astId": 13,
						"contract": "contracts/auction.sol:Auction",
						"label": "auctionClosed",
						"offset": 0,
						"slot": "5",
						"type": "t_bool"
					},
					{
						"astId": 15,
						"contract": "contracts/auction.sol:Auction",
						"label": "minimumNewOfferPercentage",
						"offset": 0,
						"slot": "6",
						"type": "t_uint256"
					},
					{
						"astId": 17,
						"contract": "contracts/auction.sol:Auction",
						"label": "returnCommission",
						"offset": 0,
						"slot": "7",
						"type": "t_uint256"
					},
					{
						"astId": 21,
						"contract": "contracts/auction.sol:Auction",
						"label": "offers",
						"offset": 0,
						"slot": "8",
						"type": "t_mapping(t_address,t_uint256)"
					},
					{
						"astId": 30,
						"contract": "contracts/auction.sol:Auction",
						"label": "offerRegistry",
						"offset": 0,
						"slot": "9",
						"type": "t_array(t_struct(StructOfferAccount)26_storage)dyn_storage"
					}
				],
				"types": {
					"t_address": {
						"encoding": "inplace",
						"label": "address",
						"numberOfBytes": "20"
					},
					"t_array(t_struct(StructOfferAccount)26_storage)dyn_storage": {
						"base": "t_struct(StructOfferAccount)26_storage",
						"encoding": "dynamic_array",
						"label": "struct Auction.StructOfferAccount[]",
						"numberOfBytes": "32"
					},
					"t_bool": {
						"encoding": "inplace",
						"label": "bool",
						"numberOfBytes": "1"
					},
					"t_mapping(t_address,t_uint256)": {
						"encoding": "mapping",
						"key": "t_address",
						"label": "mapping(address => uint256)",
						"numberOfBytes": "32",
						"value": "t_uint256"
					},
					"t_struct(StructOfferAccount)26_storage": {
						"encoding": "inplace",
						"label": "struct Auction.StructOfferAccount",
						"members": [
							{
								"astId": 23,
								"contract": "contracts/auction.sol:Auction",
								"label": "account",
								"offset": 0,
								"slot": "0",
								"type": "t_address"
							},
							{
								"astId": 25,
								"contract": "contracts/auction.sol:Auction",
								"label": "amount",
								"offset": 0,
								"slot": "1",
								"type": "t_uint256"
							}
						],
						"numberOfBytes": "64"
					},
					"t_uint256": {
						"encoding": "inplace",
						"label": "uint256",
						"numberOfBytes": "32"
					}
				}
			},
			"userdoc": {
				"kind": "user",
				"methods": {},
				"version": 1
			}
		}
	}
}