{
	"contracts/ejercicio6.sol": {
		"exercise6": {
			"abi": [
				{
					"inputs": [],
					"stateMutability": "nonpayable",
					"type": "constructor"
				},
				{
					"anonymous": false,
					"inputs": [
						{
							"indexed": false,
							"internalType": "uint256",
							"name": "length",
							"type": "uint256"
						},
						{
							"indexed": false,
							"internalType": "string",
							"name": "newInfo",
							"type": "string"
						},
						{
							"indexed": false,
							"internalType": "address",
							"name": "account",
							"type": "address"
						}
					],
					"name": "infoChanged",
					"type": "event"
				},
				{
					"inputs": [
						{
							"internalType": "string",
							"name": "myInfo",
							"type": "string"
						}
					],
					"name": "addInfo",
					"outputs": [
						{
							"internalType": "uint256",
							"name": "index",
							"type": "uint256"
						}
					],
					"stateMutability": "nonpayable",
					"type": "function"
				},
				{
					"inputs": [],
					"name": "countChanges",
					"outputs": [
						{
							"internalType": "uint256",
							"name": "",
							"type": "uint256"
						}
					],
					"stateMutability": "view",
					"type": "function"
				},
				{
					"inputs": [],
					"name": "getInfo",
					"outputs": [
						{
							"internalType": "string[]",
							"name": "",
							"type": "string[]"
						}
					],
					"stateMutability": "view",
					"type": "function"
				},
				{
					"inputs": [
						{
							"internalType": "uint256",
							"name": "position",
							"type": "uint256"
						}
					],
					"name": "getOneInfo",
					"outputs": [
						{
							"internalType": "string",
							"name": "",
							"type": "string"
						}
					],
					"stateMutability": "view",
					"type": "function"
				},
				{
					"inputs": [
						{
							"internalType": "uint256",
							"name": "position",
							"type": "uint256"
						},
						{
							"internalType": "string",
							"name": "newInfo",
							"type": "string"
						}
					],
					"name": "updateInfo",
					"outputs": [],
					"stateMutability": "nonpayable",
					"type": "function"
				}
			],
			"devdoc": {
				"kind": "dev",
				"methods": {},
				"version": 1
			},
			"evm": {
				"assembly": "    /* \"contracts/ejercicio6.sol\":74:1278  contract exercise6 {... */\n  mstore(0x40, 0x80)\n    /* \"contracts/ejercicio6.sol\":162:163  0 */\n  0x00\n    /* \"contracts/ejercicio6.sol\":135:163  uint public countChanges = 0 */\n  0x01\n  sstore\n    /* \"contracts/ejercicio6.sol\":198:248  constructor(){... */\n  callvalue\n  dup1\n  iszero\n  tag_1\n  jumpi\n  revert(0x00, 0x00)\ntag_1:\n  pop\n    /* \"contracts/ejercicio6.sol\":230:240  msg.sender */\n  caller\n    /* \"contracts/ejercicio6.sol\":222:227  owner */\n  0x02\n  0x00\n    /* \"contracts/ejercicio6.sol\":222:240  owner = msg.sender */\n  0x0100\n  exp\n  dup2\n  sload\n  dup2\n  0xffffffffffffffffffffffffffffffffffffffff\n  mul\n  not\n  and\n  swap1\n  dup4\n  0xffffffffffffffffffffffffffffffffffffffff\n  and\n  mul\n  or\n  swap1\n  sstore\n  pop\n    /* \"contracts/ejercicio6.sol\":74:1278  contract exercise6 {... */\n  dataSize(sub_0)\n  dup1\n  dataOffset(sub_0)\n  0x00\n  codecopy\n  0x00\n  return\nstop\n\nsub_0: assembly {\n        /* \"contracts/ejercicio6.sol\":74:1278  contract exercise6 {... */\n      mstore(0x40, 0x80)\n      callvalue\n      dup1\n      iszero\n      tag_1\n      jumpi\n      revert(0x00, 0x00)\n    tag_1:\n      pop\n      jumpi(tag_2, lt(calldatasize, 0x04))\n      shr(0xe0, calldataload(0x00))\n      dup1\n      0x0bf803e4\n      eq\n      tag_3\n      jumpi\n      dup1\n      0x2af2bc27\n      eq\n      tag_4\n      jumpi\n      dup1\n      0x50c00197\n      eq\n      tag_5\n      jumpi\n      dup1\n      0x5a9b0b89\n      eq\n      tag_6\n      jumpi\n      dup1\n      0x94b1a5bc\n      eq\n      tag_7\n      jumpi\n    tag_2:\n      revert(0x00, 0x00)\n        /* \"contracts/ejercicio6.sol\":332:689  function addInfo(string memory myInfo) external returns(uint256 index) {... */\n    tag_3:\n      tag_8\n      0x04\n      dup1\n      calldatasize\n      sub\n      dup2\n      add\n      swap1\n      tag_9\n      swap2\n      swap1\n      tag_10\n      jump\t// in\n    tag_9:\n      tag_11\n      jump\t// in\n    tag_8:\n      mload(0x40)\n      tag_12\n      swap2\n      swap1\n      tag_13\n      jump\t// in\n    tag_12:\n      mload(0x40)\n      dup1\n      swap2\n      sub\n      swap1\n      return\n        /* \"contracts/ejercicio6.sol\":135:163  uint public countChanges = 0 */\n    tag_4:\n      tag_14\n      tag_15\n      jump\t// in\n    tag_14:\n      mload(0x40)\n      tag_16\n      swap2\n      swap1\n      tag_13\n      jump\t// in\n    tag_16:\n      mload(0x40)\n      dup1\n      swap2\n      sub\n      swap1\n      return\n        /* \"contracts/ejercicio6.sol\":697:960  function updateInfo(uint256 position, string memory newInfo) external {... */\n    tag_5:\n      tag_17\n      0x04\n      dup1\n      calldatasize\n      sub\n      dup2\n      add\n      swap1\n      tag_18\n      swap2\n      swap1\n      tag_19\n      jump\t// in\n    tag_18:\n      tag_20\n      jump\t// in\n    tag_17:\n      stop\n        /* \"contracts/ejercicio6.sol\":1180:1275  function getInfo() external view returns(string[] memory) {... */\n    tag_6:\n      tag_21\n      tag_22\n      jump\t// in\n    tag_21:\n      mload(0x40)\n      tag_23\n      swap2\n      swap1\n      tag_24\n      jump\t// in\n    tag_23:\n      mload(0x40)\n      dup1\n      swap2\n      sub\n      swap1\n      return\n        /* \"contracts/ejercicio6.sol\":968:1172  function getOneInfo(uint256 position) external view returns(string memory){... */\n    tag_7:\n      tag_25\n      0x04\n      dup1\n      calldatasize\n      sub\n      dup2\n      add\n      swap1\n      tag_26\n      swap2\n      swap1\n      tag_27\n      jump\t// in\n    tag_26:\n      tag_28\n      jump\t// in\n    tag_25:\n      mload(0x40)\n      tag_29\n      swap2\n      swap1\n      tag_30\n      jump\t// in\n    tag_29:\n      mload(0x40)\n      dup1\n      swap2\n      sub\n      swap1\n      return\n        /* \"contracts/ejercicio6.sol\":332:689  function addInfo(string memory myInfo) external returns(uint256 index) {... */\n    tag_11:\n        /* \"contracts/ejercicio6.sol\":388:401  uint256 index */\n      0x00\n        /* \"contracts/ejercicio6.sol\":431:441  msg.sender */\n      caller\n        /* \"contracts/ejercicio6.sol\":422:441  owner == msg.sender */\n      0xffffffffffffffffffffffffffffffffffffffff\n      and\n        /* \"contracts/ejercicio6.sol\":422:427  owner */\n      0x02\n      0x00\n      swap1\n      sload\n      swap1\n      0x0100\n      exp\n      swap1\n      div\n      0xffffffffffffffffffffffffffffffffffffffff\n      and\n        /* \"contracts/ejercicio6.sol\":422:441  owner == msg.sender */\n      0xffffffffffffffffffffffffffffffffffffffff\n      and\n      eq\n        /* \"contracts/ejercicio6.sol\":414:480  require(owner == msg.sender, \"Only owner can perform this action\") */\n      tag_32\n      jumpi\n      mload(0x40)\n      0x08c379a000000000000000000000000000000000000000000000000000000000\n      dup2\n      mstore\n      0x04\n      add\n      tag_33\n      swap1\n      tag_34\n      jump\t// in\n    tag_33:\n      mload(0x40)\n      dup1\n      swap2\n      sub\n      swap1\n      revert\n    tag_32:\n        /* \"contracts/ejercicio6.sol\":491:505  uint256 length */\n      0x00\n        /* \"contracts/ejercicio6.sol\":508:519  storedInfos */\n      0x00\n        /* \"contracts/ejercicio6.sol\":508:526  storedInfos.length */\n      dup1\n      sload\n      swap1\n      pop\n        /* \"contracts/ejercicio6.sol\":491:526  uint256 length = storedInfos.length */\n      swap1\n      pop\n        /* \"contracts/ejercicio6.sol\":542:581  infoChanged(length, myInfo, msg.sender) */\n      0x08b992eed17b037bc0eb3b239f559bc789f9d0c50710c107fb1ef0b40edea46d\n        /* \"contracts/ejercicio6.sol\":554:560  length */\n      dup2\n        /* \"contracts/ejercicio6.sol\":562:568  myInfo */\n      dup5\n        /* \"contracts/ejercicio6.sol\":570:580  msg.sender */\n      caller\n        /* \"contracts/ejercicio6.sol\":542:581  infoChanged(length, myInfo, msg.sender) */\n      mload(0x40)\n      tag_35\n      swap4\n      swap3\n      swap2\n      swap1\n      tag_36\n      jump\t// in\n    tag_35:\n      mload(0x40)\n      dup1\n      swap2\n      sub\n      swap1\n      log1\n        /* \"contracts/ejercicio6.sol\":592:603  storedInfos */\n      0x00\n        /* \"contracts/ejercicio6.sol\":609:615  myInfo */\n      dup4\n        /* \"contracts/ejercicio6.sol\":592:616  storedInfos.push(myInfo) */\n      swap1\n      dup1\n      0x01\n      dup2\n      sload\n      add\n      dup1\n      dup3\n      sstore\n      dup1\n      swap2\n      pop\n      pop\n      0x01\n      swap1\n      sub\n      swap1\n      0x00\n      mstore\n      keccak256(0x00, 0x20)\n      add\n      0x00\n      swap1\n      swap2\n      swap1\n      swap2\n      swap1\n      swap2\n      pop\n      swap1\n      dup2\n      tag_38\n      swap2\n      swap1\n      tag_39\n      jump\t// in\n    tag_38:\n      pop\n        /* \"contracts/ejercicio6.sol\":655:656  1 */\n      0x01\n        /* \"contracts/ejercicio6.sol\":635:646  storedInfos */\n      0x00\n        /* \"contracts/ejercicio6.sol\":635:653  storedInfos.length */\n      dup1\n      sload\n      swap1\n      pop\n        /* \"contracts/ejercicio6.sol\":635:656  storedInfos.length -1 */\n      tag_40\n      swap2\n      swap1\n      tag_41\n      jump\t// in\n    tag_40:\n        /* \"contracts/ejercicio6.sol\":627:656  index = storedInfos.length -1 */\n      swap2\n      pop\n        /* \"contracts/ejercicio6.sol\":667:679  countChanges */\n      0x01\n      0x00\n        /* \"contracts/ejercicio6.sol\":667:681  countChanges++ */\n      dup2\n      sload\n      dup1\n      swap3\n      swap2\n      swap1\n      tag_42\n      swap1\n      tag_43\n      jump\t// in\n    tag_42:\n      swap2\n      swap1\n      pop\n      sstore\n      pop\n        /* \"contracts/ejercicio6.sol\":403:689  {... */\n      pop\n        /* \"contracts/ejercicio6.sol\":332:689  function addInfo(string memory myInfo) external returns(uint256 index) {... */\n      swap2\n      swap1\n      pop\n      jump\t// out\n        /* \"contracts/ejercicio6.sol\":135:163  uint public countChanges = 0 */\n    tag_15:\n      sload(0x01)\n      dup2\n      jump\t// out\n        /* \"contracts/ejercicio6.sol\":697:960  function updateInfo(uint256 position, string memory newInfo) external {... */\n    tag_20:\n        /* \"contracts/ejercicio6.sol\":797:808  storedInfos */\n      0x00\n        /* \"contracts/ejercicio6.sol\":797:815  storedInfos.length */\n      dup1\n      sload\n      swap1\n      pop\n        /* \"contracts/ejercicio6.sol\":786:794  position */\n      dup3\n        /* \"contracts/ejercicio6.sol\":786:815  position < storedInfos.length */\n      lt\n        /* \"contracts/ejercicio6.sol\":778:850  require(position < storedInfos.length, \"No such position in the array.\") */\n      tag_45\n      jumpi\n      mload(0x40)\n      0x08c379a000000000000000000000000000000000000000000000000000000000\n      dup2\n      mstore\n      0x04\n      add\n      tag_46\n      swap1\n      tag_47\n      jump\t// in\n    tag_46:\n      mload(0x40)\n      dup1\n      swap2\n      sub\n      swap1\n      revert\n    tag_45:\n        /* \"contracts/ejercicio6.sol\":866:908  infoChanged(position, newInfo, msg.sender) */\n      0x08b992eed17b037bc0eb3b239f559bc789f9d0c50710c107fb1ef0b40edea46d\n        /* \"contracts/ejercicio6.sol\":878:886  position */\n      dup3\n        /* \"contracts/ejercicio6.sol\":888:895  newInfo */\n      dup3\n        /* \"contracts/ejercicio6.sol\":897:907  msg.sender */\n      caller\n        /* \"contracts/ejercicio6.sol\":866:908  infoChanged(position, newInfo, msg.sender) */\n      mload(0x40)\n      tag_48\n      swap4\n      swap3\n      swap2\n      swap1\n      tag_36\n      jump\t// in\n    tag_48:\n      mload(0x40)\n      dup1\n      swap2\n      sub\n      swap1\n      log1\n        /* \"contracts/ejercicio6.sol\":943:950  newInfo */\n      dup1\n        /* \"contracts/ejercicio6.sol\":919:930  storedInfos */\n      0x00\n        /* \"contracts/ejercicio6.sol\":931:939  position */\n      dup4\n        /* \"contracts/ejercicio6.sol\":919:940  storedInfos[position] */\n      dup2\n      sload\n      dup2\n      lt\n      tag_49\n      jumpi\n      tag_50\n      tag_51\n      jump\t// in\n    tag_50:\n    tag_49:\n      swap1\n      0x00\n      mstore\n      keccak256(0x00, 0x20)\n      add\n        /* \"contracts/ejercicio6.sol\":919:950  storedInfos[position] = newInfo */\n      swap1\n      dup2\n      tag_53\n      swap2\n      swap1\n      tag_39\n      jump\t// in\n    tag_53:\n      pop\n        /* \"contracts/ejercicio6.sol\":697:960  function updateInfo(uint256 position, string memory newInfo) external {... */\n      pop\n      pop\n      jump\t// out\n        /* \"contracts/ejercicio6.sol\":1180:1275  function getInfo() external view returns(string[] memory) {... */\n    tag_22:\n        /* \"contracts/ejercicio6.sol\":1221:1236  string[] memory */\n      0x60\n        /* \"contracts/ejercicio6.sol\":1256:1267  storedInfos */\n      0x00\n        /* \"contracts/ejercicio6.sol\":1249:1267  return storedInfos */\n      dup1\n      sload\n      dup1\n      0x20\n      mul\n      0x20\n      add\n      mload(0x40)\n      swap1\n      dup2\n      add\n      0x40\n      mstore\n      dup1\n      swap3\n      swap2\n      swap1\n      dup2\n      dup2\n      mstore\n      0x20\n      add\n      0x00\n      swap1\n    tag_55:\n      dup3\n      dup3\n      lt\n      iszero\n      tag_56\n      jumpi\n      dup4\n      dup3\n      swap1\n      0x00\n      mstore\n      keccak256(0x00, 0x20)\n      add\n      dup1\n      sload\n      tag_58\n      swap1\n      tag_59\n      jump\t// in\n    tag_58:\n      dup1\n      0x1f\n      add\n      0x20\n      dup1\n      swap2\n      div\n      mul\n      0x20\n      add\n      mload(0x40)\n      swap1\n      dup2\n      add\n      0x40\n      mstore\n      dup1\n      swap3\n      swap2\n      swap1\n      dup2\n      dup2\n      mstore\n      0x20\n      add\n      dup3\n      dup1\n      sload\n      tag_60\n      swap1\n      tag_59\n      jump\t// in\n    tag_60:\n      dup1\n      iszero\n      tag_61\n      jumpi\n      dup1\n      0x1f\n      lt\n      tag_62\n      jumpi\n      0x0100\n      dup1\n      dup4\n      sload\n      div\n      mul\n      dup4\n      mstore\n      swap2\n      0x20\n      add\n      swap2\n      jump(tag_61)\n    tag_62:\n      dup3\n      add\n      swap2\n      swap1\n      0x00\n      mstore\n      keccak256(0x00, 0x20)\n      swap1\n    tag_63:\n      dup2\n      sload\n      dup2\n      mstore\n      swap1\n      0x01\n      add\n      swap1\n      0x20\n      add\n      dup1\n      dup4\n      gt\n      tag_63\n      jumpi\n      dup3\n      swap1\n      sub\n      0x1f\n      and\n      dup3\n      add\n      swap2\n    tag_61:\n      pop\n      pop\n      pop\n      pop\n      pop\n      dup2\n      mstore\n      0x20\n      add\n      swap1\n      0x01\n      add\n      swap1\n      jump(tag_55)\n    tag_56:\n      pop\n      pop\n      pop\n      pop\n      swap1\n      pop\n        /* \"contracts/ejercicio6.sol\":1180:1275  function getInfo() external view returns(string[] memory) {... */\n      swap1\n      jump\t// out\n        /* \"contracts/ejercicio6.sol\":968:1172  function getOneInfo(uint256 position) external view returns(string memory){... */\n    tag_28:\n        /* \"contracts/ejercicio6.sol\":1028:1041  string memory */\n      0x60\n        /* \"contracts/ejercicio6.sol\":1072:1083  storedInfos */\n      0x00\n        /* \"contracts/ejercicio6.sol\":1072:1090  storedInfos.length */\n      dup1\n      sload\n      swap1\n      pop\n        /* \"contracts/ejercicio6.sol\":1061:1069  position */\n      dup3\n        /* \"contracts/ejercicio6.sol\":1061:1090  position < storedInfos.length */\n      lt\n        /* \"contracts/ejercicio6.sol\":1053:1125  require(position < storedInfos.length, \"No such position in the array.\") */\n      tag_65\n      jumpi\n      mload(0x40)\n      0x08c379a000000000000000000000000000000000000000000000000000000000\n      dup2\n      mstore\n      0x04\n      add\n      tag_66\n      swap1\n      tag_47\n      jump\t// in\n    tag_66:\n      mload(0x40)\n      dup1\n      swap2\n      sub\n      swap1\n      revert\n    tag_65:\n        /* \"contracts/ejercicio6.sol\":1143:1154  storedInfos */\n      0x00\n        /* \"contracts/ejercicio6.sol\":1155:1163  position */\n      dup3\n        /* \"contracts/ejercicio6.sol\":1143:1164  storedInfos[position] */\n      dup2\n      sload\n      dup2\n      lt\n      tag_67\n      jumpi\n      tag_68\n      tag_51\n      jump\t// in\n    tag_68:\n    tag_67:\n      swap1\n      0x00\n      mstore\n      keccak256(0x00, 0x20)\n      add\n        /* \"contracts/ejercicio6.sol\":1136:1164  return storedInfos[position] */\n      dup1\n      sload\n      tag_70\n      swap1\n      tag_59\n      jump\t// in\n    tag_70:\n      dup1\n      0x1f\n      add\n      0x20\n      dup1\n      swap2\n      div\n      mul\n      0x20\n      add\n      mload(0x40)\n      swap1\n      dup2\n      add\n      0x40\n      mstore\n      dup1\n      swap3\n      swap2\n      swap1\n      dup2\n      dup2\n      mstore\n      0x20\n      add\n      dup3\n      dup1\n      sload\n      tag_71\n      swap1\n      tag_59\n      jump\t// in\n    tag_71:\n      dup1\n      iszero\n      tag_72\n      jumpi\n      dup1\n      0x1f\n      lt\n      tag_73\n      jumpi\n      0x0100\n      dup1\n      dup4\n      sload\n      div\n      mul\n      dup4\n      mstore\n      swap2\n      0x20\n      add\n      swap2\n      jump(tag_72)\n    tag_73:\n      dup3\n      add\n      swap2\n      swap1\n      0x00\n      mstore\n      keccak256(0x00, 0x20)\n      swap1\n    tag_74:\n      dup2\n      sload\n      dup2\n      mstore\n      swap1\n      0x01\n      add\n      swap1\n      0x20\n      add\n      dup1\n      dup4\n      gt\n      tag_74\n      jumpi\n      dup3\n      swap1\n      sub\n      0x1f\n      and\n      dup3\n      add\n      swap2\n    tag_72:\n      pop\n      pop\n      pop\n      pop\n      pop\n      swap1\n      pop\n        /* \"contracts/ejercicio6.sol\":968:1172  function getOneInfo(uint256 position) external view returns(string memory){... */\n      swap2\n      swap1\n      pop\n      jump\t// out\n        /* \"#utility.yul\":7:82   */\n    tag_75:\n        /* \"#utility.yul\":40:46   */\n      0x00\n        /* \"#utility.yul\":73:75   */\n      0x40\n        /* \"#utility.yul\":67:76   */\n      mload\n        /* \"#utility.yul\":57:76   */\n      swap1\n      pop\n        /* \"#utility.yul\":7:82   */\n      swap1\n      jump\t// out\n        /* \"#utility.yul\":88:205   */\n    tag_76:\n        /* \"#utility.yul\":197:198   */\n      0x00\n        /* \"#utility.yul\":194:195   */\n      0x00\n        /* \"#utility.yul\":187:199   */\n      revert\n        /* \"#utility.yul\":211:328   */\n    tag_77:\n        /* \"#utility.yul\":320:321   */\n      0x00\n        /* \"#utility.yul\":317:318   */\n      0x00\n        /* \"#utility.yul\":310:322   */\n      revert\n        /* \"#utility.yul\":334:451   */\n    tag_78:\n        /* \"#utility.yul\":443:444   */\n      0x00\n        /* \"#utility.yul\":440:441   */\n      0x00\n        /* \"#utility.yul\":433:445   */\n      revert\n        /* \"#utility.yul\":457:574   */\n    tag_79:\n        /* \"#utility.yul\":566:567   */\n      0x00\n        /* \"#utility.yul\":563:564   */\n      0x00\n        /* \"#utility.yul\":556:568   */\n      revert\n        /* \"#utility.yul\":580:682   */\n    tag_80:\n        /* \"#utility.yul\":621:627   */\n      0x00\n        /* \"#utility.yul\":672:674   */\n      0x1f\n        /* \"#utility.yul\":668:675   */\n      not\n        /* \"#utility.yul\":663:665   */\n      0x1f\n        /* \"#utility.yul\":656:661   */\n      dup4\n        /* \"#utility.yul\":652:666   */\n      add\n        /* \"#utility.yul\":648:676   */\n      and\n        /* \"#utility.yul\":638:676   */\n      swap1\n      pop\n        /* \"#utility.yul\":580:682   */\n      swap2\n      swap1\n      pop\n      jump\t// out\n        /* \"#utility.yul\":688:868   */\n    tag_81:\n        /* \"#utility.yul\":736:813   */\n      0x4e487b7100000000000000000000000000000000000000000000000000000000\n        /* \"#utility.yul\":733:734   */\n      0x00\n        /* \"#utility.yul\":726:814   */\n      mstore\n        /* \"#utility.yul\":833:837   */\n      0x41\n        /* \"#utility.yul\":830:831   */\n      0x04\n        /* \"#utility.yul\":823:838   */\n      mstore\n        /* \"#utility.yul\":857:861   */\n      0x24\n        /* \"#utility.yul\":854:855   */\n      0x00\n        /* \"#utility.yul\":847:862   */\n      revert\n        /* \"#utility.yul\":874:1155   */\n    tag_82:\n        /* \"#utility.yul\":957:984   */\n      tag_137\n        /* \"#utility.yul\":979:983   */\n      dup3\n        /* \"#utility.yul\":957:984   */\n      tag_80\n      jump\t// in\n    tag_137:\n        /* \"#utility.yul\":949:955   */\n      dup2\n        /* \"#utility.yul\":945:985   */\n      add\n        /* \"#utility.yul\":1087:1093   */\n      dup2\n        /* \"#utility.yul\":1075:1085   */\n      dup2\n        /* \"#utility.yul\":1072:1094   */\n      lt\n        /* \"#utility.yul\":1051:1069   */\n      0xffffffffffffffff\n        /* \"#utility.yul\":1039:1049   */\n      dup3\n        /* \"#utility.yul\":1036:1070   */\n      gt\n        /* \"#utility.yul\":1033:1095   */\n      or\n        /* \"#utility.yul\":1030:1118   */\n      iszero\n      tag_138\n      jumpi\n        /* \"#utility.yul\":1098:1116   */\n      tag_139\n      tag_81\n      jump\t// in\n    tag_139:\n        /* \"#utility.yul\":1030:1118   */\n    tag_138:\n        /* \"#utility.yul\":1138:1148   */\n      dup1\n        /* \"#utility.yul\":1134:1136   */\n      0x40\n        /* \"#utility.yul\":1127:1149   */\n      mstore\n        /* \"#utility.yul\":917:1155   */\n      pop\n        /* \"#utility.yul\":874:1155   */\n      pop\n      pop\n      jump\t// out\n        /* \"#utility.yul\":1161:1290   */\n    tag_83:\n        /* \"#utility.yul\":1195:1201   */\n      0x00\n        /* \"#utility.yul\":1222:1242   */\n      tag_141\n      tag_75\n      jump\t// in\n    tag_141:\n        /* \"#utility.yul\":1212:1242   */\n      swap1\n      pop\n        /* \"#utility.yul\":1251:1284   */\n      tag_142\n        /* \"#utility.yul\":1279:1283   */\n      dup3\n        /* \"#utility.yul\":1271:1277   */\n      dup3\n        /* \"#utility.yul\":1251:1284   */\n      tag_82\n      jump\t// in\n    tag_142:\n        /* \"#utility.yul\":1161:1290   */\n      swap2\n      swap1\n      pop\n      jump\t// out\n        /* \"#utility.yul\":1296:1604   */\n    tag_84:\n        /* \"#utility.yul\":1358:1362   */\n      0x00\n        /* \"#utility.yul\":1448:1466   */\n      0xffffffffffffffff\n        /* \"#utility.yul\":1440:1446   */\n      dup3\n        /* \"#utility.yul\":1437:1467   */\n      gt\n        /* \"#utility.yul\":1434:1490   */\n      iszero\n      tag_144\n      jumpi\n        /* \"#utility.yul\":1470:1488   */\n      tag_145\n      tag_81\n      jump\t// in\n    tag_145:\n        /* \"#utility.yul\":1434:1490   */\n    tag_144:\n        /* \"#utility.yul\":1508:1537   */\n      tag_146\n        /* \"#utility.yul\":1530:1536   */\n      dup3\n        /* \"#utility.yul\":1508:1537   */\n      tag_80\n      jump\t// in\n    tag_146:\n        /* \"#utility.yul\":1500:1537   */\n      swap1\n      pop\n        /* \"#utility.yul\":1592:1596   */\n      0x20\n        /* \"#utility.yul\":1586:1590   */\n      dup2\n        /* \"#utility.yul\":1582:1597   */\n      add\n        /* \"#utility.yul\":1574:1597   */\n      swap1\n      pop\n        /* \"#utility.yul\":1296:1604   */\n      swap2\n      swap1\n      pop\n      jump\t// out\n        /* \"#utility.yul\":1610:1758   */\n    tag_85:\n        /* \"#utility.yul\":1708:1714   */\n      dup3\n        /* \"#utility.yul\":1703:1706   */\n      dup2\n        /* \"#utility.yul\":1698:1701   */\n      dup4\n        /* \"#utility.yul\":1685:1715   */\n      calldatacopy\n        /* \"#utility.yul\":1749:1750   */\n      0x00\n        /* \"#utility.yul\":1740:1746   */\n      dup4\n        /* \"#utility.yul\":1735:1738   */\n      dup4\n        /* \"#utility.yul\":1731:1747   */\n      add\n        /* \"#utility.yul\":1724:1751   */\n      mstore\n        /* \"#utility.yul\":1610:1758   */\n      pop\n      pop\n      pop\n      jump\t// out\n        /* \"#utility.yul\":1764:2189   */\n    tag_86:\n        /* \"#utility.yul\":1842:1847   */\n      0x00\n        /* \"#utility.yul\":1867:1933   */\n      tag_149\n        /* \"#utility.yul\":1883:1932   */\n      tag_150\n        /* \"#utility.yul\":1925:1931   */\n      dup5\n        /* \"#utility.yul\":1883:1932   */\n      tag_84\n      jump\t// in\n    tag_150:\n        /* \"#utility.yul\":1867:1933   */\n      tag_83\n      jump\t// in\n    tag_149:\n        /* \"#utility.yul\":1858:1933   */\n      swap1\n      pop\n        /* \"#utility.yul\":1956:1962   */\n      dup3\n        /* \"#utility.yul\":1949:1954   */\n      dup2\n        /* \"#utility.yul\":1942:1963   */\n      mstore\n        /* \"#utility.yul\":1994:1998   */\n      0x20\n        /* \"#utility.yul\":1987:1992   */\n      dup2\n        /* \"#utility.yul\":1983:1999   */\n      add\n        /* \"#utility.yul\":2032:2035   */\n      dup5\n        /* \"#utility.yul\":2023:2029   */\n      dup5\n        /* \"#utility.yul\":2018:2021   */\n      dup5\n        /* \"#utility.yul\":2014:2030   */\n      add\n        /* \"#utility.yul\":2011:2036   */\n      gt\n        /* \"#utility.yul\":2008:2120   */\n      iszero\n      tag_151\n      jumpi\n        /* \"#utility.yul\":2039:2118   */\n      tag_152\n      tag_79\n      jump\t// in\n    tag_152:\n        /* \"#utility.yul\":2008:2120   */\n    tag_151:\n        /* \"#utility.yul\":2129:2183   */\n      tag_153\n        /* \"#utility.yul\":2176:2182   */\n      dup5\n        /* \"#utility.yul\":2171:2174   */\n      dup3\n        /* \"#utility.yul\":2166:2169   */\n      dup6\n        /* \"#utility.yul\":2129:2183   */\n      tag_85\n      jump\t// in\n    tag_153:\n        /* \"#utility.yul\":1848:2189   */\n      pop\n        /* \"#utility.yul\":1764:2189   */\n      swap4\n      swap3\n      pop\n      pop\n      pop\n      jump\t// out\n        /* \"#utility.yul\":2209:2549   */\n    tag_87:\n        /* \"#utility.yul\":2265:2270   */\n      0x00\n        /* \"#utility.yul\":2314:2317   */\n      dup3\n        /* \"#utility.yul\":2307:2311   */\n      0x1f\n        /* \"#utility.yul\":2299:2305   */\n      dup4\n        /* \"#utility.yul\":2295:2312   */\n      add\n        /* \"#utility.yul\":2291:2318   */\n      slt\n        /* \"#utility.yul\":2281:2403   */\n      tag_155\n      jumpi\n        /* \"#utility.yul\":2322:2401   */\n      tag_156\n      tag_78\n      jump\t// in\n    tag_156:\n        /* \"#utility.yul\":2281:2403   */\n    tag_155:\n        /* \"#utility.yul\":2439:2445   */\n      dup2\n        /* \"#utility.yul\":2426:2446   */\n      calldataload\n        /* \"#utility.yul\":2464:2543   */\n      tag_157\n        /* \"#utility.yul\":2539:2542   */\n      dup5\n        /* \"#utility.yul\":2531:2537   */\n      dup3\n        /* \"#utility.yul\":2524:2528   */\n      0x20\n        /* \"#utility.yul\":2516:2522   */\n      dup7\n        /* \"#utility.yul\":2512:2529   */\n      add\n        /* \"#utility.yul\":2464:2543   */\n      tag_86\n      jump\t// in\n    tag_157:\n        /* \"#utility.yul\":2455:2543   */\n      swap2\n      pop\n        /* \"#utility.yul\":2271:2549   */\n      pop\n        /* \"#utility.yul\":2209:2549   */\n      swap3\n      swap2\n      pop\n      pop\n      jump\t// out\n        /* \"#utility.yul\":2555:3064   */\n    tag_10:\n        /* \"#utility.yul\":2624:2630   */\n      0x00\n        /* \"#utility.yul\":2673:2675   */\n      0x20\n        /* \"#utility.yul\":2661:2670   */\n      dup3\n        /* \"#utility.yul\":2652:2659   */\n      dup5\n        /* \"#utility.yul\":2648:2671   */\n      sub\n        /* \"#utility.yul\":2644:2676   */\n      slt\n        /* \"#utility.yul\":2641:2760   */\n      iszero\n      tag_159\n      jumpi\n        /* \"#utility.yul\":2679:2758   */\n      tag_160\n      tag_76\n      jump\t// in\n    tag_160:\n        /* \"#utility.yul\":2641:2760   */\n    tag_159:\n        /* \"#utility.yul\":2827:2828   */\n      0x00\n        /* \"#utility.yul\":2816:2825   */\n      dup3\n        /* \"#utility.yul\":2812:2829   */\n      add\n        /* \"#utility.yul\":2799:2830   */\n      calldataload\n        /* \"#utility.yul\":2857:2875   */\n      0xffffffffffffffff\n        /* \"#utility.yul\":2849:2855   */\n      dup2\n        /* \"#utility.yul\":2846:2876   */\n      gt\n        /* \"#utility.yul\":2843:2960   */\n      iszero\n      tag_161\n      jumpi\n        /* \"#utility.yul\":2879:2958   */\n      tag_162\n      tag_77\n      jump\t// in\n    tag_162:\n        /* \"#utility.yul\":2843:2960   */\n    tag_161:\n        /* \"#utility.yul\":2984:3047   */\n      tag_163\n        /* \"#utility.yul\":3039:3046   */\n      dup5\n        /* \"#utility.yul\":3030:3036   */\n      dup3\n        /* \"#utility.yul\":3019:3028   */\n      dup6\n        /* \"#utility.yul\":3015:3037   */\n      add\n        /* \"#utility.yul\":2984:3047   */\n      tag_87\n      jump\t// in\n    tag_163:\n        /* \"#utility.yul\":2974:3047   */\n      swap2\n      pop\n        /* \"#utility.yul\":2770:3057   */\n      pop\n        /* \"#utility.yul\":2555:3064   */\n      swap3\n      swap2\n      pop\n      pop\n      jump\t// out\n        /* \"#utility.yul\":3070:3147   */\n    tag_88:\n        /* \"#utility.yul\":3107:3114   */\n      0x00\n        /* \"#utility.yul\":3136:3141   */\n      dup2\n        /* \"#utility.yul\":3125:3141   */\n      swap1\n      pop\n        /* \"#utility.yul\":3070:3147   */\n      swap2\n      swap1\n      pop\n      jump\t// out\n        /* \"#utility.yul\":3153:3271   */\n    tag_89:\n        /* \"#utility.yul\":3240:3264   */\n      tag_166\n        /* \"#utility.yul\":3258:3263   */\n      dup2\n        /* \"#utility.yul\":3240:3264   */\n      tag_88\n      jump\t// in\n    tag_166:\n        /* \"#utility.yul\":3235:3238   */\n      dup3\n        /* \"#utility.yul\":3228:3265   */\n      mstore\n        /* \"#utility.yul\":3153:3271   */\n      pop\n      pop\n      jump\t// out\n        /* \"#utility.yul\":3277:3499   */\n    tag_13:\n        /* \"#utility.yul\":3370:3374   */\n      0x00\n        /* \"#utility.yul\":3408:3410   */\n      0x20\n        /* \"#utility.yul\":3397:3406   */\n      dup3\n        /* \"#utility.yul\":3393:3411   */\n      add\n        /* \"#utility.yul\":3385:3411   */\n      swap1\n      pop\n        /* \"#utility.yul\":3421:3492   */\n      tag_168\n        /* \"#utility.yul\":3489:3490   */\n      0x00\n        /* \"#utility.yul\":3478:3487   */\n      dup4\n        /* \"#utility.yul\":3474:3491   */\n      add\n        /* \"#utility.yul\":3465:3471   */\n      dup5\n        /* \"#utility.yul\":3421:3492   */\n      tag_89\n      jump\t// in\n    tag_168:\n        /* \"#utility.yul\":3277:3499   */\n      swap3\n      swap2\n      pop\n      pop\n      jump\t// out\n        /* \"#utility.yul\":3505:3627   */\n    tag_90:\n        /* \"#utility.yul\":3578:3602   */\n      tag_170\n        /* \"#utility.yul\":3596:3601   */\n      dup2\n        /* \"#utility.yul\":3578:3602   */\n      tag_88\n      jump\t// in\n    tag_170:\n        /* \"#utility.yul\":3571:3576   */\n      dup2\n        /* \"#utility.yul\":3568:3603   */\n      eq\n        /* \"#utility.yul\":3558:3621   */\n      tag_171\n      jumpi\n        /* \"#utility.yul\":3617:3618   */\n      0x00\n        /* \"#utility.yul\":3614:3615   */\n      0x00\n        /* \"#utility.yul\":3607:3619   */\n      revert\n        /* \"#utility.yul\":3558:3621   */\n    tag_171:\n        /* \"#utility.yul\":3505:3627   */\n      pop\n      jump\t// out\n        /* \"#utility.yul\":3633:3772   */\n    tag_91:\n        /* \"#utility.yul\":3679:3684   */\n      0x00\n        /* \"#utility.yul\":3717:3723   */\n      dup2\n        /* \"#utility.yul\":3704:3724   */\n      calldataload\n        /* \"#utility.yul\":3695:3724   */\n      swap1\n      pop\n        /* \"#utility.yul\":3733:3766   */\n      tag_173\n        /* \"#utility.yul\":3760:3765   */\n      dup2\n        /* \"#utility.yul\":3733:3766   */\n      tag_90\n      jump\t// in\n    tag_173:\n        /* \"#utility.yul\":3633:3772   */\n      swap3\n      swap2\n      pop\n      pop\n      jump\t// out\n        /* \"#utility.yul\":3778:4432   */\n    tag_19:\n        /* \"#utility.yul\":3856:3862   */\n      0x00\n        /* \"#utility.yul\":3864:3870   */\n      0x00\n        /* \"#utility.yul\":3913:3915   */\n      0x40\n        /* \"#utility.yul\":3901:3910   */\n      dup4\n        /* \"#utility.yul\":3892:3899   */\n      dup6\n        /* \"#utility.yul\":3888:3911   */\n      sub\n        /* \"#utility.yul\":3884:3916   */\n      slt\n        /* \"#utility.yul\":3881:4000   */\n      iszero\n      tag_175\n      jumpi\n        /* \"#utility.yul\":3919:3998   */\n      tag_176\n      tag_76\n      jump\t// in\n    tag_176:\n        /* \"#utility.yul\":3881:4000   */\n    tag_175:\n        /* \"#utility.yul\":4039:4040   */\n      0x00\n        /* \"#utility.yul\":4064:4117   */\n      tag_177\n        /* \"#utility.yul\":4109:4116   */\n      dup6\n        /* \"#utility.yul\":4100:4106   */\n      dup3\n        /* \"#utility.yul\":4089:4098   */\n      dup7\n        /* \"#utility.yul\":4085:4107   */\n      add\n        /* \"#utility.yul\":4064:4117   */\n      tag_91\n      jump\t// in\n    tag_177:\n        /* \"#utility.yul\":4054:4117   */\n      swap3\n      pop\n        /* \"#utility.yul\":4010:4127   */\n      pop\n        /* \"#utility.yul\":4194:4196   */\n      0x20\n        /* \"#utility.yul\":4183:4192   */\n      dup4\n        /* \"#utility.yul\":4179:4197   */\n      add\n        /* \"#utility.yul\":4166:4198   */\n      calldataload\n        /* \"#utility.yul\":4225:4243   */\n      0xffffffffffffffff\n        /* \"#utility.yul\":4217:4223   */\n      dup2\n        /* \"#utility.yul\":4214:4244   */\n      gt\n        /* \"#utility.yul\":4211:4328   */\n      iszero\n      tag_178\n      jumpi\n        /* \"#utility.yul\":4247:4326   */\n      tag_179\n      tag_77\n      jump\t// in\n    tag_179:\n        /* \"#utility.yul\":4211:4328   */\n    tag_178:\n        /* \"#utility.yul\":4352:4415   */\n      tag_180\n        /* \"#utility.yul\":4407:4414   */\n      dup6\n        /* \"#utility.yul\":4398:4404   */\n      dup3\n        /* \"#utility.yul\":4387:4396   */\n      dup7\n        /* \"#utility.yul\":4383:4405   */\n      add\n        /* \"#utility.yul\":4352:4415   */\n      tag_87\n      jump\t// in\n    tag_180:\n        /* \"#utility.yul\":4342:4415   */\n      swap2\n      pop\n        /* \"#utility.yul\":4137:4425   */\n      pop\n        /* \"#utility.yul\":3778:4432   */\n      swap3\n      pop\n      swap3\n      swap1\n      pop\n      jump\t// out\n        /* \"#utility.yul\":4438:4562   */\n    tag_92:\n        /* \"#utility.yul\":4515:4521   */\n      0x00\n        /* \"#utility.yul\":4549:4554   */\n      dup2\n        /* \"#utility.yul\":4543:4555   */\n      mload\n        /* \"#utility.yul\":4533:4555   */\n      swap1\n      pop\n        /* \"#utility.yul\":4438:4562   */\n      swap2\n      swap1\n      pop\n      jump\t// out\n        /* \"#utility.yul\":4568:4762   */\n    tag_93:\n        /* \"#utility.yul\":4677:4688   */\n      0x00\n        /* \"#utility.yul\":4711:4717   */\n      dup3\n        /* \"#utility.yul\":4706:4709   */\n      dup3\n        /* \"#utility.yul\":4699:4718   */\n      mstore\n        /* \"#utility.yul\":4751:4755   */\n      0x20\n        /* \"#utility.yul\":4746:4749   */\n      dup3\n        /* \"#utility.yul\":4742:4756   */\n      add\n        /* \"#utility.yul\":4727:4756   */\n      swap1\n      pop\n        /* \"#utility.yul\":4568:4762   */\n      swap3\n      swap2\n      pop\n      pop\n      jump\t// out\n        /* \"#utility.yul\":4768:4910   */\n    tag_94:\n        /* \"#utility.yul\":4845:4849   */\n      0x00\n        /* \"#utility.yul\":4868:4871   */\n      dup2\n        /* \"#utility.yul\":4860:4871   */\n      swap1\n      pop\n        /* \"#utility.yul\":4898:4902   */\n      0x20\n        /* \"#utility.yul\":4893:4896   */\n      dup3\n        /* \"#utility.yul\":4889:4903   */\n      add\n        /* \"#utility.yul\":4881:4903   */\n      swap1\n      pop\n        /* \"#utility.yul\":4768:4910   */\n      swap2\n      swap1\n      pop\n      jump\t// out\n        /* \"#utility.yul\":4916:5015   */\n    tag_95:\n        /* \"#utility.yul\":4968:4974   */\n      0x00\n        /* \"#utility.yul\":5002:5007   */\n      dup2\n        /* \"#utility.yul\":4996:5008   */\n      mload\n        /* \"#utility.yul\":4986:5008   */\n      swap1\n      pop\n        /* \"#utility.yul\":4916:5015   */\n      swap2\n      swap1\n      pop\n      jump\t// out\n        /* \"#utility.yul\":5021:5180   */\n    tag_96:\n        /* \"#utility.yul\":5095:5106   */\n      0x00\n        /* \"#utility.yul\":5129:5135   */\n      dup3\n        /* \"#utility.yul\":5124:5127   */\n      dup3\n        /* \"#utility.yul\":5117:5136   */\n      mstore\n        /* \"#utility.yul\":5169:5173   */\n      0x20\n        /* \"#utility.yul\":5164:5167   */\n      dup3\n        /* \"#utility.yul\":5160:5174   */\n      add\n        /* \"#utility.yul\":5145:5174   */\n      swap1\n      pop\n        /* \"#utility.yul\":5021:5180   */\n      swap3\n      swap2\n      pop\n      pop\n      jump\t// out\n        /* \"#utility.yul\":5186:5325   */\n    tag_97:\n        /* \"#utility.yul\":5275:5281   */\n      dup3\n        /* \"#utility.yul\":5270:5273   */\n      dup2\n        /* \"#utility.yul\":5265:5268   */\n      dup4\n        /* \"#utility.yul\":5259:5282   */\n      mcopy\n        /* \"#utility.yul\":5316:5317   */\n      0x00\n        /* \"#utility.yul\":5307:5313   */\n      dup4\n        /* \"#utility.yul\":5302:5305   */\n      dup4\n        /* \"#utility.yul\":5298:5314   */\n      add\n        /* \"#utility.yul\":5291:5318   */\n      mstore\n        /* \"#utility.yul\":5186:5325   */\n      pop\n      pop\n      pop\n      jump\t// out\n        /* \"#utility.yul\":5331:5688   */\n    tag_98:\n        /* \"#utility.yul\":5409:5412   */\n      0x00\n        /* \"#utility.yul\":5437:5476   */\n      tag_188\n        /* \"#utility.yul\":5470:5475   */\n      dup3\n        /* \"#utility.yul\":5437:5476   */\n      tag_95\n      jump\t// in\n    tag_188:\n        /* \"#utility.yul\":5492:5553   */\n      tag_189\n        /* \"#utility.yul\":5546:5552   */\n      dup2\n        /* \"#utility.yul\":5541:5544   */\n      dup6\n        /* \"#utility.yul\":5492:5553   */\n      tag_96\n      jump\t// in\n    tag_189:\n        /* \"#utility.yul\":5485:5553   */\n      swap4\n      pop\n        /* \"#utility.yul\":5562:5627   */\n      tag_190\n        /* \"#utility.yul\":5620:5626   */\n      dup2\n        /* \"#utility.yul\":5615:5618   */\n      dup6\n        /* \"#utility.yul\":5608:5612   */\n      0x20\n        /* \"#utility.yul\":5601:5606   */\n      dup7\n        /* \"#utility.yul\":5597:5613   */\n      add\n        /* \"#utility.yul\":5562:5627   */\n      tag_97\n      jump\t// in\n    tag_190:\n        /* \"#utility.yul\":5652:5681   */\n      tag_191\n        /* \"#utility.yul\":5674:5680   */\n      dup2\n        /* \"#utility.yul\":5652:5681   */\n      tag_80\n      jump\t// in\n    tag_191:\n        /* \"#utility.yul\":5647:5650   */\n      dup5\n        /* \"#utility.yul\":5643:5682   */\n      add\n        /* \"#utility.yul\":5636:5682   */\n      swap2\n      pop\n        /* \"#utility.yul\":5413:5688   */\n      pop\n        /* \"#utility.yul\":5331:5688   */\n      swap3\n      swap2\n      pop\n      pop\n      jump\t// out\n        /* \"#utility.yul\":5694:5890   */\n    tag_99:\n        /* \"#utility.yul\":5783:5793   */\n      0x00\n        /* \"#utility.yul\":5818:5884   */\n      tag_193\n        /* \"#utility.yul\":5880:5883   */\n      dup4\n        /* \"#utility.yul\":5872:5878   */\n      dup4\n        /* \"#utility.yul\":5818:5884   */\n      tag_98\n      jump\t// in\n    tag_193:\n        /* \"#utility.yul\":5804:5884   */\n      swap1\n      pop\n        /* \"#utility.yul\":5694:5890   */\n      swap3\n      swap2\n      pop\n      pop\n      jump\t// out\n        /* \"#utility.yul\":5896:6019   */\n    tag_100:\n        /* \"#utility.yul\":5976:5980   */\n      0x00\n        /* \"#utility.yul\":6008:6012   */\n      0x20\n        /* \"#utility.yul\":6003:6006   */\n      dup3\n        /* \"#utility.yul\":5999:6013   */\n      add\n        /* \"#utility.yul\":5991:6013   */\n      swap1\n      pop\n        /* \"#utility.yul\":5896:6019   */\n      swap2\n      swap1\n      pop\n      jump\t// out\n        /* \"#utility.yul\":6053:7044   */\n    tag_101:\n        /* \"#utility.yul\":6192:6195   */\n      0x00\n        /* \"#utility.yul\":6221:6285   */\n      tag_196\n        /* \"#utility.yul\":6279:6284   */\n      dup3\n        /* \"#utility.yul\":6221:6285   */\n      tag_92\n      jump\t// in\n    tag_196:\n        /* \"#utility.yul\":6301:6397   */\n      tag_197\n        /* \"#utility.yul\":6390:6396   */\n      dup2\n        /* \"#utility.yul\":6385:6388   */\n      dup6\n        /* \"#utility.yul\":6301:6397   */\n      tag_93\n      jump\t// in\n    tag_197:\n        /* \"#utility.yul\":6294:6397   */\n      swap4\n      pop\n        /* \"#utility.yul\":6423:6426   */\n      dup4\n        /* \"#utility.yul\":6468:6472   */\n      0x20\n        /* \"#utility.yul\":6460:6466   */\n      dup3\n        /* \"#utility.yul\":6456:6473   */\n      mul\n        /* \"#utility.yul\":6451:6454   */\n      dup6\n        /* \"#utility.yul\":6447:6474   */\n      add\n        /* \"#utility.yul\":6498:6564   */\n      tag_198\n        /* \"#utility.yul\":6558:6563   */\n      dup6\n        /* \"#utility.yul\":6498:6564   */\n      tag_94\n      jump\t// in\n    tag_198:\n        /* \"#utility.yul\":6587:6594   */\n      dup1\n        /* \"#utility.yul\":6618:6619   */\n      0x00\n        /* \"#utility.yul\":6603:6999   */\n    tag_199:\n        /* \"#utility.yul\":6628:6634   */\n      dup6\n        /* \"#utility.yul\":6625:6626   */\n      dup2\n        /* \"#utility.yul\":6622:6635   */\n      lt\n        /* \"#utility.yul\":6603:6999   */\n      iszero\n      tag_201\n      jumpi\n        /* \"#utility.yul\":6699:6708   */\n      dup5\n        /* \"#utility.yul\":6693:6697   */\n      dup5\n        /* \"#utility.yul\":6689:6709   */\n      sub\n        /* \"#utility.yul\":6684:6687   */\n      dup10\n        /* \"#utility.yul\":6677:6710   */\n      mstore\n        /* \"#utility.yul\":6750:6756   */\n      dup2\n        /* \"#utility.yul\":6744:6757   */\n      mload\n        /* \"#utility.yul\":6778:6862   */\n      tag_202\n        /* \"#utility.yul\":6857:6861   */\n      dup6\n        /* \"#utility.yul\":6842:6855   */\n      dup3\n        /* \"#utility.yul\":6778:6862   */\n      tag_99\n      jump\t// in\n    tag_202:\n        /* \"#utility.yul\":6770:6862   */\n      swap5\n      pop\n        /* \"#utility.yul\":6885:6955   */\n      tag_203\n        /* \"#utility.yul\":6948:6954   */\n      dup4\n        /* \"#utility.yul\":6885:6955   */\n      tag_100\n      jump\t// in\n    tag_203:\n        /* \"#utility.yul\":6875:6955   */\n      swap3\n      pop\n        /* \"#utility.yul\":6984:6988   */\n      0x20\n        /* \"#utility.yul\":6979:6982   */\n      dup11\n        /* \"#utility.yul\":6975:6989   */\n      add\n        /* \"#utility.yul\":6968:6989   */\n      swap10\n      pop\n        /* \"#utility.yul\":6663:6999   */\n      pop\n        /* \"#utility.yul\":6650:6651   */\n      0x01\n        /* \"#utility.yul\":6647:6648   */\n      dup2\n        /* \"#utility.yul\":6643:6652   */\n      add\n        /* \"#utility.yul\":6638:6652   */\n      swap1\n      pop\n        /* \"#utility.yul\":6603:6999   */\n      jump(tag_199)\n    tag_201:\n        /* \"#utility.yul\":6607:6621   */\n      pop\n        /* \"#utility.yul\":7015:7019   */\n      dup3\n        /* \"#utility.yul\":7008:7019   */\n      swap8\n      pop\n        /* \"#utility.yul\":7035:7038   */\n      dup8\n        /* \"#utility.yul\":7028:7038   */\n      swap6\n      pop\n        /* \"#utility.yul\":6197:7044   */\n      pop\n      pop\n      pop\n      pop\n      pop\n        /* \"#utility.yul\":6053:7044   */\n      swap3\n      swap2\n      pop\n      pop\n      jump\t// out\n        /* \"#utility.yul\":7050:7463   */\n    tag_24:\n        /* \"#utility.yul\":7213:7217   */\n      0x00\n        /* \"#utility.yul\":7251:7253   */\n      0x20\n        /* \"#utility.yul\":7240:7249   */\n      dup3\n        /* \"#utility.yul\":7236:7254   */\n      add\n        /* \"#utility.yul\":7228:7254   */\n      swap1\n      pop\n        /* \"#utility.yul\":7300:7309   */\n      dup2\n        /* \"#utility.yul\":7294:7298   */\n      dup2\n        /* \"#utility.yul\":7290:7310   */\n      sub\n        /* \"#utility.yul\":7286:7287   */\n      0x00\n        /* \"#utility.yul\":7275:7284   */\n      dup4\n        /* \"#utility.yul\":7271:7288   */\n      add\n        /* \"#utility.yul\":7264:7311   */\n      mstore\n        /* \"#utility.yul\":7328:7456   */\n      tag_205\n        /* \"#utility.yul\":7451:7455   */\n      dup2\n        /* \"#utility.yul\":7442:7448   */\n      dup5\n        /* \"#utility.yul\":7328:7456   */\n      tag_101\n      jump\t// in\n    tag_205:\n        /* \"#utility.yul\":7320:7456   */\n      swap1\n      pop\n        /* \"#utility.yul\":7050:7463   */\n      swap3\n      swap2\n      pop\n      pop\n      jump\t// out\n        /* \"#utility.yul\":7469:7798   */\n    tag_27:\n        /* \"#utility.yul\":7528:7534   */\n      0x00\n        /* \"#utility.yul\":7577:7579   */\n      0x20\n        /* \"#utility.yul\":7565:7574   */\n      dup3\n        /* \"#utility.yul\":7556:7563   */\n      dup5\n        /* \"#utility.yul\":7552:7575   */\n      sub\n        /* \"#utility.yul\":7548:7580   */\n      slt\n        /* \"#utility.yul\":7545:7664   */\n      iszero\n      tag_207\n      jumpi\n        /* \"#utility.yul\":7583:7662   */\n      tag_208\n      tag_76\n      jump\t// in\n    tag_208:\n        /* \"#utility.yul\":7545:7664   */\n    tag_207:\n        /* \"#utility.yul\":7703:7704   */\n      0x00\n        /* \"#utility.yul\":7728:7781   */\n      tag_209\n        /* \"#utility.yul\":7773:7780   */\n      dup5\n        /* \"#utility.yul\":7764:7770   */\n      dup3\n        /* \"#utility.yul\":7753:7762   */\n      dup6\n        /* \"#utility.yul\":7749:7771   */\n      add\n        /* \"#utility.yul\":7728:7781   */\n      tag_91\n      jump\t// in\n    tag_209:\n        /* \"#utility.yul\":7718:7781   */\n      swap2\n      pop\n        /* \"#utility.yul\":7674:7791   */\n      pop\n        /* \"#utility.yul\":7469:7798   */\n      swap3\n      swap2\n      pop\n      pop\n      jump\t// out\n        /* \"#utility.yul\":7804:7973   */\n    tag_102:\n        /* \"#utility.yul\":7888:7899   */\n      0x00\n        /* \"#utility.yul\":7922:7928   */\n      dup3\n        /* \"#utility.yul\":7917:7920   */\n      dup3\n        /* \"#utility.yul\":7910:7929   */\n      mstore\n        /* \"#utility.yul\":7962:7966   */\n      0x20\n        /* \"#utility.yul\":7957:7960   */\n      dup3\n        /* \"#utility.yul\":7953:7967   */\n      add\n        /* \"#utility.yul\":7938:7967   */\n      swap1\n      pop\n        /* \"#utility.yul\":7804:7973   */\n      swap3\n      swap2\n      pop\n      pop\n      jump\t// out\n        /* \"#utility.yul\":7979:8356   */\n    tag_103:\n        /* \"#utility.yul\":8067:8070   */\n      0x00\n        /* \"#utility.yul\":8095:8134   */\n      tag_212\n        /* \"#utility.yul\":8128:8133   */\n      dup3\n        /* \"#utility.yul\":8095:8134   */\n      tag_95\n      jump\t// in\n    tag_212:\n        /* \"#utility.yul\":8150:8221   */\n      tag_213\n        /* \"#utility.yul\":8214:8220   */\n      dup2\n        /* \"#utility.yul\":8209:8212   */\n      dup6\n        /* \"#utility.yul\":8150:8221   */\n      tag_102\n      jump\t// in\n    tag_213:\n        /* \"#utility.yul\":8143:8221   */\n      swap4\n      pop\n        /* \"#utility.yul\":8230:8295   */\n      tag_214\n        /* \"#utility.yul\":8288:8294   */\n      dup2\n        /* \"#utility.yul\":8283:8286   */\n      dup6\n        /* \"#utility.yul\":8276:8280   */\n      0x20\n        /* \"#utility.yul\":8269:8274   */\n      dup7\n        /* \"#utility.yul\":8265:8281   */\n      add\n        /* \"#utility.yul\":8230:8295   */\n      tag_97\n      jump\t// in\n    tag_214:\n        /* \"#utility.yul\":8320:8349   */\n      tag_215\n        /* \"#utility.yul\":8342:8348   */\n      dup2\n        /* \"#utility.yul\":8320:8349   */\n      tag_80\n      jump\t// in\n    tag_215:\n        /* \"#utility.yul\":8315:8318   */\n      dup5\n        /* \"#utility.yul\":8311:8350   */\n      add\n        /* \"#utility.yul\":8304:8350   */\n      swap2\n      pop\n        /* \"#utility.yul\":8071:8356   */\n      pop\n        /* \"#utility.yul\":7979:8356   */\n      swap3\n      swap2\n      pop\n      pop\n      jump\t// out\n        /* \"#utility.yul\":8362:8675   */\n    tag_30:\n        /* \"#utility.yul\":8475:8479   */\n      0x00\n        /* \"#utility.yul\":8513:8515   */\n      0x20\n        /* \"#utility.yul\":8502:8511   */\n      dup3\n        /* \"#utility.yul\":8498:8516   */\n      add\n        /* \"#utility.yul\":8490:8516   */\n      swap1\n      pop\n        /* \"#utility.yul\":8562:8571   */\n      dup2\n        /* \"#utility.yul\":8556:8560   */\n      dup2\n        /* \"#utility.yul\":8552:8572   */\n      sub\n        /* \"#utility.yul\":8548:8549   */\n      0x00\n        /* \"#utility.yul\":8537:8546   */\n      dup4\n        /* \"#utility.yul\":8533:8550   */\n      add\n        /* \"#utility.yul\":8526:8573   */\n      mstore\n        /* \"#utility.yul\":8590:8668   */\n      tag_217\n        /* \"#utility.yul\":8663:8667   */\n      dup2\n        /* \"#utility.yul\":8654:8660   */\n      dup5\n        /* \"#utility.yul\":8590:8668   */\n      tag_103\n      jump\t// in\n    tag_217:\n        /* \"#utility.yul\":8582:8668   */\n      swap1\n      pop\n        /* \"#utility.yul\":8362:8675   */\n      swap3\n      swap2\n      pop\n      pop\n      jump\t// out\n        /* \"#utility.yul\":8681:8902   */\n    tag_104:\n        /* \"#utility.yul\":8821:8855   */\n      0x4f6e6c79206f776e65722063616e20706572666f726d20746869732061637469\n        /* \"#utility.yul\":8817:8818   */\n      0x00\n        /* \"#utility.yul\":8809:8815   */\n      dup3\n        /* \"#utility.yul\":8805:8819   */\n      add\n        /* \"#utility.yul\":8798:8856   */\n      mstore\n        /* \"#utility.yul\":8890:8894   */\n      0x6f6e000000000000000000000000000000000000000000000000000000000000\n        /* \"#utility.yul\":8885:8887   */\n      0x20\n        /* \"#utility.yul\":8877:8883   */\n      dup3\n        /* \"#utility.yul\":8873:8888   */\n      add\n        /* \"#utility.yul\":8866:8895   */\n      mstore\n        /* \"#utility.yul\":8681:8902   */\n      pop\n      jump\t// out\n        /* \"#utility.yul\":8908:9274   */\n    tag_105:\n        /* \"#utility.yul\":9050:9053   */\n      0x00\n        /* \"#utility.yul\":9071:9138   */\n      tag_220\n        /* \"#utility.yul\":9135:9137   */\n      0x22\n        /* \"#utility.yul\":9130:9133   */\n      dup4\n        /* \"#utility.yul\":9071:9138   */\n      tag_102\n      jump\t// in\n    tag_220:\n        /* \"#utility.yul\":9064:9138   */\n      swap2\n      pop\n        /* \"#utility.yul\":9147:9240   */\n      tag_221\n        /* \"#utility.yul\":9236:9239   */\n      dup3\n        /* \"#utility.yul\":9147:9240   */\n      tag_104\n      jump\t// in\n    tag_221:\n        /* \"#utility.yul\":9265:9267   */\n      0x40\n        /* \"#utility.yul\":9260:9263   */\n      dup3\n        /* \"#utility.yul\":9256:9268   */\n      add\n        /* \"#utility.yul\":9249:9268   */\n      swap1\n      pop\n        /* \"#utility.yul\":8908:9274   */\n      swap2\n      swap1\n      pop\n      jump\t// out\n        /* \"#utility.yul\":9280:9699   */\n    tag_34:\n        /* \"#utility.yul\":9446:9450   */\n      0x00\n        /* \"#utility.yul\":9484:9486   */\n      0x20\n        /* \"#utility.yul\":9473:9482   */\n      dup3\n        /* \"#utility.yul\":9469:9487   */\n      add\n        /* \"#utility.yul\":9461:9487   */\n      swap1\n      pop\n        /* \"#utility.yul\":9533:9542   */\n      dup2\n        /* \"#utility.yul\":9527:9531   */\n      dup2\n        /* \"#utility.yul\":9523:9543   */\n      sub\n        /* \"#utility.yul\":9519:9520   */\n      0x00\n        /* \"#utility.yul\":9508:9517   */\n      dup4\n        /* \"#utility.yul\":9504:9521   */\n      add\n        /* \"#utility.yul\":9497:9544   */\n      mstore\n        /* \"#utility.yul\":9561:9692   */\n      tag_223\n        /* \"#utility.yul\":9687:9691   */\n      dup2\n        /* \"#utility.yul\":9561:9692   */\n      tag_105\n      jump\t// in\n    tag_223:\n        /* \"#utility.yul\":9553:9692   */\n      swap1\n      pop\n        /* \"#utility.yul\":9280:9699   */\n      swap2\n      swap1\n      pop\n      jump\t// out\n        /* \"#utility.yul\":9705:9831   */\n    tag_106:\n        /* \"#utility.yul\":9742:9749   */\n      0x00\n        /* \"#utility.yul\":9782:9824   */\n      0xffffffffffffffffffffffffffffffffffffffff\n        /* \"#utility.yul\":9775:9780   */\n      dup3\n        /* \"#utility.yul\":9771:9825   */\n      and\n        /* \"#utility.yul\":9760:9825   */\n      swap1\n      pop\n        /* \"#utility.yul\":9705:9831   */\n      swap2\n      swap1\n      pop\n      jump\t// out\n        /* \"#utility.yul\":9837:9933   */\n    tag_107:\n        /* \"#utility.yul\":9874:9881   */\n      0x00\n        /* \"#utility.yul\":9903:9927   */\n      tag_226\n        /* \"#utility.yul\":9921:9926   */\n      dup3\n        /* \"#utility.yul\":9903:9927   */\n      tag_106\n      jump\t// in\n    tag_226:\n        /* \"#utility.yul\":9892:9927   */\n      swap1\n      pop\n        /* \"#utility.yul\":9837:9933   */\n      swap2\n      swap1\n      pop\n      jump\t// out\n        /* \"#utility.yul\":9939:10057   */\n    tag_108:\n        /* \"#utility.yul\":10026:10050   */\n      tag_228\n        /* \"#utility.yul\":10044:10049   */\n      dup2\n        /* \"#utility.yul\":10026:10050   */\n      tag_107\n      jump\t// in\n    tag_228:\n        /* \"#utility.yul\":10021:10024   */\n      dup3\n        /* \"#utility.yul\":10014:10051   */\n      mstore\n        /* \"#utility.yul\":9939:10057   */\n      pop\n      pop\n      jump\t// out\n        /* \"#utility.yul\":10063:10596   */\n    tag_36:\n        /* \"#utility.yul\":10232:10236   */\n      0x00\n        /* \"#utility.yul\":10270:10272   */\n      0x60\n        /* \"#utility.yul\":10259:10268   */\n      dup3\n        /* \"#utility.yul\":10255:10273   */\n      add\n        /* \"#utility.yul\":10247:10273   */\n      swap1\n      pop\n        /* \"#utility.yul\":10283:10354   */\n      tag_230\n        /* \"#utility.yul\":10351:10352   */\n      0x00\n        /* \"#utility.yul\":10340:10349   */\n      dup4\n        /* \"#utility.yul\":10336:10353   */\n      add\n        /* \"#utility.yul\":10327:10333   */\n      dup7\n        /* \"#utility.yul\":10283:10354   */\n      tag_89\n      jump\t// in\n    tag_230:\n        /* \"#utility.yul\":10401:10410   */\n      dup2\n        /* \"#utility.yul\":10395:10399   */\n      dup2\n        /* \"#utility.yul\":10391:10411   */\n      sub\n        /* \"#utility.yul\":10386:10388   */\n      0x20\n        /* \"#utility.yul\":10375:10384   */\n      dup4\n        /* \"#utility.yul\":10371:10389   */\n      add\n        /* \"#utility.yul\":10364:10412   */\n      mstore\n        /* \"#utility.yul\":10429:10507   */\n      tag_231\n        /* \"#utility.yul\":10502:10506   */\n      dup2\n        /* \"#utility.yul\":10493:10499   */\n      dup6\n        /* \"#utility.yul\":10429:10507   */\n      tag_103\n      jump\t// in\n    tag_231:\n        /* \"#utility.yul\":10421:10507   */\n      swap1\n      pop\n        /* \"#utility.yul\":10517:10589   */\n      tag_232\n        /* \"#utility.yul\":10585:10587   */\n      0x40\n        /* \"#utility.yul\":10574:10583   */\n      dup4\n        /* \"#utility.yul\":10570:10588   */\n      add\n        /* \"#utility.yul\":10561:10567   */\n      dup5\n        /* \"#utility.yul\":10517:10589   */\n      tag_108\n      jump\t// in\n    tag_232:\n        /* \"#utility.yul\":10063:10596   */\n      swap5\n      swap4\n      pop\n      pop\n      pop\n      pop\n      jump\t// out\n        /* \"#utility.yul\":10602:10782   */\n    tag_109:\n        /* \"#utility.yul\":10650:10727   */\n      0x4e487b7100000000000000000000000000000000000000000000000000000000\n        /* \"#utility.yul\":10647:10648   */\n      0x00\n        /* \"#utility.yul\":10640:10728   */\n      mstore\n        /* \"#utility.yul\":10747:10751   */\n      0x22\n        /* \"#utility.yul\":10744:10745   */\n      0x04\n        /* \"#utility.yul\":10737:10752   */\n      mstore\n        /* \"#utility.yul\":10771:10775   */\n      0x24\n        /* \"#utility.yul\":10768:10769   */\n      0x00\n        /* \"#utility.yul\":10761:10776   */\n      revert\n        /* \"#utility.yul\":10788:11108   */\n    tag_59:\n        /* \"#utility.yul\":10832:10838   */\n      0x00\n        /* \"#utility.yul\":10869:10870   */\n      0x02\n        /* \"#utility.yul\":10863:10867   */\n      dup3\n        /* \"#utility.yul\":10859:10871   */\n      div\n        /* \"#utility.yul\":10849:10871   */\n      swap1\n      pop\n        /* \"#utility.yul\":10916:10917   */\n      0x01\n        /* \"#utility.yul\":10910:10914   */\n      dup3\n        /* \"#utility.yul\":10906:10918   */\n      and\n        /* \"#utility.yul\":10937:10955   */\n      dup1\n        /* \"#utility.yul\":10927:11008   */\n      tag_235\n      jumpi\n        /* \"#utility.yul\":10993:10997   */\n      0x7f\n        /* \"#utility.yul\":10985:10991   */\n      dup3\n        /* \"#utility.yul\":10981:10998   */\n      and\n        /* \"#utility.yul\":10971:10998   */\n      swap2\n      pop\n        /* \"#utility.yul\":10927:11008   */\n    tag_235:\n        /* \"#utility.yul\":11055:11057   */\n      0x20\n        /* \"#utility.yul\":11047:11053   */\n      dup3\n        /* \"#utility.yul\":11044:11058   */\n      lt\n        /* \"#utility.yul\":11024:11042   */\n      dup2\n        /* \"#utility.yul\":11021:11059   */\n      sub\n        /* \"#utility.yul\":11018:11102   */\n      tag_236\n      jumpi\n        /* \"#utility.yul\":11074:11092   */\n      tag_237\n      tag_109\n      jump\t// in\n    tag_237:\n        /* \"#utility.yul\":11018:11102   */\n    tag_236:\n        /* \"#utility.yul\":10839:11108   */\n      pop\n        /* \"#utility.yul\":10788:11108   */\n      swap2\n      swap1\n      pop\n      jump\t// out\n        /* \"#utility.yul\":11114:11255   */\n    tag_110:\n        /* \"#utility.yul\":11163:11167   */\n      0x00\n        /* \"#utility.yul\":11186:11189   */\n      dup2\n        /* \"#utility.yul\":11178:11189   */\n      swap1\n      pop\n        /* \"#utility.yul\":11209:11212   */\n      dup2\n        /* \"#utility.yul\":11206:11207   */\n      0x00\n        /* \"#utility.yul\":11199:11213   */\n      mstore\n        /* \"#utility.yul\":11243:11247   */\n      0x20\n        /* \"#utility.yul\":11240:11241   */\n      0x00\n        /* \"#utility.yul\":11230:11248   */\n      keccak256\n        /* \"#utility.yul\":11222:11248   */\n      swap1\n      pop\n        /* \"#utility.yul\":11114:11255   */\n      swap2\n      swap1\n      pop\n      jump\t// out\n        /* \"#utility.yul\":11261:11354   */\n    tag_111:\n        /* \"#utility.yul\":11298:11304   */\n      0x00\n        /* \"#utility.yul\":11345:11347   */\n      0x20\n        /* \"#utility.yul\":11340:11342   */\n      0x1f\n        /* \"#utility.yul\":11333:11338   */\n      dup4\n        /* \"#utility.yul\":11329:11343   */\n      add\n        /* \"#utility.yul\":11325:11348   */\n      div\n        /* \"#utility.yul\":11315:11348   */\n      swap1\n      pop\n        /* \"#utility.yul\":11261:11354   */\n      swap2\n      swap1\n      pop\n      jump\t// out\n        /* \"#utility.yul\":11360:11467   */\n    tag_112:\n        /* \"#utility.yul\":11404:11412   */\n      0x00\n        /* \"#utility.yul\":11454:11459   */\n      dup3\n        /* \"#utility.yul\":11448:11452   */\n      dup3\n        /* \"#utility.yul\":11444:11460   */\n      shl\n        /* \"#utility.yul\":11423:11460   */\n      swap1\n      pop\n        /* \"#utility.yul\":11360:11467   */\n      swap3\n      swap2\n      pop\n      pop\n      jump\t// out\n        /* \"#utility.yul\":11473:11866   */\n    tag_113:\n        /* \"#utility.yul\":11542:11548   */\n      0x00\n        /* \"#utility.yul\":11592:11593   */\n      0x08\n        /* \"#utility.yul\":11580:11590   */\n      dup4\n        /* \"#utility.yul\":11576:11594   */\n      mul\n        /* \"#utility.yul\":11615:11712   */\n      tag_242\n        /* \"#utility.yul\":11645:11711   */\n      0xffffffffffffffffffffffffffffffffffffffffffffffffffffffffffffffff\n        /* \"#utility.yul\":11634:11643   */\n      dup3\n        /* \"#utility.yul\":11615:11712   */\n      tag_112\n      jump\t// in\n    tag_242:\n        /* \"#utility.yul\":11733:11772   */\n      tag_243\n        /* \"#utility.yul\":11763:11771   */\n      dup7\n        /* \"#utility.yul\":11752:11761   */\n      dup4\n        /* \"#utility.yul\":11733:11772   */\n      tag_112\n      jump\t// in\n    tag_243:\n        /* \"#utility.yul\":11721:11772   */\n      swap6\n      pop\n        /* \"#utility.yul\":11805:11809   */\n      dup1\n        /* \"#utility.yul\":11801:11810   */\n      not\n        /* \"#utility.yul\":11794:11799   */\n      dup5\n        /* \"#utility.yul\":11790:11811   */\n      and\n        /* \"#utility.yul\":11781:11811   */\n      swap4\n      pop\n        /* \"#utility.yul\":11854:11858   */\n      dup1\n        /* \"#utility.yul\":11844:11852   */\n      dup7\n        /* \"#utility.yul\":11840:11859   */\n      and\n        /* \"#utility.yul\":11833:11838   */\n      dup5\n        /* \"#utility.yul\":11830:11860   */\n      or\n        /* \"#utility.yul\":11820:11860   */\n      swap3\n      pop\n        /* \"#utility.yul\":11549:11866   */\n      pop\n      pop\n        /* \"#utility.yul\":11473:11866   */\n      swap4\n      swap3\n      pop\n      pop\n      pop\n      jump\t// out\n        /* \"#utility.yul\":11872:11932   */\n    tag_114:\n        /* \"#utility.yul\":11900:11903   */\n      0x00\n        /* \"#utility.yul\":11921:11926   */\n      dup2\n        /* \"#utility.yul\":11914:11926   */\n      swap1\n      pop\n        /* \"#utility.yul\":11872:11932   */\n      swap2\n      swap1\n      pop\n      jump\t// out\n        /* \"#utility.yul\":11938:12080   */\n    tag_115:\n        /* \"#utility.yul\":11988:11997   */\n      0x00\n        /* \"#utility.yul\":12021:12074   */\n      tag_246\n        /* \"#utility.yul\":12039:12073   */\n      tag_247\n        /* \"#utility.yul\":12048:12072   */\n      tag_248\n        /* \"#utility.yul\":12066:12071   */\n      dup5\n        /* \"#utility.yul\":12048:12072   */\n      tag_88\n      jump\t// in\n    tag_248:\n        /* \"#utility.yul\":12039:12073   */\n      tag_114\n      jump\t// in\n    tag_247:\n        /* \"#utility.yul\":12021:12074   */\n      tag_88\n      jump\t// in\n    tag_246:\n        /* \"#utility.yul\":12008:12074   */\n      swap1\n      pop\n        /* \"#utility.yul\":11938:12080   */\n      swap2\n      swap1\n      pop\n      jump\t// out\n        /* \"#utility.yul\":12086:12161   */\n    tag_116:\n        /* \"#utility.yul\":12129:12132   */\n      0x00\n        /* \"#utility.yul\":12150:12155   */\n      dup2\n        /* \"#utility.yul\":12143:12155   */\n      swap1\n      pop\n        /* \"#utility.yul\":12086:12161   */\n      swap2\n      swap1\n      pop\n      jump\t// out\n        /* \"#utility.yul\":12167:12436   */\n    tag_117:\n        /* \"#utility.yul\":12277:12316   */\n      tag_251\n        /* \"#utility.yul\":12308:12315   */\n      dup4\n        /* \"#utility.yul\":12277:12316   */\n      tag_115\n      jump\t// in\n    tag_251:\n        /* \"#utility.yul\":12338:12429   */\n      tag_252\n        /* \"#utility.yul\":12387:12428   */\n      tag_253\n        /* \"#utility.yul\":12411:12427   */\n      dup3\n        /* \"#utility.yul\":12387:12428   */\n      tag_116\n      jump\t// in\n    tag_253:\n        /* \"#utility.yul\":12379:12385   */\n      dup5\n        /* \"#utility.yul\":12372:12376   */\n      dup5\n        /* \"#utility.yul\":12366:12377   */\n      sload\n        /* \"#utility.yul\":12338:12429   */\n      tag_113\n      jump\t// in\n    tag_252:\n        /* \"#utility.yul\":12332:12336   */\n      dup3\n        /* \"#utility.yul\":12325:12430   */\n      sstore\n        /* \"#utility.yul\":12243:12436   */\n      pop\n        /* \"#utility.yul\":12167:12436   */\n      pop\n      pop\n      pop\n      jump\t// out\n        /* \"#utility.yul\":12442:12515   */\n    tag_118:\n        /* \"#utility.yul\":12487:12490   */\n      0x00\n        /* \"#utility.yul\":12508:12509   */\n      0x00\n        /* \"#utility.yul\":12501:12509   */\n      swap1\n      pop\n        /* \"#utility.yul\":12442:12515   */\n      swap1\n      jump\t// out\n        /* \"#utility.yul\":12521:12710   */\n    tag_119:\n        /* \"#utility.yul\":12598:12630   */\n      tag_256\n      tag_118\n      jump\t// in\n    tag_256:\n        /* \"#utility.yul\":12639:12704   */\n      tag_257\n        /* \"#utility.yul\":12697:12703   */\n      dup2\n        /* \"#utility.yul\":12689:12695   */\n      dup5\n        /* \"#utility.yul\":12683:12687   */\n      dup5\n        /* \"#utility.yul\":12639:12704   */\n      tag_117\n      jump\t// in\n    tag_257:\n        /* \"#utility.yul\":12574:12710   */\n      pop\n        /* \"#utility.yul\":12521:12710   */\n      pop\n      pop\n      jump\t// out\n        /* \"#utility.yul\":12716:12902   */\n    tag_120:\n        /* \"#utility.yul\":12776:12896   */\n    tag_259:\n        /* \"#utility.yul\":12793:12796   */\n      dup2\n        /* \"#utility.yul\":12786:12791   */\n      dup2\n        /* \"#utility.yul\":12783:12797   */\n      lt\n        /* \"#utility.yul\":12776:12896   */\n      iszero\n      tag_261\n      jumpi\n        /* \"#utility.yul\":12847:12886   */\n      tag_262\n        /* \"#utility.yul\":12884:12885   */\n      0x00\n        /* \"#utility.yul\":12877:12882   */\n      dup3\n        /* \"#utility.yul\":12847:12886   */\n      tag_119\n      jump\t// in\n    tag_262:\n        /* \"#utility.yul\":12820:12821   */\n      0x01\n        /* \"#utility.yul\":12813:12818   */\n      dup2\n        /* \"#utility.yul\":12809:12822   */\n      add\n        /* \"#utility.yul\":12800:12822   */\n      swap1\n      pop\n        /* \"#utility.yul\":12776:12896   */\n      jump(tag_259)\n    tag_261:\n        /* \"#utility.yul\":12716:12902   */\n      pop\n      pop\n      jump\t// out\n        /* \"#utility.yul\":12908:13451   */\n    tag_121:\n        /* \"#utility.yul\":13009:13011   */\n      0x1f\n        /* \"#utility.yul\":13004:13007   */\n      dup3\n        /* \"#utility.yul\":13001:13012   */\n      gt\n        /* \"#utility.yul\":12998:13444   */\n      iszero\n      tag_264\n      jumpi\n        /* \"#utility.yul\":13043:13081   */\n      tag_265\n        /* \"#utility.yul\":13075:13080   */\n      dup2\n        /* \"#utility.yul\":13043:13081   */\n      tag_110\n      jump\t// in\n    tag_265:\n        /* \"#utility.yul\":13127:13156   */\n      tag_266\n        /* \"#utility.yul\":13145:13155   */\n      dup5\n        /* \"#utility.yul\":13127:13156   */\n      tag_111\n      jump\t// in\n    tag_266:\n        /* \"#utility.yul\":13117:13125   */\n      dup2\n        /* \"#utility.yul\":13113:13157   */\n      add\n        /* \"#utility.yul\":13310:13312   */\n      0x20\n        /* \"#utility.yul\":13298:13308   */\n      dup6\n        /* \"#utility.yul\":13295:13313   */\n      lt\n        /* \"#utility.yul\":13292:13341   */\n      iszero\n      tag_267\n      jumpi\n        /* \"#utility.yul\":13331:13339   */\n      dup2\n        /* \"#utility.yul\":13316:13339   */\n      swap1\n      pop\n        /* \"#utility.yul\":13292:13341   */\n    tag_267:\n        /* \"#utility.yul\":13354:13434   */\n      tag_268\n        /* \"#utility.yul\":13410:13432   */\n      tag_269\n        /* \"#utility.yul\":13428:13431   */\n      dup6\n        /* \"#utility.yul\":13410:13432   */\n      tag_111\n      jump\t// in\n    tag_269:\n        /* \"#utility.yul\":13400:13408   */\n      dup4\n        /* \"#utility.yul\":13396:13433   */\n      add\n        /* \"#utility.yul\":13383:13394   */\n      dup3\n        /* \"#utility.yul\":13354:13434   */\n      tag_120\n      jump\t// in\n    tag_268:\n        /* \"#utility.yul\":13013:13444   */\n      pop\n      pop\n        /* \"#utility.yul\":12998:13444   */\n    tag_264:\n        /* \"#utility.yul\":12908:13451   */\n      pop\n      pop\n      pop\n      jump\t// out\n        /* \"#utility.yul\":13457:13574   */\n    tag_122:\n        /* \"#utility.yul\":13511:13519   */\n      0x00\n        /* \"#utility.yul\":13561:13566   */\n      dup3\n        /* \"#utility.yul\":13555:13559   */\n      dup3\n        /* \"#utility.yul\":13551:13567   */\n      shr\n        /* \"#utility.yul\":13530:13567   */\n      swap1\n      pop\n        /* \"#utility.yul\":13457:13574   */\n      swap3\n      swap2\n      pop\n      pop\n      jump\t// out\n        /* \"#utility.yul\":13580:13749   */\n    tag_123:\n        /* \"#utility.yul\":13624:13630   */\n      0x00\n        /* \"#utility.yul\":13657:13708   */\n      tag_272\n        /* \"#utility.yul\":13705:13706   */\n      0x00\n        /* \"#utility.yul\":13701:13707   */\n      not\n        /* \"#utility.yul\":13693:13698   */\n      dup5\n        /* \"#utility.yul\":13690:13691   */\n      0x08\n        /* \"#utility.yul\":13686:13699   */\n      mul\n        /* \"#utility.yul\":13657:13708   */\n      tag_122\n      jump\t// in\n    tag_272:\n        /* \"#utility.yul\":13653:13709   */\n      not\n        /* \"#utility.yul\":13738:13742   */\n      dup1\n        /* \"#utility.yul\":13732:13736   */\n      dup4\n        /* \"#utility.yul\":13728:13743   */\n      and\n        /* \"#utility.yul\":13718:13743   */\n      swap2\n      pop\n        /* \"#utility.yul\":13631:13749   */\n      pop\n        /* \"#utility.yul\":13580:13749   */\n      swap3\n      swap2\n      pop\n      pop\n      jump\t// out\n        /* \"#utility.yul\":13754:14049   */\n    tag_124:\n        /* \"#utility.yul\":13830:13834   */\n      0x00\n        /* \"#utility.yul\":13976:14005   */\n      tag_274\n        /* \"#utility.yul\":14001:14004   */\n      dup4\n        /* \"#utility.yul\":13995:13999   */\n      dup4\n        /* \"#utility.yul\":13976:14005   */\n      tag_123\n      jump\t// in\n    tag_274:\n        /* \"#utility.yul\":13968:14005   */\n      swap2\n      pop\n        /* \"#utility.yul\":14038:14041   */\n      dup3\n        /* \"#utility.yul\":14035:14036   */\n      0x02\n        /* \"#utility.yul\":14031:14042   */\n      mul\n        /* \"#utility.yul\":14025:14029   */\n      dup3\n        /* \"#utility.yul\":14022:14043   */\n      or\n        /* \"#utility.yul\":14014:14043   */\n      swap1\n      pop\n        /* \"#utility.yul\":13754:14049   */\n      swap3\n      swap2\n      pop\n      pop\n      jump\t// out\n        /* \"#utility.yul\":14054:15449   */\n    tag_39:\n        /* \"#utility.yul\":14171:14208   */\n      tag_276\n        /* \"#utility.yul\":14204:14207   */\n      dup3\n        /* \"#utility.yul\":14171:14208   */\n      tag_95\n      jump\t// in\n    tag_276:\n        /* \"#utility.yul\":14273:14291   */\n      0xffffffffffffffff\n        /* \"#utility.yul\":14265:14271   */\n      dup2\n        /* \"#utility.yul\":14262:14292   */\n      gt\n        /* \"#utility.yul\":14259:14315   */\n      iszero\n      tag_277\n      jumpi\n        /* \"#utility.yul\":14295:14313   */\n      tag_278\n      tag_81\n      jump\t// in\n    tag_278:\n        /* \"#utility.yul\":14259:14315   */\n    tag_277:\n        /* \"#utility.yul\":14339:14377   */\n      tag_279\n        /* \"#utility.yul\":14371:14375   */\n      dup3\n        /* \"#utility.yul\":14365:14376   */\n      sload\n        /* \"#utility.yul\":14339:14377   */\n      tag_59\n      jump\t// in\n    tag_279:\n        /* \"#utility.yul\":14424:14491   */\n      tag_280\n        /* \"#utility.yul\":14484:14490   */\n      dup3\n        /* \"#utility.yul\":14476:14482   */\n      dup3\n        /* \"#utility.yul\":14470:14474   */\n      dup6\n        /* \"#utility.yul\":14424:14491   */\n      tag_121\n      jump\t// in\n    tag_280:\n        /* \"#utility.yul\":14518:14519   */\n      0x00\n        /* \"#utility.yul\":14542:14546   */\n      0x20\n        /* \"#utility.yul\":14529:14546   */\n      swap1\n      pop\n        /* \"#utility.yul\":14574:14576   */\n      0x1f\n        /* \"#utility.yul\":14566:14572   */\n      dup4\n        /* \"#utility.yul\":14563:14577   */\n      gt\n        /* \"#utility.yul\":14591:14592   */\n      0x01\n        /* \"#utility.yul\":14586:15204   */\n      dup2\n      eq\n      tag_282\n      jumpi\n        /* \"#utility.yul\":15248:15249   */\n      0x00\n        /* \"#utility.yul\":15265:15271   */\n      dup5\n        /* \"#utility.yul\":15262:15339   */\n      iszero\n      tag_283\n      jumpi\n        /* \"#utility.yul\":15314:15323   */\n      dup3\n        /* \"#utility.yul\":15309:15312   */\n      dup8\n        /* \"#utility.yul\":15305:15324   */\n      add\n        /* \"#utility.yul\":15299:15325   */\n      mload\n        /* \"#utility.yul\":15290:15325   */\n      swap1\n      pop\n        /* \"#utility.yul\":15262:15339   */\n    tag_283:\n        /* \"#utility.yul\":15365:15432   */\n      tag_284\n        /* \"#utility.yul\":15425:15431   */\n      dup6\n        /* \"#utility.yul\":15418:15423   */\n      dup3\n        /* \"#utility.yul\":15365:15432   */\n      tag_124\n      jump\t// in\n    tag_284:\n        /* \"#utility.yul\":15359:15363   */\n      dup7\n        /* \"#utility.yul\":15352:15433   */\n      sstore\n        /* \"#utility.yul\":15221:15443   */\n      pop\n        /* \"#utility.yul\":14556:15443   */\n      jump(tag_281)\n        /* \"#utility.yul\":14586:15204   */\n    tag_282:\n        /* \"#utility.yul\":14638:14642   */\n      0x1f\n        /* \"#utility.yul\":14634:14643   */\n      not\n        /* \"#utility.yul\":14626:14632   */\n      dup5\n        /* \"#utility.yul\":14622:14644   */\n      and\n        /* \"#utility.yul\":14672:14709   */\n      tag_285\n        /* \"#utility.yul\":14704:14708   */\n      dup7\n        /* \"#utility.yul\":14672:14709   */\n      tag_110\n      jump\t// in\n    tag_285:\n        /* \"#utility.yul\":14731:14732   */\n      0x00\n        /* \"#utility.yul\":14745:14953   */\n    tag_286:\n        /* \"#utility.yul\":14759:14766   */\n      dup3\n        /* \"#utility.yul\":14756:14757   */\n      dup2\n        /* \"#utility.yul\":14753:14767   */\n      lt\n        /* \"#utility.yul\":14745:14953   */\n      iszero\n      tag_288\n      jumpi\n        /* \"#utility.yul\":14838:14847   */\n      dup5\n        /* \"#utility.yul\":14833:14836   */\n      dup10\n        /* \"#utility.yul\":14829:14848   */\n      add\n        /* \"#utility.yul\":14823:14849   */\n      mload\n        /* \"#utility.yul\":14815:14821   */\n      dup3\n        /* \"#utility.yul\":14808:14850   */\n      sstore\n        /* \"#utility.yul\":14889:14890   */\n      0x01\n        /* \"#utility.yul\":14881:14887   */\n      dup3\n        /* \"#utility.yul\":14877:14891   */\n      add\n        /* \"#utility.yul\":14867:14891   */\n      swap2\n      pop\n        /* \"#utility.yul\":14936:14938   */\n      0x20\n        /* \"#utility.yul\":14925:14934   */\n      dup6\n        /* \"#utility.yul\":14921:14939   */\n      add\n        /* \"#utility.yul\":14908:14939   */\n      swap5\n      pop\n        /* \"#utility.yul\":14782:14786   */\n      0x20\n        /* \"#utility.yul\":14779:14780   */\n      dup2\n        /* \"#utility.yul\":14775:14787   */\n      add\n        /* \"#utility.yul\":14770:14787   */\n      swap1\n      pop\n        /* \"#utility.yul\":14745:14953   */\n      jump(tag_286)\n    tag_288:\n        /* \"#utility.yul\":14981:14987   */\n      dup7\n        /* \"#utility.yul\":14972:14979   */\n      dup4\n        /* \"#utility.yul\":14969:14988   */\n      lt\n        /* \"#utility.yul\":14966:15145   */\n      iszero\n      tag_289\n      jumpi\n        /* \"#utility.yul\":15039:15048   */\n      dup5\n        /* \"#utility.yul\":15034:15037   */\n      dup10\n        /* \"#utility.yul\":15030:15049   */\n      add\n        /* \"#utility.yul\":15024:15050   */\n      mload\n        /* \"#utility.yul\":15082:15130   */\n      tag_290\n        /* \"#utility.yul\":15124:15128   */\n      0x1f\n        /* \"#utility.yul\":15116:15122   */\n      dup10\n        /* \"#utility.yul\":15112:15129   */\n      and\n        /* \"#utility.yul\":15101:15110   */\n      dup3\n        /* \"#utility.yul\":15082:15130   */\n      tag_123\n      jump\t// in\n    tag_290:\n        /* \"#utility.yul\":15074:15080   */\n      dup4\n        /* \"#utility.yul\":15067:15131   */\n      sstore\n        /* \"#utility.yul\":14989:15145   */\n      pop\n        /* \"#utility.yul\":14966:15145   */\n    tag_289:\n        /* \"#utility.yul\":15191:15192   */\n      0x01\n        /* \"#utility.yul\":15187:15188   */\n      0x02\n        /* \"#utility.yul\":15179:15185   */\n      dup9\n        /* \"#utility.yul\":15175:15189   */\n      mul\n        /* \"#utility.yul\":15171:15193   */\n      add\n        /* \"#utility.yul\":15165:15169   */\n      dup9\n        /* \"#utility.yul\":15158:15194   */\n      sstore\n        /* \"#utility.yul\":14593:15204   */\n      pop\n      pop\n      pop\n        /* \"#utility.yul\":14556:15443   */\n    tag_281:\n      pop\n        /* \"#utility.yul\":14146:15449   */\n      pop\n      pop\n      pop\n        /* \"#utility.yul\":14054:15449   */\n      pop\n      pop\n      jump\t// out\n        /* \"#utility.yul\":15455:15635   */\n    tag_125:\n        /* \"#utility.yul\":15503:15580   */\n      0x4e487b7100000000000000000000000000000000000000000000000000000000\n        /* \"#utility.yul\":15500:15501   */\n      0x00\n        /* \"#utility.yul\":15493:15581   */\n      mstore\n        /* \"#utility.yul\":15600:15604   */\n      0x11\n        /* \"#utility.yul\":15597:15598   */\n      0x04\n        /* \"#utility.yul\":15590:15605   */\n      mstore\n        /* \"#utility.yul\":15624:15628   */\n      0x24\n        /* \"#utility.yul\":15621:15622   */\n      0x00\n        /* \"#utility.yul\":15614:15629   */\n      revert\n        /* \"#utility.yul\":15641:15835   */\n    tag_41:\n        /* \"#utility.yul\":15681:15685   */\n      0x00\n        /* \"#utility.yul\":15701:15721   */\n      tag_293\n        /* \"#utility.yul\":15719:15720   */\n      dup3\n        /* \"#utility.yul\":15701:15721   */\n      tag_88\n      jump\t// in\n    tag_293:\n        /* \"#utility.yul\":15696:15721   */\n      swap2\n      pop\n        /* \"#utility.yul\":15735:15755   */\n      tag_294\n        /* \"#utility.yul\":15753:15754   */\n      dup4\n        /* \"#utility.yul\":15735:15755   */\n      tag_88\n      jump\t// in\n    tag_294:\n        /* \"#utility.yul\":15730:15755   */\n      swap3\n      pop\n        /* \"#utility.yul\":15779:15780   */\n      dup3\n        /* \"#utility.yul\":15776:15777   */\n      dup3\n        /* \"#utility.yul\":15772:15781   */\n      sub\n        /* \"#utility.yul\":15764:15781   */\n      swap1\n      pop\n        /* \"#utility.yul\":15803:15804   */\n      dup2\n        /* \"#utility.yul\":15797:15801   */\n      dup2\n        /* \"#utility.yul\":15794:15805   */\n      gt\n        /* \"#utility.yul\":15791:15828   */\n      iszero\n      tag_295\n      jumpi\n        /* \"#utility.yul\":15808:15826   */\n      tag_296\n      tag_125\n      jump\t// in\n    tag_296:\n        /* \"#utility.yul\":15791:15828   */\n    tag_295:\n        /* \"#utility.yul\":15641:15835   */\n      swap3\n      swap2\n      pop\n      pop\n      jump\t// out\n        /* \"#utility.yul\":15841:16074   */\n    tag_43:\n        /* \"#utility.yul\":15880:15883   */\n      0x00\n        /* \"#utility.yul\":15903:15927   */\n      tag_298\n        /* \"#utility.yul\":15921:15926   */\n      dup3\n        /* \"#utility.yul\":15903:15927   */\n      tag_88\n      jump\t// in\n    tag_298:\n        /* \"#utility.yul\":15894:15927   */\n      swap2\n      pop\n        /* \"#utility.yul\":15949:16015   */\n      0xffffffffffffffffffffffffffffffffffffffffffffffffffffffffffffffff\n        /* \"#utility.yul\":15942:15947   */\n      dup3\n        /* \"#utility.yul\":15939:16016   */\n      sub\n        /* \"#utility.yul\":15936:16039   */\n      tag_299\n      jumpi\n        /* \"#utility.yul\":16019:16037   */\n      tag_300\n      tag_125\n      jump\t// in\n    tag_300:\n        /* \"#utility.yul\":15936:16039   */\n    tag_299:\n        /* \"#utility.yul\":16066:16067   */\n      0x01\n        /* \"#utility.yul\":16059:16064   */\n      dup3\n        /* \"#utility.yul\":16055:16068   */\n      add\n        /* \"#utility.yul\":16048:16068   */\n      swap1\n      pop\n        /* \"#utility.yul\":15841:16074   */\n      swap2\n      swap1\n      pop\n      jump\t// out\n        /* \"#utility.yul\":16080:16260   */\n    tag_126:\n        /* \"#utility.yul\":16220:16252   */\n      0x4e6f207375636820706f736974696f6e20696e207468652061727261792e0000\n        /* \"#utility.yul\":16216:16217   */\n      0x00\n        /* \"#utility.yul\":16208:16214   */\n      dup3\n        /* \"#utility.yul\":16204:16218   */\n      add\n        /* \"#utility.yul\":16197:16253   */\n      mstore\n        /* \"#utility.yul\":16080:16260   */\n      pop\n      jump\t// out\n        /* \"#utility.yul\":16266:16632   */\n    tag_127:\n        /* \"#utility.yul\":16408:16411   */\n      0x00\n        /* \"#utility.yul\":16429:16496   */\n      tag_303\n        /* \"#utility.yul\":16493:16495   */\n      0x1e\n        /* \"#utility.yul\":16488:16491   */\n      dup4\n        /* \"#utility.yul\":16429:16496   */\n      tag_102\n      jump\t// in\n    tag_303:\n        /* \"#utility.yul\":16422:16496   */\n      swap2\n      pop\n        /* \"#utility.yul\":16505:16598   */\n      tag_304\n        /* \"#utility.yul\":16594:16597   */\n      dup3\n        /* \"#utility.yul\":16505:16598   */\n      tag_126\n      jump\t// in\n    tag_304:\n        /* \"#utility.yul\":16623:16625   */\n      0x20\n        /* \"#utility.yul\":16618:16621   */\n      dup3\n        /* \"#utility.yul\":16614:16626   */\n      add\n        /* \"#utility.yul\":16607:16626   */\n      swap1\n      pop\n        /* \"#utility.yul\":16266:16632   */\n      swap2\n      swap1\n      pop\n      jump\t// out\n        /* \"#utility.yul\":16638:17057   */\n    tag_47:\n        /* \"#utility.yul\":16804:16808   */\n      0x00\n        /* \"#utility.yul\":16842:16844   */\n      0x20\n        /* \"#utility.yul\":16831:16840   */\n      dup3\n        /* \"#utility.yul\":16827:16845   */\n      add\n        /* \"#utility.yul\":16819:16845   */\n      swap1\n      pop\n        /* \"#utility.yul\":16891:16900   */\n      dup2\n        /* \"#utility.yul\":16885:16889   */\n      dup2\n        /* \"#utility.yul\":16881:16901   */\n      sub\n        /* \"#utility.yul\":16877:16878   */\n      0x00\n        /* \"#utility.yul\":16866:16875   */\n      dup4\n        /* \"#utility.yul\":16862:16879   */\n      add\n        /* \"#utility.yul\":16855:16902   */\n      mstore\n        /* \"#utility.yul\":16919:17050   */\n      tag_306\n        /* \"#utility.yul\":17045:17049   */\n      dup2\n        /* \"#utility.yul\":16919:17050   */\n      tag_127\n      jump\t// in\n    tag_306:\n        /* \"#utility.yul\":16911:17050   */\n      swap1\n      pop\n        /* \"#utility.yul\":16638:17057   */\n      swap2\n      swap1\n      pop\n      jump\t// out\n        /* \"#utility.yul\":17063:17243   */\n    tag_51:\n        /* \"#utility.yul\":17111:17188   */\n      0x4e487b7100000000000000000000000000000000000000000000000000000000\n        /* \"#utility.yul\":17108:17109   */\n      0x00\n        /* \"#utility.yul\":17101:17189   */\n      mstore\n        /* \"#utility.yul\":17208:17212   */\n      0x32\n        /* \"#utility.yul\":17205:17206   */\n      0x04\n        /* \"#utility.yul\":17198:17213   */\n      mstore\n        /* \"#utility.yul\":17232:17236   */\n      0x24\n        /* \"#utility.yul\":17229:17230   */\n      0x00\n        /* \"#utility.yul\":17222:17237   */\n      revert\n\n    auxdata: 0xa264697066735822122027f179cbc46c350bf5e523a87b3cf99375bb51907c6d254bb66fb728a98d7df464736f6c634300081e0033\n}\n",
				"bytecode": {
					"linkReferences": {},
					"object": "60806040525f6001553480156012575f5ffd5b503360025f6101000a81548173ffffffffffffffffffffffffffffffffffffffff021916908373ffffffffffffffffffffffffffffffffffffffff160217905550610e1b806100605f395ff3fe608060405234801561000f575f5ffd5b5060043610610055575f3560e01c80630bf803e4146100595780632af2bc271461008957806350c00197146100a75780635a9b0b89146100c357806394b1a5bc146100e1575b5f5ffd5b610073600480360381019061006e919061060a565b610111565b6040516100809190610669565b60405180910390f35b610091610245565b60405161009e9190610669565b60405180910390f35b6100c160048036038101906100bc91906106ac565b61024b565b005b6100cb6102f9565b6040516100d89190610821565b60405180910390f35b6100fb60048036038101906100f69190610841565b6103cc565b60405161010891906108b4565b60405180910390f35b5f3373ffffffffffffffffffffffffffffffffffffffff1660025f9054906101000a900473ffffffffffffffffffffffffffffffffffffffff1673ffffffffffffffffffffffffffffffffffffffff16146101a1576040517f08c379a000000000000000000000000000000000000000000000000000000000815260040161019890610944565b60405180910390fd5b5f5f8054905090507f08b992eed17b037bc0eb3b239f559bc789f9d0c50710c107fb1ef0b40edea46d8184336040516101dc939291906109a1565b60405180910390a15f83908060018154018082558091505060019003905f5260205f20015f9091909190915090816102149190610bda565b5060015f805490506102269190610cd6565b915060015f81548092919061023a90610d09565b919050555050919050565b60015481565b5f805490508210610291576040517f08c379a000000000000000000000000000000000000000000000000000000000815260040161028890610d9a565b60405180910390fd5b7f08b992eed17b037bc0eb3b239f559bc789f9d0c50710c107fb1ef0b40edea46d8282336040516102c4939291906109a1565b60405180910390a1805f83815481106102e0576102df610db8565b5b905f5260205f200190816102f49190610bda565b505050565b60605f805480602002602001604051908101604052809291908181526020015f905b828210156103c3578382905f5260205f2001805461033890610a0a565b80601f016020809104026020016040519081016040528092919081815260200182805461036490610a0a565b80156103af5780601f10610386576101008083540402835291602001916103af565b820191905f5260205f20905b81548152906001019060200180831161039257829003601f168201915b50505050508152602001906001019061031b565b50505050905090565b60605f805490508210610414576040517f08c379a000000000000000000000000000000000000000000000000000000000815260040161040b90610d9a565b60405180910390fd5b5f828154811061042757610426610db8565b5b905f5260205f2001805461043a90610a0a565b80601f016020809104026020016040519081016040528092919081815260200182805461046690610a0a565b80156104b15780601f10610488576101008083540402835291602001916104b1565b820191905f5260205f20905b81548152906001019060200180831161049457829003601f168201915b50505050509050919050565b5f604051905090565b5f5ffd5b5f5ffd5b5f5ffd5b5f5ffd5b5f601f19601f8301169050919050565b7f4e487b71000000000000000000000000000000000000000000000000000000005f52604160045260245ffd5b61051c826104d6565b810181811067ffffffffffffffff8211171561053b5761053a6104e6565b5b80604052505050565b5f61054d6104bd565b90506105598282610513565b919050565b5f67ffffffffffffffff821115610578576105776104e6565b5b610581826104d6565b9050602081019050919050565b828183375f83830152505050565b5f6105ae6105a98461055e565b610544565b9050828152602081018484840111156105ca576105c96104d2565b5b6105d584828561058e565b509392505050565b5f82601f8301126105f1576105f06104ce565b5b813561060184826020860161059c565b91505092915050565b5f6020828403121561061f5761061e6104c6565b5b5f82013567ffffffffffffffff81111561063c5761063b6104ca565b5b610648848285016105dd565b91505092915050565b5f819050919050565b61066381610651565b82525050565b5f60208201905061067c5f83018461065a565b92915050565b61068b81610651565b8114610695575f5ffd5b50565b5f813590506106a681610682565b92915050565b5f5f604083850312156106c2576106c16104c6565b5b5f6106cf85828601610698565b925050602083013567ffffffffffffffff8111156106f0576106ef6104ca565b5b6106fc858286016105dd565b9150509250929050565b5f81519050919050565b5f82825260208201905092915050565b5f819050602082019050919050565b5f81519050919050565b5f82825260208201905092915050565b8281835e5f83830152505050565b5f6107618261072f565b61076b8185610739565b935061077b818560208601610749565b610784816104d6565b840191505092915050565b5f61079a8383610757565b905092915050565b5f602082019050919050565b5f6107b882610706565b6107c28185610710565b9350836020820285016107d485610720565b805f5b8581101561080f57848403895281516107f0858261078f565b94506107fb836107a2565b925060208a019950506001810190506107d7565b50829750879550505050505092915050565b5f6020820190508181035f83015261083981846107ae565b905092915050565b5f60208284031215610856576108556104c6565b5b5f61086384828501610698565b91505092915050565b5f82825260208201905092915050565b5f6108868261072f565b610890818561086c565b93506108a0818560208601610749565b6108a9816104d6565b840191505092915050565b5f6020820190508181035f8301526108cc818461087c565b905092915050565b7f4f6e6c79206f776e65722063616e20706572666f726d207468697320616374695f8201527f6f6e000000000000000000000000000000000000000000000000000000000000602082015250565b5f61092e60228361086c565b9150610939826108d4565b604082019050919050565b5f6020820190508181035f83015261095b81610922565b9050919050565b5f73ffffffffffffffffffffffffffffffffffffffff82169050919050565b5f61098b82610962565b9050919050565b61099b81610981565b82525050565b5f6060820190506109b45f83018661065a565b81810360208301526109c6818561087c565b90506109d56040830184610992565b949350505050565b7f4e487b71000000000000000000000000000000000000000000000000000000005f52602260045260245ffd5b5f6002820490506001821680610a2157607f821691505b602082108103610a3457610a336109dd565b5b50919050565b5f819050815f5260205f209050919050565b5f6020601f8301049050919050565b5f82821b905092915050565b5f60088302610a967fffffffffffffffffffffffffffffffffffffffffffffffffffffffffffffffff82610a5b565b610aa08683610a5b565b95508019841693508086168417925050509392505050565b5f819050919050565b5f610adb610ad6610ad184610651565b610ab8565b610651565b9050919050565b5f819050919050565b610af483610ac1565b610b08610b0082610ae2565b848454610a67565b825550505050565b5f5f905090565b610b1f610b10565b610b2a818484610aeb565b505050565b5b81811015610b4d57610b425f82610b17565b600181019050610b30565b5050565b601f821115610b9257610b6381610a3a565b610b6c84610a4c565b81016020851015610b7b578190505b610b8f610b8785610a4c565b830182610b2f565b50505b505050565b5f82821c905092915050565b5f610bb25f1984600802610b97565b1980831691505092915050565b5f610bca8383610ba3565b9150826002028217905092915050565b610be38261072f565b67ffffffffffffffff811115610bfc57610bfb6104e6565b5b610c068254610a0a565b610c11828285610b51565b5f60209050601f831160018114610c42575f8415610c30578287015190505b610c3a8582610bbf565b865550610ca1565b601f198416610c5086610a3a565b5f5b82811015610c7757848901518255600182019150602085019450602081019050610c52565b86831015610c945784890151610c90601f891682610ba3565b8355505b6001600288020188555050505b505050505050565b7f4e487b71000000000000000000000000000000000000000000000000000000005f52601160045260245ffd5b5f610ce082610651565b9150610ceb83610651565b9250828203905081811115610d0357610d02610ca9565b5b92915050565b5f610d1382610651565b91507fffffffffffffffffffffffffffffffffffffffffffffffffffffffffffffffff8203610d4557610d44610ca9565b5b600182019050919050565b7f4e6f207375636820706f736974696f6e20696e207468652061727261792e00005f82015250565b5f610d84601e8361086c565b9150610d8f82610d50565b602082019050919050565b5f6020820190508181035f830152610db181610d78565b9050919050565b7f4e487b71000000000000000000000000000000000000000000000000000000005f52603260045260245ffdfea264697066735822122027f179cbc46c350bf5e523a87b3cf99375bb51907c6d254bb66fb728a98d7df464736f6c634300081e0033",
					"opcodes": "PUSH1 0x80 PUSH1 0x40 MSTORE PUSH0 PUSH1 0x1 SSTORE CALLVALUE DUP1 ISZERO PUSH1 0x12 JUMPI PUSH0 PUSH0 REVERT JUMPDEST POP CALLER PUSH1 0x2 PUSH0 PUSH2 0x100 EXP DUP2 SLOAD DUP2 PUSH20 0xFFFFFFFFFFFFFFFFFFFFFFFFFFFFFFFFFFFFFFFF MUL NOT AND SWAP1 DUP4 PUSH20 0xFFFFFFFFFFFFFFFFFFFFFFFFFFFFFFFFFFFFFFFF AND MUL OR SWAP1 SSTORE POP PUSH2 0xE1B DUP1 PUSH2 0x60 PUSH0 CODECOPY PUSH0 RETURN INVALID PUSH1 0x80 PUSH1 0x40 MSTORE CALLVALUE DUP1 ISZERO PUSH2 0xF JUMPI PUSH0 PUSH0 REVERT JUMPDEST POP PUSH1 0x4 CALLDATASIZE LT PUSH2 0x55 JUMPI PUSH0 CALLDATALOAD PUSH1 0xE0 SHR DUP1 PUSH4 0xBF803E4 EQ PUSH2 0x59 JUMPI DUP1 PUSH4 0x2AF2BC27 EQ PUSH2 0x89 JUMPI DUP1 PUSH4 0x50C00197 EQ PUSH2 0xA7 JUMPI DUP1 PUSH4 0x5A9B0B89 EQ PUSH2 0xC3 JUMPI DUP1 PUSH4 0x94B1A5BC EQ PUSH2 0xE1 JUMPI JUMPDEST PUSH0 PUSH0 REVERT JUMPDEST PUSH2 0x73 PUSH1 0x4 DUP1 CALLDATASIZE SUB DUP2 ADD SWAP1 PUSH2 0x6E SWAP2 SWAP1 PUSH2 0x60A JUMP JUMPDEST PUSH2 0x111 JUMP JUMPDEST PUSH1 0x40 MLOAD PUSH2 0x80 SWAP2 SWAP1 PUSH2 0x669 JUMP JUMPDEST PUSH1 0x40 MLOAD DUP1 SWAP2 SUB SWAP1 RETURN JUMPDEST PUSH2 0x91 PUSH2 0x245 JUMP JUMPDEST PUSH1 0x40 MLOAD PUSH2 0x9E SWAP2 SWAP1 PUSH2 0x669 JUMP JUMPDEST PUSH1 0x40 MLOAD DUP1 SWAP2 SUB SWAP1 RETURN JUMPDEST PUSH2 0xC1 PUSH1 0x4 DUP1 CALLDATASIZE SUB DUP2 ADD SWAP1 PUSH2 0xBC SWAP2 SWAP1 PUSH2 0x6AC JUMP JUMPDEST PUSH2 0x24B JUMP JUMPDEST STOP JUMPDEST PUSH2 0xCB PUSH2 0x2F9 JUMP JUMPDEST PUSH1 0x40 MLOAD PUSH2 0xD8 SWAP2 SWAP1 PUSH2 0x821 JUMP JUMPDEST PUSH1 0x40 MLOAD DUP1 SWAP2 SUB SWAP1 RETURN JUMPDEST PUSH2 0xFB PUSH1 0x4 DUP1 CALLDATASIZE SUB DUP2 ADD SWAP1 PUSH2 0xF6 SWAP2 SWAP1 PUSH2 0x841 JUMP JUMPDEST PUSH2 0x3CC JUMP JUMPDEST PUSH1 0x40 MLOAD PUSH2 0x108 SWAP2 SWAP1 PUSH2 0x8B4 JUMP JUMPDEST PUSH1 0x40 MLOAD DUP1 SWAP2 SUB SWAP1 RETURN JUMPDEST PUSH0 CALLER PUSH20 0xFFFFFFFFFFFFFFFFFFFFFFFFFFFFFFFFFFFFFFFF AND PUSH1 0x2 PUSH0 SWAP1 SLOAD SWAP1 PUSH2 0x100 EXP SWAP1 DIV PUSH20 0xFFFFFFFFFFFFFFFFFFFFFFFFFFFFFFFFFFFFFFFF AND PUSH20 0xFFFFFFFFFFFFFFFFFFFFFFFFFFFFFFFFFFFFFFFF AND EQ PUSH2 0x1A1 JUMPI PUSH1 0x40 MLOAD PUSH32 0x8C379A000000000000000000000000000000000000000000000000000000000 DUP2 MSTORE PUSH1 0x4 ADD PUSH2 0x198 SWAP1 PUSH2 0x944 JUMP JUMPDEST PUSH1 0x40 MLOAD DUP1 SWAP2 SUB SWAP1 REVERT JUMPDEST PUSH0 PUSH0 DUP1 SLOAD SWAP1 POP SWAP1 POP PUSH32 0x8B992EED17B037BC0EB3B239F559BC789F9D0C50710C107FB1EF0B40EDEA46D DUP2 DUP5 CALLER PUSH1 0x40 MLOAD PUSH2 0x1DC SWAP4 SWAP3 SWAP2 SWAP1 PUSH2 0x9A1 JUMP JUMPDEST PUSH1 0x40 MLOAD DUP1 SWAP2 SUB SWAP1 LOG1 PUSH0 DUP4 SWAP1 DUP1 PUSH1 0x1 DUP2 SLOAD ADD DUP1 DUP3 SSTORE DUP1 SWAP2 POP POP PUSH1 0x1 SWAP1 SUB SWAP1 PUSH0 MSTORE PUSH1 0x20 PUSH0 KECCAK256 ADD PUSH0 SWAP1 SWAP2 SWAP1 SWAP2 SWAP1 SWAP2 POP SWAP1 DUP2 PUSH2 0x214 SWAP2 SWAP1 PUSH2 0xBDA JUMP JUMPDEST POP PUSH1 0x1 PUSH0 DUP1 SLOAD SWAP1 POP PUSH2 0x226 SWAP2 SWAP1 PUSH2 0xCD6 JUMP JUMPDEST SWAP2 POP PUSH1 0x1 PUSH0 DUP2 SLOAD DUP1 SWAP3 SWAP2 SWAP1 PUSH2 0x23A SWAP1 PUSH2 0xD09 JUMP JUMPDEST SWAP2 SWAP1 POP SSTORE POP POP SWAP2 SWAP1 POP JUMP JUMPDEST PUSH1 0x1 SLOAD DUP2 JUMP JUMPDEST PUSH0 DUP1 SLOAD SWAP1 POP DUP3 LT PUSH2 0x291 JUMPI PUSH1 0x40 MLOAD PUSH32 0x8C379A000000000000000000000000000000000000000000000000000000000 DUP2 MSTORE PUSH1 0x4 ADD PUSH2 0x288 SWAP1 PUSH2 0xD9A JUMP JUMPDEST PUSH1 0x40 MLOAD DUP1 SWAP2 SUB SWAP1 REVERT JUMPDEST PUSH32 0x8B992EED17B037BC0EB3B239F559BC789F9D0C50710C107FB1EF0B40EDEA46D DUP3 DUP3 CALLER PUSH1 0x40 MLOAD PUSH2 0x2C4 SWAP4 SWAP3 SWAP2 SWAP1 PUSH2 0x9A1 JUMP JUMPDEST PUSH1 0x40 MLOAD DUP1 SWAP2 SUB SWAP1 LOG1 DUP1 PUSH0 DUP4 DUP2 SLOAD DUP2 LT PUSH2 0x2E0 JUMPI PUSH2 0x2DF PUSH2 0xDB8 JUMP JUMPDEST JUMPDEST SWAP1 PUSH0 MSTORE PUSH1 0x20 PUSH0 KECCAK256 ADD SWAP1 DUP2 PUSH2 0x2F4 SWAP2 SWAP1 PUSH2 0xBDA JUMP JUMPDEST POP POP POP JUMP JUMPDEST PUSH1 0x60 PUSH0 DUP1 SLOAD DUP1 PUSH1 0x20 MUL PUSH1 0x20 ADD PUSH1 0x40 MLOAD SWAP1 DUP2 ADD PUSH1 0x40 MSTORE DUP1 SWAP3 SWAP2 SWAP1 DUP2 DUP2 MSTORE PUSH1 0x20 ADD PUSH0 SWAP1 JUMPDEST DUP3 DUP3 LT ISZERO PUSH2 0x3C3 JUMPI DUP4 DUP3 SWAP1 PUSH0 MSTORE PUSH1 0x20 PUSH0 KECCAK256 ADD DUP1 SLOAD PUSH2 0x338 SWAP1 PUSH2 0xA0A JUMP JUMPDEST DUP1 PUSH1 0x1F ADD PUSH1 0x20 DUP1 SWAP2 DIV MUL PUSH1 0x20 ADD PUSH1 0x40 MLOAD SWAP1 DUP2 ADD PUSH1 0x40 MSTORE DUP1 SWAP3 SWAP2 SWAP1 DUP2 DUP2 MSTORE PUSH1 0x20 ADD DUP3 DUP1 SLOAD PUSH2 0x364 SWAP1 PUSH2 0xA0A JUMP JUMPDEST DUP1 ISZERO PUSH2 0x3AF JUMPI DUP1 PUSH1 0x1F LT PUSH2 0x386 JUMPI PUSH2 0x100 DUP1 DUP4 SLOAD DIV MUL DUP4 MSTORE SWAP2 PUSH1 0x20 ADD SWAP2 PUSH2 0x3AF JUMP JUMPDEST DUP3 ADD SWAP2 SWAP1 PUSH0 MSTORE PUSH1 0x20 PUSH0 KECCAK256 SWAP1 JUMPDEST DUP2 SLOAD DUP2 MSTORE SWAP1 PUSH1 0x1 ADD SWAP1 PUSH1 0x20 ADD DUP1 DUP4 GT PUSH2 0x392 JUMPI DUP3 SWAP1 SUB PUSH1 0x1F AND DUP3 ADD SWAP2 JUMPDEST POP POP POP POP POP DUP2 MSTORE PUSH1 0x20 ADD SWAP1 PUSH1 0x1 ADD SWAP1 PUSH2 0x31B JUMP JUMPDEST POP POP POP POP SWAP1 POP SWAP1 JUMP JUMPDEST PUSH1 0x60 PUSH0 DUP1 SLOAD SWAP1 POP DUP3 LT PUSH2 0x414 JUMPI PUSH1 0x40 MLOAD PUSH32 0x8C379A000000000000000000000000000000000000000000000000000000000 DUP2 MSTORE PUSH1 0x4 ADD PUSH2 0x40B SWAP1 PUSH2 0xD9A JUMP JUMPDEST PUSH1 0x40 MLOAD DUP1 SWAP2 SUB SWAP1 REVERT JUMPDEST PUSH0 DUP3 DUP2 SLOAD DUP2 LT PUSH2 0x427 JUMPI PUSH2 0x426 PUSH2 0xDB8 JUMP JUMPDEST JUMPDEST SWAP1 PUSH0 MSTORE PUSH1 0x20 PUSH0 KECCAK256 ADD DUP1 SLOAD PUSH2 0x43A SWAP1 PUSH2 0xA0A JUMP JUMPDEST DUP1 PUSH1 0x1F ADD PUSH1 0x20 DUP1 SWAP2 DIV MUL PUSH1 0x20 ADD PUSH1 0x40 MLOAD SWAP1 DUP2 ADD PUSH1 0x40 MSTORE DUP1 SWAP3 SWAP2 SWAP1 DUP2 DUP2 MSTORE PUSH1 0x20 ADD DUP3 DUP1 SLOAD PUSH2 0x466 SWAP1 PUSH2 0xA0A JUMP JUMPDEST DUP1 ISZERO PUSH2 0x4B1 JUMPI DUP1 PUSH1 0x1F LT PUSH2 0x488 JUMPI PUSH2 0x100 DUP1 DUP4 SLOAD DIV MUL DUP4 MSTORE SWAP2 PUSH1 0x20 ADD SWAP2 PUSH2 0x4B1 JUMP JUMPDEST DUP3 ADD SWAP2 SWAP1 PUSH0 MSTORE PUSH1 0x20 PUSH0 KECCAK256 SWAP1 JUMPDEST DUP2 SLOAD DUP2 MSTORE SWAP1 PUSH1 0x1 ADD SWAP1 PUSH1 0x20 ADD DUP1 DUP4 GT PUSH2 0x494 JUMPI DUP3 SWAP1 SUB PUSH1 0x1F AND DUP3 ADD SWAP2 JUMPDEST POP POP POP POP POP SWAP1 POP SWAP2 SWAP1 POP JUMP JUMPDEST PUSH0 PUSH1 0x40 MLOAD SWAP1 POP SWAP1 JUMP JUMPDEST PUSH0 PUSH0 REVERT JUMPDEST PUSH0 PUSH0 REVERT JUMPDEST PUSH0 PUSH0 REVERT JUMPDEST PUSH0 PUSH0 REVERT JUMPDEST PUSH0 PUSH1 0x1F NOT PUSH1 0x1F DUP4 ADD AND SWAP1 POP SWAP2 SWAP1 POP JUMP JUMPDEST PUSH32 0x4E487B7100000000000000000000000000000000000000000000000000000000 PUSH0 MSTORE PUSH1 0x41 PUSH1 0x4 MSTORE PUSH1 0x24 PUSH0 REVERT JUMPDEST PUSH2 0x51C DUP3 PUSH2 0x4D6 JUMP JUMPDEST DUP2 ADD DUP2 DUP2 LT PUSH8 0xFFFFFFFFFFFFFFFF DUP3 GT OR ISZERO PUSH2 0x53B JUMPI PUSH2 0x53A PUSH2 0x4E6 JUMP JUMPDEST JUMPDEST DUP1 PUSH1 0x40 MSTORE POP POP POP JUMP JUMPDEST PUSH0 PUSH2 0x54D PUSH2 0x4BD JUMP JUMPDEST SWAP1 POP PUSH2 0x559 DUP3 DUP3 PUSH2 0x513 JUMP JUMPDEST SWAP2 SWAP1 POP JUMP JUMPDEST PUSH0 PUSH8 0xFFFFFFFFFFFFFFFF DUP3 GT ISZERO PUSH2 0x578 JUMPI PUSH2 0x577 PUSH2 0x4E6 JUMP JUMPDEST JUMPDEST PUSH2 0x581 DUP3 PUSH2 0x4D6 JUMP JUMPDEST SWAP1 POP PUSH1 0x20 DUP2 ADD SWAP1 POP SWAP2 SWAP1 POP JUMP JUMPDEST DUP3 DUP2 DUP4 CALLDATACOPY PUSH0 DUP4 DUP4 ADD MSTORE POP POP POP JUMP JUMPDEST PUSH0 PUSH2 0x5AE PUSH2 0x5A9 DUP5 PUSH2 0x55E JUMP JUMPDEST PUSH2 0x544 JUMP JUMPDEST SWAP1 POP DUP3 DUP2 MSTORE PUSH1 0x20 DUP2 ADD DUP5 DUP5 DUP5 ADD GT ISZERO PUSH2 0x5CA JUMPI PUSH2 0x5C9 PUSH2 0x4D2 JUMP JUMPDEST JUMPDEST PUSH2 0x5D5 DUP5 DUP3 DUP6 PUSH2 0x58E JUMP JUMPDEST POP SWAP4 SWAP3 POP POP POP JUMP JUMPDEST PUSH0 DUP3 PUSH1 0x1F DUP4 ADD SLT PUSH2 0x5F1 JUMPI PUSH2 0x5F0 PUSH2 0x4CE JUMP JUMPDEST JUMPDEST DUP2 CALLDATALOAD PUSH2 0x601 DUP5 DUP3 PUSH1 0x20 DUP7 ADD PUSH2 0x59C JUMP JUMPDEST SWAP2 POP POP SWAP3 SWAP2 POP POP JUMP JUMPDEST PUSH0 PUSH1 0x20 DUP3 DUP5 SUB SLT ISZERO PUSH2 0x61F JUMPI PUSH2 0x61E PUSH2 0x4C6 JUMP JUMPDEST JUMPDEST PUSH0 DUP3 ADD CALLDATALOAD PUSH8 0xFFFFFFFFFFFFFFFF DUP2 GT ISZERO PUSH2 0x63C JUMPI PUSH2 0x63B PUSH2 0x4CA JUMP JUMPDEST JUMPDEST PUSH2 0x648 DUP5 DUP3 DUP6 ADD PUSH2 0x5DD JUMP JUMPDEST SWAP2 POP POP SWAP3 SWAP2 POP POP JUMP JUMPDEST PUSH0 DUP2 SWAP1 POP SWAP2 SWAP1 POP JUMP JUMPDEST PUSH2 0x663 DUP2 PUSH2 0x651 JUMP JUMPDEST DUP3 MSTORE POP POP JUMP JUMPDEST PUSH0 PUSH1 0x20 DUP3 ADD SWAP1 POP PUSH2 0x67C PUSH0 DUP4 ADD DUP5 PUSH2 0x65A JUMP JUMPDEST SWAP3 SWAP2 POP POP JUMP JUMPDEST PUSH2 0x68B DUP2 PUSH2 0x651 JUMP JUMPDEST DUP2 EQ PUSH2 0x695 JUMPI PUSH0 PUSH0 REVERT JUMPDEST POP JUMP JUMPDEST PUSH0 DUP2 CALLDATALOAD SWAP1 POP PUSH2 0x6A6 DUP2 PUSH2 0x682 JUMP JUMPDEST SWAP3 SWAP2 POP POP JUMP JUMPDEST PUSH0 PUSH0 PUSH1 0x40 DUP4 DUP6 SUB SLT ISZERO PUSH2 0x6C2 JUMPI PUSH2 0x6C1 PUSH2 0x4C6 JUMP JUMPDEST JUMPDEST PUSH0 PUSH2 0x6CF DUP6 DUP3 DUP7 ADD PUSH2 0x698 JUMP JUMPDEST SWAP3 POP POP PUSH1 0x20 DUP4 ADD CALLDATALOAD PUSH8 0xFFFFFFFFFFFFFFFF DUP2 GT ISZERO PUSH2 0x6F0 JUMPI PUSH2 0x6EF PUSH2 0x4CA JUMP JUMPDEST JUMPDEST PUSH2 0x6FC DUP6 DUP3 DUP7 ADD PUSH2 0x5DD JUMP JUMPDEST SWAP2 POP POP SWAP3 POP SWAP3 SWAP1 POP JUMP JUMPDEST PUSH0 DUP2 MLOAD SWAP1 POP SWAP2 SWAP1 POP JUMP JUMPDEST PUSH0 DUP3 DUP3 MSTORE PUSH1 0x20 DUP3 ADD SWAP1 POP SWAP3 SWAP2 POP POP JUMP JUMPDEST PUSH0 DUP2 SWAP1 POP PUSH1 0x20 DUP3 ADD SWAP1 POP SWAP2 SWAP1 POP JUMP JUMPDEST PUSH0 DUP2 MLOAD SWAP1 POP SWAP2 SWAP1 POP JUMP JUMPDEST PUSH0 DUP3 DUP3 MSTORE PUSH1 0x20 DUP3 ADD SWAP1 POP SWAP3 SWAP2 POP POP JUMP JUMPDEST DUP3 DUP2 DUP4 MCOPY PUSH0 DUP4 DUP4 ADD MSTORE POP POP POP JUMP JUMPDEST PUSH0 PUSH2 0x761 DUP3 PUSH2 0x72F JUMP JUMPDEST PUSH2 0x76B DUP2 DUP6 PUSH2 0x739 JUMP JUMPDEST SWAP4 POP PUSH2 0x77B DUP2 DUP6 PUSH1 0x20 DUP7 ADD PUSH2 0x749 JUMP JUMPDEST PUSH2 0x784 DUP2 PUSH2 0x4D6 JUMP JUMPDEST DUP5 ADD SWAP2 POP POP SWAP3 SWAP2 POP POP JUMP JUMPDEST PUSH0 PUSH2 0x79A DUP4 DUP4 PUSH2 0x757 JUMP JUMPDEST SWAP1 POP SWAP3 SWAP2 POP POP JUMP JUMPDEST PUSH0 PUSH1 0x20 DUP3 ADD SWAP1 POP SWAP2 SWAP1 POP JUMP JUMPDEST PUSH0 PUSH2 0x7B8 DUP3 PUSH2 0x706 JUMP JUMPDEST PUSH2 0x7C2 DUP2 DUP6 PUSH2 0x710 JUMP JUMPDEST SWAP4 POP DUP4 PUSH1 0x20 DUP3 MUL DUP6 ADD PUSH2 0x7D4 DUP6 PUSH2 0x720 JUMP JUMPDEST DUP1 PUSH0 JUMPDEST DUP6 DUP2 LT ISZERO PUSH2 0x80F JUMPI DUP5 DUP5 SUB DUP10 MSTORE DUP2 MLOAD PUSH2 0x7F0 DUP6 DUP3 PUSH2 0x78F JUMP JUMPDEST SWAP5 POP PUSH2 0x7FB DUP4 PUSH2 0x7A2 JUMP JUMPDEST SWAP3 POP PUSH1 0x20 DUP11 ADD SWAP10 POP POP PUSH1 0x1 DUP2 ADD SWAP1 POP PUSH2 0x7D7 JUMP JUMPDEST POP DUP3 SWAP8 POP DUP8 SWAP6 POP POP POP POP POP POP SWAP3 SWAP2 POP POP JUMP JUMPDEST PUSH0 PUSH1 0x20 DUP3 ADD SWAP1 POP DUP2 DUP2 SUB PUSH0 DUP4 ADD MSTORE PUSH2 0x839 DUP2 DUP5 PUSH2 0x7AE JUMP JUMPDEST SWAP1 POP SWAP3 SWAP2 POP POP JUMP JUMPDEST PUSH0 PUSH1 0x20 DUP3 DUP5 SUB SLT ISZERO PUSH2 0x856 JUMPI PUSH2 0x855 PUSH2 0x4C6 JUMP JUMPDEST JUMPDEST PUSH0 PUSH2 0x863 DUP5 DUP3 DUP6 ADD PUSH2 0x698 JUMP JUMPDEST SWAP2 POP POP SWAP3 SWAP2 POP POP JUMP JUMPDEST PUSH0 DUP3 DUP3 MSTORE PUSH1 0x20 DUP3 ADD SWAP1 POP SWAP3 SWAP2 POP POP JUMP JUMPDEST PUSH0 PUSH2 0x886 DUP3 PUSH2 0x72F JUMP JUMPDEST PUSH2 0x890 DUP2 DUP6 PUSH2 0x86C JUMP JUMPDEST SWAP4 POP PUSH2 0x8A0 DUP2 DUP6 PUSH1 0x20 DUP7 ADD PUSH2 0x749 JUMP JUMPDEST PUSH2 0x8A9 DUP2 PUSH2 0x4D6 JUMP JUMPDEST DUP5 ADD SWAP2 POP POP SWAP3 SWAP2 POP POP JUMP JUMPDEST PUSH0 PUSH1 0x20 DUP3 ADD SWAP1 POP DUP2 DUP2 SUB PUSH0 DUP4 ADD MSTORE PUSH2 0x8CC DUP2 DUP5 PUSH2 0x87C JUMP JUMPDEST SWAP1 POP SWAP3 SWAP2 POP POP JUMP JUMPDEST PUSH32 0x4F6E6C79206F776E65722063616E20706572666F726D20746869732061637469 PUSH0 DUP3 ADD MSTORE PUSH32 0x6F6E000000000000000000000000000000000000000000000000000000000000 PUSH1 0x20 DUP3 ADD MSTORE POP JUMP JUMPDEST PUSH0 PUSH2 0x92E PUSH1 0x22 DUP4 PUSH2 0x86C JUMP JUMPDEST SWAP2 POP PUSH2 0x939 DUP3 PUSH2 0x8D4 JUMP JUMPDEST PUSH1 0x40 DUP3 ADD SWAP1 POP SWAP2 SWAP1 POP JUMP JUMPDEST PUSH0 PUSH1 0x20 DUP3 ADD SWAP1 POP DUP2 DUP2 SUB PUSH0 DUP4 ADD MSTORE PUSH2 0x95B DUP2 PUSH2 0x922 JUMP JUMPDEST SWAP1 POP SWAP2 SWAP1 POP JUMP JUMPDEST PUSH0 PUSH20 0xFFFFFFFFFFFFFFFFFFFFFFFFFFFFFFFFFFFFFFFF DUP3 AND SWAP1 POP SWAP2 SWAP1 POP JUMP JUMPDEST PUSH0 PUSH2 0x98B DUP3 PUSH2 0x962 JUMP JUMPDEST SWAP1 POP SWAP2 SWAP1 POP JUMP JUMPDEST PUSH2 0x99B DUP2 PUSH2 0x981 JUMP JUMPDEST DUP3 MSTORE POP POP JUMP JUMPDEST PUSH0 PUSH1 0x60 DUP3 ADD SWAP1 POP PUSH2 0x9B4 PUSH0 DUP4 ADD DUP7 PUSH2 0x65A JUMP JUMPDEST DUP2 DUP2 SUB PUSH1 0x20 DUP4 ADD MSTORE PUSH2 0x9C6 DUP2 DUP6 PUSH2 0x87C JUMP JUMPDEST SWAP1 POP PUSH2 0x9D5 PUSH1 0x40 DUP4 ADD DUP5 PUSH2 0x992 JUMP JUMPDEST SWAP5 SWAP4 POP POP POP POP JUMP JUMPDEST PUSH32 0x4E487B7100000000000000000000000000000000000000000000000000000000 PUSH0 MSTORE PUSH1 0x22 PUSH1 0x4 MSTORE PUSH1 0x24 PUSH0 REVERT JUMPDEST PUSH0 PUSH1 0x2 DUP3 DIV SWAP1 POP PUSH1 0x1 DUP3 AND DUP1 PUSH2 0xA21 JUMPI PUSH1 0x7F DUP3 AND SWAP2 POP JUMPDEST PUSH1 0x20 DUP3 LT DUP2 SUB PUSH2 0xA34 JUMPI PUSH2 0xA33 PUSH2 0x9DD JUMP JUMPDEST JUMPDEST POP SWAP2 SWAP1 POP JUMP JUMPDEST PUSH0 DUP2 SWAP1 POP DUP2 PUSH0 MSTORE PUSH1 0x20 PUSH0 KECCAK256 SWAP1 POP SWAP2 SWAP1 POP JUMP JUMPDEST PUSH0 PUSH1 0x20 PUSH1 0x1F DUP4 ADD DIV SWAP1 POP SWAP2 SWAP1 POP JUMP JUMPDEST PUSH0 DUP3 DUP3 SHL SWAP1 POP SWAP3 SWAP2 POP POP JUMP JUMPDEST PUSH0 PUSH1 0x8 DUP4 MUL PUSH2 0xA96 PUSH32 0xFFFFFFFFFFFFFFFFFFFFFFFFFFFFFFFFFFFFFFFFFFFFFFFFFFFFFFFFFFFFFFFF DUP3 PUSH2 0xA5B JUMP JUMPDEST PUSH2 0xAA0 DUP7 DUP4 PUSH2 0xA5B JUMP JUMPDEST SWAP6 POP DUP1 NOT DUP5 AND SWAP4 POP DUP1 DUP7 AND DUP5 OR SWAP3 POP POP POP SWAP4 SWAP3 POP POP POP JUMP JUMPDEST PUSH0 DUP2 SWAP1 POP SWAP2 SWAP1 POP JUMP JUMPDEST PUSH0 PUSH2 0xADB PUSH2 0xAD6 PUSH2 0xAD1 DUP5 PUSH2 0x651 JUMP JUMPDEST PUSH2 0xAB8 JUMP JUMPDEST PUSH2 0x651 JUMP JUMPDEST SWAP1 POP SWAP2 SWAP1 POP JUMP JUMPDEST PUSH0 DUP2 SWAP1 POP SWAP2 SWAP1 POP JUMP JUMPDEST PUSH2 0xAF4 DUP4 PUSH2 0xAC1 JUMP JUMPDEST PUSH2 0xB08 PUSH2 0xB00 DUP3 PUSH2 0xAE2 JUMP JUMPDEST DUP5 DUP5 SLOAD PUSH2 0xA67 JUMP JUMPDEST DUP3 SSTORE POP POP POP POP JUMP JUMPDEST PUSH0 PUSH0 SWAP1 POP SWAP1 JUMP JUMPDEST PUSH2 0xB1F PUSH2 0xB10 JUMP JUMPDEST PUSH2 0xB2A DUP2 DUP5 DUP5 PUSH2 0xAEB JUMP JUMPDEST POP POP POP JUMP JUMPDEST JUMPDEST DUP2 DUP2 LT ISZERO PUSH2 0xB4D JUMPI PUSH2 0xB42 PUSH0 DUP3 PUSH2 0xB17 JUMP JUMPDEST PUSH1 0x1 DUP2 ADD SWAP1 POP PUSH2 0xB30 JUMP JUMPDEST POP POP JUMP JUMPDEST PUSH1 0x1F DUP3 GT ISZERO PUSH2 0xB92 JUMPI PUSH2 0xB63 DUP2 PUSH2 0xA3A JUMP JUMPDEST PUSH2 0xB6C DUP5 PUSH2 0xA4C JUMP JUMPDEST DUP2 ADD PUSH1 0x20 DUP6 LT ISZERO PUSH2 0xB7B JUMPI DUP2 SWAP1 POP JUMPDEST PUSH2 0xB8F PUSH2 0xB87 DUP6 PUSH2 0xA4C JUMP JUMPDEST DUP4 ADD DUP3 PUSH2 0xB2F JUMP JUMPDEST POP POP JUMPDEST POP POP POP JUMP JUMPDEST PUSH0 DUP3 DUP3 SHR SWAP1 POP SWAP3 SWAP2 POP POP JUMP JUMPDEST PUSH0 PUSH2 0xBB2 PUSH0 NOT DUP5 PUSH1 0x8 MUL PUSH2 0xB97 JUMP JUMPDEST NOT DUP1 DUP4 AND SWAP2 POP POP SWAP3 SWAP2 POP POP JUMP JUMPDEST PUSH0 PUSH2 0xBCA DUP4 DUP4 PUSH2 0xBA3 JUMP JUMPDEST SWAP2 POP DUP3 PUSH1 0x2 MUL DUP3 OR SWAP1 POP SWAP3 SWAP2 POP POP JUMP JUMPDEST PUSH2 0xBE3 DUP3 PUSH2 0x72F JUMP JUMPDEST PUSH8 0xFFFFFFFFFFFFFFFF DUP2 GT ISZERO PUSH2 0xBFC JUMPI PUSH2 0xBFB PUSH2 0x4E6 JUMP JUMPDEST JUMPDEST PUSH2 0xC06 DUP3 SLOAD PUSH2 0xA0A JUMP JUMPDEST PUSH2 0xC11 DUP3 DUP3 DUP6 PUSH2 0xB51 JUMP JUMPDEST PUSH0 PUSH1 0x20 SWAP1 POP PUSH1 0x1F DUP4 GT PUSH1 0x1 DUP2 EQ PUSH2 0xC42 JUMPI PUSH0 DUP5 ISZERO PUSH2 0xC30 JUMPI DUP3 DUP8 ADD MLOAD SWAP1 POP JUMPDEST PUSH2 0xC3A DUP6 DUP3 PUSH2 0xBBF JUMP JUMPDEST DUP7 SSTORE POP PUSH2 0xCA1 JUMP JUMPDEST PUSH1 0x1F NOT DUP5 AND PUSH2 0xC50 DUP7 PUSH2 0xA3A JUMP JUMPDEST PUSH0 JUMPDEST DUP3 DUP2 LT ISZERO PUSH2 0xC77 JUMPI DUP5 DUP10 ADD MLOAD DUP3 SSTORE PUSH1 0x1 DUP3 ADD SWAP2 POP PUSH1 0x20 DUP6 ADD SWAP5 POP PUSH1 0x20 DUP2 ADD SWAP1 POP PUSH2 0xC52 JUMP JUMPDEST DUP7 DUP4 LT ISZERO PUSH2 0xC94 JUMPI DUP5 DUP10 ADD MLOAD PUSH2 0xC90 PUSH1 0x1F DUP10 AND DUP3 PUSH2 0xBA3 JUMP JUMPDEST DUP4 SSTORE POP JUMPDEST PUSH1 0x1 PUSH1 0x2 DUP9 MUL ADD DUP9 SSTORE POP POP POP JUMPDEST POP POP POP POP POP POP JUMP JUMPDEST PUSH32 0x4E487B7100000000000000000000000000000000000000000000000000000000 PUSH0 MSTORE PUSH1 0x11 PUSH1 0x4 MSTORE PUSH1 0x24 PUSH0 REVERT JUMPDEST PUSH0 PUSH2 0xCE0 DUP3 PUSH2 0x651 JUMP JUMPDEST SWAP2 POP PUSH2 0xCEB DUP4 PUSH2 0x651 JUMP JUMPDEST SWAP3 POP DUP3 DUP3 SUB SWAP1 POP DUP2 DUP2 GT ISZERO PUSH2 0xD03 JUMPI PUSH2 0xD02 PUSH2 0xCA9 JUMP JUMPDEST JUMPDEST SWAP3 SWAP2 POP POP JUMP JUMPDEST PUSH0 PUSH2 0xD13 DUP3 PUSH2 0x651 JUMP JUMPDEST SWAP2 POP PUSH32 0xFFFFFFFFFFFFFFFFFFFFFFFFFFFFFFFFFFFFFFFFFFFFFFFFFFFFFFFFFFFFFFFF DUP3 SUB PUSH2 0xD45 JUMPI PUSH2 0xD44 PUSH2 0xCA9 JUMP JUMPDEST JUMPDEST PUSH1 0x1 DUP3 ADD SWAP1 POP SWAP2 SWAP1 POP JUMP JUMPDEST PUSH32 0x4E6F207375636820706F736974696F6E20696E207468652061727261792E0000 PUSH0 DUP3 ADD MSTORE POP JUMP JUMPDEST PUSH0 PUSH2 0xD84 PUSH1 0x1E DUP4 PUSH2 0x86C JUMP JUMPDEST SWAP2 POP PUSH2 0xD8F DUP3 PUSH2 0xD50 JUMP JUMPDEST PUSH1 0x20 DUP3 ADD SWAP1 POP SWAP2 SWAP1 POP JUMP JUMPDEST PUSH0 PUSH1 0x20 DUP3 ADD SWAP1 POP DUP2 DUP2 SUB PUSH0 DUP4 ADD MSTORE PUSH2 0xDB1 DUP2 PUSH2 0xD78 JUMP JUMPDEST SWAP1 POP SWAP2 SWAP1 POP JUMP JUMPDEST PUSH32 0x4E487B7100000000000000000000000000000000000000000000000000000000 PUSH0 MSTORE PUSH1 0x32 PUSH1 0x4 MSTORE PUSH1 0x24 PUSH0 REVERT INVALID LOG2 PUSH5 0x6970667358 0x22 SLT KECCAK256 0x27 CALL PUSH26 0xCBC46C350BF5E523A87B3CF99375BB51907C6D254BB66FB728A9 DUP14 PUSH30 0xF464736F6C634300081E0033000000000000000000000000000000000000 "
				},
				"gasEstimates": {
					"creation": {
						"codeDepositCost": "722200",
						"executionCost": "30021",
						"totalCost": "752221"
					},
					"external": {
						"addInfo(string)": "infinite",
						"countChanges()": "2425",
						"getInfo()": "infinite",
						"getOneInfo(uint256)": "infinite",
						"updateInfo(uint256,string)": "infinite"
					}
				},
				"methodIdentifiers": {
					"addInfo(string)": "0bf803e4",
					"countChanges()": "2af2bc27",
					"getInfo()": "5a9b0b89",
					"getOneInfo(uint256)": "94b1a5bc",
					"updateInfo(uint256,string)": "50c00197"
				}
			},
			"storageLayout": {
				"storage": [
					{
						"astId": 4,
						"contract": "contracts/ejercicio6.sol:exercise6",
						"label": "storedInfos",
						"offset": 0,
						"slot": "0",
						"type": "t_array(t_string_storage)dyn_storage"
					},
					{
						"astId": 7,
						"contract": "contracts/ejercicio6.sol:exercise6",
						"label": "countChanges",
						"offset": 0,
						"slot": "1",
						"type": "t_uint256"
					},
					{
						"astId": 9,
						"contract": "contracts/ejercicio6.sol:exercise6",
						"label": "owner",
						"offset": 0,
						"slot": "2",
						"type": "t_address"
					}
				],
				"types": {
					"t_address": {
						"encoding": "inplace",
						"label": "address",
						"numberOfBytes": "20"
					},
					"t_array(t_string_storage)dyn_storage": {
						"base": "t_string_storage",
						"encoding": "dynamic_array",
						"label": "string[]",
						"numberOfBytes": "32"
					},
					"t_string_storage": {
						"encoding": "bytes",
						"label": "string",
						"numberOfBytes": "32"
					},
					"t_uint256": {
						"encoding": "inplace",
						"label": "uint256",
						"numberOfBytes": "32"
					}
				}
			},
			"userdoc": {
				"kind": "user",
				"methods": {},
				"version": 1
			}
		}
	}
}