{
	"data": {
		"bytecode": {
			"linkReferences": {},
			"object": "608060405234801561000f575f5ffd5b506040516116fc3803806116fc8339818101604052810190610031919061017b565b5f60055f6101000a81548160ff021916908315150217905550335f5f6101000a81548173ffffffffffffffffffffffffffffffffffffffff021916908373ffffffffffffffffffffffffffffffffffffffff160217905550806001819055503360025f6101000a81548173ffffffffffffffffffffffffffffffffffffffff021916908373ffffffffffffffffffffffffffffffffffffffff16021790555042600381905550816003546100e591906101e6565b600481905550600560068190555060026007819055508060085f3373ffffffffffffffffffffffffffffffffffffffff1673ffffffffffffffffffffffffffffffffffffffff1681526020019081526020015f20819055505050610219565b5f5ffd5b5f819050919050565b61015a81610148565b8114610164575f5ffd5b50565b5f8151905061017581610151565b92915050565b5f5f6040838503121561019157610190610144565b5b5f61019e85828601610167565b92505060206101af85828601610167565b9150509250929050565b7f4e487b71000000000000000000000000000000000000000000000000000000005f52601160045260245ffd5b5f6101f082610148565b91506101fb83610148565b9250828201905080821115610213576102126101b9565b5b92915050565b6114d6806102265f395ff3fe608060405260043610610085575f3560e01c806341d71b601161005857806341d71b601461012f5780636a7798ee146101595780637b02c5181461016f578063a7cbe83a14610199578063d88a540d146101a357610085565b806302dcade914610089578063278ecde1146100b3578063328b8d15146100db5780633f9af85914610105575b5f5ffd5b348015610094575f5ffd5b5061009d6101cd565b6040516100aa9190610b32565b60405180910390f35b3480156100be575f5ffd5b506100d960048036038101906100d49190610b79565b6101d3565b005b3480156100e6575f5ffd5b506100ef6105b0565b6040516100fc9190610b32565b60405180910390f35b348015610110575f5ffd5b506101196105b6565b6040516101269190610b32565b60405180910390f35b34801561013a575f5ffd5b506101436105bc565b6040516101509190610c4c565b60405180910390f35b348015610164575f5ffd5b5061016d610632565b005b34801561017a575f5ffd5b5061018361076f565b6040516101909190610d3a565b60405180910390f35b6101a1610829565b005b3480156101ae575f5ffd5b506101b7610ade565b6040516101c49190610b32565b60405180910390f35b60035481565b5f60085f3373ffffffffffffffffffffffffffffffffffffffff1673ffffffffffffffffffffffffffffffffffffffff1681526020019081526020015f205411610252576040517f08c379a000000000000000000000000000000000000000000000000000000000815260040161024990610db4565b60405180910390fd5b60025f9054906101000a900473ffffffffffffffffffffffffffffffffffffffff1673ffffffffffffffffffffffffffffffffffffffff163373ffffffffffffffffffffffffffffffffffffffff16036102e1576040517f08c379a00000000000000000000000000000000000000000000000000000000081526004016102d890610e42565b60405180910390fd5b5f810361032d5760085f3373ffffffffffffffffffffffffffffffffffffffff1673ffffffffffffffffffffffffffffffffffffffff1681526020019081526020015f205490506103ae565b60085f3373ffffffffffffffffffffffffffffffffffffffff1673ffffffffffffffffffffffffffffffffffffffff1681526020019081526020015f20548111156103ad576040517f08c379a00000000000000000000000000000000000000000000000000000000081526004016103a490610eaa565b60405180910390fd5b5b5f60646063600754846103c19190610ef5565b6103cb9190610f36565b6103d59190610f96565b90505f81836103e49190610fc6565b90508260085f3373ffffffffffffffffffffffffffffffffffffffff1673ffffffffffffffffffffffffffffffffffffffff1681526020019081526020015f205f8282546104329190610fc6565b925050819055505f3373ffffffffffffffffffffffffffffffffffffffff168260405161045e90611026565b5f6040518083038185875af1925050503d805f8114610498576040519150601f19603f3d011682016040523d82523d5f602084013e61049d565b606091505b50509050806104e1576040517f08c379a00000000000000000000000000000000000000000000000000000000081526004016104d890611084565b60405180910390fd5b5f5f5f9054906101000a900473ffffffffffffffffffffffffffffffffffffffff1673ffffffffffffffffffffffffffffffffffffffff168460405161052690611026565b5f6040518083038185875af1925050503d805f8114610560576040519150601f19603f3d011682016040523d82523d5f602084013e610565565b606091505b50509050806105a9576040517f08c379a00000000000000000000000000000000000000000000000000000000081526004016105a0906110ec565b60405180910390fd5b5050505050565b60075481565b60065481565b6105c4610ae4565b5f604051806060016040528060025f9054906101000a900473ffffffffffffffffffffffffffffffffffffffff1673ffffffffffffffffffffffffffffffffffffffff168152602001600154815260200160055f9054906101000a900460ff16151581525090508091505090565b5f5f9054906101000a900473ffffffffffffffffffffffffffffffffffffffff1673ffffffffffffffffffffffffffffffffffffffff163373ffffffffffffffffffffffffffffffffffffffff16146106c0576040517f08c379a00000000000000000000000000000000000000000000000000000000081526004016106b790611154565b60405180910390fd5b6004544211610704576040517f08c379a00000000000000000000000000000000000000000000000000000000081526004016106fb906111e2565b60405180910390fd5b60055f9054906101000a900460ff1615610753576040517f08c379a000000000000000000000000000000000000000000000000000000000815260040161074a9061124a565b60405180910390fd5b600160055f6101000a81548160ff021916908315150217905550565b60606009805480602002602001604051908101604052809291908181526020015f905b82821015610820578382905f5260205f2090600202016040518060400160405290815f82015f9054906101000a900473ffffffffffffffffffffffffffffffffffffffff1673ffffffffffffffffffffffffffffffffffffffff1673ffffffffffffffffffffffffffffffffffffffff16815260200160018201548152505081526020019060010190610792565b50505050905090565b426004541161086d576040517f08c379a0000000000000000000000000000000000000000000000000000000008152600401610864906112d8565b60405180910390fd5b60055f9054906101000a900460ff16156108bc576040517f08c379a00000000000000000000000000000000000000000000000000000000081526004016108b390611340565b60405180910390fd5b5f606460065460646108ce9190610f36565b6001546108db9190610ef5565b6108e59190610f96565b90505f3490505f811161092d576040517f08c379a0000000000000000000000000000000000000000000000000000000008152600401610924906113ce565b60405180910390fd5b5f6001541461097957818111610978576040517f08c379a000000000000000000000000000000000000000000000000000000000815260040161096f90611482565b60405180910390fd5b5b600a6004546109889190610fc6565b4210156109a957600a60045f8282546109a19190610f36565b925050819055505b3360025f6101000a81548173ffffffffffffffffffffffffffffffffffffffff021916908373ffffffffffffffffffffffffffffffffffffffff160217905550346001819055503460085f3373ffffffffffffffffffffffffffffffffffffffff1673ffffffffffffffffffffffffffffffffffffffff1681526020019081526020015f20819055505f60405180604001604052803373ffffffffffffffffffffffffffffffffffffffff168152602001348152509050600981908060018154018082558091505060019003905f5260205f2090600202015f909190919091505f820151815f015f6101000a81548173ffffffffffffffffffffffffffffffffffffffff021916908373ffffffffffffffffffffffffffffffffffffffff160217905550602082015181600101555050505050565b60045481565b60405180606001604052805f73ffffffffffffffffffffffffffffffffffffffff1681526020015f81526020015f151581525090565b5f819050919050565b610b2c81610b1a565b82525050565b5f602082019050610b455f830184610b23565b92915050565b5f5ffd5b610b5881610b1a565b8114610b62575f5ffd5b50565b5f81359050610b7381610b4f565b92915050565b5f60208284031215610b8e57610b8d610b4b565b5b5f610b9b84828501610b65565b91505092915050565b5f73ffffffffffffffffffffffffffffffffffffffff82169050919050565b5f610bcd82610ba4565b9050919050565b610bdd81610bc3565b82525050565b610bec81610b1a565b82525050565b5f8115159050919050565b610c0681610bf2565b82525050565b606082015f820151610c205f850182610bd4565b506020820151610c336020850182610be3565b506040820151610c466040850182610bfd565b50505050565b5f606082019050610c5f5f830184610c0c565b92915050565b5f81519050919050565b5f82825260208201905092915050565b5f819050602082019050919050565b604082015f820151610ca25f850182610bd4565b506020820151610cb56020850182610be3565b50505050565b5f610cc68383610c8e565b60408301905092915050565b5f602082019050919050565b5f610ce882610c65565b610cf28185610c6f565b9350610cfd83610c7f565b805f5b83811015610d2d578151610d148882610cbb565b9750610d1f83610cd2565b925050600181019050610d00565b5085935050505092915050565b5f6020820190508181035f830152610d528184610cde565b905092915050565b5f82825260208201905092915050565b7f496e73756666696369656e742062616c616e63652e00000000000000000000005f82015250565b5f610d9e601583610d5a565b9150610da982610d6a565b602082019050919050565b5f6020820190508181035f830152610dcb81610d92565b9050919050565b7f596f752063616e2774207769746864726177207468652077696e6e696e6720625f8201527f6964000000000000000000000000000000000000000000000000000000000000602082015250565b5f610e2c602283610d5a565b9150610e3782610dd2565b604082019050919050565b5f6020820190508181035f830152610e5981610e20565b9050919050565b7f496e73756666696369656e742062616c616e63650000000000000000000000005f82015250565b5f610e94601483610d5a565b9150610e9f82610e60565b602082019050919050565b5f6020820190508181035f830152610ec181610e88565b9050919050565b7f4e487b71000000000000000000000000000000000000000000000000000000005f52601160045260245ffd5b5f610eff82610b1a565b9150610f0a83610b1a565b9250828202610f1881610b1a565b91508282048414831517610f2f57610f2e610ec8565b5b5092915050565b5f610f4082610b1a565b9150610f4b83610b1a565b9250828201905080821115610f6357610f62610ec8565b5b92915050565b7f4e487b71000000000000000000000000000000000000000000000000000000005f52601260045260245ffd5b5f610fa082610b1a565b9150610fab83610b1a565b925082610fbb57610fba610f69565b5b828204905092915050565b5f610fd082610b1a565b9150610fdb83610b1a565b9250828203905081811115610ff357610ff2610ec8565b5b92915050565b5f81905092915050565b50565b5f6110115f83610ff9565b915061101c82611003565b5f82019050919050565b5f61103082611006565b9150819050919050565b7f4661696c656420746f20726566756e64000000000000000000000000000000005f82015250565b5f61106e601083610d5a565b91506110798261103a565b602082019050919050565b5f6020820190508181035f83015261109b81611062565b9050919050565b7f4661696c656420746f2073656e6420636f6d6d697373696f6e000000000000005f82015250565b5f6110d6601983610d5a565b91506110e1826110a2565b602082019050919050565b5f6020820190508181035f830152611103816110ca565b9050919050565b7f4f6e6c79206f776e65722063616e20646f207468697320616374696f6e2e00005f82015250565b5f61113e601e83610d5a565b91506111498261110a565b602082019050919050565b5f6020820190508181035f83015261116b81611132565b9050919050565b7f596f752063616e277420656e64207468652061756374696f6e206265666f72655f8201527f2074686520737461626c697368656420656e6420646174652e00000000000000602082015250565b5f6111cc603983610d5a565b91506111d782611172565b604082019050919050565b5f6020820190508181035f8301526111f9816111c0565b9050919050565b7f5468652061756374696f6e20697320616c726561647920636c6f7365642e00005f82015250565b5f611234601e83610d5a565b915061123f82611200565b602082019050919050565b5f6020820190508181035f83015261126181611228565b9050919050565b7f596f752063616e2774206f66666572206166746572207468652065737461626c5f8201527f697368656420706572696f64206f66207468652061756374696f6e0000000000602082015250565b5f6112c2603b83610d5a565b91506112cd82611268565b604082019050919050565b5f6020820190508181035f8301526112ef816112b6565b9050919050565b7f5468652061756374696f6e20697320636c6f73656400000000000000000000005f82015250565b5f61132a601583610d5a565b9150611335826112f6565b602082019050919050565b5f6020820190508181035f8301526113578161131e565b9050919050565b7f54686520616d6f756e74206f66666572656420666f72207468697320617563745f8201527f696f6e206d75737420626520686967686572207468616e203000000000000000602082015250565b5f6113b8603983610d5a565b91506113c38261135e565b604082019050919050565b5f6020820190508181035f8301526113e5816113ac565b9050919050565b7f54686520616d6f756e74206f66666572656420666f72207468697320617563745f8201527f696f6e206d75737420626520352520686967686572207468616e20746865206260208201527f657374206f666665720000000000000000000000000000000000000000000000604082015250565b5f61146c604983610d5a565b9150611477826113ec565b606082019050919050565b5f6020820190508181035f83015261149981611460565b905091905056fea26469706673582212200bdf85545a454f06365826f93a0080e77c73dab9d26b9765944186ea498b3a9464736f6c634300081e0033",
			"opcodes": "PUSH1 0x80 PUSH1 0x40 MSTORE CALLVALUE DUP1 ISZERO PUSH2 0xF JUMPI PUSH0 PUSH0 REVERT JUMPDEST POP PUSH1 0x40 MLOAD PUSH2 0x16FC CODESIZE SUB DUP1 PUSH2 0x16FC DUP4 CODECOPY DUP2 DUP2 ADD PUSH1 0x40 MSTORE DUP2 ADD SWAP1 PUSH2 0x31 SWAP2 SWAP1 PUSH2 0x17B JUMP JUMPDEST PUSH0 PUSH1 0x5 PUSH0 PUSH2 0x100 EXP DUP2 SLOAD DUP2 PUSH1 0xFF MUL NOT AND SWAP1 DUP4 ISZERO ISZERO MUL OR SWAP1 SSTORE POP CALLER PUSH0 PUSH0 PUSH2 0x100 EXP DUP2 SLOAD DUP2 PUSH20 0xFFFFFFFFFFFFFFFFFFFFFFFFFFFFFFFFFFFFFFFF MUL NOT AND SWAP1 DUP4 PUSH20 0xFFFFFFFFFFFFFFFFFFFFFFFFFFFFFFFFFFFFFFFF AND MUL OR SWAP1 SSTORE POP DUP1 PUSH1 0x1 DUP2 SWAP1 SSTORE POP CALLER PUSH1 0x2 PUSH0 PUSH2 0x100 EXP DUP2 SLOAD DUP2 PUSH20 0xFFFFFFFFFFFFFFFFFFFFFFFFFFFFFFFFFFFFFFFF MUL NOT AND SWAP1 DUP4 PUSH20 0xFFFFFFFFFFFFFFFFFFFFFFFFFFFFFFFFFFFFFFFF AND MUL OR SWAP1 SSTORE POP TIMESTAMP PUSH1 0x3 DUP2 SWAP1 SSTORE POP DUP2 PUSH1 0x3 SLOAD PUSH2 0xE5 SWAP2 SWAP1 PUSH2 0x1E6 JUMP JUMPDEST PUSH1 0x4 DUP2 SWAP1 SSTORE POP PUSH1 0x5 PUSH1 0x6 DUP2 SWAP1 SSTORE POP PUSH1 0x2 PUSH1 0x7 DUP2 SWAP1 SSTORE POP DUP1 PUSH1 0x8 PUSH0 CALLER PUSH20 0xFFFFFFFFFFFFFFFFFFFFFFFFFFFFFFFFFFFFFFFF AND PUSH20 0xFFFFFFFFFFFFFFFFFFFFFFFFFFFFFFFFFFFFFFFF AND DUP2 MSTORE PUSH1 0x20 ADD SWAP1 DUP2 MSTORE PUSH1 0x20 ADD PUSH0 KECCAK256 DUP2 SWAP1 SSTORE POP POP POP PUSH2 0x219 JUMP JUMPDEST PUSH0 PUSH0 REVERT JUMPDEST PUSH0 DUP2 SWAP1 POP SWAP2 SWAP1 POP JUMP JUMPDEST PUSH2 0x15A DUP2 PUSH2 0x148 JUMP JUMPDEST DUP2 EQ PUSH2 0x164 JUMPI PUSH0 PUSH0 REVERT JUMPDEST POP JUMP JUMPDEST PUSH0 DUP2 MLOAD SWAP1 POP PUSH2 0x175 DUP2 PUSH2 0x151 JUMP JUMPDEST SWAP3 SWAP2 POP POP JUMP JUMPDEST PUSH0 PUSH0 PUSH1 0x40 DUP4 DUP6 SUB SLT ISZERO PUSH2 0x191 JUMPI PUSH2 0x190 PUSH2 0x144 JUMP JUMPDEST JUMPDEST PUSH0 PUSH2 0x19E DUP6 DUP3 DUP7 ADD PUSH2 0x167 JUMP JUMPDEST SWAP3 POP POP PUSH1 0x20 PUSH2 0x1AF DUP6 DUP3 DUP7 ADD PUSH2 0x167 JUMP JUMPDEST SWAP2 POP POP SWAP3 POP SWAP3 SWAP1 POP JUMP JUMPDEST PUSH32 0x4E487B7100000000000000000000000000000000000000000000000000000000 PUSH0 MSTORE PUSH1 0x11 PUSH1 0x4 MSTORE PUSH1 0x24 PUSH0 REVERT JUMPDEST PUSH0 PUSH2 0x1F0 DUP3 PUSH2 0x148 JUMP JUMPDEST SWAP2 POP PUSH2 0x1FB DUP4 PUSH2 0x148 JUMP JUMPDEST SWAP3 POP DUP3 DUP3 ADD SWAP1 POP DUP1 DUP3 GT ISZERO PUSH2 0x213 JUMPI PUSH2 0x212 PUSH2 0x1B9 JUMP JUMPDEST JUMPDEST SWAP3 SWAP2 POP POP JUMP JUMPDEST PUSH2 0x14D6 DUP1 PUSH2 0x226 PUSH0 CODECOPY PUSH0 RETURN INVALID PUSH1 0x80 PUSH1 0x40 MSTORE PUSH1 0x4 CALLDATASIZE LT PUSH2 0x85 JUMPI PUSH0 CALLDATALOAD PUSH1 0xE0 SHR DUP1 PUSH4 0x41D71B60 GT PUSH2 0x58 JUMPI DUP1 PUSH4 0x41D71B60 EQ PUSH2 0x12F JUMPI DUP1 PUSH4 0x6A7798EE EQ PUSH2 0x159 JUMPI DUP1 PUSH4 0x7B02C518 EQ PUSH2 0x16F JUMPI DUP1 PUSH4 0xA7CBE83A EQ PUSH2 0x199 JUMPI DUP1 PUSH4 0xD88A540D EQ PUSH2 0x1A3 JUMPI PUSH2 0x85 JUMP JUMPDEST DUP1 PUSH4 0x2DCADE9 EQ PUSH2 0x89 JUMPI DUP1 PUSH4 0x278ECDE1 EQ PUSH2 0xB3 JUMPI DUP1 PUSH4 0x328B8D15 EQ PUSH2 0xDB JUMPI DUP1 PUSH4 0x3F9AF859 EQ PUSH2 0x105 JUMPI JUMPDEST PUSH0 PUSH0 REVERT JUMPDEST CALLVALUE DUP1 ISZERO PUSH2 0x94 JUMPI PUSH0 PUSH0 REVERT JUMPDEST POP PUSH2 0x9D PUSH2 0x1CD JUMP JUMPDEST PUSH1 0x40 MLOAD PUSH2 0xAA SWAP2 SWAP1 PUSH2 0xB32 JUMP JUMPDEST PUSH1 0x40 MLOAD DUP1 SWAP2 SUB SWAP1 RETURN JUMPDEST CALLVALUE DUP1 ISZERO PUSH2 0xBE JUMPI PUSH0 PUSH0 REVERT JUMPDEST POP PUSH2 0xD9 PUSH1 0x4 DUP1 CALLDATASIZE SUB DUP2 ADD SWAP1 PUSH2 0xD4 SWAP2 SWAP1 PUSH2 0xB79 JUMP JUMPDEST PUSH2 0x1D3 JUMP JUMPDEST STOP JUMPDEST CALLVALUE DUP1 ISZERO PUSH2 0xE6 JUMPI PUSH0 PUSH0 REVERT JUMPDEST POP PUSH2 0xEF PUSH2 0x5B0 JUMP JUMPDEST PUSH1 0x40 MLOAD PUSH2 0xFC SWAP2 SWAP1 PUSH2 0xB32 JUMP JUMPDEST PUSH1 0x40 MLOAD DUP1 SWAP2 SUB SWAP1 RETURN JUMPDEST CALLVALUE DUP1 ISZERO PUSH2 0x110 JUMPI PUSH0 PUSH0 REVERT JUMPDEST POP PUSH2 0x119 PUSH2 0x5B6 JUMP JUMPDEST PUSH1 0x40 MLOAD PUSH2 0x126 SWAP2 SWAP1 PUSH2 0xB32 JUMP JUMPDEST PUSH1 0x40 MLOAD DUP1 SWAP2 SUB SWAP1 RETURN JUMPDEST CALLVALUE DUP1 ISZERO PUSH2 0x13A JUMPI PUSH0 PUSH0 REVERT JUMPDEST POP PUSH2 0x143 PUSH2 0x5BC JUMP JUMPDEST PUSH1 0x40 MLOAD PUSH2 0x150 SWAP2 SWAP1 PUSH2 0xC4C JUMP JUMPDEST PUSH1 0x40 MLOAD DUP1 SWAP2 SUB SWAP1 RETURN JUMPDEST CALLVALUE DUP1 ISZERO PUSH2 0x164 JUMPI PUSH0 PUSH0 REVERT JUMPDEST POP PUSH2 0x16D PUSH2 0x632 JUMP JUMPDEST STOP JUMPDEST CALLVALUE DUP1 ISZERO PUSH2 0x17A JUMPI PUSH0 PUSH0 REVERT JUMPDEST POP PUSH2 0x183 PUSH2 0x76F JUMP JUMPDEST PUSH1 0x40 MLOAD PUSH2 0x190 SWAP2 SWAP1 PUSH2 0xD3A JUMP JUMPDEST PUSH1 0x40 MLOAD DUP1 SWAP2 SUB SWAP1 RETURN JUMPDEST PUSH2 0x1A1 PUSH2 0x829 JUMP JUMPDEST STOP JUMPDEST CALLVALUE DUP1 ISZERO PUSH2 0x1AE JUMPI PUSH0 PUSH0 REVERT JUMPDEST POP PUSH2 0x1B7 PUSH2 0xADE JUMP JUMPDEST PUSH1 0x40 MLOAD PUSH2 0x1C4 SWAP2 SWAP1 PUSH2 0xB32 JUMP JUMPDEST PUSH1 0x40 MLOAD DUP1 SWAP2 SUB SWAP1 RETURN JUMPDEST PUSH1 0x3 SLOAD DUP2 JUMP JUMPDEST PUSH0 PUSH1 0x8 PUSH0 CALLER PUSH20 0xFFFFFFFFFFFFFFFFFFFFFFFFFFFFFFFFFFFFFFFF AND PUSH20 0xFFFFFFFFFFFFFFFFFFFFFFFFFFFFFFFFFFFFFFFF AND DUP2 MSTORE PUSH1 0x20 ADD SWAP1 DUP2 MSTORE PUSH1 0x20 ADD PUSH0 KECCAK256 SLOAD GT PUSH2 0x252 JUMPI PUSH1 0x40 MLOAD PUSH32 0x8C379A000000000000000000000000000000000000000000000000000000000 DUP2 MSTORE PUSH1 0x4 ADD PUSH2 0x249 SWAP1 PUSH2 0xDB4 JUMP JUMPDEST PUSH1 0x40 MLOAD DUP1 SWAP2 SUB SWAP1 REVERT JUMPDEST PUSH1 0x2 PUSH0 SWAP1 SLOAD SWAP1 PUSH2 0x100 EXP SWAP1 DIV PUSH20 0xFFFFFFFFFFFFFFFFFFFFFFFFFFFFFFFFFFFFFFFF AND PUSH20 0xFFFFFFFFFFFFFFFFFFFFFFFFFFFFFFFFFFFFFFFF AND CALLER PUSH20 0xFFFFFFFFFFFFFFFFFFFFFFFFFFFFFFFFFFFFFFFF AND SUB PUSH2 0x2E1 JUMPI PUSH1 0x40 MLOAD PUSH32 0x8C379A000000000000000000000000000000000000000000000000000000000 DUP2 MSTORE PUSH1 0x4 ADD PUSH2 0x2D8 SWAP1 PUSH2 0xE42 JUMP JUMPDEST PUSH1 0x40 MLOAD DUP1 SWAP2 SUB SWAP1 REVERT JUMPDEST PUSH0 DUP2 SUB PUSH2 0x32D JUMPI PUSH1 0x8 PUSH0 CALLER PUSH20 0xFFFFFFFFFFFFFFFFFFFFFFFFFFFFFFFFFFFFFFFF AND PUSH20 0xFFFFFFFFFFFFFFFFFFFFFFFFFFFFFFFFFFFFFFFF AND DUP2 MSTORE PUSH1 0x20 ADD SWAP1 DUP2 MSTORE PUSH1 0x20 ADD PUSH0 KECCAK256 SLOAD SWAP1 POP PUSH2 0x3AE JUMP JUMPDEST PUSH1 0x8 PUSH0 CALLER PUSH20 0xFFFFFFFFFFFFFFFFFFFFFFFFFFFFFFFFFFFFFFFF AND PUSH20 0xFFFFFFFFFFFFFFFFFFFFFFFFFFFFFFFFFFFFFFFF AND DUP2 MSTORE PUSH1 0x20 ADD SWAP1 DUP2 MSTORE PUSH1 0x20 ADD PUSH0 KECCAK256 SLOAD DUP2 GT ISZERO PUSH2 0x3AD JUMPI PUSH1 0x40 MLOAD PUSH32 0x8C379A000000000000000000000000000000000000000000000000000000000 DUP2 MSTORE PUSH1 0x4 ADD PUSH2 0x3A4 SWAP1 PUSH2 0xEAA JUMP JUMPDEST PUSH1 0x40 MLOAD DUP1 SWAP2 SUB SWAP1 REVERT JUMPDEST JUMPDEST PUSH0 PUSH1 0x64 PUSH1 0x63 PUSH1 0x7 SLOAD DUP5 PUSH2 0x3C1 SWAP2 SWAP1 PUSH2 0xEF5 JUMP JUMPDEST PUSH2 0x3CB SWAP2 SWAP1 PUSH2 0xF36 JUMP JUMPDEST PUSH2 0x3D5 SWAP2 SWAP1 PUSH2 0xF96 JUMP JUMPDEST SWAP1 POP PUSH0 DUP2 DUP4 PUSH2 0x3E4 SWAP2 SWAP1 PUSH2 0xFC6 JUMP JUMPDEST SWAP1 POP DUP3 PUSH1 0x8 PUSH0 CALLER PUSH20 0xFFFFFFFFFFFFFFFFFFFFFFFFFFFFFFFFFFFFFFFF AND PUSH20 0xFFFFFFFFFFFFFFFFFFFFFFFFFFFFFFFFFFFFFFFF AND DUP2 MSTORE PUSH1 0x20 ADD SWAP1 DUP2 MSTORE PUSH1 0x20 ADD PUSH0 KECCAK256 PUSH0 DUP3 DUP3 SLOAD PUSH2 0x432 SWAP2 SWAP1 PUSH2 0xFC6 JUMP JUMPDEST SWAP3 POP POP DUP2 SWAP1 SSTORE POP PUSH0 CALLER PUSH20 0xFFFFFFFFFFFFFFFFFFFFFFFFFFFFFFFFFFFFFFFF AND DUP3 PUSH1 0x40 MLOAD PUSH2 0x45E SWAP1 PUSH2 0x1026 JUMP JUMPDEST PUSH0 PUSH1 0x40 MLOAD DUP1 DUP4 SUB DUP2 DUP6 DUP8 GAS CALL SWAP3 POP POP POP RETURNDATASIZE DUP1 PUSH0 DUP2 EQ PUSH2 0x498 JUMPI PUSH1 0x40 MLOAD SWAP2 POP PUSH1 0x1F NOT PUSH1 0x3F RETURNDATASIZE ADD AND DUP3 ADD PUSH1 0x40 MSTORE RETURNDATASIZE DUP3 MSTORE RETURNDATASIZE PUSH0 PUSH1 0x20 DUP5 ADD RETURNDATACOPY PUSH2 0x49D JUMP JUMPDEST PUSH1 0x60 SWAP2 POP JUMPDEST POP POP SWAP1 POP DUP1 PUSH2 0x4E1 JUMPI PUSH1 0x40 MLOAD PUSH32 0x8C379A000000000000000000000000000000000000000000000000000000000 DUP2 MSTORE PUSH1 0x4 ADD PUSH2 0x4D8 SWAP1 PUSH2 0x1084 JUMP JUMPDEST PUSH1 0x40 MLOAD DUP1 SWAP2 SUB SWAP1 REVERT JUMPDEST PUSH0 PUSH0 PUSH0 SWAP1 SLOAD SWAP1 PUSH2 0x100 EXP SWAP1 DIV PUSH20 0xFFFFFFFFFFFFFFFFFFFFFFFFFFFFFFFFFFFFFFFF AND PUSH20 0xFFFFFFFFFFFFFFFFFFFFFFFFFFFFFFFFFFFFFFFF AND DUP5 PUSH1 0x40 MLOAD PUSH2 0x526 SWAP1 PUSH2 0x1026 JUMP JUMPDEST PUSH0 PUSH1 0x40 MLOAD DUP1 DUP4 SUB DUP2 DUP6 DUP8 GAS CALL SWAP3 POP POP POP RETURNDATASIZE DUP1 PUSH0 DUP2 EQ PUSH2 0x560 JUMPI PUSH1 0x40 MLOAD SWAP2 POP PUSH1 0x1F NOT PUSH1 0x3F RETURNDATASIZE ADD AND DUP3 ADD PUSH1 0x40 MSTORE RETURNDATASIZE DUP3 MSTORE RETURNDATASIZE PUSH0 PUSH1 0x20 DUP5 ADD RETURNDATACOPY PUSH2 0x565 JUMP JUMPDEST PUSH1 0x60 SWAP2 POP JUMPDEST POP POP SWAP1 POP DUP1 PUSH2 0x5A9 JUMPI PUSH1 0x40 MLOAD PUSH32 0x8C379A000000000000000000000000000000000000000000000000000000000 DUP2 MSTORE PUSH1 0x4 ADD PUSH2 0x5A0 SWAP1 PUSH2 0x10EC JUMP JUMPDEST PUSH1 0x40 MLOAD DUP1 SWAP2 SUB SWAP1 REVERT JUMPDEST POP POP POP POP POP JUMP JUMPDEST PUSH1 0x7 SLOAD DUP2 JUMP JUMPDEST PUSH1 0x6 SLOAD DUP2 JUMP JUMPDEST PUSH2 0x5C4 PUSH2 0xAE4 JUMP JUMPDEST PUSH0 PUSH1 0x40 MLOAD DUP1 PUSH1 0x60 ADD PUSH1 0x40 MSTORE DUP1 PUSH1 0x2 PUSH0 SWAP1 SLOAD SWAP1 PUSH2 0x100 EXP SWAP1 DIV PUSH20 0xFFFFFFFFFFFFFFFFFFFFFFFFFFFFFFFFFFFFFFFF AND PUSH20 0xFFFFFFFFFFFFFFFFFFFFFFFFFFFFFFFFFFFFFFFF AND DUP2 MSTORE PUSH1 0x20 ADD PUSH1 0x1 SLOAD DUP2 MSTORE PUSH1 0x20 ADD PUSH1 0x5 PUSH0 SWAP1 SLOAD SWAP1 PUSH2 0x100 EXP SWAP1 DIV PUSH1 0xFF AND ISZERO ISZERO DUP2 MSTORE POP SWAP1 POP DUP1 SWAP2 POP POP SWAP1 JUMP JUMPDEST PUSH0 PUSH0 SWAP1 SLOAD SWAP1 PUSH2 0x100 EXP SWAP1 DIV PUSH20 0xFFFFFFFFFFFFFFFFFFFFFFFFFFFFFFFFFFFFFFFF AND PUSH20 0xFFFFFFFFFFFFFFFFFFFFFFFFFFFFFFFFFFFFFFFF AND CALLER PUSH20 0xFFFFFFFFFFFFFFFFFFFFFFFFFFFFFFFFFFFFFFFF AND EQ PUSH2 0x6C0 JUMPI PUSH1 0x40 MLOAD PUSH32 0x8C379A000000000000000000000000000000000000000000000000000000000 DUP2 MSTORE PUSH1 0x4 ADD PUSH2 0x6B7 SWAP1 PUSH2 0x1154 JUMP JUMPDEST PUSH1 0x40 MLOAD DUP1 SWAP2 SUB SWAP1 REVERT JUMPDEST PUSH1 0x4 SLOAD TIMESTAMP GT PUSH2 0x704 JUMPI PUSH1 0x40 MLOAD PUSH32 0x8C379A000000000000000000000000000000000000000000000000000000000 DUP2 MSTORE PUSH1 0x4 ADD PUSH2 0x6FB SWAP1 PUSH2 0x11E2 JUMP JUMPDEST PUSH1 0x40 MLOAD DUP1 SWAP2 SUB SWAP1 REVERT JUMPDEST PUSH1 0x5 PUSH0 SWAP1 SLOAD SWAP1 PUSH2 0x100 EXP SWAP1 DIV PUSH1 0xFF AND ISZERO PUSH2 0x753 JUMPI PUSH1 0x40 MLOAD PUSH32 0x8C379A000000000000000000000000000000000000000000000000000000000 DUP2 MSTORE PUSH1 0x4 ADD PUSH2 0x74A SWAP1 PUSH2 0x124A JUMP JUMPDEST PUSH1 0x40 MLOAD DUP1 SWAP2 SUB SWAP1 REVERT JUMPDEST PUSH1 0x1 PUSH1 0x5 PUSH0 PUSH2 0x100 EXP DUP2 SLOAD DUP2 PUSH1 0xFF MUL NOT AND SWAP1 DUP4 ISZERO ISZERO MUL OR SWAP1 SSTORE POP JUMP JUMPDEST PUSH1 0x60 PUSH1 0x9 DUP1 SLOAD DUP1 PUSH1 0x20 MUL PUSH1 0x20 ADD PUSH1 0x40 MLOAD SWAP1 DUP2 ADD PUSH1 0x40 MSTORE DUP1 SWAP3 SWAP2 SWAP1 DUP2 DUP2 MSTORE PUSH1 0x20 ADD PUSH0 SWAP1 JUMPDEST DUP3 DUP3 LT ISZERO PUSH2 0x820 JUMPI DUP4 DUP3 SWAP1 PUSH0 MSTORE PUSH1 0x20 PUSH0 KECCAK256 SWAP1 PUSH1 0x2 MUL ADD PUSH1 0x40 MLOAD DUP1 PUSH1 0x40 ADD PUSH1 0x40 MSTORE SWAP1 DUP2 PUSH0 DUP3 ADD PUSH0 SWAP1 SLOAD SWAP1 PUSH2 0x100 EXP SWAP1 DIV PUSH20 0xFFFFFFFFFFFFFFFFFFFFFFFFFFFFFFFFFFFFFFFF AND PUSH20 0xFFFFFFFFFFFFFFFFFFFFFFFFFFFFFFFFFFFFFFFF AND PUSH20 0xFFFFFFFFFFFFFFFFFFFFFFFFFFFFFFFFFFFFFFFF AND DUP2 MSTORE PUSH1 0x20 ADD PUSH1 0x1 DUP3 ADD SLOAD DUP2 MSTORE POP POP DUP2 MSTORE PUSH1 0x20 ADD SWAP1 PUSH1 0x1 ADD SWAP1 PUSH2 0x792 JUMP JUMPDEST POP POP POP POP SWAP1 POP SWAP1 JUMP JUMPDEST TIMESTAMP PUSH1 0x4 SLOAD GT PUSH2 0x86D JUMPI PUSH1 0x40 MLOAD PUSH32 0x8C379A000000000000000000000000000000000000000000000000000000000 DUP2 MSTORE PUSH1 0x4 ADD PUSH2 0x864 SWAP1 PUSH2 0x12D8 JUMP JUMPDEST PUSH1 0x40 MLOAD DUP1 SWAP2 SUB SWAP1 REVERT JUMPDEST PUSH1 0x5 PUSH0 SWAP1 SLOAD SWAP1 PUSH2 0x100 EXP SWAP1 DIV PUSH1 0xFF AND ISZERO PUSH2 0x8BC JUMPI PUSH1 0x40 MLOAD PUSH32 0x8C379A000000000000000000000000000000000000000000000000000000000 DUP2 MSTORE PUSH1 0x4 ADD PUSH2 0x8B3 SWAP1 PUSH2 0x1340 JUMP JUMPDEST PUSH1 0x40 MLOAD DUP1 SWAP2 SUB SWAP1 REVERT JUMPDEST PUSH0 PUSH1 0x64 PUSH1 0x6 SLOAD PUSH1 0x64 PUSH2 0x8CE SWAP2 SWAP1 PUSH2 0xF36 JUMP JUMPDEST PUSH1 0x1 SLOAD PUSH2 0x8DB SWAP2 SWAP1 PUSH2 0xEF5 JUMP JUMPDEST PUSH2 0x8E5 SWAP2 SWAP1 PUSH2 0xF96 JUMP JUMPDEST SWAP1 POP PUSH0 CALLVALUE SWAP1 POP PUSH0 DUP2 GT PUSH2 0x92D JUMPI PUSH1 0x40 MLOAD PUSH32 0x8C379A000000000000000000000000000000000000000000000000000000000 DUP2 MSTORE PUSH1 0x4 ADD PUSH2 0x924 SWAP1 PUSH2 0x13CE JUMP JUMPDEST PUSH1 0x40 MLOAD DUP1 SWAP2 SUB SWAP1 REVERT JUMPDEST PUSH0 PUSH1 0x1 SLOAD EQ PUSH2 0x979 JUMPI DUP2 DUP2 GT PUSH2 0x978 JUMPI PUSH1 0x40 MLOAD PUSH32 0x8C379A000000000000000000000000000000000000000000000000000000000 DUP2 MSTORE PUSH1 0x4 ADD PUSH2 0x96F SWAP1 PUSH2 0x1482 JUMP JUMPDEST PUSH1 0x40 MLOAD DUP1 SWAP2 SUB SWAP1 REVERT JUMPDEST JUMPDEST PUSH1 0xA PUSH1 0x4 SLOAD PUSH2 0x988 SWAP2 SWAP1 PUSH2 0xFC6 JUMP JUMPDEST TIMESTAMP LT ISZERO PUSH2 0x9A9 JUMPI PUSH1 0xA PUSH1 0x4 PUSH0 DUP3 DUP3 SLOAD PUSH2 0x9A1 SWAP2 SWAP1 PUSH2 0xF36 JUMP JUMPDEST SWAP3 POP POP DUP2 SWAP1 SSTORE POP JUMPDEST CALLER PUSH1 0x2 PUSH0 PUSH2 0x100 EXP DUP2 SLOAD DUP2 PUSH20 0xFFFFFFFFFFFFFFFFFFFFFFFFFFFFFFFFFFFFFFFF MUL NOT AND SWAP1 DUP4 PUSH20 0xFFFFFFFFFFFFFFFFFFFFFFFFFFFFFFFFFFFFFFFF AND MUL OR SWAP1 SSTORE POP CALLVALUE PUSH1 0x1 DUP2 SWAP1 SSTORE POP CALLVALUE PUSH1 0x8 PUSH0 CALLER PUSH20 0xFFFFFFFFFFFFFFFFFFFFFFFFFFFFFFFFFFFFFFFF AND PUSH20 0xFFFFFFFFFFFFFFFFFFFFFFFFFFFFFFFFFFFFFFFF AND DUP2 MSTORE PUSH1 0x20 ADD SWAP1 DUP2 MSTORE PUSH1 0x20 ADD PUSH0 KECCAK256 DUP2 SWAP1 SSTORE POP PUSH0 PUSH1 0x40 MLOAD DUP1 PUSH1 0x40 ADD PUSH1 0x40 MSTORE DUP1 CALLER PUSH20 0xFFFFFFFFFFFFFFFFFFFFFFFFFFFFFFFFFFFFFFFF AND DUP2 MSTORE PUSH1 0x20 ADD CALLVALUE DUP2 MSTORE POP SWAP1 POP PUSH1 0x9 DUP2 SWAP1 DUP1 PUSH1 0x1 DUP2 SLOAD ADD DUP1 DUP3 SSTORE DUP1 SWAP2 POP POP PUSH1 0x1 SWAP1 SUB SWAP1 PUSH0 MSTORE PUSH1 0x20 PUSH0 KECCAK256 SWAP1 PUSH1 0x2 MUL ADD PUSH0 SWAP1 SWAP2 SWAP1 SWAP2 SWAP1 SWAP2 POP PUSH0 DUP3 ADD MLOAD DUP2 PUSH0 ADD PUSH0 PUSH2 0x100 EXP DUP2 SLOAD DUP2 PUSH20 0xFFFFFFFFFFFFFFFFFFFFFFFFFFFFFFFFFFFFFFFF MUL NOT AND SWAP1 DUP4 PUSH20 0xFFFFFFFFFFFFFFFFFFFFFFFFFFFFFFFFFFFFFFFF AND MUL OR SWAP1 SSTORE POP PUSH1 0x20 DUP3 ADD MLOAD DUP2 PUSH1 0x1 ADD SSTORE POP POP POP POP POP JUMP JUMPDEST PUSH1 0x4 SLOAD DUP2 JUMP JUMPDEST PUSH1 0x40 MLOAD DUP1 PUSH1 0x60 ADD PUSH1 0x40 MSTORE DUP1 PUSH0 PUSH20 0xFFFFFFFFFFFFFFFFFFFFFFFFFFFFFFFFFFFFFFFF AND DUP2 MSTORE PUSH1 0x20 ADD PUSH0 DUP2 MSTORE PUSH1 0x20 ADD PUSH0 ISZERO ISZERO DUP2 MSTORE POP SWAP1 JUMP JUMPDEST PUSH0 DUP2 SWAP1 POP SWAP2 SWAP1 POP JUMP JUMPDEST PUSH2 0xB2C DUP2 PUSH2 0xB1A JUMP JUMPDEST DUP3 MSTORE POP POP JUMP JUMPDEST PUSH0 PUSH1 0x20 DUP3 ADD SWAP1 POP PUSH2 0xB45 PUSH0 DUP4 ADD DUP5 PUSH2 0xB23 JUMP JUMPDEST SWAP3 SWAP2 POP POP JUMP JUMPDEST PUSH0 PUSH0 REVERT JUMPDEST PUSH2 0xB58 DUP2 PUSH2 0xB1A JUMP JUMPDEST DUP2 EQ PUSH2 0xB62 JUMPI PUSH0 PUSH0 REVERT JUMPDEST POP JUMP JUMPDEST PUSH0 DUP2 CALLDATALOAD SWAP1 POP PUSH2 0xB73 DUP2 PUSH2 0xB4F JUMP JUMPDEST SWAP3 SWAP2 POP POP JUMP JUMPDEST PUSH0 PUSH1 0x20 DUP3 DUP5 SUB SLT ISZERO PUSH2 0xB8E JUMPI PUSH2 0xB8D PUSH2 0xB4B JUMP JUMPDEST JUMPDEST PUSH0 PUSH2 0xB9B DUP5 DUP3 DUP6 ADD PUSH2 0xB65 JUMP JUMPDEST SWAP2 POP POP SWAP3 SWAP2 POP POP JUMP JUMPDEST PUSH0 PUSH20 0xFFFFFFFFFFFFFFFFFFFFFFFFFFFFFFFFFFFFFFFF DUP3 AND SWAP1 POP SWAP2 SWAP1 POP JUMP JUMPDEST PUSH0 PUSH2 0xBCD DUP3 PUSH2 0xBA4 JUMP JUMPDEST SWAP1 POP SWAP2 SWAP1 POP JUMP JUMPDEST PUSH2 0xBDD DUP2 PUSH2 0xBC3 JUMP JUMPDEST DUP3 MSTORE POP POP JUMP JUMPDEST PUSH2 0xBEC DUP2 PUSH2 0xB1A JUMP JUMPDEST DUP3 MSTORE POP POP JUMP JUMPDEST PUSH0 DUP2 ISZERO ISZERO SWAP1 POP SWAP2 SWAP1 POP JUMP JUMPDEST PUSH2 0xC06 DUP2 PUSH2 0xBF2 JUMP JUMPDEST DUP3 MSTORE POP POP JUMP JUMPDEST PUSH1 0x60 DUP3 ADD PUSH0 DUP3 ADD MLOAD PUSH2 0xC20 PUSH0 DUP6 ADD DUP3 PUSH2 0xBD4 JUMP JUMPDEST POP PUSH1 0x20 DUP3 ADD MLOAD PUSH2 0xC33 PUSH1 0x20 DUP6 ADD DUP3 PUSH2 0xBE3 JUMP JUMPDEST POP PUSH1 0x40 DUP3 ADD MLOAD PUSH2 0xC46 PUSH1 0x40 DUP6 ADD DUP3 PUSH2 0xBFD JUMP JUMPDEST POP POP POP POP JUMP JUMPDEST PUSH0 PUSH1 0x60 DUP3 ADD SWAP1 POP PUSH2 0xC5F PUSH0 DUP4 ADD DUP5 PUSH2 0xC0C JUMP JUMPDEST SWAP3 SWAP2 POP POP JUMP JUMPDEST PUSH0 DUP2 MLOAD SWAP1 POP SWAP2 SWAP1 POP JUMP JUMPDEST PUSH0 DUP3 DUP3 MSTORE PUSH1 0x20 DUP3 ADD SWAP1 POP SWAP3 SWAP2 POP POP JUMP JUMPDEST PUSH0 DUP2 SWAP1 POP PUSH1 0x20 DUP3 ADD SWAP1 POP SWAP2 SWAP1 POP JUMP JUMPDEST PUSH1 0x40 DUP3 ADD PUSH0 DUP3 ADD MLOAD PUSH2 0xCA2 PUSH0 DUP6 ADD DUP3 PUSH2 0xBD4 JUMP JUMPDEST POP PUSH1 0x20 DUP3 ADD MLOAD PUSH2 0xCB5 PUSH1 0x20 DUP6 ADD DUP3 PUSH2 0xBE3 JUMP JUMPDEST POP POP POP POP JUMP JUMPDEST PUSH0 PUSH2 0xCC6 DUP4 DUP4 PUSH2 0xC8E JUMP JUMPDEST PUSH1 0x40 DUP4 ADD SWAP1 POP SWAP3 SWAP2 POP POP JUMP JUMPDEST PUSH0 PUSH1 0x20 DUP3 ADD SWAP1 POP SWAP2 SWAP1 POP JUMP JUMPDEST PUSH0 PUSH2 0xCE8 DUP3 PUSH2 0xC65 JUMP JUMPDEST PUSH2 0xCF2 DUP2 DUP6 PUSH2 0xC6F JUMP JUMPDEST SWAP4 POP PUSH2 0xCFD DUP4 PUSH2 0xC7F JUMP JUMPDEST DUP1 PUSH0 JUMPDEST DUP4 DUP2 LT ISZERO PUSH2 0xD2D JUMPI DUP2 MLOAD PUSH2 0xD14 DUP9 DUP3 PUSH2 0xCBB JUMP JUMPDEST SWAP8 POP PUSH2 0xD1F DUP4 PUSH2 0xCD2 JUMP JUMPDEST SWAP3 POP POP PUSH1 0x1 DUP2 ADD SWAP1 POP PUSH2 0xD00 JUMP JUMPDEST POP DUP6 SWAP4 POP POP POP POP SWAP3 SWAP2 POP POP JUMP JUMPDEST PUSH0 PUSH1 0x20 DUP3 ADD SWAP1 POP DUP2 DUP2 SUB PUSH0 DUP4 ADD MSTORE PUSH2 0xD52 DUP2 DUP5 PUSH2 0xCDE JUMP JUMPDEST SWAP1 POP SWAP3 SWAP2 POP POP JUMP JUMPDEST PUSH0 DUP3 DUP3 MSTORE PUSH1 0x20 DUP3 ADD SWAP1 POP SWAP3 SWAP2 POP POP JUMP JUMPDEST PUSH32 0x496E73756666696369656E742062616C616E63652E0000000000000000000000 PUSH0 DUP3 ADD MSTORE POP JUMP JUMPDEST PUSH0 PUSH2 0xD9E PUSH1 0x15 DUP4 PUSH2 0xD5A JUMP JUMPDEST SWAP2 POP PUSH2 0xDA9 DUP3 PUSH2 0xD6A JUMP JUMPDEST PUSH1 0x20 DUP3 ADD SWAP1 POP SWAP2 SWAP1 POP JUMP JUMPDEST PUSH0 PUSH1 0x20 DUP3 ADD SWAP1 POP DUP2 DUP2 SUB PUSH0 DUP4 ADD MSTORE PUSH2 0xDCB DUP2 PUSH2 0xD92 JUMP JUMPDEST SWAP1 POP SWAP2 SWAP1 POP JUMP JUMPDEST PUSH32 0x596F752063616E2774207769746864726177207468652077696E6E696E672062 PUSH0 DUP3 ADD MSTORE PUSH32 0x6964000000000000000000000000000000000000000000000000000000000000 PUSH1 0x20 DUP3 ADD MSTORE POP JUMP JUMPDEST PUSH0 PUSH2 0xE2C PUSH1 0x22 DUP4 PUSH2 0xD5A JUMP JUMPDEST SWAP2 POP PUSH2 0xE37 DUP3 PUSH2 0xDD2 JUMP JUMPDEST PUSH1 0x40 DUP3 ADD SWAP1 POP SWAP2 SWAP1 POP JUMP JUMPDEST PUSH0 PUSH1 0x20 DUP3 ADD SWAP1 POP DUP2 DUP2 SUB PUSH0 DUP4 ADD MSTORE PUSH2 0xE59 DUP2 PUSH2 0xE20 JUMP JUMPDEST SWAP1 POP SWAP2 SWAP1 POP JUMP JUMPDEST PUSH32 0x496E73756666696369656E742062616C616E6365000000000000000000000000 PUSH0 DUP3 ADD MSTORE POP JUMP JUMPDEST PUSH0 PUSH2 0xE94 PUSH1 0x14 DUP4 PUSH2 0xD5A JUMP JUMPDEST SWAP2 POP PUSH2 0xE9F DUP3 PUSH2 0xE60 JUMP JUMPDEST PUSH1 0x20 DUP3 ADD SWAP1 POP SWAP2 SWAP1 POP JUMP JUMPDEST PUSH0 PUSH1 0x20 DUP3 ADD SWAP1 POP DUP2 DUP2 SUB PUSH0 DUP4 ADD MSTORE PUSH2 0xEC1 DUP2 PUSH2 0xE88 JUMP JUMPDEST SWAP1 POP SWAP2 SWAP1 POP JUMP JUMPDEST PUSH32 0x4E487B7100000000000000000000000000000000000000000000000000000000 PUSH0 MSTORE PUSH1 0x11 PUSH1 0x4 MSTORE PUSH1 0x24 PUSH0 REVERT JUMPDEST PUSH0 PUSH2 0xEFF DUP3 PUSH2 0xB1A JUMP JUMPDEST SWAP2 POP PUSH2 0xF0A DUP4 PUSH2 0xB1A JUMP JUMPDEST SWAP3 POP DUP3 DUP3 MUL PUSH2 0xF18 DUP2 PUSH2 0xB1A JUMP JUMPDEST SWAP2 POP DUP3 DUP3 DIV DUP5 EQ DUP4 ISZERO OR PUSH2 0xF2F JUMPI PUSH2 0xF2E PUSH2 0xEC8 JUMP JUMPDEST JUMPDEST POP SWAP3 SWAP2 POP POP JUMP JUMPDEST PUSH0 PUSH2 0xF40 DUP3 PUSH2 0xB1A JUMP JUMPDEST SWAP2 POP PUSH2 0xF4B DUP4 PUSH2 0xB1A JUMP JUMPDEST SWAP3 POP DUP3 DUP3 ADD SWAP1 POP DUP1 DUP3 GT ISZERO PUSH2 0xF63 JUMPI PUSH2 0xF62 PUSH2 0xEC8 JUMP JUMPDEST JUMPDEST SWAP3 SWAP2 POP POP JUMP JUMPDEST PUSH32 0x4E487B7100000000000000000000000000000000000000000000000000000000 PUSH0 MSTORE PUSH1 0x12 PUSH1 0x4 MSTORE PUSH1 0x24 PUSH0 REVERT JUMPDEST PUSH0 PUSH2 0xFA0 DUP3 PUSH2 0xB1A JUMP JUMPDEST SWAP2 POP PUSH2 0xFAB DUP4 PUSH2 0xB1A JUMP JUMPDEST SWAP3 POP DUP3 PUSH2 0xFBB JUMPI PUSH2 0xFBA PUSH2 0xF69 JUMP JUMPDEST JUMPDEST DUP3 DUP3 DIV SWAP1 POP SWAP3 SWAP2 POP POP JUMP JUMPDEST PUSH0 PUSH2 0xFD0 DUP3 PUSH2 0xB1A JUMP JUMPDEST SWAP2 POP PUSH2 0xFDB DUP4 PUSH2 0xB1A JUMP JUMPDEST SWAP3 POP DUP3 DUP3 SUB SWAP1 POP DUP2 DUP2 GT ISZERO PUSH2 0xFF3 JUMPI PUSH2 0xFF2 PUSH2 0xEC8 JUMP JUMPDEST JUMPDEST SWAP3 SWAP2 POP POP JUMP JUMPDEST PUSH0 DUP2 SWAP1 POP SWAP3 SWAP2 POP POP JUMP JUMPDEST POP JUMP JUMPDEST PUSH0 PUSH2 0x1011 PUSH0 DUP4 PUSH2 0xFF9 JUMP JUMPDEST SWAP2 POP PUSH2 0x101C DUP3 PUSH2 0x1003 JUMP JUMPDEST PUSH0 DUP3 ADD SWAP1 POP SWAP2 SWAP1 POP JUMP JUMPDEST PUSH0 PUSH2 0x1030 DUP3 PUSH2 0x1006 JUMP JUMPDEST SWAP2 POP DUP2 SWAP1 POP SWAP2 SWAP1 POP JUMP JUMPDEST PUSH32 0x4661696C656420746F20726566756E6400000000000000000000000000000000 PUSH0 DUP3 ADD MSTORE POP JUMP JUMPDEST PUSH0 PUSH2 0x106E PUSH1 0x10 DUP4 PUSH2 0xD5A JUMP JUMPDEST SWAP2 POP PUSH2 0x1079 DUP3 PUSH2 0x103A JUMP JUMPDEST PUSH1 0x20 DUP3 ADD SWAP1 POP SWAP2 SWAP1 POP JUMP JUMPDEST PUSH0 PUSH1 0x20 DUP3 ADD SWAP1 POP DUP2 DUP2 SUB PUSH0 DUP4 ADD MSTORE PUSH2 0x109B DUP2 PUSH2 0x1062 JUMP JUMPDEST SWAP1 POP SWAP2 SWAP1 POP JUMP JUMPDEST PUSH32 0x4661696C656420746F2073656E6420636F6D6D697373696F6E00000000000000 PUSH0 DUP3 ADD MSTORE POP JUMP JUMPDEST PUSH0 PUSH2 0x10D6 PUSH1 0x19 DUP4 PUSH2 0xD5A JUMP JUMPDEST SWAP2 POP PUSH2 0x10E1 DUP3 PUSH2 0x10A2 JUMP JUMPDEST PUSH1 0x20 DUP3 ADD SWAP1 POP SWAP2 SWAP1 POP JUMP JUMPDEST PUSH0 PUSH1 0x20 DUP3 ADD SWAP1 POP DUP2 DUP2 SUB PUSH0 DUP4 ADD MSTORE PUSH2 0x1103 DUP2 PUSH2 0x10CA JUMP JUMPDEST SWAP1 POP SWAP2 SWAP1 POP JUMP JUMPDEST PUSH32 0x4F6E6C79206F776E65722063616E20646F207468697320616374696F6E2E0000 PUSH0 DUP3 ADD MSTORE POP JUMP JUMPDEST PUSH0 PUSH2 0x113E PUSH1 0x1E DUP4 PUSH2 0xD5A JUMP JUMPDEST SWAP2 POP PUSH2 0x1149 DUP3 PUSH2 0x110A JUMP JUMPDEST PUSH1 0x20 DUP3 ADD SWAP1 POP SWAP2 SWAP1 POP JUMP JUMPDEST PUSH0 PUSH1 0x20 DUP3 ADD SWAP1 POP DUP2 DUP2 SUB PUSH0 DUP4 ADD MSTORE PUSH2 0x116B DUP2 PUSH2 0x1132 JUMP JUMPDEST SWAP1 POP SWAP2 SWAP1 POP JUMP JUMPDEST PUSH32 0x596F752063616E277420656E64207468652061756374696F6E206265666F7265 PUSH0 DUP3 ADD MSTORE PUSH32 0x2074686520737461626C697368656420656E6420646174652E00000000000000 PUSH1 0x20 DUP3 ADD MSTORE POP JUMP JUMPDEST PUSH0 PUSH2 0x11CC PUSH1 0x39 DUP4 PUSH2 0xD5A JUMP JUMPDEST SWAP2 POP PUSH2 0x11D7 DUP3 PUSH2 0x1172 JUMP JUMPDEST PUSH1 0x40 DUP3 ADD SWAP1 POP SWAP2 SWAP1 POP JUMP JUMPDEST PUSH0 PUSH1 0x20 DUP3 ADD SWAP1 POP DUP2 DUP2 SUB PUSH0 DUP4 ADD MSTORE PUSH2 0x11F9 DUP2 PUSH2 0x11C0 JUMP JUMPDEST SWAP1 POP SWAP2 SWAP1 POP JUMP JUMPDEST PUSH32 0x5468652061756374696F6E20697320616C726561647920636C6F7365642E0000 PUSH0 DUP3 ADD MSTORE POP JUMP JUMPDEST PUSH0 PUSH2 0x1234 PUSH1 0x1E DUP4 PUSH2 0xD5A JUMP JUMPDEST SWAP2 POP PUSH2 0x123F DUP3 PUSH2 0x1200 JUMP JUMPDEST PUSH1 0x20 DUP3 ADD SWAP1 POP SWAP2 SWAP1 POP JUMP JUMPDEST PUSH0 PUSH1 0x20 DUP3 ADD SWAP1 POP DUP2 DUP2 SUB PUSH0 DUP4 ADD MSTORE PUSH2 0x1261 DUP2 PUSH2 0x1228 JUMP JUMPDEST SWAP1 POP SWAP2 SWAP1 POP JUMP JUMPDEST PUSH32 0x596F752063616E2774206F66666572206166746572207468652065737461626C PUSH0 DUP3 ADD MSTORE PUSH32 0x697368656420706572696F64206F66207468652061756374696F6E0000000000 PUSH1 0x20 DUP3 ADD MSTORE POP JUMP JUMPDEST PUSH0 PUSH2 0x12C2 PUSH1 0x3B DUP4 PUSH2 0xD5A JUMP JUMPDEST SWAP2 POP PUSH2 0x12CD DUP3 PUSH2 0x1268 JUMP JUMPDEST PUSH1 0x40 DUP3 ADD SWAP1 POP SWAP2 SWAP1 POP JUMP JUMPDEST PUSH0 PUSH1 0x20 DUP3 ADD SWAP1 POP DUP2 DUP2 SUB PUSH0 DUP4 ADD MSTORE PUSH2 0x12EF DUP2 PUSH2 0x12B6 JUMP JUMPDEST SWAP1 POP SWAP2 SWAP1 POP JUMP JUMPDEST PUSH32 0x5468652061756374696F6E20697320636C6F7365640000000000000000000000 PUSH0 DUP3 ADD MSTORE POP JUMP JUMPDEST PUSH0 PUSH2 0x132A PUSH1 0x15 DUP4 PUSH2 0xD5A JUMP JUMPDEST SWAP2 POP PUSH2 0x1335 DUP3 PUSH2 0x12F6 JUMP JUMPDEST PUSH1 0x20 DUP3 ADD SWAP1 POP SWAP2 SWAP1 POP JUMP JUMPDEST PUSH0 PUSH1 0x20 DUP3 ADD SWAP1 POP DUP2 DUP2 SUB PUSH0 DUP4 ADD MSTORE PUSH2 0x1357 DUP2 PUSH2 0x131E JUMP JUMPDEST SWAP1 POP SWAP2 SWAP1 POP JUMP JUMPDEST PUSH32 0x54686520616D6F756E74206F66666572656420666F7220746869732061756374 PUSH0 DUP3 ADD MSTORE PUSH32 0x696F6E206D75737420626520686967686572207468616E203000000000000000 PUSH1 0x20 DUP3 ADD MSTORE POP JUMP JUMPDEST PUSH0 PUSH2 0x13B8 PUSH1 0x39 DUP4 PUSH2 0xD5A JUMP JUMPDEST SWAP2 POP PUSH2 0x13C3 DUP3 PUSH2 0x135E JUMP JUMPDEST PUSH1 0x40 DUP3 ADD SWAP1 POP SWAP2 SWAP1 POP JUMP JUMPDEST PUSH0 PUSH1 0x20 DUP3 ADD SWAP1 POP DUP2 DUP2 SUB PUSH0 DUP4 ADD MSTORE PUSH2 0x13E5 DUP2 PUSH2 0x13AC JUMP JUMPDEST SWAP1 POP SWAP2 SWAP1 POP JUMP JUMPDEST PUSH32 0x54686520616D6F756E74206F66666572656420666F7220746869732061756374 PUSH0 DUP3 ADD MSTORE PUSH32 0x696F6E206D75737420626520352520686967686572207468616E207468652062 PUSH1 0x20 DUP3 ADD MSTORE PUSH32 0x657374206F666665720000000000000000000000000000000000000000000000 PUSH1 0x40 DUP3 ADD MSTORE POP JUMP JUMPDEST PUSH0 PUSH2 0x146C PUSH1 0x49 DUP4 PUSH2 0xD5A JUMP JUMPDEST SWAP2 POP PUSH2 0x1477 DUP3 PUSH2 0x13EC JUMP JUMPDEST PUSH1 0x60 DUP3 ADD SWAP1 POP SWAP2 SWAP1 POP JUMP JUMPDEST PUSH0 PUSH1 0x20 DUP3 ADD SWAP1 POP DUP2 DUP2 SUB PUSH0 DUP4 ADD MSTORE PUSH2 0x1499 DUP2 PUSH2 0x1460 JUMP JUMPDEST SWAP1 POP SWAP2 SWAP1 POP JUMP INVALID LOG2 PUSH5 0x6970667358 0x22 SLT KECCAK256 SIGNEXTEND 0xDF DUP6 SLOAD GAS GASLIMIT 0x4F MOD CALLDATASIZE PC 0x26 EXTDELEGATECALL GASPRICE STOP DUP1 SWAPN 0x7C PUSH20 0xDAB9D26B9765944186EA498B3A9464736F6C6343 STOP ADDMOD 0x1E STOP CALLER "
		},
		"gasEstimates": {
			"creation": {
				"codeDepositCost": "1066800",
				"executionCost": "infinite",
				"totalCost": "infinite"
			},
			"external": {
				"CreateOffer()": "infinite",
				"EndAuction()": "30876",
				"ShowAuctionOffers()": "infinite",
				"ShowAuctionWinner()": "7238",
				"endDateAuction()": "2513",
				"minimumNewOfferPercentage()": "2492",
				"refund(uint256)": "infinite",
				"returnCommission()": "2470",
				"startDateAuction()": "2426"
			}
		},
		"methodIdentifiers": {
			"CreateOffer()": "a7cbe83a",
			"EndAuction()": "6a7798ee",
			"ShowAuctionOffers()": "7b02c518",
			"ShowAuctionWinner()": "41d71b60",
			"endDateAuction()": "d88a540d",
			"minimumNewOfferPercentage()": "3f9af859",
			"refund(uint256)": "278ecde1",
			"returnCommission()": "328b8d15",
			"startDateAuction()": "02dcade9"
		}
	},
	"abi": [
		{
			"inputs": [
				{
					"internalType": "uint256",
					"name": "_endDateAuction",
					"type": "uint256"
				},
				{
					"internalType": "uint256",
					"name": "_offer",
					"type": "uint256"
				}
			],
			"stateMutability": "nonpayable",
			"type": "constructor"
		},
		{
			"anonymous": false,
			"inputs": [
				{
					"indexed": false,
					"internalType": "address",
					"name": "topAccount",
					"type": "address"
				},
				{
					"indexed": false,
					"internalType": "uint256",
					"name": "topOffer",
					"type": "uint256"
				},
				{
					"indexed": false,
					"internalType": "uint256",
					"name": "timestamp",
					"type": "uint256"
				}
			],
			"name": "endAuctionEvent",
			"type": "event"
		},
		{
			"anonymous": false,
			"inputs": [
				{
					"indexed": false,
					"internalType": "address",
					"name": "account",
					"type": "address"
				},
				{
					"indexed": false,
					"internalType": "uint256",
					"name": "offer",
					"type": "uint256"
				}
			],
			"name": "newOfferEvent",
			"type": "event"
		},
		{
			"inputs": [],
			"name": "CreateOffer",
			"outputs": [],
			"stateMutability": "payable",
			"type": "function"
		},
		{
			"inputs": [],
			"name": "EndAuction",
			"outputs": [],
			"stateMutability": "nonpayable",
			"type": "function"
		},
		{
			"inputs": [],
			"name": "ShowAuctionOffers",
			"outputs": [
				{
					"components": [
						{
							"internalType": "address",
							"name": "account",
							"type": "address"
						},
						{
							"internalType": "uint256",
							"name": "amount",
							"type": "uint256"
						}
					],
					"internalType": "struct Auction.StructOfferAccount[]",
					"name": "",
					"type": "tuple[]"
				}
			],
			"stateMutability": "view",
			"type": "function"
		},
		{
			"inputs": [],
			"name": "ShowAuctionWinner",
			"outputs": [
				{
					"components": [
						{
							"internalType": "address",
							"name": "account",
							"type": "address"
						},
						{
							"internalType": "uint256",
							"name": "amount",
							"type": "uint256"
						},
						{
							"internalType": "bool",
							"name": "auctionEnded",
							"type": "bool"
						}
					],
					"internalType": "struct Auction.auxStructResult",
					"name": "",
					"type": "tuple"
				}
			],
			"stateMutability": "view",
			"type": "function"
		},
		{
			"inputs": [],
			"name": "endDateAuction",
			"outputs": [
				{
					"internalType": "uint256",
					"name": "",
					"type": "uint256"
				}
			],
			"stateMutability": "view",
			"type": "function"
		},
		{
			"inputs": [],
			"name": "minimumNewOfferPercentage",
			"outputs": [
				{
					"internalType": "uint256",
					"name": "",
					"type": "uint256"
				}
			],
			"stateMutability": "view",
			"type": "function"
		},
		{
			"inputs": [
				{
					"internalType": "uint256",
					"name": "amount",
					"type": "uint256"
				}
			],
			"name": "refund",
			"outputs": [],
			"stateMutability": "nonpayable",
			"type": "function"
		},
		{
			"inputs": [],
			"name": "returnCommission",
			"outputs": [
				{
					"internalType": "uint256",
					"name": "",
					"type": "uint256"
				}
			],
			"stateMutability": "view",
			"type": "function"
		},
		{
			"inputs": [],
			"name": "startDateAuction",
			"outputs": [
				{
					"internalType": "uint256",
					"name": "",
					"type": "uint256"
				}
			],
			"stateMutability": "view",
			"type": "function"
		}
	]
}