{
	"data": {
		"bytecode": {
			"linkReferences": {},
			"object": "60806040525f600155348015610013575f5ffd5b503360025f6101000a81548173ffffffffffffffffffffffffffffffffffffffff021916908373ffffffffffffffffffffffffffffffffffffffff1602179055506040518060400160405280600e81526020017f48656c6c6f20457468657265756d0000000000000000000000000000000000008152505f908161009791906102f1565b5060015f8154809291906100aa906103ed565b9190505550610434565b5f81519050919050565b7f4e487b71000000000000000000000000000000000000000000000000000000005f52604160045260245ffd5b7f4e487b71000000000000000000000000000000000000000000000000000000005f52602260045260245ffd5b5f600282049050600182168061012f57607f821691505b602082108103610142576101416100eb565b5b50919050565b5f819050815f5260205f209050919050565b5f6020601f8301049050919050565b5f82821b905092915050565b5f600883026101a47fffffffffffffffffffffffffffffffffffffffffffffffffffffffffffffffff82610169565b6101ae8683610169565b95508019841693508086168417925050509392505050565b5f819050919050565b5f819050919050565b5f6101f26101ed6101e8846101c6565b6101cf565b6101c6565b9050919050565b5f819050919050565b61020b836101d8565b61021f610217826101f9565b848454610175565b825550505050565b5f5f905090565b610236610227565b610241818484610202565b505050565b5b81811015610264576102595f8261022e565b600181019050610247565b5050565b601f8211156102a95761027a81610148565b6102838461015a565b81016020851015610292578190505b6102a661029e8561015a565b830182610246565b50505b505050565b5f82821c905092915050565b5f6102c95f19846008026102ae565b1980831691505092915050565b5f6102e183836102ba565b9150826002028217905092915050565b6102fa826100b4565b67ffffffffffffffff811115610313576103126100be565b5b61031d8254610118565b610328828285610268565b5f60209050601f831160018114610359575f8415610347578287015190505b61035185826102d6565b8655506103b8565b601f19841661036786610148565b5f5b8281101561038e57848901518255600182019150602085019450602081019050610369565b868310156103ab57848901516103a7601f8916826102ba565b8355505b6001600288020188555050505b505050505050565b7f4e487b71000000000000000000000000000000000000000000000000000000005f52601160045260245ffd5b5f6103f7826101c6565b91507fffffffffffffffffffffffffffffffffffffffffffffffffffffffffffffffff8203610429576104286103c0565b5b600182019050919050565b61096f806104415f395ff3fe608060405234801561000f575f5ffd5b506004361061003f575f3560e01c80632af2bc27146100435780635a9b0b8914610061578063937f6e771461007f575b5f5ffd5b61004b61009b565b604051610058919061023b565b60405180910390f35b6100696100a1565b60405161007691906102c4565b60405180910390f35b61009960048036038101906100949190610421565b610130565b005b60015481565b60605f80546100af90610495565b80601f01602080910402602001604051908101604052809291908181526020018280546100db90610495565b80156101265780601f106100fd57610100808354040283529160200191610126565b820191905f5260205f20905b81548152906001019060200180831161010957829003601f168201915b5050505050905090565b3373ffffffffffffffffffffffffffffffffffffffff1660025f9054906101000a900473ffffffffffffffffffffffffffffffffffffffff1673ffffffffffffffffffffffffffffffffffffffff16146101bf576040517f08c379a00000000000000000000000000000000000000000000000000000000081526004016101b690610535565b60405180910390fd5b7ff4fdc343753b606d6ec830aafb8d737f434f9a20dcc80848b76fde9410b6f0bc5f82336040516101f293929190610625565b60405180910390a1805f908161020891906107f6565b5060015f81548092919061021b906108f2565b919050555050565b5f819050919050565b61023581610223565b82525050565b5f60208201905061024e5f83018461022c565b92915050565b5f81519050919050565b5f82825260208201905092915050565b8281835e5f83830152505050565b5f601f19601f8301169050919050565b5f61029682610254565b6102a0818561025e565b93506102b081856020860161026e565b6102b98161027c565b840191505092915050565b5f6020820190508181035f8301526102dc818461028c565b905092915050565b5f604051905090565b5f5ffd5b5f5ffd5b5f5ffd5b5f5ffd5b7f4e487b71000000000000000000000000000000000000000000000000000000005f52604160045260245ffd5b6103338261027c565b810181811067ffffffffffffffff82111715610352576103516102fd565b5b80604052505050565b5f6103646102e4565b9050610370828261032a565b919050565b5f67ffffffffffffffff82111561038f5761038e6102fd565b5b6103988261027c565b9050602081019050919050565b828183375f83830152505050565b5f6103c56103c084610375565b61035b565b9050828152602081018484840111156103e1576103e06102f9565b5b6103ec8482856103a5565b509392505050565b5f82601f830112610408576104076102f5565b5b81356104188482602086016103b3565b91505092915050565b5f60208284031215610436576104356102ed565b5b5f82013567ffffffffffffffff811115610453576104526102f1565b5b61045f848285016103f4565b91505092915050565b7f4e487b71000000000000000000000000000000000000000000000000000000005f52602260045260245ffd5b5f60028204905060018216806104ac57607f821691505b6020821081036104bf576104be610468565b5b50919050565b7f4f6e6c79206f776e65722063616e20706572666f726d207468697320616374695f8201527f6f6e000000000000000000000000000000000000000000000000000000000000602082015250565b5f61051f60228361025e565b915061052a826104c5565b604082019050919050565b5f6020820190508181035f83015261054c81610513565b9050919050565b5f819050815f5260205f209050919050565b5f815461057181610495565b61057b818661025e565b9450600182165f811461059557600181146105ab576105dd565b60ff1983168652811515602002860193506105dd565b6105b485610553565b5f5b838110156105d5578154818901526001820191506020810190506105b6565b808801955050505b50505092915050565b5f73ffffffffffffffffffffffffffffffffffffffff82169050919050565b5f61060f826105e6565b9050919050565b61061f81610605565b82525050565b5f6060820190508181035f83015261063d8186610565565b90508181036020830152610651818561028c565b90506106606040830184610616565b949350505050565b5f6020601f8301049050919050565b5f82821b905092915050565b5f600883026106b27fffffffffffffffffffffffffffffffffffffffffffffffffffffffffffffffff82610677565b6106bc8683610677565b95508019841693508086168417925050509392505050565b5f819050919050565b5f6106f76106f26106ed84610223565b6106d4565b610223565b9050919050565b5f819050919050565b610710836106dd565b61072461071c826106fe565b848454610683565b825550505050565b5f5f905090565b61073b61072c565b610746818484610707565b505050565b5b818110156107695761075e5f82610733565b60018101905061074c565b5050565b601f8211156107ae5761077f81610553565b61078884610668565b81016020851015610797578190505b6107ab6107a385610668565b83018261074b565b50505b505050565b5f82821c905092915050565b5f6107ce5f19846008026107b3565b1980831691505092915050565b5f6107e683836107bf565b9150826002028217905092915050565b6107ff82610254565b67ffffffffffffffff811115610818576108176102fd565b5b6108228254610495565b61082d82828561076d565b5f60209050601f83116001811461085e575f841561084c578287015190505b61085685826107db565b8655506108bd565b601f19841661086c86610553565b5f5b828110156108935784890151825560018201915060208501945060208101905061086e565b868310156108b057848901516108ac601f8916826107bf565b8355505b6001600288020188555050505b505050505050565b7f4e487b71000000000000000000000000000000000000000000000000000000005f52601160045260245ffd5b5f6108fc82610223565b91507fffffffffffffffffffffffffffffffffffffffffffffffffffffffffffffffff820361092e5761092d6108c5565b5b60018201905091905056fea2646970667358221220c1e8cc90df7cf6c3fe47487f2df61c73ad92f2326f7088299f0d5cc811f36d2064736f6c634300081e0033",
			"opcodes": "PUSH1 0x80 PUSH1 0x40 MSTORE PUSH0 PUSH1 0x1 SSTORE CALLVALUE DUP1 ISZERO PUSH2 0x13 JUMPI PUSH0 PUSH0 REVERT JUMPDEST POP CALLER PUSH1 0x2 PUSH0 PUSH2 0x100 EXP DUP2 SLOAD DUP2 PUSH20 0xFFFFFFFFFFFFFFFFFFFFFFFFFFFFFFFFFFFFFFFF MUL NOT AND SWAP1 DUP4 PUSH20 0xFFFFFFFFFFFFFFFFFFFFFFFFFFFFFFFFFFFFFFFF AND MUL OR SWAP1 SSTORE POP PUSH1 0x40 MLOAD DUP1 PUSH1 0x40 ADD PUSH1 0x40 MSTORE DUP1 PUSH1 0xE DUP2 MSTORE PUSH1 0x20 ADD PUSH32 0x48656C6C6F20457468657265756D000000000000000000000000000000000000 DUP2 MSTORE POP PUSH0 SWAP1 DUP2 PUSH2 0x97 SWAP2 SWAP1 PUSH2 0x2F1 JUMP JUMPDEST POP PUSH1 0x1 PUSH0 DUP2 SLOAD DUP1 SWAP3 SWAP2 SWAP1 PUSH2 0xAA SWAP1 PUSH2 0x3ED JUMP JUMPDEST SWAP2 SWAP1 POP SSTORE POP PUSH2 0x434 JUMP JUMPDEST PUSH0 DUP2 MLOAD SWAP1 POP SWAP2 SWAP1 POP JUMP JUMPDEST PUSH32 0x4E487B7100000000000000000000000000000000000000000000000000000000 PUSH0 MSTORE PUSH1 0x41 PUSH1 0x4 MSTORE PUSH1 0x24 PUSH0 REVERT JUMPDEST PUSH32 0x4E487B7100000000000000000000000000000000000000000000000000000000 PUSH0 MSTORE PUSH1 0x22 PUSH1 0x4 MSTORE PUSH1 0x24 PUSH0 REVERT JUMPDEST PUSH0 PUSH1 0x2 DUP3 DIV SWAP1 POP PUSH1 0x1 DUP3 AND DUP1 PUSH2 0x12F JUMPI PUSH1 0x7F DUP3 AND SWAP2 POP JUMPDEST PUSH1 0x20 DUP3 LT DUP2 SUB PUSH2 0x142 JUMPI PUSH2 0x141 PUSH2 0xEB JUMP JUMPDEST JUMPDEST POP SWAP2 SWAP1 POP JUMP JUMPDEST PUSH0 DUP2 SWAP1 POP DUP2 PUSH0 MSTORE PUSH1 0x20 PUSH0 KECCAK256 SWAP1 POP SWAP2 SWAP1 POP JUMP JUMPDEST PUSH0 PUSH1 0x20 PUSH1 0x1F DUP4 ADD DIV SWAP1 POP SWAP2 SWAP1 POP JUMP JUMPDEST PUSH0 DUP3 DUP3 SHL SWAP1 POP SWAP3 SWAP2 POP POP JUMP JUMPDEST PUSH0 PUSH1 0x8 DUP4 MUL PUSH2 0x1A4 PUSH32 0xFFFFFFFFFFFFFFFFFFFFFFFFFFFFFFFFFFFFFFFFFFFFFFFFFFFFFFFFFFFFFFFF DUP3 PUSH2 0x169 JUMP JUMPDEST PUSH2 0x1AE DUP7 DUP4 PUSH2 0x169 JUMP JUMPDEST SWAP6 POP DUP1 NOT DUP5 AND SWAP4 POP DUP1 DUP7 AND DUP5 OR SWAP3 POP POP POP SWAP4 SWAP3 POP POP POP JUMP JUMPDEST PUSH0 DUP2 SWAP1 POP SWAP2 SWAP1 POP JUMP JUMPDEST PUSH0 DUP2 SWAP1 POP SWAP2 SWAP1 POP JUMP JUMPDEST PUSH0 PUSH2 0x1F2 PUSH2 0x1ED PUSH2 0x1E8 DUP5 PUSH2 0x1C6 JUMP JUMPDEST PUSH2 0x1CF JUMP JUMPDEST PUSH2 0x1C6 JUMP JUMPDEST SWAP1 POP SWAP2 SWAP1 POP JUMP JUMPDEST PUSH0 DUP2 SWAP1 POP SWAP2 SWAP1 POP JUMP JUMPDEST PUSH2 0x20B DUP4 PUSH2 0x1D8 JUMP JUMPDEST PUSH2 0x21F PUSH2 0x217 DUP3 PUSH2 0x1F9 JUMP JUMPDEST DUP5 DUP5 SLOAD PUSH2 0x175 JUMP JUMPDEST DUP3 SSTORE POP POP POP POP JUMP JUMPDEST PUSH0 PUSH0 SWAP1 POP SWAP1 JUMP JUMPDEST PUSH2 0x236 PUSH2 0x227 JUMP JUMPDEST PUSH2 0x241 DUP2 DUP5 DUP5 PUSH2 0x202 JUMP JUMPDEST POP POP POP JUMP JUMPDEST JUMPDEST DUP2 DUP2 LT ISZERO PUSH2 0x264 JUMPI PUSH2 0x259 PUSH0 DUP3 PUSH2 0x22E JUMP JUMPDEST PUSH1 0x1 DUP2 ADD SWAP1 POP PUSH2 0x247 JUMP JUMPDEST POP POP JUMP JUMPDEST PUSH1 0x1F DUP3 GT ISZERO PUSH2 0x2A9 JUMPI PUSH2 0x27A DUP2 PUSH2 0x148 JUMP JUMPDEST PUSH2 0x283 DUP5 PUSH2 0x15A JUMP JUMPDEST DUP2 ADD PUSH1 0x20 DUP6 LT ISZERO PUSH2 0x292 JUMPI DUP2 SWAP1 POP JUMPDEST PUSH2 0x2A6 PUSH2 0x29E DUP6 PUSH2 0x15A JUMP JUMPDEST DUP4 ADD DUP3 PUSH2 0x246 JUMP JUMPDEST POP POP JUMPDEST POP POP POP JUMP JUMPDEST PUSH0 DUP3 DUP3 SHR SWAP1 POP SWAP3 SWAP2 POP POP JUMP JUMPDEST PUSH0 PUSH2 0x2C9 PUSH0 NOT DUP5 PUSH1 0x8 MUL PUSH2 0x2AE JUMP JUMPDEST NOT DUP1 DUP4 AND SWAP2 POP POP SWAP3 SWAP2 POP POP JUMP JUMPDEST PUSH0 PUSH2 0x2E1 DUP4 DUP4 PUSH2 0x2BA JUMP JUMPDEST SWAP2 POP DUP3 PUSH1 0x2 MUL DUP3 OR SWAP1 POP SWAP3 SWAP2 POP POP JUMP JUMPDEST PUSH2 0x2FA DUP3 PUSH2 0xB4 JUMP JUMPDEST PUSH8 0xFFFFFFFFFFFFFFFF DUP2 GT ISZERO PUSH2 0x313 JUMPI PUSH2 0x312 PUSH2 0xBE JUMP JUMPDEST JUMPDEST PUSH2 0x31D DUP3 SLOAD PUSH2 0x118 JUMP JUMPDEST PUSH2 0x328 DUP3 DUP3 DUP6 PUSH2 0x268 JUMP JUMPDEST PUSH0 PUSH1 0x20 SWAP1 POP PUSH1 0x1F DUP4 GT PUSH1 0x1 DUP2 EQ PUSH2 0x359 JUMPI PUSH0 DUP5 ISZERO PUSH2 0x347 JUMPI DUP3 DUP8 ADD MLOAD SWAP1 POP JUMPDEST PUSH2 0x351 DUP6 DUP3 PUSH2 0x2D6 JUMP JUMPDEST DUP7 SSTORE POP PUSH2 0x3B8 JUMP JUMPDEST PUSH1 0x1F NOT DUP5 AND PUSH2 0x367 DUP7 PUSH2 0x148 JUMP JUMPDEST PUSH0 JUMPDEST DUP3 DUP2 LT ISZERO PUSH2 0x38E JUMPI DUP5 DUP10 ADD MLOAD DUP3 SSTORE PUSH1 0x1 DUP3 ADD SWAP2 POP PUSH1 0x20 DUP6 ADD SWAP5 POP PUSH1 0x20 DUP2 ADD SWAP1 POP PUSH2 0x369 JUMP JUMPDEST DUP7 DUP4 LT ISZERO PUSH2 0x3AB JUMPI DUP5 DUP10 ADD MLOAD PUSH2 0x3A7 PUSH1 0x1F DUP10 AND DUP3 PUSH2 0x2BA JUMP JUMPDEST DUP4 SSTORE POP JUMPDEST PUSH1 0x1 PUSH1 0x2 DUP9 MUL ADD DUP9 SSTORE POP POP POP JUMPDEST POP POP POP POP POP POP JUMP JUMPDEST PUSH32 0x4E487B7100000000000000000000000000000000000000000000000000000000 PUSH0 MSTORE PUSH1 0x11 PUSH1 0x4 MSTORE PUSH1 0x24 PUSH0 REVERT JUMPDEST PUSH0 PUSH2 0x3F7 DUP3 PUSH2 0x1C6 JUMP JUMPDEST SWAP2 POP PUSH32 0xFFFFFFFFFFFFFFFFFFFFFFFFFFFFFFFFFFFFFFFFFFFFFFFFFFFFFFFFFFFFFFFF DUP3 SUB PUSH2 0x429 JUMPI PUSH2 0x428 PUSH2 0x3C0 JUMP JUMPDEST JUMPDEST PUSH1 0x1 DUP3 ADD SWAP1 POP SWAP2 SWAP1 POP JUMP JUMPDEST PUSH2 0x96F DUP1 PUSH2 0x441 PUSH0 CODECOPY PUSH0 RETURN INVALID PUSH1 0x80 PUSH1 0x40 MSTORE CALLVALUE DUP1 ISZERO PUSH2 0xF JUMPI PUSH0 PUSH0 REVERT JUMPDEST POP PUSH1 0x4 CALLDATASIZE LT PUSH2 0x3F JUMPI PUSH0 CALLDATALOAD PUSH1 0xE0 SHR DUP1 PUSH4 0x2AF2BC27 EQ PUSH2 0x43 JUMPI DUP1 PUSH4 0x5A9B0B89 EQ PUSH2 0x61 JUMPI DUP1 PUSH4 0x937F6E77 EQ PUSH2 0x7F JUMPI JUMPDEST PUSH0 PUSH0 REVERT JUMPDEST PUSH2 0x4B PUSH2 0x9B JUMP JUMPDEST PUSH1 0x40 MLOAD PUSH2 0x58 SWAP2 SWAP1 PUSH2 0x23B JUMP JUMPDEST PUSH1 0x40 MLOAD DUP1 SWAP2 SUB SWAP1 RETURN JUMPDEST PUSH2 0x69 PUSH2 0xA1 JUMP JUMPDEST PUSH1 0x40 MLOAD PUSH2 0x76 SWAP2 SWAP1 PUSH2 0x2C4 JUMP JUMPDEST PUSH1 0x40 MLOAD DUP1 SWAP2 SUB SWAP1 RETURN JUMPDEST PUSH2 0x99 PUSH1 0x4 DUP1 CALLDATASIZE SUB DUP2 ADD SWAP1 PUSH2 0x94 SWAP2 SWAP1 PUSH2 0x421 JUMP JUMPDEST PUSH2 0x130 JUMP JUMPDEST STOP JUMPDEST PUSH1 0x1 SLOAD DUP2 JUMP JUMPDEST PUSH1 0x60 PUSH0 DUP1 SLOAD PUSH2 0xAF SWAP1 PUSH2 0x495 JUMP JUMPDEST DUP1 PUSH1 0x1F ADD PUSH1 0x20 DUP1 SWAP2 DIV MUL PUSH1 0x20 ADD PUSH1 0x40 MLOAD SWAP1 DUP2 ADD PUSH1 0x40 MSTORE DUP1 SWAP3 SWAP2 SWAP1 DUP2 DUP2 MSTORE PUSH1 0x20 ADD DUP3 DUP1 SLOAD PUSH2 0xDB SWAP1 PUSH2 0x495 JUMP JUMPDEST DUP1 ISZERO PUSH2 0x126 JUMPI DUP1 PUSH1 0x1F LT PUSH2 0xFD JUMPI PUSH2 0x100 DUP1 DUP4 SLOAD DIV MUL DUP4 MSTORE SWAP2 PUSH1 0x20 ADD SWAP2 PUSH2 0x126 JUMP JUMPDEST DUP3 ADD SWAP2 SWAP1 PUSH0 MSTORE PUSH1 0x20 PUSH0 KECCAK256 SWAP1 JUMPDEST DUP2 SLOAD DUP2 MSTORE SWAP1 PUSH1 0x1 ADD SWAP1 PUSH1 0x20 ADD DUP1 DUP4 GT PUSH2 0x109 JUMPI DUP3 SWAP1 SUB PUSH1 0x1F AND DUP3 ADD SWAP2 JUMPDEST POP POP POP POP POP SWAP1 POP SWAP1 JUMP JUMPDEST CALLER PUSH20 0xFFFFFFFFFFFFFFFFFFFFFFFFFFFFFFFFFFFFFFFF AND PUSH1 0x2 PUSH0 SWAP1 SLOAD SWAP1 PUSH2 0x100 EXP SWAP1 DIV PUSH20 0xFFFFFFFFFFFFFFFFFFFFFFFFFFFFFFFFFFFFFFFF AND PUSH20 0xFFFFFFFFFFFFFFFFFFFFFFFFFFFFFFFFFFFFFFFF AND EQ PUSH2 0x1BF JUMPI PUSH1 0x40 MLOAD PUSH32 0x8C379A000000000000000000000000000000000000000000000000000000000 DUP2 MSTORE PUSH1 0x4 ADD PUSH2 0x1B6 SWAP1 PUSH2 0x535 JUMP JUMPDEST PUSH1 0x40 MLOAD DUP1 SWAP2 SUB SWAP1 REVERT JUMPDEST PUSH32 0xF4FDC343753B606D6EC830AAFB8D737F434F9A20DCC80848B76FDE9410B6F0BC PUSH0 DUP3 CALLER PUSH1 0x40 MLOAD PUSH2 0x1F2 SWAP4 SWAP3 SWAP2 SWAP1 PUSH2 0x625 JUMP JUMPDEST PUSH1 0x40 MLOAD DUP1 SWAP2 SUB SWAP1 LOG1 DUP1 PUSH0 SWAP1 DUP2 PUSH2 0x208 SWAP2 SWAP1 PUSH2 0x7F6 JUMP JUMPDEST POP PUSH1 0x1 PUSH0 DUP2 SLOAD DUP1 SWAP3 SWAP2 SWAP1 PUSH2 0x21B SWAP1 PUSH2 0x8F2 JUMP JUMPDEST SWAP2 SWAP1 POP SSTORE POP POP JUMP JUMPDEST PUSH0 DUP2 SWAP1 POP SWAP2 SWAP1 POP JUMP JUMPDEST PUSH2 0x235 DUP2 PUSH2 0x223 JUMP JUMPDEST DUP3 MSTORE POP POP JUMP JUMPDEST PUSH0 PUSH1 0x20 DUP3 ADD SWAP1 POP PUSH2 0x24E PUSH0 DUP4 ADD DUP5 PUSH2 0x22C JUMP JUMPDEST SWAP3 SWAP2 POP POP JUMP JUMPDEST PUSH0 DUP2 MLOAD SWAP1 POP SWAP2 SWAP1 POP JUMP JUMPDEST PUSH0 DUP3 DUP3 MSTORE PUSH1 0x20 DUP3 ADD SWAP1 POP SWAP3 SWAP2 POP POP JUMP JUMPDEST DUP3 DUP2 DUP4 MCOPY PUSH0 DUP4 DUP4 ADD MSTORE POP POP POP JUMP JUMPDEST PUSH0 PUSH1 0x1F NOT PUSH1 0x1F DUP4 ADD AND SWAP1 POP SWAP2 SWAP1 POP JUMP JUMPDEST PUSH0 PUSH2 0x296 DUP3 PUSH2 0x254 JUMP JUMPDEST PUSH2 0x2A0 DUP2 DUP6 PUSH2 0x25E JUMP JUMPDEST SWAP4 POP PUSH2 0x2B0 DUP2 DUP6 PUSH1 0x20 DUP7 ADD PUSH2 0x26E JUMP JUMPDEST PUSH2 0x2B9 DUP2 PUSH2 0x27C JUMP JUMPDEST DUP5 ADD SWAP2 POP POP SWAP3 SWAP2 POP POP JUMP JUMPDEST PUSH0 PUSH1 0x20 DUP3 ADD SWAP1 POP DUP2 DUP2 SUB PUSH0 DUP4 ADD MSTORE PUSH2 0x2DC DUP2 DUP5 PUSH2 0x28C JUMP JUMPDEST SWAP1 POP SWAP3 SWAP2 POP POP JUMP JUMPDEST PUSH0 PUSH1 0x40 MLOAD SWAP1 POP SWAP1 JUMP JUMPDEST PUSH0 PUSH0 REVERT JUMPDEST PUSH0 PUSH0 REVERT JUMPDEST PUSH0 PUSH0 REVERT JUMPDEST PUSH0 PUSH0 REVERT JUMPDEST PUSH32 0x4E487B7100000000000000000000000000000000000000000000000000000000 PUSH0 MSTORE PUSH1 0x41 PUSH1 0x4 MSTORE PUSH1 0x24 PUSH0 REVERT JUMPDEST PUSH2 0x333 DUP3 PUSH2 0x27C JUMP JUMPDEST DUP2 ADD DUP2 DUP2 LT PUSH8 0xFFFFFFFFFFFFFFFF DUP3 GT OR ISZERO PUSH2 0x352 JUMPI PUSH2 0x351 PUSH2 0x2FD JUMP JUMPDEST JUMPDEST DUP1 PUSH1 0x40 MSTORE POP POP POP JUMP JUMPDEST PUSH0 PUSH2 0x364 PUSH2 0x2E4 JUMP JUMPDEST SWAP1 POP PUSH2 0x370 DUP3 DUP3 PUSH2 0x32A JUMP JUMPDEST SWAP2 SWAP1 POP JUMP JUMPDEST PUSH0 PUSH8 0xFFFFFFFFFFFFFFFF DUP3 GT ISZERO PUSH2 0x38F JUMPI PUSH2 0x38E PUSH2 0x2FD JUMP JUMPDEST JUMPDEST PUSH2 0x398 DUP3 PUSH2 0x27C JUMP JUMPDEST SWAP1 POP PUSH1 0x20 DUP2 ADD SWAP1 POP SWAP2 SWAP1 POP JUMP JUMPDEST DUP3 DUP2 DUP4 CALLDATACOPY PUSH0 DUP4 DUP4 ADD MSTORE POP POP POP JUMP JUMPDEST PUSH0 PUSH2 0x3C5 PUSH2 0x3C0 DUP5 PUSH2 0x375 JUMP JUMPDEST PUSH2 0x35B JUMP JUMPDEST SWAP1 POP DUP3 DUP2 MSTORE PUSH1 0x20 DUP2 ADD DUP5 DUP5 DUP5 ADD GT ISZERO PUSH2 0x3E1 JUMPI PUSH2 0x3E0 PUSH2 0x2F9 JUMP JUMPDEST JUMPDEST PUSH2 0x3EC DUP5 DUP3 DUP6 PUSH2 0x3A5 JUMP JUMPDEST POP SWAP4 SWAP3 POP POP POP JUMP JUMPDEST PUSH0 DUP3 PUSH1 0x1F DUP4 ADD SLT PUSH2 0x408 JUMPI PUSH2 0x407 PUSH2 0x2F5 JUMP JUMPDEST JUMPDEST DUP2 CALLDATALOAD PUSH2 0x418 DUP5 DUP3 PUSH1 0x20 DUP7 ADD PUSH2 0x3B3 JUMP JUMPDEST SWAP2 POP POP SWAP3 SWAP2 POP POP JUMP JUMPDEST PUSH0 PUSH1 0x20 DUP3 DUP5 SUB SLT ISZERO PUSH2 0x436 JUMPI PUSH2 0x435 PUSH2 0x2ED JUMP JUMPDEST JUMPDEST PUSH0 DUP3 ADD CALLDATALOAD PUSH8 0xFFFFFFFFFFFFFFFF DUP2 GT ISZERO PUSH2 0x453 JUMPI PUSH2 0x452 PUSH2 0x2F1 JUMP JUMPDEST JUMPDEST PUSH2 0x45F DUP5 DUP3 DUP6 ADD PUSH2 0x3F4 JUMP JUMPDEST SWAP2 POP POP SWAP3 SWAP2 POP POP JUMP JUMPDEST PUSH32 0x4E487B7100000000000000000000000000000000000000000000000000000000 PUSH0 MSTORE PUSH1 0x22 PUSH1 0x4 MSTORE PUSH1 0x24 PUSH0 REVERT JUMPDEST PUSH0 PUSH1 0x2 DUP3 DIV SWAP1 POP PUSH1 0x1 DUP3 AND DUP1 PUSH2 0x4AC JUMPI PUSH1 0x7F DUP3 AND SWAP2 POP JUMPDEST PUSH1 0x20 DUP3 LT DUP2 SUB PUSH2 0x4BF JUMPI PUSH2 0x4BE PUSH2 0x468 JUMP JUMPDEST JUMPDEST POP SWAP2 SWAP1 POP JUMP JUMPDEST PUSH32 0x4F6E6C79206F776E65722063616E20706572666F726D20746869732061637469 PUSH0 DUP3 ADD MSTORE PUSH32 0x6F6E000000000000000000000000000000000000000000000000000000000000 PUSH1 0x20 DUP3 ADD MSTORE POP JUMP JUMPDEST PUSH0 PUSH2 0x51F PUSH1 0x22 DUP4 PUSH2 0x25E JUMP JUMPDEST SWAP2 POP PUSH2 0x52A DUP3 PUSH2 0x4C5 JUMP JUMPDEST PUSH1 0x40 DUP3 ADD SWAP1 POP SWAP2 SWAP1 POP JUMP JUMPDEST PUSH0 PUSH1 0x20 DUP3 ADD SWAP1 POP DUP2 DUP2 SUB PUSH0 DUP4 ADD MSTORE PUSH2 0x54C DUP2 PUSH2 0x513 JUMP JUMPDEST SWAP1 POP SWAP2 SWAP1 POP JUMP JUMPDEST PUSH0 DUP2 SWAP1 POP DUP2 PUSH0 MSTORE PUSH1 0x20 PUSH0 KECCAK256 SWAP1 POP SWAP2 SWAP1 POP JUMP JUMPDEST PUSH0 DUP2 SLOAD PUSH2 0x571 DUP2 PUSH2 0x495 JUMP JUMPDEST PUSH2 0x57B DUP2 DUP7 PUSH2 0x25E JUMP JUMPDEST SWAP5 POP PUSH1 0x1 DUP3 AND PUSH0 DUP2 EQ PUSH2 0x595 JUMPI PUSH1 0x1 DUP2 EQ PUSH2 0x5AB JUMPI PUSH2 0x5DD JUMP JUMPDEST PUSH1 0xFF NOT DUP4 AND DUP7 MSTORE DUP2 ISZERO ISZERO PUSH1 0x20 MUL DUP7 ADD SWAP4 POP PUSH2 0x5DD JUMP JUMPDEST PUSH2 0x5B4 DUP6 PUSH2 0x553 JUMP JUMPDEST PUSH0 JUMPDEST DUP4 DUP2 LT ISZERO PUSH2 0x5D5 JUMPI DUP2 SLOAD DUP2 DUP10 ADD MSTORE PUSH1 0x1 DUP3 ADD SWAP2 POP PUSH1 0x20 DUP2 ADD SWAP1 POP PUSH2 0x5B6 JUMP JUMPDEST DUP1 DUP9 ADD SWAP6 POP POP POP JUMPDEST POP POP POP SWAP3 SWAP2 POP POP JUMP JUMPDEST PUSH0 PUSH20 0xFFFFFFFFFFFFFFFFFFFFFFFFFFFFFFFFFFFFFFFF DUP3 AND SWAP1 POP SWAP2 SWAP1 POP JUMP JUMPDEST PUSH0 PUSH2 0x60F DUP3 PUSH2 0x5E6 JUMP JUMPDEST SWAP1 POP SWAP2 SWAP1 POP JUMP JUMPDEST PUSH2 0x61F DUP2 PUSH2 0x605 JUMP JUMPDEST DUP3 MSTORE POP POP JUMP JUMPDEST PUSH0 PUSH1 0x60 DUP3 ADD SWAP1 POP DUP2 DUP2 SUB PUSH0 DUP4 ADD MSTORE PUSH2 0x63D DUP2 DUP7 PUSH2 0x565 JUMP JUMPDEST SWAP1 POP DUP2 DUP2 SUB PUSH1 0x20 DUP4 ADD MSTORE PUSH2 0x651 DUP2 DUP6 PUSH2 0x28C JUMP JUMPDEST SWAP1 POP PUSH2 0x660 PUSH1 0x40 DUP4 ADD DUP5 PUSH2 0x616 JUMP JUMPDEST SWAP5 SWAP4 POP POP POP POP JUMP JUMPDEST PUSH0 PUSH1 0x20 PUSH1 0x1F DUP4 ADD DIV SWAP1 POP SWAP2 SWAP1 POP JUMP JUMPDEST PUSH0 DUP3 DUP3 SHL SWAP1 POP SWAP3 SWAP2 POP POP JUMP JUMPDEST PUSH0 PUSH1 0x8 DUP4 MUL PUSH2 0x6B2 PUSH32 0xFFFFFFFFFFFFFFFFFFFFFFFFFFFFFFFFFFFFFFFFFFFFFFFFFFFFFFFFFFFFFFFF DUP3 PUSH2 0x677 JUMP JUMPDEST PUSH2 0x6BC DUP7 DUP4 PUSH2 0x677 JUMP JUMPDEST SWAP6 POP DUP1 NOT DUP5 AND SWAP4 POP DUP1 DUP7 AND DUP5 OR SWAP3 POP POP POP SWAP4 SWAP3 POP POP POP JUMP JUMPDEST PUSH0 DUP2 SWAP1 POP SWAP2 SWAP1 POP JUMP JUMPDEST PUSH0 PUSH2 0x6F7 PUSH2 0x6F2 PUSH2 0x6ED DUP5 PUSH2 0x223 JUMP JUMPDEST PUSH2 0x6D4 JUMP JUMPDEST PUSH2 0x223 JUMP JUMPDEST SWAP1 POP SWAP2 SWAP1 POP JUMP JUMPDEST PUSH0 DUP2 SWAP1 POP SWAP2 SWAP1 POP JUMP JUMPDEST PUSH2 0x710 DUP4 PUSH2 0x6DD JUMP JUMPDEST PUSH2 0x724 PUSH2 0x71C DUP3 PUSH2 0x6FE JUMP JUMPDEST DUP5 DUP5 SLOAD PUSH2 0x683 JUMP JUMPDEST DUP3 SSTORE POP POP POP POP JUMP JUMPDEST PUSH0 PUSH0 SWAP1 POP SWAP1 JUMP JUMPDEST PUSH2 0x73B PUSH2 0x72C JUMP JUMPDEST PUSH2 0x746 DUP2 DUP5 DUP5 PUSH2 0x707 JUMP JUMPDEST POP POP POP JUMP JUMPDEST JUMPDEST DUP2 DUP2 LT ISZERO PUSH2 0x769 JUMPI PUSH2 0x75E PUSH0 DUP3 PUSH2 0x733 JUMP JUMPDEST PUSH1 0x1 DUP2 ADD SWAP1 POP PUSH2 0x74C JUMP JUMPDEST POP POP JUMP JUMPDEST PUSH1 0x1F DUP3 GT ISZERO PUSH2 0x7AE JUMPI PUSH2 0x77F DUP2 PUSH2 0x553 JUMP JUMPDEST PUSH2 0x788 DUP5 PUSH2 0x668 JUMP JUMPDEST DUP2 ADD PUSH1 0x20 DUP6 LT ISZERO PUSH2 0x797 JUMPI DUP2 SWAP1 POP JUMPDEST PUSH2 0x7AB PUSH2 0x7A3 DUP6 PUSH2 0x668 JUMP JUMPDEST DUP4 ADD DUP3 PUSH2 0x74B JUMP JUMPDEST POP POP JUMPDEST POP POP POP JUMP JUMPDEST PUSH0 DUP3 DUP3 SHR SWAP1 POP SWAP3 SWAP2 POP POP JUMP JUMPDEST PUSH0 PUSH2 0x7CE PUSH0 NOT DUP5 PUSH1 0x8 MUL PUSH2 0x7B3 JUMP JUMPDEST NOT DUP1 DUP4 AND SWAP2 POP POP SWAP3 SWAP2 POP POP JUMP JUMPDEST PUSH0 PUSH2 0x7E6 DUP4 DUP4 PUSH2 0x7BF JUMP JUMPDEST SWAP2 POP DUP3 PUSH1 0x2 MUL DUP3 OR SWAP1 POP SWAP3 SWAP2 POP POP JUMP JUMPDEST PUSH2 0x7FF DUP3 PUSH2 0x254 JUMP JUMPDEST PUSH8 0xFFFFFFFFFFFFFFFF DUP2 GT ISZERO PUSH2 0x818 JUMPI PUSH2 0x817 PUSH2 0x2FD JUMP JUMPDEST JUMPDEST PUSH2 0x822 DUP3 SLOAD PUSH2 0x495 JUMP JUMPDEST PUSH2 0x82D DUP3 DUP3 DUP6 PUSH2 0x76D JUMP JUMPDEST PUSH0 PUSH1 0x20 SWAP1 POP PUSH1 0x1F DUP4 GT PUSH1 0x1 DUP2 EQ PUSH2 0x85E JUMPI PUSH0 DUP5 ISZERO PUSH2 0x84C JUMPI DUP3 DUP8 ADD MLOAD SWAP1 POP JUMPDEST PUSH2 0x856 DUP6 DUP3 PUSH2 0x7DB JUMP JUMPDEST DUP7 SSTORE POP PUSH2 0x8BD JUMP JUMPDEST PUSH1 0x1F NOT DUP5 AND PUSH2 0x86C DUP7 PUSH2 0x553 JUMP JUMPDEST PUSH0 JUMPDEST DUP3 DUP2 LT ISZERO PUSH2 0x893 JUMPI DUP5 DUP10 ADD MLOAD DUP3 SSTORE PUSH1 0x1 DUP3 ADD SWAP2 POP PUSH1 0x20 DUP6 ADD SWAP5 POP PUSH1 0x20 DUP2 ADD SWAP1 POP PUSH2 0x86E JUMP JUMPDEST DUP7 DUP4 LT ISZERO PUSH2 0x8B0 JUMPI DUP5 DUP10 ADD MLOAD PUSH2 0x8AC PUSH1 0x1F DUP10 AND DUP3 PUSH2 0x7BF JUMP JUMPDEST DUP4 SSTORE POP JUMPDEST PUSH1 0x1 PUSH1 0x2 DUP9 MUL ADD DUP9 SSTORE POP POP POP JUMPDEST POP POP POP POP POP POP JUMP JUMPDEST PUSH32 0x4E487B7100000000000000000000000000000000000000000000000000000000 PUSH0 MSTORE PUSH1 0x11 PUSH1 0x4 MSTORE PUSH1 0x24 PUSH0 REVERT JUMPDEST PUSH0 PUSH2 0x8FC DUP3 PUSH2 0x223 JUMP JUMPDEST SWAP2 POP PUSH32 0xFFFFFFFFFFFFFFFFFFFFFFFFFFFFFFFFFFFFFFFFFFFFFFFFFFFFFFFFFFFFFFFF DUP3 SUB PUSH2 0x92E JUMPI PUSH2 0x92D PUSH2 0x8C5 JUMP JUMPDEST JUMPDEST PUSH1 0x1 DUP3 ADD SWAP1 POP SWAP2 SWAP1 POP JUMP INVALID LOG2 PUSH5 0x6970667358 0x22 SLT KECCAK256 0xC1 0xE8 0xCC SWAP1 0xDF PUSH29 0xF6C3FE47487F2DF61C73AD92F2326F7088299F0D5CC811F36D2064736F PUSH13 0x634300081E0033000000000000 "
		},
		"gasEstimates": {
			"creation": {
				"codeDepositCost": "483000",
				"executionCost": "infinite",
				"totalCost": "infinite"
			},
			"external": {
				"countChanges()": "2403",
				"getInfo()": "infinite",
				"setInfo(string)": "infinite"
			}
		},
		"methodIdentifiers": {
			"countChanges()": "2af2bc27",
			"getInfo()": "5a9b0b89",
			"setInfo(string)": "937f6e77"
		}
	},
	"abi": [
		{
			"inputs": [],
			"stateMutability": "nonpayable",
			"type": "constructor"
		},
		{
			"anonymous": false,
			"inputs": [
				{
					"indexed": false,
					"internalType": "string",
					"name": "oldInfo",
					"type": "string"
				},
				{
					"indexed": false,
					"internalType": "string",
					"name": "newInfo",
					"type": "string"
				},
				{
					"indexed": false,
					"internalType": "address",
					"name": "account",
					"type": "address"
				}
			],
			"name": "infoChanged",
			"type": "event"
		},
		{
			"inputs": [],
			"name": "countChanges",
			"outputs": [
				{
					"internalType": "uint256",
					"name": "",
					"type": "uint256"
				}
			],
			"stateMutability": "view",
			"type": "function"
		},
		{
			"inputs": [],
			"name": "getInfo",
			"outputs": [
				{
					"internalType": "string",
					"name": "",
					"type": "string"
				}
			],
			"stateMutability": "view",
			"type": "function"
		},
		{
			"inputs": [
				{
					"internalType": "string",
					"name": "myInfo",
					"type": "string"
				}
			],
			"name": "setInfo",
			"outputs": [],
			"stateMutability": "nonpayable",
			"type": "function"
		}
	]
}